{"contracts/ethregistrar/StaticBulkRenewal.sol":{"StaticBulkRenewal":{"abi":[{"inputs":[{"internalType":"contract ETHRegistrarController","name":"_controller","type":"address"}],"stateMutability":"nonpayable","type":"constructor"},{"inputs":[{"internalType":"string[]","name":"names","type":"string[]"},{"internalType":"uint256","name":"duration","type":"uint256"}],"name":"renewAll","outputs":[],"stateMutability":"payable","type":"function"},{"inputs":[{"internalType":"string[]","name":"names","type":"string[]"},{"internalType":"uint256","name":"duration","type":"uint256"},{"internalType":"address","name":"user","type":"address"}],"name":"rentPrice","outputs":[{"internalType":"uint256","name":"total","type":"uint256"}],"stateMutability":"view","type":"function"},{"inputs":[{"internalType":"bytes4","name":"interfaceID","type":"bytes4"}],"name":"supportsInterface","outputs":[{"internalType":"bool","name":"","type":"bool"}],"stateMutability":"pure","type":"function"}],"devdoc":{"kind":"dev","methods":{},"version":1},"evm":{"bytecode":{"linkReferences":{},"object":"608060405234801561001057600080fd5b5060405161074938038061074983398101604081905261002f91610054565b600080546001600160a01b0319166001600160a01b0392909216919091179055610084565b60006020828403121561006657600080fd5b81516001600160a01b038116811461007d57600080fd5b9392505050565b6106b6806100936000396000f3fe6080604052600436106100345760003560e01c806301ffc9a714610039578063591ebfb41461006e578063e8d6dbb41461009c575b600080fd5b34801561004557600080fd5b506100596100543660046103be565b6100b1565b60405190151581526020015b60405180910390f35b34801561007a57600080fd5b5061008e610089366004610453565b61014a565b604051908152602001610065565b6100af6100aa3660046104cb565b61021b565b005b60007fffffffff0000000000000000000000000000000000000000000000000000000082167f01ffc9a700000000000000000000000000000000000000000000000000000000148061014457507fffffffff0000000000000000000000000000000000000000000000000000000082167fb1c8640000000000000000000000000000000000000000000000000000000000145b92915050565b600083815b81811015610211576000805473ffffffffffffffffffffffffffffffffffffffff166344d31f0689898581811061018857610188610517565b905060200281019061019a919061052d565b89896040518563ffffffff1660e01b81526004016101bb949392919061059d565b6040805180830381865afa1580156101d7573d6000803e3d6000fd5b505050506040513d601f19601f820116820180604052508101906101fb91906105de565b602081015190510193909301925060010161014f565b5050949350505050565b816000805b82811015610389576000805473ffffffffffffffffffffffffffffffffffffffff166344d31f0688888581811061025957610259610517565b905060200281019061026b919061052d565b88336040518563ffffffff1660e01b815260040161028c949392919061059d565b6040805180830381865afa1580156102a8573d6000803e3d6000fd5b505050506040513d601f19601f820116820180604052508101906102cc91906105de565b90506000816020015182600001516102e4919061063b565b60005490915073ffffffffffffffffffffffffffffffffffffffff1663acf1a841828a8a8781811061031857610318610517565b905060200281019061032a919061052d565b8a6040518563ffffffff1660e01b81526004016103499392919061065c565b6000604051808303818588803b15801561036257600080fd5b505af1158015610376573d6000803e3d6000fd5b5050509190940193505050600101610220565b5060405133904780156108fc02916000818181858888f193505050501580156103b6573d6000803e3d6000fd5b505050505050565b6000602082840312156103d057600080fd5b81357fffffffff000000000000000000000000000000000000000000000000000000008116811461040057600080fd5b9392505050565b60008083601f84011261041957600080fd5b50813567ffffffffffffffff81111561043157600080fd5b6020830191508360208260051b850101111561044c57600080fd5b9250929050565b6000806000806060858703121561046957600080fd5b843567ffffffffffffffff81111561048057600080fd5b61048c87828801610407565b90955093505060208501359150604085013573ffffffffffffffffffffffffffffffffffffffff811681146104c057600080fd5b939692955090935050565b6000806000604084860312156104e057600080fd5b833567ffffffffffffffff8111156104f757600080fd5b61050386828701610407565b909790965060209590950135949350505050565b634e487b7160e01b600052603260045260246000fd5b6000808335601e1984360301811261054457600080fd5b83018035915067ffffffffffffffff82111561055f57600080fd5b60200191503681900382131561044c57600080fd5b81835281816020850137506000828201602090810191909152601f909101601f19169091010190565b6060815260006105b1606083018688610574565b905083602083015273ffffffffffffffffffffffffffffffffffffffff8316604083015295945050505050565b6000604082840312156105f057600080fd5b6040516040810181811067ffffffffffffffff8211171561062157634e487b7160e01b600052604160045260246000fd5b604052825181526020928301519281019290925250919050565b8082018082111561014457634e487b7160e01b600052601160045260246000fd5b604081526000610670604083018587610574565b905082602083015294935050505056fea2646970667358221220032b549c9eaa29b4e73482b08816ec8a87918097dd404c9f51bf7a653a6ee5fb64736f6c63430008110033","opcodes":"PUSH1 0x80 PUSH1 0x40 MSTORE CALLVALUE DUP1 ISZERO PUSH2 0x10 JUMPI PUSH1 0x0 DUP1 REVERT JUMPDEST POP PUSH1 0x40 MLOAD PUSH2 0x749 CODESIZE SUB DUP1 PUSH2 0x749 DUP4 CODECOPY DUP2 ADD PUSH1 0x40 DUP2 SWAP1 MSTORE PUSH2 0x2F SWAP2 PUSH2 0x54 JUMP JUMPDEST PUSH1 0x0 DUP1 SLOAD PUSH1 0x1 PUSH1 0x1 PUSH1 0xA0 SHL SUB NOT AND PUSH1 0x1 PUSH1 0x1 PUSH1 0xA0 SHL SUB SWAP3 SWAP1 SWAP3 AND SWAP2 SWAP1 SWAP2 OR SWAP1 SSTORE PUSH2 0x84 JUMP JUMPDEST PUSH1 0x0 PUSH1 0x20 DUP3 DUP5 SUB SLT ISZERO PUSH2 0x66 JUMPI PUSH1 0x0 DUP1 REVERT JUMPDEST DUP2 MLOAD PUSH1 0x1 PUSH1 0x1 PUSH1 0xA0 SHL SUB DUP2 AND DUP2 EQ PUSH2 0x7D JUMPI PUSH1 0x0 DUP1 REVERT JUMPDEST SWAP4 SWAP3 POP POP POP JUMP JUMPDEST PUSH2 0x6B6 DUP1 PUSH2 0x93 PUSH1 0x0 CODECOPY PUSH1 0x0 RETURN INVALID PUSH1 0x80 PUSH1 0x40 MSTORE PUSH1 0x4 CALLDATASIZE LT PUSH2 0x34 JUMPI PUSH1 0x0 CALLDATALOAD PUSH1 0xE0 SHR DUP1 PUSH4 0x1FFC9A7 EQ PUSH2 0x39 JUMPI DUP1 PUSH4 0x591EBFB4 EQ PUSH2 0x6E JUMPI DUP1 PUSH4 0xE8D6DBB4 EQ PUSH2 0x9C JUMPI JUMPDEST PUSH1 0x0 DUP1 REVERT JUMPDEST CALLVALUE DUP1 ISZERO PUSH2 0x45 JUMPI PUSH1 0x0 DUP1 REVERT JUMPDEST POP PUSH2 0x59 PUSH2 0x54 CALLDATASIZE PUSH1 0x4 PUSH2 0x3BE JUMP JUMPDEST PUSH2 0xB1 JUMP JUMPDEST PUSH1 0x40 MLOAD SWAP1 ISZERO ISZERO DUP2 MSTORE PUSH1 0x20 ADD JUMPDEST PUSH1 0x40 MLOAD DUP1 SWAP2 SUB SWAP1 RETURN JUMPDEST CALLVALUE DUP1 ISZERO PUSH2 0x7A JUMPI PUSH1 0x0 DUP1 REVERT JUMPDEST POP PUSH2 0x8E PUSH2 0x89 CALLDATASIZE PUSH1 0x4 PUSH2 0x453 JUMP JUMPDEST PUSH2 0x14A JUMP JUMPDEST PUSH1 0x40 MLOAD SWAP1 DUP2 MSTORE PUSH1 0x20 ADD PUSH2 0x65 JUMP JUMPDEST PUSH2 0xAF PUSH2 0xAA CALLDATASIZE PUSH1 0x4 PUSH2 0x4CB JUMP JUMPDEST PUSH2 0x21B JUMP JUMPDEST STOP JUMPDEST PUSH1 0x0 PUSH32 0xFFFFFFFF00000000000000000000000000000000000000000000000000000000 DUP3 AND PUSH32 0x1FFC9A700000000000000000000000000000000000000000000000000000000 EQ DUP1 PUSH2 0x144 JUMPI POP PUSH32 0xFFFFFFFF00000000000000000000000000000000000000000000000000000000 DUP3 AND PUSH32 0xB1C8640000000000000000000000000000000000000000000000000000000000 EQ JUMPDEST SWAP3 SWAP2 POP POP JUMP JUMPDEST PUSH1 0x0 DUP4 DUP2 JUMPDEST DUP2 DUP2 LT ISZERO PUSH2 0x211 JUMPI PUSH1 0x0 DUP1 SLOAD PUSH20 0xFFFFFFFFFFFFFFFFFFFFFFFFFFFFFFFFFFFFFFFF AND PUSH4 0x44D31F06 DUP10 DUP10 DUP6 DUP2 DUP2 LT PUSH2 0x188 JUMPI PUSH2 0x188 PUSH2 0x517 JUMP JUMPDEST SWAP1 POP PUSH1 0x20 MUL DUP2 ADD SWAP1 PUSH2 0x19A SWAP2 SWAP1 PUSH2 0x52D JUMP JUMPDEST DUP10 DUP10 PUSH1 0x40 MLOAD DUP6 PUSH4 0xFFFFFFFF AND PUSH1 0xE0 SHL DUP2 MSTORE PUSH1 0x4 ADD PUSH2 0x1BB SWAP5 SWAP4 SWAP3 SWAP2 SWAP1 PUSH2 0x59D JUMP JUMPDEST PUSH1 0x40 DUP1 MLOAD DUP1 DUP4 SUB DUP2 DUP7 GAS STATICCALL ISZERO DUP1 ISZERO PUSH2 0x1D7 JUMPI RETURNDATASIZE PUSH1 0x0 DUP1 RETURNDATACOPY RETURNDATASIZE PUSH1 0x0 REVERT JUMPDEST POP POP POP POP PUSH1 0x40 MLOAD RETURNDATASIZE PUSH1 0x1F NOT PUSH1 0x1F DUP3 ADD AND DUP3 ADD DUP1 PUSH1 0x40 MSTORE POP DUP2 ADD SWAP1 PUSH2 0x1FB SWAP2 SWAP1 PUSH2 0x5DE JUMP JUMPDEST PUSH1 0x20 DUP2 ADD MLOAD SWAP1 MLOAD ADD SWAP4 SWAP1 SWAP4 ADD SWAP3 POP PUSH1 0x1 ADD PUSH2 0x14F JUMP JUMPDEST POP POP SWAP5 SWAP4 POP POP POP POP JUMP JUMPDEST DUP2 PUSH1 0x0 DUP1 JUMPDEST DUP3 DUP2 LT ISZERO PUSH2 0x389 JUMPI PUSH1 0x0 DUP1 SLOAD PUSH20 0xFFFFFFFFFFFFFFFFFFFFFFFFFFFFFFFFFFFFFFFF AND PUSH4 0x44D31F06 DUP9 DUP9 DUP6 DUP2 DUP2 LT PUSH2 0x259 JUMPI PUSH2 0x259 PUSH2 0x517 JUMP JUMPDEST SWAP1 POP PUSH1 0x20 MUL DUP2 ADD SWAP1 PUSH2 0x26B SWAP2 SWAP1 PUSH2 0x52D JUMP JUMPDEST DUP9 CALLER PUSH1 0x40 MLOAD DUP6 PUSH4 0xFFFFFFFF AND PUSH1 0xE0 SHL DUP2 MSTORE PUSH1 0x4 ADD PUSH2 0x28C SWAP5 SWAP4 SWAP3 SWAP2 SWAP1 PUSH2 0x59D JUMP JUMPDEST PUSH1 0x40 DUP1 MLOAD DUP1 DUP4 SUB DUP2 DUP7 GAS STATICCALL ISZERO DUP1 ISZERO PUSH2 0x2A8 JUMPI RETURNDATASIZE PUSH1 0x0 DUP1 RETURNDATACOPY RETURNDATASIZE PUSH1 0x0 REVERT JUMPDEST POP POP POP POP PUSH1 0x40 MLOAD RETURNDATASIZE PUSH1 0x1F NOT PUSH1 0x1F DUP3 ADD AND DUP3 ADD DUP1 PUSH1 0x40 MSTORE POP DUP2 ADD SWAP1 PUSH2 0x2CC SWAP2 SWAP1 PUSH2 0x5DE JUMP JUMPDEST SWAP1 POP PUSH1 0x0 DUP2 PUSH1 0x20 ADD MLOAD DUP3 PUSH1 0x0 ADD MLOAD PUSH2 0x2E4 SWAP2 SWAP1 PUSH2 0x63B JUMP JUMPDEST PUSH1 0x0 SLOAD SWAP1 SWAP2 POP PUSH20 0xFFFFFFFFFFFFFFFFFFFFFFFFFFFFFFFFFFFFFFFF AND PUSH4 0xACF1A841 DUP3 DUP11 DUP11 DUP8 DUP2 DUP2 LT PUSH2 0x318 JUMPI PUSH2 0x318 PUSH2 0x517 JUMP JUMPDEST SWAP1 POP PUSH1 0x20 MUL DUP2 ADD SWAP1 PUSH2 0x32A SWAP2 SWAP1 PUSH2 0x52D JUMP JUMPDEST DUP11 PUSH1 0x40 MLOAD DUP6 PUSH4 0xFFFFFFFF AND PUSH1 0xE0 SHL DUP2 MSTORE PUSH1 0x4 ADD PUSH2 0x349 SWAP4 SWAP3 SWAP2 SWAP1 PUSH2 0x65C JUMP JUMPDEST PUSH1 0x0 PUSH1 0x40 MLOAD DUP1 DUP4 SUB DUP2 DUP6 DUP9 DUP1 EXTCODESIZE ISZERO DUP1 ISZERO PUSH2 0x362 JUMPI PUSH1 0x0 DUP1 REVERT JUMPDEST POP GAS CALL ISZERO DUP1 ISZERO PUSH2 0x376 JUMPI RETURNDATASIZE PUSH1 0x0 DUP1 RETURNDATACOPY RETURNDATASIZE PUSH1 0x0 REVERT JUMPDEST POP POP POP SWAP2 SWAP1 SWAP5 ADD SWAP4 POP POP POP PUSH1 0x1 ADD PUSH2 0x220 JUMP JUMPDEST POP PUSH1 0x40 MLOAD CALLER SWAP1 SELFBALANCE DUP1 ISZERO PUSH2 0x8FC MUL SWAP2 PUSH1 0x0 DUP2 DUP2 DUP2 DUP6 DUP9 DUP9 CALL SWAP4 POP POP POP POP ISZERO DUP1 ISZERO PUSH2 0x3B6 JUMPI RETURNDATASIZE PUSH1 0x0 DUP1 RETURNDATACOPY RETURNDATASIZE PUSH1 0x0 REVERT JUMPDEST POP POP POP POP POP POP JUMP JUMPDEST PUSH1 0x0 PUSH1 0x20 DUP3 DUP5 SUB SLT ISZERO PUSH2 0x3D0 JUMPI PUSH1 0x0 DUP1 REVERT JUMPDEST DUP2 CALLDATALOAD PUSH32 0xFFFFFFFF00000000000000000000000000000000000000000000000000000000 DUP2 AND DUP2 EQ PUSH2 0x400 JUMPI PUSH1 0x0 DUP1 REVERT JUMPDEST SWAP4 SWAP3 POP POP POP JUMP JUMPDEST PUSH1 0x0 DUP1 DUP4 PUSH1 0x1F DUP5 ADD SLT PUSH2 0x419 JUMPI PUSH1 0x0 DUP1 REVERT JUMPDEST POP DUP2 CALLDATALOAD PUSH8 0xFFFFFFFFFFFFFFFF DUP2 GT ISZERO PUSH2 0x431 JUMPI PUSH1 0x0 DUP1 REVERT JUMPDEST PUSH1 0x20 DUP4 ADD SWAP2 POP DUP4 PUSH1 0x20 DUP3 PUSH1 0x5 SHL DUP6 ADD ADD GT ISZERO PUSH2 0x44C JUMPI PUSH1 0x0 DUP1 REVERT JUMPDEST SWAP3 POP SWAP3 SWAP1 POP JUMP JUMPDEST PUSH1 0x0 DUP1 PUSH1 0x0 DUP1 PUSH1 0x60 DUP6 DUP8 SUB SLT ISZERO PUSH2 0x469 JUMPI PUSH1 0x0 DUP1 REVERT JUMPDEST DUP5 CALLDATALOAD PUSH8 0xFFFFFFFFFFFFFFFF DUP2 GT ISZERO PUSH2 0x480 JUMPI PUSH1 0x0 DUP1 REVERT JUMPDEST PUSH2 0x48C DUP8 DUP3 DUP9 ADD PUSH2 0x407 JUMP JUMPDEST SWAP1 SWAP6 POP SWAP4 POP POP PUSH1 0x20 DUP6 ADD CALLDATALOAD SWAP2 POP PUSH1 0x40 DUP6 ADD CALLDATALOAD PUSH20 0xFFFFFFFFFFFFFFFFFFFFFFFFFFFFFFFFFFFFFFFF DUP2 AND DUP2 EQ PUSH2 0x4C0 JUMPI PUSH1 0x0 DUP1 REVERT JUMPDEST SWAP4 SWAP7 SWAP3 SWAP6 POP SWAP1 SWAP4 POP POP JUMP JUMPDEST PUSH1 0x0 DUP1 PUSH1 0x0 PUSH1 0x40 DUP5 DUP7 SUB SLT ISZERO PUSH2 0x4E0 JUMPI PUSH1 0x0 DUP1 REVERT JUMPDEST DUP4 CALLDATALOAD PUSH8 0xFFFFFFFFFFFFFFFF DUP2 GT ISZERO PUSH2 0x4F7 JUMPI PUSH1 0x0 DUP1 REVERT JUMPDEST PUSH2 0x503 DUP7 DUP3 DUP8 ADD PUSH2 0x407 JUMP JUMPDEST SWAP1 SWAP8 SWAP1 SWAP7 POP PUSH1 0x20 SWAP6 SWAP1 SWAP6 ADD CALLDATALOAD SWAP5 SWAP4 POP POP POP POP JUMP JUMPDEST PUSH4 0x4E487B71 PUSH1 0xE0 SHL PUSH1 0x0 MSTORE PUSH1 0x32 PUSH1 0x4 MSTORE PUSH1 0x24 PUSH1 0x0 REVERT JUMPDEST PUSH1 0x0 DUP1 DUP4 CALLDATALOAD PUSH1 0x1E NOT DUP5 CALLDATASIZE SUB ADD DUP2 SLT PUSH2 0x544 JUMPI PUSH1 0x0 DUP1 REVERT JUMPDEST DUP4 ADD DUP1 CALLDATALOAD SWAP2 POP PUSH8 0xFFFFFFFFFFFFFFFF DUP3 GT ISZERO PUSH2 0x55F JUMPI PUSH1 0x0 DUP1 REVERT JUMPDEST PUSH1 0x20 ADD SWAP2 POP CALLDATASIZE DUP2 SWAP1 SUB DUP3 SGT ISZERO PUSH2 0x44C JUMPI PUSH1 0x0 DUP1 REVERT JUMPDEST DUP2 DUP4 MSTORE DUP2 DUP2 PUSH1 0x20 DUP6 ADD CALLDATACOPY POP PUSH1 0x0 DUP3 DUP3 ADD PUSH1 0x20 SWAP1 DUP2 ADD SWAP2 SWAP1 SWAP2 MSTORE PUSH1 0x1F SWAP1 SWAP2 ADD PUSH1 0x1F NOT AND SWAP1 SWAP2 ADD ADD SWAP1 JUMP JUMPDEST PUSH1 0x60 DUP2 MSTORE PUSH1 0x0 PUSH2 0x5B1 PUSH1 0x60 DUP4 ADD DUP7 DUP9 PUSH2 0x574 JUMP JUMPDEST SWAP1 POP DUP4 PUSH1 0x20 DUP4 ADD MSTORE PUSH20 0xFFFFFFFFFFFFFFFFFFFFFFFFFFFFFFFFFFFFFFFF DUP4 AND PUSH1 0x40 DUP4 ADD MSTORE SWAP6 SWAP5 POP POP POP POP POP JUMP JUMPDEST PUSH1 0x0 PUSH1 0x40 DUP3 DUP5 SUB SLT ISZERO PUSH2 0x5F0 JUMPI PUSH1 0x0 DUP1 REVERT JUMPDEST PUSH1 0x40 MLOAD PUSH1 0x40 DUP2 ADD DUP2 DUP2 LT PUSH8 0xFFFFFFFFFFFFFFFF DUP3 GT OR ISZERO PUSH2 0x621 JUMPI PUSH4 0x4E487B71 PUSH1 0xE0 SHL PUSH1 0x0 MSTORE PUSH1 0x41 PUSH1 0x4 MSTORE PUSH1 0x24 PUSH1 0x0 REVERT JUMPDEST PUSH1 0x40 MSTORE DUP3 MLOAD DUP2 MSTORE PUSH1 0x20 SWAP3 DUP4 ADD MLOAD SWAP3 DUP2 ADD SWAP3 SWAP1 SWAP3 MSTORE POP SWAP2 SWAP1 POP JUMP JUMPDEST DUP1 DUP3 ADD DUP1 DUP3 GT ISZERO PUSH2 0x144 JUMPI PUSH4 0x4E487B71 PUSH1 0xE0 SHL PUSH1 0x0 MSTORE PUSH1 0x11 PUSH1 0x4 MSTORE PUSH1 0x24 PUSH1 0x0 REVERT JUMPDEST PUSH1 0x40 DUP2 MSTORE PUSH1 0x0 PUSH2 0x670 PUSH1 0x40 DUP4 ADD DUP6 DUP8 PUSH2 0x574 JUMP JUMPDEST SWAP1 POP DUP3 PUSH1 0x20 DUP4 ADD MSTORE SWAP5 SWAP4 POP POP POP POP JUMP INVALID LOG2 PUSH5 0x6970667358 0x22 SLT KECCAK256 SUB 0x2B SLOAD SWAP13 SWAP15 0xAA 0x29 0xB4 0xE7 CALLVALUE DUP3 0xB0 DUP9 AND 0xEC DUP11 DUP8 SWAP2 DUP1 SWAP8 0xDD BLOCKHASH 0x4C SWAP16 MLOAD 0xBF PUSH27 0x653A6EE5FB64736F6C634300081100330000000000000000000000 "},"gasEstimates":{"creation":{"codeDepositCost":"343600","executionCost":"infinite","totalCost":"infinite"},"external":{"renewAll(string[],uint256)":"infinite","rentPrice(string[],uint256,address)":"infinite","supportsInterface(bytes4)":"347"}},"methodIdentifiers":{"renewAll(string[],uint256)":"e8d6dbb4","rentPrice(string[],uint256,address)":"591ebfb4","supportsInterface(bytes4)":"01ffc9a7"}},"storageLayout":{"storage":[{"astId":4792,"contract":"contracts/ethregistrar/StaticBulkRenewal.sol:StaticBulkRenewal","label":"controller","offset":0,"slot":"0","type":"t_contract(ETHRegistrarController)4564"}],"types":{"t_contract(ETHRegistrarController)4564":{"encoding":"inplace","label":"contract ETHRegistrarController","numberOfBytes":"20"}}},"userdoc":{"kind":"user","methods":{},"version":1}}}}