{
  "_format": "hh-sol-artifact-1",
  "contractName": "StaticBulkRenewal",
  "sourceName": "contracts/ethregistrar/StaticBulkRenewal.sol",
  "abi": [
    {
      "inputs": [
        {
          "internalType": "contract ETHRegistrarController",
          "name": "_controller",
          "type": "address"
        }
      ],
      "stateMutability": "nonpayable",
      "type": "constructor"
    },
    {
      "inputs": [
        {
          "internalType": "string[]",
          "name": "names",
          "type": "string[]"
        },
        {
          "internalType": "uint256",
          "name": "duration",
          "type": "uint256"
        }
      ],
      "name": "renewAll",
      "outputs": [],
      "stateMutability": "payable",
      "type": "function"
    },
    {
      "inputs": [
        {
          "internalType": "string[]",
          "name": "names",
          "type": "string[]"
        },
        {
          "internalType": "uint256",
          "name": "duration",
          "type": "uint256"
        },
        {
          "internalType": "address",
          "name": "user",
          "type": "address"
        }
      ],
      "name": "rentPrice",
      "outputs": [
        {
          "internalType": "uint256",
          "name": "total",
          "type": "uint256"
        }
      ],
      "stateMutability": "view",
      "type": "function"
    },
    {
      "inputs": [
        {
          "internalType": "bytes4",
          "name": "interfaceID",
          "type": "bytes4"
        }
      ],
      "name": "supportsInterface",
      "outputs": [
        {
          "internalType": "bool",
          "name": "",
          "type": "bool"
        }
      ],
      "stateMutability": "pure",
      "type": "function"
    }
  ],
  "bytecode": "0x608060405234801561001057600080fd5b5060405161074938038061074983398101604081905261002f91610054565b600080546001600160a01b0319166001600160a01b0392909216919091179055610084565b60006020828403121561006657600080fd5b81516001600160a01b038116811461007d57600080fd5b9392505050565b6106b6806100936000396000f3fe6080604052600436106100345760003560e01c806301ffc9a714610039578063591ebfb41461006e578063e8d6dbb41461009c575b600080fd5b34801561004557600080fd5b506100596100543660046103be565b6100b1565b60405190151581526020015b60405180910390f35b34801561007a57600080fd5b5061008e610089366004610453565b61014a565b604051908152602001610065565b6100af6100aa3660046104cb565b61021b565b005b60007fffffffff0000000000000000000000000000000000000000000000000000000082167f01ffc9a700000000000000000000000000000000000000000000000000000000148061014457507fffffffff0000000000000000000000000000000000000000000000000000000082167fb1c8640000000000000000000000000000000000000000000000000000000000145b92915050565b600083815b81811015610211576000805473ffffffffffffffffffffffffffffffffffffffff166344d31f0689898581811061018857610188610517565b905060200281019061019a919061052d565b89896040518563ffffffff1660e01b81526004016101bb949392919061059d565b6040805180830381865afa1580156101d7573d6000803e3d6000fd5b505050506040513d601f19601f820116820180604052508101906101fb91906105de565b602081015190510193909301925060010161014f565b5050949350505050565b816000805b82811015610389576000805473ffffffffffffffffffffffffffffffffffffffff166344d31f0688888581811061025957610259610517565b905060200281019061026b919061052d565b88336040518563ffffffff1660e01b815260040161028c949392919061059d565b6040805180830381865afa1580156102a8573d6000803e3d6000fd5b505050506040513d601f19601f820116820180604052508101906102cc91906105de565b90506000816020015182600001516102e4919061063b565b60005490915073ffffffffffffffffffffffffffffffffffffffff1663acf1a841828a8a8781811061031857610318610517565b905060200281019061032a919061052d565b8a6040518563ffffffff1660e01b81526004016103499392919061065c565b6000604051808303818588803b15801561036257600080fd5b505af1158015610376573d6000803e3d6000fd5b5050509190940193505050600101610220565b5060405133904780156108fc02916000818181858888f193505050501580156103b6573d6000803e3d6000fd5b505050505050565b6000602082840312156103d057600080fd5b81357fffffffff000000000000000000000000000000000000000000000000000000008116811461040057600080fd5b9392505050565b60008083601f84011261041957600080fd5b50813567ffffffffffffffff81111561043157600080fd5b6020830191508360208260051b850101111561044c57600080fd5b9250929050565b6000806000806060858703121561046957600080fd5b843567ffffffffffffffff81111561048057600080fd5b61048c87828801610407565b90955093505060208501359150604085013573ffffffffffffffffffffffffffffffffffffffff811681146104c057600080fd5b939692955090935050565b6000806000604084860312156104e057600080fd5b833567ffffffffffffffff8111156104f757600080fd5b61050386828701610407565b909790965060209590950135949350505050565b634e487b7160e01b600052603260045260246000fd5b6000808335601e1984360301811261054457600080fd5b83018035915067ffffffffffffffff82111561055f57600080fd5b60200191503681900382131561044c57600080fd5b81835281816020850137506000828201602090810191909152601f909101601f19169091010190565b6060815260006105b1606083018688610574565b905083602083015273ffffffffffffffffffffffffffffffffffffffff8316604083015295945050505050565b6000604082840312156105f057600080fd5b6040516040810181811067ffffffffffffffff8211171561062157634e487b7160e01b600052604160045260246000fd5b604052825181526020928301519281019290925250919050565b8082018082111561014457634e487b7160e01b600052601160045260246000fd5b604081526000610670604083018587610574565b905082602083015294935050505056fea2646970667358221220032b549c9eaa29b4e73482b08816ec8a87918097dd404c9f51bf7a653a6ee5fb64736f6c63430008110033",
  "linkReferences": {},
  "deployedLinkReferences": {}
}