{
  "_format": "hh-sol-artifact-1",
  "contractName": "StaticMetadataService",
  "sourceName": "contracts/wrapper/StaticMetadataService.sol",
  "abi": [
    {
      "inputs": [
        {
          "internalType": "string",
          "name": "_metaDataUri",
          "type": "string"
        }
      ],
      "stateMutability": "nonpayable",
      "type": "constructor"
    },
    {
      "inputs": [],
      "name": "_uri",
      "outputs": [
        {
          "internalType": "string",
          "name": "",
          "type": "string"
        }
      ],
      "stateMutability": "view",
      "type": "function"
    },
    {
      "inputs": [
        {
          "internalType": "address",
          "name": "_addr",
          "type": "address"
        }
      ],
      "name": "addressToString",
      "outputs": [
        {
          "internalType": "string",
          "name": "",
          "type": "string"
        }
      ],
      "stateMutability": "pure",
      "type": "function"
    },
    {
      "inputs": [
        {
          "internalType": "address",
          "name": "nft",
          "type": "address"
        },
        {
          "internalType": "uint256",
          "name": "tokenId",
          "type": "uint256"
        }
      ],
      "name": "uri",
      "outputs": [
        {
          "internalType": "string",
          "name": "",
          "type": "string"
        }
      ],
      "stateMutability": "view",
      "type": "function"
    }
  ],
  "bytecode": "0x60806040523480156200001157600080fd5b5060405162000aa438038062000aa4833981016040819052620000349162000060565b6000620000428282620001c4565b505062000290565b634e487b7160e01b600052604160045260246000fd5b600060208083850312156200007457600080fd5b82516001600160401b03808211156200008c57600080fd5b818501915085601f830112620000a157600080fd5b815181811115620000b657620000b66200004a565b604051601f8201601f19908116603f01168101908382118183101715620000e157620000e16200004a565b816040528281528886848701011115620000fa57600080fd5b600093505b828410156200011e5784840186015181850187015292850192620000ff565b600086848301015280965050505050505092915050565b600181811c908216806200014a57607f821691505b6020821081036200016b57634e487b7160e01b600052602260045260246000fd5b50919050565b601f821115620001bf57600081815260208120601f850160051c810160208610156200019a5750805b601f850160051c820191505b81811015620001bb57828155600101620001a6565b5050505b505050565b81516001600160401b03811115620001e057620001e06200004a565b620001f881620001f1845462000135565b8462000171565b602080601f831160018114620002305760008415620002175750858301515b600019600386901b1c1916600185901b178555620001bb565b600085815260208120601f198616915b82811015620002615788860151825594840194600190910190840162000240565b5085821015620002805787850151600019600388901b60f8161c191681555b5050505050600190811b01905550565b61080480620002a06000396000f3fe608060405234801561001057600080fd5b50600436106100415760003560e01c80630dccc9ad1461004657806328205a93146100645780635e57966d14610077575b600080fd5b61004e61008a565b60405161005b919061056b565b60405180910390f35b61004e6100723660046105c7565b610118565b61004e6100853660046105f1565b610158565b6000805461009790610613565b80601f01602080910402602001604051908101604052809291908181526020018280546100c390610613565b80156101105780601f106100e557610100808354040283529160200191610110565b820191906000526020600020905b8154815290600101906020018083116100f357829003601f168201915b505050505081565b6060600061012584610158565b61012e846103c5565b60405160200161014093929190610669565b60405160208183030381529060405290505b92915050565b604080518082018252601081527f3031323334353637383961626364656600000000000000000000000000000000602082015281516033808252606082810190945273ffffffffffffffffffffffffffffffffffffffff851692916000916020820181803683370190505090507f3000000000000000000000000000000000000000000000000000000000000000816000815181106101f9576101f961075f565b60200101906001600160f81b031916908160001a9053507f7800000000000000000000000000000000000000000000000000000000000000816001815181106102445761024461075f565b60200101906001600160f81b031916908160001a90535060005b60148110156103bc578260048561027684600c61078b565b602081106102865761028661075f565b1a60f81b6001600160f81b031916901c60f81c60ff16815181106102ac576102ac61075f565b01602001517fff0000000000000000000000000000000000000000000000000000000000000016826102df83600261079e565b6102ea90600261078b565b815181106102fa576102fa61075f565b60200101906001600160f81b031916908160001a905350828461031e83600c61078b565b6020811061032e5761032e61075f565b825191901a600f169081106103455761034561075f565b01602001517fff00000000000000000000000000000000000000000000000000000000000000168261037883600261079e565b61038390600361078b565b815181106103935761039361075f565b60200101906001600160f81b031916908160001a905350806103b4816107b5565b91505061025e565b50949350505050565b606060006103d283610465565b600101905060008167ffffffffffffffff8111156103f2576103f2610749565b6040519080825280601f01601f19166020018201604052801561041c576020820181803683370190505b5090508181016020015b600019017f3031323334353637383961626364656600000000000000000000000000000000600a86061a8153600a850494508461042657509392505050565b6000807a184f03e93ff9f4daa797ed6e38ed64bf6a1f01000000000000000083106104ae577a184f03e93ff9f4daa797ed6e38ed64bf6a1f010000000000000000830492506040015b6d04ee2d6d415b85acef810000000083106104da576d04ee2d6d415b85acef8100000000830492506020015b662386f26fc1000083106104f857662386f26fc10000830492506010015b6305f5e1008310610510576305f5e100830492506008015b612710831061052457612710830492506004015b60648310610536576064830492506002015b600a83106101525760010192915050565b60005b8381101561056257818101518382015260200161054a565b50506000910152565b602081526000825180602084015261058a816040850160208701610547565b601f01601f19169190910160400192915050565b803573ffffffffffffffffffffffffffffffffffffffff811681146105c257600080fd5b919050565b600080604083850312156105da57600080fd5b6105e38361059e565b946020939093013593505050565b60006020828403121561060357600080fd5b61060c8261059e565b9392505050565b600181811c9082168061062757607f821691505b60208210810361064757634e487b7160e01b600052602260045260246000fd5b50919050565b6000815161065f818560208601610547565b9290920192915050565b600080855481600182811c91508083168061068557607f831692505b602080841082036106a457634e487b7160e01b86526022600452602486fd5b8180156106b857600181146106cd576106fa565b60ff19861689528415158502890196506106fa565b60008c81526020902060005b868110156106f25781548b8201529085019083016106d9565b505084890196505b50505050505061073f610739610710838861064d565b7f2f00000000000000000000000000000000000000000000000000000000000000815260010190565b8561064d565b9695505050505050565b634e487b7160e01b600052604160045260246000fd5b634e487b7160e01b600052603260045260246000fd5b634e487b7160e01b600052601160045260246000fd5b8082018082111561015257610152610775565b808202811582820484141761015257610152610775565b6000600182016107c7576107c7610775565b506001019056fea2646970667358221220bf43fdd340995f87418837a7dc4b2bb614c3bfc367f8df7607a30d43f76dd5a864736f6c63430008110033",
  "linkReferences": {},
  "deployedLinkReferences": {}
}