{
  "_format": "hh-sol-artifact-1",
  "contractName": "StablePriceOracle",
  "sourceName": "contracts/ethregistrar/StablePriceOracle.sol",
  "abi": [
    {
      "inputs": [
        {
          "internalType": "contract AggregatorInterface",
          "name": "_usdOracle",
          "type": "address"
        },
        {
          "internalType": "uint256[]",
          "name": "_rentPrices",
          "type": "uint256[]"
        }
      ],
      "stateMutability": "nonpayable",
      "type": "constructor"
    },
    {
      "anonymous": false,
      "inputs": [
        {
          "indexed": true,
          "internalType": "address",
          "name": "previousOwner",
          "type": "address"
        },
        {
          "indexed": true,
          "internalType": "address",
          "name": "newOwner",
          "type": "address"
        }
      ],
      "name": "OwnershipTransferred",
      "type": "event"
    },
    {
      "anonymous": false,
      "inputs": [
        {
          "indexed": false,
          "internalType": "uint256[]",
          "name": "prices",
          "type": "uint256[]"
        }
      ],
      "name": "RentPriceChanged",
      "type": "event"
    },
    {
      "inputs": [],
      "name": "owner",
      "outputs": [
        {
          "internalType": "address",
          "name": "",
          "type": "address"
        }
      ],
      "stateMutability": "view",
      "type": "function"
    },
    {
      "inputs": [
        {
          "internalType": "string",
          "name": "name",
          "type": "string"
        },
        {
          "internalType": "uint256",
          "name": "expires",
          "type": "uint256"
        },
        {
          "internalType": "uint256",
          "name": "duration",
          "type": "uint256"
        }
      ],
      "name": "premium",
      "outputs": [
        {
          "internalType": "uint256",
          "name": "",
          "type": "uint256"
        }
      ],
      "stateMutability": "view",
      "type": "function"
    },
    {
      "inputs": [
        {
          "internalType": "string",
          "name": "name",
          "type": "string"
        },
        {
          "internalType": "uint256",
          "name": "expires",
          "type": "uint256"
        },
        {
          "internalType": "uint256",
          "name": "duration",
          "type": "uint256"
        },
        {
          "internalType": "address",
          "name": "user",
          "type": "address"
        }
      ],
      "name": "price",
      "outputs": [
        {
          "components": [
            {
              "internalType": "uint256",
              "name": "base",
              "type": "uint256"
            },
            {
              "internalType": "uint256",
              "name": "premium",
              "type": "uint256"
            }
          ],
          "internalType": "struct IPriceOracle.Price",
          "name": "",
          "type": "tuple"
        }
      ],
      "stateMutability": "view",
      "type": "function"
    },
    {
      "inputs": [],
      "name": "price1Letter",
      "outputs": [
        {
          "internalType": "uint256",
          "name": "",
          "type": "uint256"
        }
      ],
      "stateMutability": "view",
      "type": "function"
    },
    {
      "inputs": [],
      "name": "price2Letter",
      "outputs": [
        {
          "internalType": "uint256",
          "name": "",
          "type": "uint256"
        }
      ],
      "stateMutability": "view",
      "type": "function"
    },
    {
      "inputs": [],
      "name": "price3Letter",
      "outputs": [
        {
          "internalType": "uint256",
          "name": "",
          "type": "uint256"
        }
      ],
      "stateMutability": "view",
      "type": "function"
    },
    {
      "inputs": [],
      "name": "price4Letter",
      "outputs": [
        {
          "internalType": "uint256",
          "name": "",
          "type": "uint256"
        }
      ],
      "stateMutability": "view",
      "type": "function"
    },
    {
      "inputs": [],
      "name": "price5Letter",
      "outputs": [
        {
          "internalType": "uint256",
          "name": "",
          "type": "uint256"
        }
      ],
      "stateMutability": "view",
      "type": "function"
    },
    {
      "inputs": [],
      "name": "renounceOwnership",
      "outputs": [],
      "stateMutability": "nonpayable",
      "type": "function"
    },
    {
      "inputs": [
        {
          "internalType": "bytes4",
          "name": "interfaceID",
          "type": "bytes4"
        }
      ],
      "name": "supportsInterface",
      "outputs": [
        {
          "internalType": "bool",
          "name": "",
          "type": "bool"
        }
      ],
      "stateMutability": "view",
      "type": "function"
    },
    {
      "inputs": [
        {
          "internalType": "address",
          "name": "newOwner",
          "type": "address"
        }
      ],
      "name": "transferOwnership",
      "outputs": [],
      "stateMutability": "nonpayable",
      "type": "function"
    },
    {
      "inputs": [],
      "name": "usdOracle",
      "outputs": [
        {
          "internalType": "contract AggregatorInterface",
          "name": "",
          "type": "address"
        }
      ],
      "stateMutability": "view",
      "type": "function"
    }
  ],
  "bytecode": "0x6101406040523480156200001257600080fd5b5060405162000e2438038062000e24833981016040819052620000359162000176565b620000403362000110565b6001600160a01b038216610120528051819060009062000064576200006462000263565b6020026020010151608081815250508060018151811062000089576200008962000263565b602002602001015160a0818152505080600281518110620000ae57620000ae62000263565b602002602001015160c0818152505080600381518110620000d357620000d362000263565b602002602001015160e0818152505080600481518110620000f857620000f862000263565b60200260200101516101008181525050505062000279565b600080546001600160a01b038381166001600160a01b0319831681178455604051919092169283917f8be0079c531659141344cd1fd0a4f28419497f9722a3daafe3b4186f6b6457e09190a35050565b634e487b7160e01b600052604160045260246000fd5b600080604083850312156200018a57600080fd5b82516001600160a01b0381168114620001a257600080fd5b602084810151919350906001600160401b0380821115620001c257600080fd5b818601915086601f830112620001d757600080fd5b815181811115620001ec57620001ec62000160565b8060051b604051601f19603f8301168101818110858211171562000214576200021462000160565b6040529182528482019250838101850191898311156200023357600080fd5b938501935b82851015620002535784518452938501939285019262000238565b8096505050505050509250929050565b634e487b7160e01b600052603260045260246000fd5b60805160a05160c05160e0516101005161012051610b31620002f3600039600081816101f9015261082c01526000818161013b015261039001526000818161024701526103c90152600081816101bf01526103fb015260008181610220015261042d01526000818161010601526104570152610b316000f3fe608060405234801561001057600080fd5b50600436106100d45760003560e01c8063a200e15311610081578063cd5d2c741161005b578063cd5d2c741461021b578063d820ed4214610242578063f2fde38b1461026957600080fd5b8063a200e153146101ba578063a34e3596146101e1578063c8a4271f146101f457600080fd5b8063715018a6116100b2578063715018a61461015d57806389fce619146101675780638da5cb5b1461019557600080fd5b806301ffc9a7146100d95780632c0fd74c1461010157806359b6b86c14610136575b600080fd5b6100ec6100e73660046108d7565b61027c565b60405190151581526020015b60405180910390f35b6101287f000000000000000000000000000000000000000000000000000000000000000081565b6040519081526020016100f8565b6101287f000000000000000000000000000000000000000000000000000000000000000081565b610165610315565b005b61017a61017536600461097e565b610329565b604080518251815260209283015192810192909252016100f8565b6000546001600160a01b03165b6040516001600160a01b0390911681526020016100f8565b6101287f000000000000000000000000000000000000000000000000000000000000000081565b6101286101ef3660046109e5565b6104f0565b6101a27f000000000000000000000000000000000000000000000000000000000000000081565b6101287f000000000000000000000000000000000000000000000000000000000000000081565b6101287f000000000000000000000000000000000000000000000000000000000000000081565b610165610277366004610a36565b610541565b60007fffffffff0000000000000000000000000000000000000000000000000000000082167f01ffc9a700000000000000000000000000000000000000000000000000000000148061030f57507fffffffff0000000000000000000000000000000000000000000000000000000082167f89fce61900000000000000000000000000000000000000000000000000000000145b92915050565b61031d6105d6565b6103276000610630565b565b6040805180820190915260008082526020820152600061037e87878080601f01602080910402602001604051908101604052809392919081815260200183838082843760009201919091525061069892505050565b90506000600582106103bb576103b4857f0000000000000000000000000000000000000000000000000000000000000000610a67565b905061047e565b816004036103ed576103b4857f0000000000000000000000000000000000000000000000000000000000000000610a67565b8160030361041f576103b4857f0000000000000000000000000000000000000000000000000000000000000000610a67565b81600203610451576103b4857f0000000000000000000000000000000000000000000000000000000000000000610a67565b61047b857f0000000000000000000000000000000000000000000000000000000000000000610a67565b90505b604051806040016040528061049283610827565b81526020016104e26104dd8b8b8080601f0160208091040260200160405190810160405280939291908181526020018383808284376000920191909152508d92508c91506108ce9050565b610827565b905298975050505050505050565b60006105386104dd86868080601f0160208091040260200160405190810160405280939291908181526020018383808284376000920191909152508892508791506108ce9050565b95945050505050565b6105496105d6565b6001600160a01b0381166105ca5760405162461bcd60e51b815260206004820152602660248201527f4f776e61626c653a206e6577206f776e657220697320746865207a65726f206160448201527f646472657373000000000000000000000000000000000000000000000000000060648201526084015b60405180910390fd5b6105d381610630565b50565b6000546001600160a01b031633146103275760405162461bcd60e51b815260206004820181905260248201527f4f776e61626c653a2063616c6c6572206973206e6f7420746865206f776e657260448201526064016105c1565b600080546001600160a01b038381167fffffffffffffffffffffffff0000000000000000000000000000000000000000831681178455604051919092169283917f8be0079c531659141344cd1fd0a4f28419497f9722a3daafe3b4186f6b6457e09190a35050565b8051600090819081905b8082101561081e5760008583815181106106be576106be610a7e565b01602001516001600160f81b03191690507f800000000000000000000000000000000000000000000000000000000000000081101561070957610702600184610a94565b925061080b565b7fe0000000000000000000000000000000000000000000000000000000000000006001600160f81b03198216101561074657610702600284610a94565b7ff0000000000000000000000000000000000000000000000000000000000000006001600160f81b03198216101561078357610702600384610a94565b7ff8000000000000000000000000000000000000000000000000000000000000006001600160f81b0319821610156107c057610702600484610a94565b7ffc000000000000000000000000000000000000000000000000000000000000006001600160f81b0319821610156107fd57610702600584610a94565b610808600684610a94565b92505b508261081681610aa7565b9350506106a2565b50909392505050565b6000807f00000000000000000000000000000000000000000000000000000000000000006001600160a01b03166350d25bcd6040518163ffffffff1660e01b8152600401602060405180830381865afa158015610888573d6000803e3d6000fd5b505050506040513d601f19601f820116820180604052508101906108ac9190610ac0565b9050806108bd846305f5e100610a67565b6108c79190610ad9565b9392505050565b60009392505050565b6000602082840312156108e957600080fd5b81357fffffffff00000000000000000000000000000000000000000000000000000000811681146108c757600080fd5b60008083601f84011261092b57600080fd5b50813567ffffffffffffffff81111561094357600080fd5b60208301915083602082850101111561095b57600080fd5b9250929050565b80356001600160a01b038116811461097957600080fd5b919050565b60008060008060006080868803121561099657600080fd5b853567ffffffffffffffff8111156109ad57600080fd5b6109b988828901610919565b90965094505060208601359250604086013591506109d960608701610962565b90509295509295909350565b600080600080606085870312156109fb57600080fd5b843567ffffffffffffffff811115610a1257600080fd5b610a1e87828801610919565b90989097506020870135966040013595509350505050565b600060208284031215610a4857600080fd5b6108c782610962565b634e487b7160e01b600052601160045260246000fd5b808202811582820484141761030f5761030f610a51565b634e487b7160e01b600052603260045260246000fd5b8082018082111561030f5761030f610a51565b600060018201610ab957610ab9610a51565b5060010190565b600060208284031215610ad257600080fd5b5051919050565b600082610af657634e487b7160e01b600052601260045260246000fd5b50049056fea26469706673582212209233b8e847aed279d9951abd8a412629ea5db33f8a340fb663f3c18efe1dd07464736f6c63430008110033",
  "linkReferences": {},
  "deployedLinkReferences": {}
}