{
  "_format": "hh-sol-artifact-1",
  "contractName": "BulkRenewal",
  "sourceName": "contracts/ethregistrar/BulkRenewal.sol",
  "abi": [
    {
      "inputs": [
        {
          "internalType": "contract ENS",
          "name": "_ens",
          "type": "address"
        }
      ],
      "stateMutability": "nonpayable",
      "type": "constructor"
    },
    {
      "inputs": [],
      "name": "ens",
      "outputs": [
        {
          "internalType": "contract ENS",
          "name": "",
          "type": "address"
        }
      ],
      "stateMutability": "view",
      "type": "function"
    },
    {
      "inputs": [
        {
          "internalType": "string[]",
          "name": "names",
          "type": "string[]"
        },
        {
          "internalType": "uint256",
          "name": "duration",
          "type": "uint256"
        }
      ],
      "name": "renewAll",
      "outputs": [],
      "stateMutability": "payable",
      "type": "function"
    },
    {
      "inputs": [
        {
          "internalType": "string[]",
          "name": "names",
          "type": "string[]"
        },
        {
          "internalType": "uint256",
          "name": "duration",
          "type": "uint256"
        },
        {
          "internalType": "address",
          "name": "user",
          "type": "address"
        }
      ],
      "name": "rentPrice",
      "outputs": [
        {
          "internalType": "uint256",
          "name": "total",
          "type": "uint256"
        }
      ],
      "stateMutability": "view",
      "type": "function"
    },
    {
      "inputs": [
        {
          "internalType": "bytes4",
          "name": "interfaceID",
          "type": "bytes4"
        }
      ],
      "name": "supportsInterface",
      "outputs": [
        {
          "internalType": "bool",
          "name": "",
          "type": "bool"
        }
      ],
      "stateMutability": "pure",
      "type": "function"
    }
  ],
  "bytecode": "0x60a060405234801561001057600080fd5b5060405161093138038061093183398101604081905261002f91610040565b6001600160a01b0316608052610070565b60006020828403121561005257600080fd5b81516001600160a01b038116811461006957600080fd5b9392505050565b6080516108a061009160003960008181608b015261045601526108a06000f3fe60806040526004361061003f5760003560e01c806301ffc9a7146100445780633f15457f14610079578063591ebfb4146100c5578063e8d6dbb4146100f3575b600080fd5b34801561005057600080fd5b5061006461005f366004610599565b610108565b60405190151581526020015b60405180910390f35b34801561008557600080fd5b506100ad7f000000000000000000000000000000000000000000000000000000000000000081565b6040516001600160a01b039091168152602001610070565b3480156100d157600080fd5b506100e56100e0366004610646565b6101a1565b604051908152602001610070565b6101066101013660046106a5565b610271565b005b60007fffffffff0000000000000000000000000000000000000000000000000000000082167f01ffc9a700000000000000000000000000000000000000000000000000000000148061019b57507fffffffff0000000000000000000000000000000000000000000000000000000082167fb1c8640000000000000000000000000000000000000000000000000000000000145b92915050565b6000806101ac610403565b90508460005b81811015610266576000836001600160a01b03166344d31f068a8a858181106101dd576101dd6106f1565b90506020028101906101ef9190610707565b8a8a6040518563ffffffff1660e01b81526004016102109493929190610777565b6040805180830381865afa15801561022c573d6000803e3d6000fd5b505050506040513d601f19601f8201168201806040525081019061025091906107ab565b60208101519051019490940193506001016101b2565b505050949350505050565b600061027b610403565b9050826000805b828110156103cd576000846001600160a01b03166344d31f068989858181106102ad576102ad6106f1565b90506020028101906102bf9190610707565b89336040518563ffffffff1660e01b81526004016102e09493929190610777565b6040805180830381865afa1580156102fc573d6000803e3d6000fd5b505050506040513d601f19601f8201168201806040525081019061032091906107ab565b90506000816020015182600001516103389190610808565b9050856001600160a01b031663acf1a841828b8b8781811061035c5761035c6106f1565b905060200281019061036e9190610707565b8b6040518563ffffffff1660e01b815260040161038d93929190610829565b6000604051808303818588803b1580156103a657600080fd5b505af11580156103ba573d6000803e3d6000fd5b5050509190940193505050600101610282565b5060405133904780156108fc02916000818181858888f193505050501580156103fa573d6000803e3d6000fd5b50505050505050565b6040517f0178b8bf0000000000000000000000000000000000000000000000000000000081527fd051e4f8cb1870f877b00266e1292322bea4c492a9933488e94d7c1a935e8dfa600482015260009081907f00000000000000000000000000000000000000000000000000000000000000006001600160a01b031690630178b8bf90602401602060405180830381865afa1580156104a5573d6000803e3d6000fd5b505050506040513d601f19601f820116820180604052508101906104c9919061084d565b6040517f124a319c0000000000000000000000000000000000000000000000000000000081527fd051e4f8cb1870f877b00266e1292322bea4c492a9933488e94d7c1a935e8dfa60048201527fa61a65f00000000000000000000000000000000000000000000000000000000060248201529091506001600160a01b0382169063124a319c90604401602060405180830381865afa15801561056f573d6000803e3d6000fd5b505050506040513d601f19601f82011682018060405250810190610593919061084d565b91505090565b6000602082840312156105ab57600080fd5b81357fffffffff00000000000000000000000000000000000000000000000000000000811681146105db57600080fd5b9392505050565b60008083601f8401126105f457600080fd5b50813567ffffffffffffffff81111561060c57600080fd5b6020830191508360208260051b850101111561062757600080fd5b9250929050565b6001600160a01b038116811461064357600080fd5b50565b6000806000806060858703121561065c57600080fd5b843567ffffffffffffffff81111561067357600080fd5b61067f878288016105e2565b90955093505060208501359150604085013561069a8161062e565b939692955090935050565b6000806000604084860312156106ba57600080fd5b833567ffffffffffffffff8111156106d157600080fd5b6106dd868287016105e2565b909790965060209590950135949350505050565b634e487b7160e01b600052603260045260246000fd5b6000808335601e1984360301811261071e57600080fd5b83018035915067ffffffffffffffff82111561073957600080fd5b60200191503681900382131561062757600080fd5b81835281816020850137506000828201602090810191909152601f909101601f19169091010190565b60608152600061078b60608301868861074e565b90508360208301526001600160a01b038316604083015295945050505050565b6000604082840312156107bd57600080fd5b6040516040810181811067ffffffffffffffff821117156107ee57634e487b7160e01b600052604160045260246000fd5b604052825181526020928301519281019290925250919050565b8082018082111561019b57634e487b7160e01b600052601160045260246000fd5b60408152600061083d60408301858761074e565b9050826020830152949350505050565b60006020828403121561085f57600080fd5b81516105db8161062e56fea2646970667358221220f6f142632adc909fcdd9c8ccb2fe556dd7dd542efb5f03f906af195df0b013f564736f6c63430008110033",
  "linkReferences": {},
  "deployedLinkReferences": {}
}