{
  "_format": "hh-sol-artifact-1",
  "contractName": "NameWrapper",
  "sourceName": "contracts/wrapper/NameWrapper.sol",
  "abi": [
    {
      "inputs": [
        {
          "internalType": "contract ENS",
          "name": "_ens",
          "type": "address"
        },
        {
          "internalType": "contract IBaseRegistrar",
          "name": "_registrar",
          "type": "address"
        },
        {
          "internalType": "contract IMetadataService",
          "name": "_metadataService",
          "type": "address"
        }
      ],
      "stateMutability": "nonpayable",
      "type": "constructor"
    },
    {
      "inputs": [],
      "name": "CannotUpgrade",
      "type": "error"
    },
    {
      "inputs": [],
      "name": "IncompatibleParent",
      "type": "error"
    },
    {
      "inputs": [
        {
          "internalType": "address",
          "name": "owner",
          "type": "address"
        }
      ],
      "name": "IncorrectTargetOwner",
      "type": "error"
    },
    {
      "inputs": [],
      "name": "IncorrectTokenType",
      "type": "error"
    },
    {
      "inputs": [
        {
          "internalType": "bytes32",
          "name": "labelHash",
          "type": "bytes32"
        },
        {
          "internalType": "bytes32",
          "name": "expectedLabelhash",
          "type": "bytes32"
        }
      ],
      "name": "LabelMismatch",
      "type": "error"
    },
    {
      "inputs": [
        {
          "internalType": "string",
          "name": "label",
          "type": "string"
        }
      ],
      "name": "LabelTooLong",
      "type": "error"
    },
    {
      "inputs": [],
      "name": "LabelTooShort",
      "type": "error"
    },
    {
      "inputs": [],
      "name": "NameIsNotWrapped",
      "type": "error"
    },
    {
      "inputs": [
        {
          "internalType": "bytes32",
          "name": "node",
          "type": "bytes32"
        }
      ],
      "name": "OperationProhibited",
      "type": "error"
    },
    {
      "inputs": [
        {
          "internalType": "bytes32",
          "name": "node",
          "type": "bytes32"
        },
        {
          "internalType": "address",
          "name": "addr",
          "type": "address"
        }
      ],
      "name": "Unauthorised",
      "type": "error"
    },
    {
      "anonymous": false,
      "inputs": [
        {
          "indexed": true,
          "internalType": "address",
          "name": "owner",
          "type": "address"
        },
        {
          "indexed": true,
          "internalType": "address",
          "name": "approved",
          "type": "address"
        },
        {
          "indexed": true,
          "internalType": "uint256",
          "name": "tokenId",
          "type": "uint256"
        }
      ],
      "name": "Approval",
      "type": "event"
    },
    {
      "anonymous": false,
      "inputs": [
        {
          "indexed": true,
          "internalType": "address",
          "name": "account",
          "type": "address"
        },
        {
          "indexed": true,
          "internalType": "address",
          "name": "operator",
          "type": "address"
        },
        {
          "indexed": false,
          "internalType": "bool",
          "name": "approved",
          "type": "bool"
        }
      ],
      "name": "ApprovalForAll",
      "type": "event"
    },
    {
      "anonymous": false,
      "inputs": [
        {
          "indexed": true,
          "internalType": "address",
          "name": "controller",
          "type": "address"
        },
        {
          "indexed": false,
          "internalType": "bool",
          "name": "active",
          "type": "bool"
        }
      ],
      "name": "ControllerChanged",
      "type": "event"
    },
    {
      "anonymous": false,
      "inputs": [
        {
          "indexed": true,
          "internalType": "bytes32",
          "name": "node",
          "type": "bytes32"
        },
        {
          "indexed": false,
          "internalType": "uint64",
          "name": "expiry",
          "type": "uint64"
        }
      ],
      "name": "ExpiryExtended",
      "type": "event"
    },
    {
      "anonymous": false,
      "inputs": [
        {
          "indexed": true,
          "internalType": "bytes32",
          "name": "node",
          "type": "bytes32"
        },
        {
          "indexed": false,
          "internalType": "uint32",
          "name": "fuses",
          "type": "uint32"
        }
      ],
      "name": "FusesSet",
      "type": "event"
    },
    {
      "anonymous": false,
      "inputs": [
        {
          "indexed": true,
          "internalType": "bytes32",
          "name": "node",
          "type": "bytes32"
        },
        {
          "indexed": false,
          "internalType": "address",
          "name": "owner",
          "type": "address"
        }
      ],
      "name": "NameUnwrapped",
      "type": "event"
    },
    {
      "anonymous": false,
      "inputs": [
        {
          "indexed": true,
          "internalType": "bytes32",
          "name": "node",
          "type": "bytes32"
        },
        {
          "indexed": false,
          "internalType": "bytes",
          "name": "name",
          "type": "bytes"
        },
        {
          "indexed": false,
          "internalType": "address",
          "name": "owner",
          "type": "address"
        },
        {
          "indexed": false,
          "internalType": "uint32",
          "name": "fuses",
          "type": "uint32"
        },
        {
          "indexed": false,
          "internalType": "uint64",
          "name": "expiry",
          "type": "uint64"
        }
      ],
      "name": "NameWrapped",
      "type": "event"
    },
    {
      "anonymous": false,
      "inputs": [
        {
          "indexed": true,
          "internalType": "address",
          "name": "previousOwner",
          "type": "address"
        },
        {
          "indexed": true,
          "internalType": "address",
          "name": "newOwner",
          "type": "address"
        }
      ],
      "name": "OwnershipTransferred",
      "type": "event"
    },
    {
      "anonymous": false,
      "inputs": [
        {
          "indexed": true,
          "internalType": "address",
          "name": "operator",
          "type": "address"
        },
        {
          "indexed": true,
          "internalType": "address",
          "name": "from",
          "type": "address"
        },
        {
          "indexed": true,
          "internalType": "address",
          "name": "to",
          "type": "address"
        },
        {
          "indexed": false,
          "internalType": "uint256[]",
          "name": "ids",
          "type": "uint256[]"
        },
        {
          "indexed": false,
          "internalType": "uint256[]",
          "name": "values",
          "type": "uint256[]"
        }
      ],
      "name": "TransferBatch",
      "type": "event"
    },
    {
      "anonymous": false,
      "inputs": [
        {
          "indexed": true,
          "internalType": "address",
          "name": "operator",
          "type": "address"
        },
        {
          "indexed": true,
          "internalType": "address",
          "name": "from",
          "type": "address"
        },
        {
          "indexed": true,
          "internalType": "address",
          "name": "to",
          "type": "address"
        },
        {
          "indexed": false,
          "internalType": "uint256",
          "name": "id",
          "type": "uint256"
        },
        {
          "indexed": false,
          "internalType": "uint256",
          "name": "value",
          "type": "uint256"
        }
      ],
      "name": "TransferSingle",
      "type": "event"
    },
    {
      "anonymous": false,
      "inputs": [
        {
          "indexed": false,
          "internalType": "string",
          "name": "value",
          "type": "string"
        },
        {
          "indexed": true,
          "internalType": "uint256",
          "name": "id",
          "type": "uint256"
        }
      ],
      "name": "URI",
      "type": "event"
    },
    {
      "inputs": [
        {
          "internalType": "uint256",
          "name": "",
          "type": "uint256"
        }
      ],
      "name": "_tokens",
      "outputs": [
        {
          "internalType": "uint256",
          "name": "",
          "type": "uint256"
        }
      ],
      "stateMutability": "view",
      "type": "function"
    },
    {
      "inputs": [
        {
          "internalType": "bytes32",
          "name": "node",
          "type": "bytes32"
        },
        {
          "internalType": "uint32",
          "name": "fuseMask",
          "type": "uint32"
        }
      ],
      "name": "allFusesBurned",
      "outputs": [
        {
          "internalType": "bool",
          "name": "",
          "type": "bool"
        }
      ],
      "stateMutability": "view",
      "type": "function"
    },
    {
      "inputs": [
        {
          "internalType": "address",
          "name": "to",
          "type": "address"
        },
        {
          "internalType": "uint256",
          "name": "tokenId",
          "type": "uint256"
        }
      ],
      "name": "approve",
      "outputs": [],
      "stateMutability": "nonpayable",
      "type": "function"
    },
    {
      "inputs": [
        {
          "internalType": "address",
          "name": "account",
          "type": "address"
        },
        {
          "internalType": "uint256",
          "name": "id",
          "type": "uint256"
        }
      ],
      "name": "balanceOf",
      "outputs": [
        {
          "internalType": "uint256",
          "name": "",
          "type": "uint256"
        }
      ],
      "stateMutability": "view",
      "type": "function"
    },
    {
      "inputs": [
        {
          "internalType": "address[]",
          "name": "accounts",
          "type": "address[]"
        },
        {
          "internalType": "uint256[]",
          "name": "ids",
          "type": "uint256[]"
        }
      ],
      "name": "balanceOfBatch",
      "outputs": [
        {
          "internalType": "uint256[]",
          "name": "",
          "type": "uint256[]"
        }
      ],
      "stateMutability": "view",
      "type": "function"
    },
    {
      "inputs": [
        {
          "internalType": "bytes32",
          "name": "node",
          "type": "bytes32"
        },
        {
          "internalType": "address",
          "name": "addr",
          "type": "address"
        }
      ],
      "name": "canExtendSubnames",
      "outputs": [
        {
          "internalType": "bool",
          "name": "",
          "type": "bool"
        }
      ],
      "stateMutability": "view",
      "type": "function"
    },
    {
      "inputs": [
        {
          "internalType": "bytes32",
          "name": "node",
          "type": "bytes32"
        },
        {
          "internalType": "address",
          "name": "addr",
          "type": "address"
        }
      ],
      "name": "canModifyName",
      "outputs": [
        {
          "internalType": "bool",
          "name": "",
          "type": "bool"
        }
      ],
      "stateMutability": "view",
      "type": "function"
    },
    {
      "inputs": [
        {
          "internalType": "address",
          "name": "",
          "type": "address"
        }
      ],
      "name": "controllers",
      "outputs": [
        {
          "internalType": "bool",
          "name": "",
          "type": "bool"
        }
      ],
      "stateMutability": "view",
      "type": "function"
    },
    {
      "inputs": [],
      "name": "ens",
      "outputs": [
        {
          "internalType": "contract ENS",
          "name": "",
          "type": "address"
        }
      ],
      "stateMutability": "view",
      "type": "function"
    },
    {
      "inputs": [
        {
          "internalType": "bytes32",
          "name": "parentNode",
          "type": "bytes32"
        },
        {
          "internalType": "bytes32",
          "name": "labelhash",
          "type": "bytes32"
        },
        {
          "internalType": "uint64",
          "name": "expiry",
          "type": "uint64"
        }
      ],
      "name": "extendExpiry",
      "outputs": [
        {
          "internalType": "uint64",
          "name": "",
          "type": "uint64"
        }
      ],
      "stateMutability": "nonpayable",
      "type": "function"
    },
    {
      "inputs": [
        {
          "internalType": "uint256",
          "name": "id",
          "type": "uint256"
        }
      ],
      "name": "getApproved",
      "outputs": [
        {
          "internalType": "address",
          "name": "operator",
          "type": "address"
        }
      ],
      "stateMutability": "view",
      "type": "function"
    },
    {
      "inputs": [
        {
          "internalType": "uint256",
          "name": "id",
          "type": "uint256"
        }
      ],
      "name": "getData",
      "outputs": [
        {
          "internalType": "address",
          "name": "owner",
          "type": "address"
        },
        {
          "internalType": "uint32",
          "name": "fuses",
          "type": "uint32"
        },
        {
          "internalType": "uint64",
          "name": "expiry",
          "type": "uint64"
        }
      ],
      "stateMutability": "view",
      "type": "function"
    },
    {
      "inputs": [
        {
          "internalType": "address",
          "name": "account",
          "type": "address"
        },
        {
          "internalType": "address",
          "name": "operator",
          "type": "address"
        }
      ],
      "name": "isApprovedForAll",
      "outputs": [
        {
          "internalType": "bool",
          "name": "",
          "type": "bool"
        }
      ],
      "stateMutability": "view",
      "type": "function"
    },
    {
      "inputs": [
        {
          "internalType": "bytes32",
          "name": "parentNode",
          "type": "bytes32"
        },
        {
          "internalType": "bytes32",
          "name": "labelhash",
          "type": "bytes32"
        }
      ],
      "name": "isWrapped",
      "outputs": [
        {
          "internalType": "bool",
          "name": "",
          "type": "bool"
        }
      ],
      "stateMutability": "view",
      "type": "function"
    },
    {
      "inputs": [
        {
          "internalType": "bytes32",
          "name": "node",
          "type": "bytes32"
        }
      ],
      "name": "isWrapped",
      "outputs": [
        {
          "internalType": "bool",
          "name": "",
          "type": "bool"
        }
      ],
      "stateMutability": "view",
      "type": "function"
    },
    {
      "inputs": [],
      "name": "metadataService",
      "outputs": [
        {
          "internalType": "contract IMetadataService",
          "name": "",
          "type": "address"
        }
      ],
      "stateMutability": "view",
      "type": "function"
    },
    {
      "inputs": [],
      "name": "name",
      "outputs": [
        {
          "internalType": "string",
          "name": "",
          "type": "string"
        }
      ],
      "stateMutability": "view",
      "type": "function"
    },
    {
      "inputs": [
        {
          "internalType": "bytes32",
          "name": "",
          "type": "bytes32"
        }
      ],
      "name": "names",
      "outputs": [
        {
          "internalType": "bytes",
          "name": "",
          "type": "bytes"
        }
      ],
      "stateMutability": "view",
      "type": "function"
    },
    {
      "inputs": [
        {
          "internalType": "address",
          "name": "to",
          "type": "address"
        },
        {
          "internalType": "address",
          "name": "",
          "type": "address"
        },
        {
          "internalType": "uint256",
          "name": "tokenId",
          "type": "uint256"
        },
        {
          "internalType": "bytes",
          "name": "data",
          "type": "bytes"
        }
      ],
      "name": "onERC721Received",
      "outputs": [
        {
          "internalType": "bytes4",
          "name": "",
          "type": "bytes4"
        }
      ],
      "stateMutability": "nonpayable",
      "type": "function"
    },
    {
      "inputs": [],
      "name": "owner",
      "outputs": [
        {
          "internalType": "address",
          "name": "",
          "type": "address"
        }
      ],
      "stateMutability": "view",
      "type": "function"
    },
    {
      "inputs": [
        {
          "internalType": "uint256",
          "name": "id",
          "type": "uint256"
        }
      ],
      "name": "ownerOf",
      "outputs": [
        {
          "internalType": "address",
          "name": "owner",
          "type": "address"
        }
      ],
      "stateMutability": "view",
      "type": "function"
    },
    {
      "inputs": [
        {
          "internalType": "address",
          "name": "_token",
          "type": "address"
        },
        {
          "internalType": "address",
          "name": "_to",
          "type": "address"
        },
        {
          "internalType": "uint256",
          "name": "_amount",
          "type": "uint256"
        }
      ],
      "name": "recoverFunds",
      "outputs": [],
      "stateMutability": "nonpayable",
      "type": "function"
    },
    {
      "inputs": [
        {
          "internalType": "string",
          "name": "label",
          "type": "string"
        },
        {
          "internalType": "address",
          "name": "wrappedOwner",
          "type": "address"
        },
        {
          "internalType": "uint256",
          "name": "duration",
          "type": "uint256"
        },
        {
          "internalType": "address",
          "name": "resolver",
          "type": "address"
        },
        {
          "internalType": "uint16",
          "name": "ownerControlledFuses",
          "type": "uint16"
        }
      ],
      "name": "registerAndWrapETH2LD",
      "outputs": [
        {
          "internalType": "uint256",
          "name": "registrarExpiry",
          "type": "uint256"
        }
      ],
      "stateMutability": "nonpayable",
      "type": "function"
    },
    {
      "inputs": [],
      "name": "registrar",
      "outputs": [
        {
          "internalType": "contract IBaseRegistrar",
          "name": "",
          "type": "address"
        }
      ],
      "stateMutability": "view",
      "type": "function"
    },
    {
      "inputs": [
        {
          "internalType": "uint256",
          "name": "tokenId",
          "type": "uint256"
        },
        {
          "internalType": "uint256",
          "name": "duration",
          "type": "uint256"
        }
      ],
      "name": "renew",
      "outputs": [
        {
          "internalType": "uint256",
          "name": "expires",
          "type": "uint256"
        }
      ],
      "stateMutability": "nonpayable",
      "type": "function"
    },
    {
      "inputs": [],
      "name": "renounceOwnership",
      "outputs": [],
      "stateMutability": "nonpayable",
      "type": "function"
    },
    {
      "inputs": [
        {
          "internalType": "address",
          "name": "from",
          "type": "address"
        },
        {
          "internalType": "address",
          "name": "to",
          "type": "address"
        },
        {
          "internalType": "uint256[]",
          "name": "ids",
          "type": "uint256[]"
        },
        {
          "internalType": "uint256[]",
          "name": "amounts",
          "type": "uint256[]"
        },
        {
          "internalType": "bytes",
          "name": "data",
          "type": "bytes"
        }
      ],
      "name": "safeBatchTransferFrom",
      "outputs": [],
      "stateMutability": "nonpayable",
      "type": "function"
    },
    {
      "inputs": [
        {
          "internalType": "address",
          "name": "from",
          "type": "address"
        },
        {
          "internalType": "address",
          "name": "to",
          "type": "address"
        },
        {
          "internalType": "uint256",
          "name": "id",
          "type": "uint256"
        },
        {
          "internalType": "uint256",
          "name": "amount",
          "type": "uint256"
        },
        {
          "internalType": "bytes",
          "name": "data",
          "type": "bytes"
        }
      ],
      "name": "safeTransferFrom",
      "outputs": [],
      "stateMutability": "nonpayable",
      "type": "function"
    },
    {
      "inputs": [
        {
          "internalType": "address",
          "name": "operator",
          "type": "address"
        },
        {
          "internalType": "bool",
          "name": "approved",
          "type": "bool"
        }
      ],
      "name": "setApprovalForAll",
      "outputs": [],
      "stateMutability": "nonpayable",
      "type": "function"
    },
    {
      "inputs": [
        {
          "internalType": "bytes32",
          "name": "parentNode",
          "type": "bytes32"
        },
        {
          "internalType": "bytes32",
          "name": "labelhash",
          "type": "bytes32"
        },
        {
          "internalType": "uint32",
          "name": "fuses",
          "type": "uint32"
        },
        {
          "internalType": "uint64",
          "name": "expiry",
          "type": "uint64"
        }
      ],
      "name": "setChildFuses",
      "outputs": [],
      "stateMutability": "nonpayable",
      "type": "function"
    },
    {
      "inputs": [
        {
          "internalType": "address",
          "name": "controller",
          "type": "address"
        },
        {
          "internalType": "bool",
          "name": "active",
          "type": "bool"
        }
      ],
      "name": "setController",
      "outputs": [],
      "stateMutability": "nonpayable",
      "type": "function"
    },
    {
      "inputs": [
        {
          "internalType": "bytes32",
          "name": "node",
          "type": "bytes32"
        },
        {
          "internalType": "uint16",
          "name": "ownerControlledFuses",
          "type": "uint16"
        }
      ],
      "name": "setFuses",
      "outputs": [
        {
          "internalType": "uint32",
          "name": "",
          "type": "uint32"
        }
      ],
      "stateMutability": "nonpayable",
      "type": "function"
    },
    {
      "inputs": [
        {
          "internalType": "contract IMetadataService",
          "name": "_metadataService",
          "type": "address"
        }
      ],
      "name": "setMetadataService",
      "outputs": [],
      "stateMutability": "nonpayable",
      "type": "function"
    },
    {
      "inputs": [
        {
          "internalType": "bytes32",
          "name": "node",
          "type": "bytes32"
        },
        {
          "internalType": "address",
          "name": "owner",
          "type": "address"
        },
        {
          "internalType": "address",
          "name": "resolver",
          "type": "address"
        },
        {
          "internalType": "uint64",
          "name": "ttl",
          "type": "uint64"
        }
      ],
      "name": "setRecord",
      "outputs": [],
      "stateMutability": "nonpayable",
      "type": "function"
    },
    {
      "inputs": [
        {
          "internalType": "bytes32",
          "name": "node",
          "type": "bytes32"
        },
        {
          "internalType": "address",
          "name": "resolver",
          "type": "address"
        }
      ],
      "name": "setResolver",
      "outputs": [],
      "stateMutability": "nonpayable",
      "type": "function"
    },
    {
      "inputs": [
        {
          "internalType": "bytes32",
          "name": "parentNode",
          "type": "bytes32"
        },
        {
          "internalType": "string",
          "name": "label",
          "type": "string"
        },
        {
          "internalType": "address",
          "name": "owner",
          "type": "address"
        },
        {
          "internalType": "uint32",
          "name": "fuses",
          "type": "uint32"
        },
        {
          "internalType": "uint64",
          "name": "expiry",
          "type": "uint64"
        }
      ],
      "name": "setSubnodeOwner",
      "outputs": [
        {
          "internalType": "bytes32",
          "name": "node",
          "type": "bytes32"
        }
      ],
      "stateMutability": "nonpayable",
      "type": "function"
    },
    {
      "inputs": [
        {
          "internalType": "bytes32",
          "name": "parentNode",
          "type": "bytes32"
        },
        {
          "internalType": "string",
          "name": "label",
          "type": "string"
        },
        {
          "internalType": "address",
          "name": "owner",
          "type": "address"
        },
        {
          "internalType": "address",
          "name": "resolver",
          "type": "address"
        },
        {
          "internalType": "uint64",
          "name": "ttl",
          "type": "uint64"
        },
        {
          "internalType": "uint32",
          "name": "fuses",
          "type": "uint32"
        },
        {
          "internalType": "uint64",
          "name": "expiry",
          "type": "uint64"
        }
      ],
      "name": "setSubnodeRecord",
      "outputs": [
        {
          "internalType": "bytes32",
          "name": "node",
          "type": "bytes32"
        }
      ],
      "stateMutability": "nonpayable",
      "type": "function"
    },
    {
      "inputs": [
        {
          "internalType": "bytes32",
          "name": "node",
          "type": "bytes32"
        },
        {
          "internalType": "uint64",
          "name": "ttl",
          "type": "uint64"
        }
      ],
      "name": "setTTL",
      "outputs": [],
      "stateMutability": "nonpayable",
      "type": "function"
    },
    {
      "inputs": [
        {
          "internalType": "contract INameWrapperUpgrade",
          "name": "_upgradeAddress",
          "type": "address"
        }
      ],
      "name": "setUpgradeContract",
      "outputs": [],
      "stateMutability": "nonpayable",
      "type": "function"
    },
    {
      "inputs": [
        {
          "internalType": "bytes4",
          "name": "interfaceId",
          "type": "bytes4"
        }
      ],
      "name": "supportsInterface",
      "outputs": [
        {
          "internalType": "bool",
          "name": "",
          "type": "bool"
        }
      ],
      "stateMutability": "view",
      "type": "function"
    },
    {
      "inputs": [
        {
          "internalType": "address",
          "name": "newOwner",
          "type": "address"
        }
      ],
      "name": "transferOwnership",
      "outputs": [],
      "stateMutability": "nonpayable",
      "type": "function"
    },
    {
      "inputs": [
        {
          "internalType": "bytes32",
          "name": "parentNode",
          "type": "bytes32"
        },
        {
          "internalType": "bytes32",
          "name": "labelhash",
          "type": "bytes32"
        },
        {
          "internalType": "address",
          "name": "controller",
          "type": "address"
        }
      ],
      "name": "unwrap",
      "outputs": [],
      "stateMutability": "nonpayable",
      "type": "function"
    },
    {
      "inputs": [
        {
          "internalType": "bytes32",
          "name": "labelhash",
          "type": "bytes32"
        },
        {
          "internalType": "address",
          "name": "registrant",
          "type": "address"
        },
        {
          "internalType": "address",
          "name": "controller",
          "type": "address"
        }
      ],
      "name": "unwrapETH2LD",
      "outputs": [],
      "stateMutability": "nonpayable",
      "type": "function"
    },
    {
      "inputs": [
        {
          "internalType": "bytes",
          "name": "name",
          "type": "bytes"
        },
        {
          "internalType": "bytes",
          "name": "extraData",
          "type": "bytes"
        }
      ],
      "name": "upgrade",
      "outputs": [],
      "stateMutability": "nonpayable",
      "type": "function"
    },
    {
      "inputs": [],
      "name": "upgradeContract",
      "outputs": [
        {
          "internalType": "contract INameWrapperUpgrade",
          "name": "",
          "type": "address"
        }
      ],
      "stateMutability": "view",
      "type": "function"
    },
    {
      "inputs": [
        {
          "internalType": "uint256",
          "name": "tokenId",
          "type": "uint256"
        }
      ],
      "name": "uri",
      "outputs": [
        {
          "internalType": "string",
          "name": "",
          "type": "string"
        }
      ],
      "stateMutability": "view",
      "type": "function"
    },
    {
      "inputs": [
        {
          "internalType": "bytes",
          "name": "name",
          "type": "bytes"
        },
        {
          "internalType": "address",
          "name": "wrappedOwner",
          "type": "address"
        },
        {
          "internalType": "address",
          "name": "resolver",
          "type": "address"
        }
      ],
      "name": "wrap",
      "outputs": [],
      "stateMutability": "nonpayable",
      "type": "function"
    },
    {
      "inputs": [
        {
          "internalType": "string",
          "name": "label",
          "type": "string"
        },
        {
          "internalType": "address",
          "name": "wrappedOwner",
          "type": "address"
        },
        {
          "internalType": "uint16",
          "name": "ownerControlledFuses",
          "type": "uint16"
        },
        {
          "internalType": "address",
          "name": "resolver",
          "type": "address"
        }
      ],
      "name": "wrapETH2LD",
      "outputs": [
        {
          "internalType": "uint64",
          "name": "expiry",
          "type": "uint64"
        }
      ],
      "stateMutability": "nonpayable",
      "type": "function"
    }
  ],
  "bytecode": "0x60c06040523480156200001157600080fd5b506040516200658c3803806200658c8339810160408190526200003491620002fc565b8233620000418162000293565b6040516302571be360e01b81527f91d1777781884d03a6757a803996e38de2a42967fb37eeaca72729271025a9e260048201526000906001600160a01b038416906302571be390602401602060405180830381865afa158015620000a9573d6000803e3d6000fd5b505050506040513d601f19601f82011682018060405250810190620000cf919062000350565b604051630f41a04d60e11b81526001600160a01b03848116600483015291925090821690631e83409a906024016020604051808303816000875af11580156200011c573d6000803e3d6000fd5b505050506040513d601f19601f8201168201806040525081019062000142919062000377565b505050506001600160a01b0383811660805282811660a052600580546001600160a01b031916918316919091179055600163fffeffff60a01b03197f41f96a7015521ab2a0d6c4f0622e0417abfadc99a65ef33b8be1568d486d940b8190557fa6eef7e35abe7026729641147f7915573c7e97b47efa546f5f6e3230263bcb4955604080518082019091526001815260006020808301829052908052600690527f54cdd369e4e8a8515e52ca72ec816c2101831ad1f18bf44102ed171459c9b4f89062000210908262000436565b50604080518082019091526008815266019cd8dc9bdb1b60ca1b6020808301919091527fd051e4f8cb1870f877b00266e1292322bea4c492a9933488e94d7c1a935e8dfa600052600690527f108ee06265c863fb2577d4cb5d2544d795c3c64206f4a56357a21f2b4235b10a9062000289908262000436565b5050505062000502565b600080546001600160a01b038381166001600160a01b0319831681178455604051919092169283917f8be0079c531659141344cd1fd0a4f28419497f9722a3daafe3b4186f6b6457e09190a35050565b6001600160a01b0381168114620002f957600080fd5b50565b6000806000606084860312156200031257600080fd5b83516200031f81620002e3565b60208501519093506200033281620002e3565b60408501519092506200034581620002e3565b809150509250925092565b6000602082840312156200036357600080fd5b81516200037081620002e3565b9392505050565b6000602082840312156200038a57600080fd5b5051919050565b634e487b7160e01b600052604160045260246000fd5b600181811c90821680620003bc57607f821691505b602082108103620003dd57634e487b7160e01b600052602260045260246000fd5b50919050565b601f8211156200043157600081815260208120601f850160051c810160208610156200040c5750805b601f850160051c820191505b818110156200042d5782815560010162000418565b5050505b505050565b81516001600160401b0381111562000452576200045262000391565b6200046a81620004638454620003a7565b84620003e3565b602080601f831160018114620004a25760008415620004895750858301515b600019600386901b1c1916600185901b1785556200042d565b600085815260208120601f198616915b82811015620004d357888601518255948401946001909101908401620004b2565b5085821015620004f25787850151600019600388901b60f8161c191681555b5050505050600190811b01905550565b60805160a051615f7d6200060f6000396000818161050601528181610c3401528181610d0e01528181610d9801528181611c9201528181611d2801528181611dd601528181611ef801528181611f6e01528181611fee01528181612270015281816123ac015281816124eb015281816126d0015281816127560152612f8b01526000818161055301528181610bba01528181610f03015281816110b70152818161116901528181611581015281816124310152818161257001528181612801015281816129f801528181612d06015281816131b6015281816132640152818161332d015281816133a601528181613a1c01528181613b3701528181613d9f01526143f90152615f7d6000f3fe608060405234801561001057600080fd5b506004361061031f5760003560e01c80636352211e116101a7578063c93ab3fd116100ee578063e985e9c511610097578063f242432a11610071578063f242432a146107d7578063f2fde38b146107ea578063fd0cd0d9146107fd57600080fd5b8063e985e9c514610768578063eb8ae530146107a4578063ed70554d146107b757600080fd5b8063d9a50c12116100c8578063d9a50c121461071f578063da8c229e14610732578063e0dba60f1461075557600080fd5b8063c93ab3fd146106e6578063cf408823146106f9578063d8c9921a1461070c57600080fd5b8063a22cb46511610150578063b6bcad261161012a578063b6bcad26146106ad578063c475abff146106c0578063c658e086146106d357600080fd5b8063a22cb46514610674578063a401498214610687578063adf4960a1461069a57600080fd5b80638b4dfa75116101815780638b4dfa751461063d5780638cf8b41e146106505780638da5cb5b1461066357600080fd5b80636352211e146105f65780636e5d6ad214610609578063715018a61461063557600080fd5b80631f4e15041161026b5780633f15457f116102145780634e1273f4116101ee5780634e1273f4146105b057806353095467146105d05780635d3590d5146105e357600080fd5b80633f15457f1461054e578063402906fc1461057557806341415eab1461059d57600080fd5b80632b20e397116102455780632b20e397146105015780632eb2c2d61461052857806333c69ea91461053b57600080fd5b80631f4e1504146104c857806320c38e2b146104db57806324c1af44146104ee57600080fd5b80630e4cd725116102cd578063150b7a02116102a7578063150b7a02146104765780631534e177146104a25780631896f70a146104b557600080fd5b80630e4cd7251461043d5780630e89341c1461045057806314ab90381461046357600080fd5b806306fdde03116102fe57806306fdde03146103b4578063081812fc146103fd578063095ea7b31461042857600080fd5b8062fdd58e146103245780630178fe3f1461034a57806301ffc9a714610391575b600080fd5b610337610332366004614dac565b610810565b6040519081526020015b60405180910390f35b61035d610358366004614dd8565b6108cf565b604080516001600160a01b03909416845263ffffffff909216602084015267ffffffffffffffff1690820152606001610341565b6103a461039f366004614e07565b6108ff565b6040519015158152602001610341565b6103f06040518060400160405280600b81526020017f4e616d655772617070657200000000000000000000000000000000000000000081525081565b6040516103419190614e74565b61041061040b366004614dd8565b610958565b6040516001600160a01b039091168152602001610341565b61043b610436366004614dac565b61099d565b005b6103a461044b366004614e87565b6109e3565b6103f061045e366004614dd8565b610a7d565b61043b610471366004614ed4565b610b0e565b610489610484366004614f49565b610c27565b6040516001600160e01b03199091168152602001610341565b61043b6104b0366004614fbc565b610e39565b61043b6104c3366004614e87565b610e70565b600754610410906001600160a01b031681565b6103f06104e9366004614dd8565b610f32565b6103376104fc3660046150b4565b610fcc565b6104107f000000000000000000000000000000000000000000000000000000000000000081565b61043b6105363660046151dc565b6111e0565b61043b61054936600461528a565b61150a565b6104107f000000000000000000000000000000000000000000000000000000000000000081565b6105886105833660046152e2565b6116ff565b60405163ffffffff9091168152602001610341565b6103a46105ab366004614e87565b6117a1565b6105c36105be366004615305565b6117fe565b6040516103419190615403565b600554610410906001600160a01b031681565b61043b6105f1366004615416565b61193c565b610410610604366004614dd8565b6119d6565b61061c610617366004615457565b6119e1565b60405167ffffffffffffffff9091168152602001610341565b61043b611b36565b61043b61064b36600461548c565b611b4a565b61061c61065e3660046154ce565b611cf4565b6000546001600160a01b0316610410565b61043b610682366004615557565b6120c0565b610337610695366004615585565b6121aa565b6103a46106a8366004615606565b612345565b61043b6106bb366004614fbc565b61236a565b6103376106ce366004615629565b6125cf565b6103376106e136600461564b565b6128c6565b61043b6106f43660046156be565b612ad3565b61043b61070736600461572a565b612c44565b61043b61071a366004615762565b612dfd565b6103a461072d366004615629565b612f0d565b6103a4610740366004614fbc565b60046020526000908152604090205460ff1681565b61043b610763366004615557565b61301a565b6103a4610776366004615790565b6001600160a01b03918216600090815260026020908152604080832093909416825291909152205460ff1690565b61043b6107b23660046157be565b613082565b6103376107c5366004614dd8565b60016020526000908152604090205481565b61043b6107e5366004615826565b61344d565b61043b6107f8366004614fbc565b61356a565b6103a461080b366004614dd8565b6135f7565b60006001600160a01b0383166108935760405162461bcd60e51b815260206004820152602b60248201527f455243313135353a2062616c616e636520717565727920666f7220746865207a60448201527f65726f206164647265737300000000000000000000000000000000000000000060648201526084015b60405180910390fd5b600061089e836119d6565b9050836001600160a01b0316816001600160a01b0316036108c35760019150506108c9565b60009150505b92915050565b60008181526001602052604090205460a081901c60c082901c6108f38383836136cf565b90959094509092509050565b60006001600160e01b031982167fd82c42d800000000000000000000000000000000000000000000000000000000148061094957506001600160e01b03198216630a85bd0160e11b145b806108c957506108c982613706565b600080610964836119d6565b90506001600160a01b03811661097d5750600092915050565b6000838152600360205260409020546001600160a01b03165b9392505050565b60006109a8826108cf565b50915050603f1960408216016109d45760405163a2a7201360e01b81526004810183905260240161088a565b6109de83836137a1565b505050565b60008080806109f1866108cf565b925092509250846001600160a01b0316836001600160a01b03161480610a3c57506001600160a01b0380841660009081526002602090815260408083209389168352929052205460ff165b80610a6057506001600160a01b038516610a5587610958565b6001600160a01b0316145b8015610a735750610a7182826138eb565b155b9695505050505050565b6005546040517f28205a93000000000000000000000000000000000000000000000000000000008152306004820152602481018390526060916001600160a01b0316906328205a9390604401600060405180830381865afa158015610ae6573d6000803e3d6000fd5b505050506040513d6000823e601f3d908101601f191682016040526108c9919081019061588f565b81610b1981336117a1565b610b3f5760405163168ab55d60e31b81526004810182905233602482015260440161088a565b8260106000610b4d836108cf565b5091505063ffffffff8282161615610b7b5760405163a2a7201360e01b81526004810184905260240161088a565b6040517f14ab90380000000000000000000000000000000000000000000000000000000081526004810187905267ffffffffffffffff861660248201527f00000000000000000000000000000000000000000000000000000000000000006001600160a01b0316906314ab9038906044015b600060405180830381600087803b158015610c0757600080fd5b505af1158015610c1b573d6000803e3d6000fd5b50505050505050505050565b6000336001600160a01b037f00000000000000000000000000000000000000000000000000000000000000001614610c8b576040517f1931a53800000000000000000000000000000000000000000000000000000000815260040160405180910390fd5b6000808080610c9c86880188615907565b83516020850120939750919550935091508890808214610cf2576040517fc65c3ccc000000000000000000000000000000000000000000000000000000008152600481018290526024810183905260440161088a565b604051630a3b53db60e21b8152600481018390523060248201527f00000000000000000000000000000000000000000000000000000000000000006001600160a01b0316906328ed4f6c90604401600060405180830381600087803b158015610d5a57600080fd5b505af1158015610d6e573d6000803e3d6000fd5b5050604051636b727d4360e11b8152600481018d9052600092506276a70091506001600160a01b037f0000000000000000000000000000000000000000000000000000000000000000169063d6e4fa8690602401602060405180830381865afa158015610ddf573d6000803e3d6000fd5b505050506040513d601f19601f82011682018060405250810190610e03919061596f565b610e0d919061599e565b9050610e2087878761ffff16848861391c565b50630a85bd0160e11b9c9b505050505050505050505050565b610e41613a82565b6005805473ffffffffffffffffffffffffffffffffffffffff19166001600160a01b0392909216919091179055565b81610e7b81336117a1565b610ea15760405163168ab55d60e31b81526004810182905233602482015260440161088a565b8260086000610eaf836108cf565b5091505063ffffffff8282161615610edd5760405163a2a7201360e01b81526004810184905260240161088a565b604051630c4b7b8560e11b8152600481018790526001600160a01b0386811660248301527f00000000000000000000000000000000000000000000000000000000000000001690631896f70a90604401610bed565b60066020526000908152604090208054610f4b906159c6565b80601f0160208091040260200160405190810160405280929190818152602001828054610f77906159c6565b8015610fc45780601f10610f9957610100808354040283529160200191610fc4565b820191906000526020600020905b815481529060010190602001808311610fa757829003601f168201915b505050505081565b600087610fd981336117a1565b610fff5760405163168ab55d60e31b81526004810182905233602482015260440161088a565b875160208901206110378a82604080516020808201949094528082019290925280518083038201815260609092019052805191012090565b92506110438a84613adc565b61104d8386613c1b565b6110588a848b613c4e565b506110658a848787613d1b565b935061107083613d61565b611126576040516305ef2c7f60e41b8152600481018b9052602481018290523060448201526001600160a01b03888116606483015267ffffffffffffffff881660848301527f00000000000000000000000000000000000000000000000000000000000000001690635ef2c7f09060a401600060405180830381600087803b1580156110fb57600080fd5b505af115801561110f573d6000803e3d6000fd5b505050506111218a848b8b8989613e1a565b6111d3565b6040516305ef2c7f60e41b8152600481018b9052602481018290523060448201526001600160a01b03888116606483015267ffffffffffffffff881660848301527f00000000000000000000000000000000000000000000000000000000000000001690635ef2c7f09060a401600060405180830381600087803b1580156111ad57600080fd5b505af11580156111c1573d6000803e3d6000fd5b505050506111d38a848b8b8989613e51565b5050979650505050505050565b81518351146112575760405162461bcd60e51b815260206004820152602860248201527f455243313135353a2069647320616e6420616d6f756e7473206c656e6774682060448201527f6d69736d61746368000000000000000000000000000000000000000000000000606482015260840161088a565b6001600160a01b0384166112bb5760405162461bcd60e51b815260206004820152602560248201527f455243313135353a207472616e7366657220746f20746865207a65726f206164604482015264647265737360d81b606482015260840161088a565b6001600160a01b0385163314806112f557506001600160a01b038516600090815260026020908152604080832033845290915290205460ff165b6113675760405162461bcd60e51b815260206004820152603260248201527f455243313135353a207472616e736665722063616c6c6572206973206e6f742060448201527f6f776e6572206e6f7220617070726f7665640000000000000000000000000000606482015260840161088a565b60005b835181101561149d57600084828151811061138757611387615a00565b6020026020010151905060008483815181106113a5576113a5615a00565b6020026020010151905060008060006113bd856108cf565b9250925092506113ce858383613f15565b8360011480156113ef57508a6001600160a01b0316836001600160a01b0316145b61144e5760405162461bcd60e51b815260206004820152602a60248201527f455243313135353a20696e73756666696369656e742062616c616e636520666f60448201526939103a3930b739b332b960b11b606482015260840161088a565b60008581526001602052604090206001600160a01b038b1663ffffffff60a01b60a085901b16176001600160c01b031960c084901b1617905550505050508061149690615a16565b905061136a565b50836001600160a01b0316856001600160a01b0316336001600160a01b03167f4a39dc06d4c0dbc64b70af90fd698a233a518aa5d07e595d983b8c0526c8f7fb86866040516114ed929190615a2f565b60405180910390a461150333868686868661400f565b5050505050565b6040805160208082018790528183018690528251808303840181526060909201909252805191012061153c8184613c1b565b60008080611549846108cf565b919450925090506001600160a01b03831615806115f857506040516302571be360e01b81526004810185905230906001600160a01b037f000000000000000000000000000000000000000000000000000000000000000016906302571be390602401602060405180830381865afa1580156115c8573d6000803e3d6000fd5b505050506040513d601f19601f820116820180604052508101906115ec9190615a5d565b6001600160a01b031614155b1561161657604051635374b59960e01b815260040160405180910390fd5b6000806116228a6108cf565b90935091508a90506116635761163886336117a1565b61165e5760405163168ab55d60e31b81526004810187905233602482015260440161088a565b611693565b61166d8a336117a1565b6116935760405163168ab55d60e31b8152600481018b905233602482015260440161088a565b61169e8689846141b4565b6116a98784836141ef565b9650620100008416158015906116cd57508363ffffffff1688851763ffffffff1614155b156116ee5760405163a2a7201360e01b81526004810187905260240161088a565b96831796610c1b86868a868b614239565b60008261170c81336117a1565b6117325760405163168ab55d60e31b81526004810182905233602482015260440161088a565b8360026000611740836108cf565b5091505063ffffffff828216161561176e5760405163a2a7201360e01b81526004810184905260240161088a565b6000808061177b8a6108cf565b9250925092506117948a84848c61ffff16178485614239565b5098975050505050505050565b60008080806117af866108cf565b925092509250846001600160a01b0316836001600160a01b03161480610a6057506001600160a01b0380841660009081526002602090815260408083209389168352929052205460ff16610a60565b606081518351146118775760405162461bcd60e51b815260206004820152602960248201527f455243313135353a206163636f756e747320616e6420696473206c656e67746860448201527f206d69736d617463680000000000000000000000000000000000000000000000606482015260840161088a565b6000835167ffffffffffffffff81111561189357611893614fd9565b6040519080825280602002602001820160405280156118bc578160200160208202803683370190505b50905060005b8451811015611934576119078582815181106118e0576118e0615a00565b60200260200101518583815181106118fa576118fa615a00565b6020026020010151610810565b82828151811061191957611919615a00565b602090810291909101015261192d81615a16565b90506118c2565b509392505050565b611944613a82565b6040517fa9059cbb0000000000000000000000000000000000000000000000000000000081526001600160a01b0383811660048301526024820183905284169063a9059cbb906044016020604051808303816000875af11580156119ac573d6000803e3d6000fd5b505050506040513d601f19601f820116820180604052508101906119d09190615a7a565b50505050565b60006108c9826142e3565b60408051602080820186905281830185905282518083038401815260609092019092528051910120600090611a1581613d61565b611a3257604051635374b59960e01b815260040160405180910390fd5b6000611a3e86336109e3565b905080158015611a555750611a5382336117a1565b155b15611a7c5760405163168ab55d60e31b81526004810183905233602482015260440161088a565b60008080611a89856108cf565b92509250925083158015611aa05750620400008216155b15611ac15760405163a2a7201360e01b81526004810186905260240161088a565b6000611acc8a6108cf565b92505050611adb8883836141ef565b9750611ae98685858b6142f9565b60405167ffffffffffffffff8916815286907ff675815a0817338f93a7da433f6bd5f5542f1029b11b455191ac96c7f6a9b1329060200160405180910390a2509598975050505050505050565b611b3e613a82565b611b486000614341565b565b604080517fd051e4f8cb1870f877b00266e1292322bea4c492a9933488e94d7c1a935e8dfa60208083019190915281830186905282518083038401815260609092019092528051910120611b9e81336117a1565b611bc45760405163168ab55d60e31b81526004810182905233602482015260440161088a565b306001600160a01b03841603611bf857604051632ca49b0d60e11b81526001600160a01b038416600482015260240161088a565b604080517fd051e4f8cb1870f877b00266e1292322bea4c492a9933488e94d7c1a935e8dfa60208083019190915281830187905282518083038401815260609092019092528051910120611c4d905b8361439e565b6040517f42842e0e0000000000000000000000000000000000000000000000000000000081523060048201526001600160a01b038481166024830152604482018690527f000000000000000000000000000000000000000000000000000000000000000016906342842e0e90606401600060405180830381600087803b158015611cd657600080fd5b505af1158015611cea573d6000803e3d6000fd5b5050505050505050565b6000808686604051611d07929190615a97565b6040519081900381206331a9108f60e11b82526004820181905291506000907f00000000000000000000000000000000000000000000000000000000000000006001600160a01b031690636352211e90602401602060405180830381865afa158015611d77573d6000803e3d6000fd5b505050506040513d601f19601f82011682018060405250810190611d9b9190615a5d565b90506001600160a01b0381163314801590611e43575060405163e985e9c560e01b81526001600160a01b0382811660048301523360248301527f0000000000000000000000000000000000000000000000000000000000000000169063e985e9c590604401602060405180830381865afa158015611e1d573d6000803e3d6000fd5b505050506040513d601f19601f82011682018060405250810190611e419190615a7a565b155b15611eb357604080517fd051e4f8cb1870f877b00266e1292322bea4c492a9933488e94d7c1a935e8dfa6020808301919091528183018590528251808303840181526060830193849052805191012063168ab55d60e31b909252606481019190915233608482015260a40161088a565b6040517f23b872dd0000000000000000000000000000000000000000000000000000000081526001600160a01b038281166004830152306024830152604482018490527f000000000000000000000000000000000000000000000000000000000000000016906323b872dd90606401600060405180830381600087803b158015611f3c57600080fd5b505af1158015611f50573d6000803e3d6000fd5b5050604051630a3b53db60e21b8152600481018590523060248201527f00000000000000000000000000000000000000000000000000000000000000006001600160a01b031692506328ed4f6c9150604401600060405180830381600087803b158015611fbc57600080fd5b505af1158015611fd0573d6000803e3d6000fd5b5050604051636b727d4360e11b8152600481018590526276a70092507f00000000000000000000000000000000000000000000000000000000000000006001600160a01b0316915063d6e4fa8690602401602060405180830381865afa15801561203e573d6000803e3d6000fd5b505050506040513d601f19601f82011682018060405250810190612062919061596f565b61206c919061599e565b92506120b588888080601f0160208091040260200160405190810160405280939291908181526020018383808284376000920191909152508a9250505061ffff8816868861391c565b505095945050505050565b6001600160a01b038216330361213e5760405162461bcd60e51b815260206004820152602960248201527f455243313135353a2073657474696e6720617070726f76616c2073746174757360448201527f20666f722073656c660000000000000000000000000000000000000000000000606482015260840161088a565b3360008181526002602090815260408083206001600160a01b03871680855290835292819020805460ff191686151590811790915590519081529192917f17307eab39ab6107e8899845ad3d59bd9653f200f220920489ca2b5937696c31910160405180910390a35050565b3360009081526004602052604081205460ff1661221a5760405162461bcd60e51b815260206004820152602860248201527f436f6e74726f6c6c61626c653a2043616c6c6572206973206e6f74206120636f604482015267373a3937b63632b960c11b606482015260840161088a565b6000878760405161222c929190615a97565b6040519081900381207ffca247ac000000000000000000000000000000000000000000000000000000008252600482018190523060248301526044820187905291507f00000000000000000000000000000000000000000000000000000000000000006001600160a01b03169063fca247ac906064016020604051808303816000875af11580156122c1573d6000803e3d6000fd5b505050506040513d601f19601f820116820180604052508101906122e5919061596f565b915061233a88888080601f0160208091040260200160405190810160405280939291908181526020018383808284376000920191909152508a9250505061ffff86166123346276a7008761599e565b8861391c565b509695505050505050565b600080612351846108cf565b50841663ffffffff908116908516149250505092915050565b612372613a82565b6007546001600160a01b0316156124925760075460405163a22cb46560e01b81526001600160a01b039182166004820152600060248201527f00000000000000000000000000000000000000000000000000000000000000009091169063a22cb46590604401600060405180830381600087803b1580156123f257600080fd5b505af1158015612406573d6000803e3d6000fd5b505060075460405163a22cb46560e01b81526001600160a01b039182166004820152600060248201527f0000000000000000000000000000000000000000000000000000000000000000909116925063a22cb4659150604401600060405180830381600087803b15801561247957600080fd5b505af115801561248d573d6000803e3d6000fd5b505050505b6007805473ffffffffffffffffffffffffffffffffffffffff19166001600160a01b038316908117909155156125cc5760075460405163a22cb46560e01b81526001600160a01b039182166004820152600160248201527f00000000000000000000000000000000000000000000000000000000000000009091169063a22cb46590604401600060405180830381600087803b15801561253157600080fd5b505af1158015612545573d6000803e3d6000fd5b505060075460405163a22cb46560e01b81526001600160a01b039182166004820152600160248201527f0000000000000000000000000000000000000000000000000000000000000000909116925063a22cb4659150604401600060405180830381600087803b1580156125b857600080fd5b505af1158015611503573d6000803e3d6000fd5b50565b3360009081526004602052604081205460ff1661263f5760405162461bcd60e51b815260206004820152602860248201527f436f6e74726f6c6c61626c653a2043616c6c6572206973206e6f74206120636f604482015267373a3937b63632b960c11b606482015260840161088a565b604080517fd051e4f8cb1870f877b00266e1292322bea4c492a9933488e94d7c1a935e8dfa602080830191909152818301869052825180830384018152606090920190925280519101206000906040517fc475abff00000000000000000000000000000000000000000000000000000000815260048101869052602481018590529091506000906001600160a01b037f0000000000000000000000000000000000000000000000000000000000000000169063c475abff906044016020604051808303816000875af1158015612719573d6000803e3d6000fd5b505050506040513d601f19601f8201168201806040525081019061273d919061596f565b6040516331a9108f60e11b8152600481018790529091507f00000000000000000000000000000000000000000000000000000000000000006001600160a01b031690636352211e90602401602060405180830381865afa9250505080156127c1575060408051601f3d908101601f191682019092526127be91810190615a5d565b60015b6127ce5791506108c99050565b6001600160a01b0381163014158061287857506040516302571be360e01b81526004810184905230906001600160a01b037f000000000000000000000000000000000000000000000000000000000000000016906302571be390602401602060405180830381865afa158015612848573d6000803e3d6000fd5b505050506040513d601f19601f8201168201806040525081019061286c9190615a5d565b6001600160a01b031614155b15612887575091506108c99050565b5060006128976276a7008361599e565b60008481526001602052604090205490915060a081901c6128ba858383866142f9565b50919695505050505050565b6000866128d381336117a1565b6128f95760405163168ab55d60e31b81526004810182905233602482015260440161088a565b6000878760405161290b929190615a97565b604051809103902090506129468982604080516020808201949094528082019290925280518083038201815260609092019052805191012090565b92506129528984613adc565b61295c8386613c1b565b600061299f8a858b8b8080601f016020809104026020016040519081016040528093929190818152602001838380828437600092019190915250613c4e92505050565b90506129ad8a858888613d1b565b94506129b884613d61565b612a80576040517f06ab5923000000000000000000000000000000000000000000000000000000008152600481018b9052602481018390523060448201527f00000000000000000000000000000000000000000000000000000000000000006001600160a01b0316906306ab5923906064016020604051808303816000875af1158015612a49573d6000803e3d6000fd5b505050506040513d601f19601f82011682018060405250810190612a6d919061596f565b50612a7b8482898989614490565b612ac6565b612ac68a858b8b8080601f0160208091040260200160405190810160405280939291908181526020018383808284376000920191909152508d92508c91508b9050613e51565b5050509695505050505050565b6000612b19600086868080601f01602080910402602001604051908101604052809392919081815260200183838082843760009201919091525092939250506144d29050565b6007549091506001600160a01b0316612b5e576040517f24c1d6d400000000000000000000000000000000000000000000000000000000815260040160405180910390fd5b612b6881336117a1565b612b8e5760405163168ab55d60e31b81526004810182905233602482015260440161088a565b60008080612b9b846108cf565b919450925090506000612bad85610958565b9050612bb885614591565b600760009054906101000a90046001600160a01b03166001600160a01b0316639198c2768a8a878787878e8e6040518963ffffffff1660e01b8152600401612c07989796959493929190615ad0565b600060405180830381600087803b158015612c2157600080fd5b505af1158015612c35573d6000803e3d6000fd5b50505050505050505050505050565b83612c4f81336117a1565b612c755760405163168ab55d60e31b81526004810182905233602482015260440161088a565b84601c6000612c83836108cf565b5091505063ffffffff8282161615612cb15760405163a2a7201360e01b81526004810184905260240161088a565b6040517fcf408823000000000000000000000000000000000000000000000000000000008152600481018990523060248201526001600160a01b03878116604483015267ffffffffffffffff871660648301527f0000000000000000000000000000000000000000000000000000000000000000169063cf40882390608401600060405180830381600087803b158015612d4a57600080fd5b505af1158015612d5e573d6000803e3d6000fd5b5050506001600160a01b0388169050612dc5576000612d7c896108cf565b509150506201ffff1962020000821601612db457604051632ca49b0d60e11b81526001600160a01b038916600482015260240161088a565b612dbf89600061439e565b50611cea565b6000612dd0896119d6565b9050612df281898b60001c600160405180602001604052806000815250614660565b505050505050505050565b60408051602080820186905281830185905282518083038401815260609092019092528051910120612e2f81336117a1565b612e555760405163168ab55d60e31b81526004810182905233602482015260440161088a565b7f2fae1b0734e78f07884ffd991ed6dcdd415b3b6d566ccb7716b283e56ca172068401612e955760405163615a470360e01b815260040160405180910390fd5b6001600160a01b0382161580612eb357506001600160a01b03821630145b15612edc57604051632ca49b0d60e11b81526001600160a01b038316600482015260240161088a565b604080516020808201879052818301869052825180830384018152606090920190925280519101206119d090611c47565b604080516020808201859052818301849052825180830384018152606090920190925280519101206000906000612f4382613d61565b90507fd051e4f8cb1870f877b00266e1292322bea4c492a9933488e94d7c1a935e8dfa8514612f755791506108c99050565b6040516331a9108f60e11b8152600481018590527f00000000000000000000000000000000000000000000000000000000000000006001600160a01b031690636352211e90602401602060405180830381865afa925050508015612ff6575060408051601f3d908101601f19168201909252612ff391810190615a5d565b60015b613005576000925050506108c9565b6001600160a01b0316301492506108c9915050565b613022613a82565b6001600160a01b038216600081815260046020908152604091829020805460ff191685151590811790915591519182527f4c97694570a07277810af7e5669ffd5f6a2d6b74b6e9a274b8b870fd5114cf8791015b60405180910390a25050565b6000806130c9600087878080601f01602080910402602001604051908101604052809392919081815260200183838082843760009201919091525092939250506147b29050565b9150915060006131128288888080601f01602080910402602001604051908101604052809392919081815260200183838082843760009201919091525092939250506144d29050565b60408051602080820184905281830187905282518083038401815260609092019092528051910120909150600090600081815260066020526040902090915061315c888a83615b7f565b507f2fae1b0734e78f07884ffd991ed6dcdd415b3b6d566ccb7716b283e56ca17206820161319d5760405163615a470360e01b815260040160405180910390fd5b6040516302571be360e01b8152600481018290526000907f00000000000000000000000000000000000000000000000000000000000000006001600160a01b0316906302571be390602401602060405180830381865afa158015613205573d6000803e3d6000fd5b505050506040513d601f19601f820116820180604052508101906132299190615a5d565b90506001600160a01b03811633148015906132d1575060405163e985e9c560e01b81526001600160a01b0382811660048301523360248301527f0000000000000000000000000000000000000000000000000000000000000000169063e985e9c590604401602060405180830381865afa1580156132ab573d6000803e3d6000fd5b505050506040513d601f19601f820116820180604052508101906132cf9190615a7a565b155b156132f85760405163168ab55d60e31b81526004810183905233602482015260440161088a565b6001600160a01b0386161561338a57604051630c4b7b8560e11b8152600481018390526001600160a01b0387811660248301527f00000000000000000000000000000000000000000000000000000000000000001690631896f70a90604401600060405180830381600087803b15801561337157600080fd5b505af1158015613385573d6000803e3d6000fd5b505050505b604051635b0fc9c360e01b8152600481018390523060248201527f00000000000000000000000000000000000000000000000000000000000000006001600160a01b031690635b0fc9c390604401600060405180830381600087803b1580156133f257600080fd5b505af1158015613406573d6000803e3d6000fd5b50505050612df2828a8a8080601f01602080910402602001604051908101604052809392919081815260200183838082843760009201829052508d93509150819050614490565b6001600160a01b0384166134b15760405162461bcd60e51b815260206004820152602560248201527f455243313135353a207472616e7366657220746f20746865207a65726f206164604482015264647265737360d81b606482015260840161088a565b6001600160a01b0385163314806134eb57506001600160a01b038516600090815260026020908152604080832033845290915290205460ff165b61355d5760405162461bcd60e51b815260206004820152602960248201527f455243313135353a2063616c6c6572206973206e6f74206f776e6572206e6f7260448201527f20617070726f7665640000000000000000000000000000000000000000000000606482015260840161088a565b6115038585858585614660565b613572613a82565b6001600160a01b0381166135ee5760405162461bcd60e51b815260206004820152602660248201527f4f776e61626c653a206e6577206f776e657220697320746865207a65726f206160448201527f6464726573730000000000000000000000000000000000000000000000000000606482015260840161088a565b6125cc81614341565b60008181526006602052604081208054829190613613906159c6565b80601f016020809104026020016040519081016040528092919081815260200182805461363f906159c6565b801561368c5780601f106136615761010080835404028352916020019161368c565b820191906000526020600020905b81548152906001019060200180831161366f57829003601f168201915b5050505050905080516000036136a55750600092915050565b6000806136b283826147b2565b909250905060006136c384836144d2565b9050610a738184612f0d565b600080428367ffffffffffffffff1610156136fd5761ffff19620100008516016136f857600094505b600093505b50929391925050565b60006001600160e01b031982167fd9b67a2600000000000000000000000000000000000000000000000000000000148061376957506001600160e01b031982167f0e89341c00000000000000000000000000000000000000000000000000000000145b806108c957507f01ffc9a7000000000000000000000000000000000000000000000000000000006001600160e01b03198316146108c9565b60006137ac826119d6565b9050806001600160a01b0316836001600160a01b0316036138355760405162461bcd60e51b815260206004820152602160248201527f4552433732313a20617070726f76616c20746f2063757272656e74206f776e6560448201527f7200000000000000000000000000000000000000000000000000000000000000606482015260840161088a565b336001600160a01b038216148061386f57506001600160a01b038116600090815260026020908152604080832033845290915290205460ff165b6138e15760405162461bcd60e51b815260206004820152603d60248201527f4552433732313a20617070726f76652063616c6c6572206973206e6f7420746f60448201527f6b656e206f776e6572206f7220617070726f76656420666f7220616c6c000000606482015260840161088a565b6109de8383614869565b60006202000083811614801561099657504261390a6276a70084615c3f565b67ffffffffffffffff16109392505050565b8451602086012060006139767fd051e4f8cb1870f877b00266e1292322bea4c492a9933488e94d7c1a935e8dfa83604080516020808201949094528082019290925280518083038201815260609092019052805191012090565b905060006139b9886040518060400160405280600881526020017f067363726f6c6c000000000000000000000000000000000000000000000000008152506148e4565b60008381526006602052604090209091506139d48282615c60565b506139e7828289620300008a1789614490565b6001600160a01b03841615611cea57604051630c4b7b8560e11b8152600481018390526001600160a01b0385811660248301527f00000000000000000000000000000000000000000000000000000000000000001690631896f70a90604401600060405180830381600087803b158015613a6057600080fd5b505af1158015613a74573d6000803e3d6000fd5b505050505050505050505050565b6000546001600160a01b03163314611b485760405162461bcd60e51b815260206004820181905260248201527f4f776e61626c653a2063616c6c6572206973206e6f7420746865206f776e6572604482015260640161088a565b60008080613ae9846108cf565b919450925090504267ffffffffffffffff821610808015613bad57506001600160a01b0384161580613bad57506040516302571be360e01b8152600481018690526000906001600160a01b037f000000000000000000000000000000000000000000000000000000000000000016906302571be390602401602060405180830381865afa158015613b7e573d6000803e3d6000fd5b505050506040513d601f19601f82011682018060405250810190613ba29190615a5d565b6001600160a01b0316145b15613bec576000613bbd876108cf565b509150506020811615613be65760405163a2a7201360e01b81526004810187905260240161088a565b50613c13565b62010000831615613c135760405163a2a7201360e01b81526004810186905260240161088a565b505050505050565b63fffdffff81811763ffffffff1614613c4a5760405163a2a7201360e01b81526004810183905260240161088a565b5050565b60606000613cf783600660008881526020019081526020016000208054613c74906159c6565b80601f0160208091040260200160405190810160405280929190818152602001828054613ca0906159c6565b8015613ced5780601f10613cc257610100808354040283529160200191613ced565b820191906000526020600020905b815481529060010190602001808311613cd057829003601f168201915b50505050506148e4565b6000858152600660205260409020909150613d128282615c60565b50949350505050565b600080613d27856108cf565b92505050600080613d3a8860001c6108cf565b9250925050613d4a8787846141b4565b613d558584836141ef565b98975050505050505050565b600080613d6d836119d6565b6001600160a01b0316141580156108c957506040516302571be360e01b81526004810183905230906001600160a01b037f000000000000000000000000000000000000000000000000000000000000000016906302571be390602401602060405180830381865afa158015613de6573d6000803e3d6000fd5b505050506040513d601f19601f82011682018060405250810190613e0a9190615a5d565b6001600160a01b03161492915050565b60008681526006602052604081208054613e39918791613c74906159c6565b9050613e488682868686614490565b50505050505050565b60008080613e5e886108cf565b9250925092506000613e8888600660008d81526020019081526020016000208054613c74906159c6565b60008a8152600660205260409020805491925090613ea5906159c6565b9050600003613ec8576000898152600660205260409020613ec68282615c60565b505b613ed789858886178589614239565b6001600160a01b038716613ef557613ef089600061439e565b610c1b565b610c1b84888b60001c600160405180602001604052806000815250614660565b6201ffff1962020000831601613f3557613f326276a70082615c3f565b90505b428167ffffffffffffffff161015613fb25762010000821615613fad5760405162461bcd60e51b815260206004820152602a60248201527f455243313135353a20696e73756666696369656e742062616c616e636520666f60448201526939103a3930b739b332b960b11b606482015260840161088a565b613fd7565b6004821615613fd75760405163a2a7201360e01b81526004810184905260240161088a565b604082166000036109de5750506000908152600360205260409020805473ffffffffffffffffffffffffffffffffffffffff19169055565b6001600160a01b0384163b15613c135760405163bc197c8160e01b81526001600160a01b0385169063bc197c81906140539089908990889088908890600401615d20565b6020604051808303816000875af192505050801561408e575060408051601f3d908101601f1916820190925261408b91810190615d72565b60015b6141435761409a615d8f565b806308c379a0036140d357506140ae615dab565b806140b957506140d5565b8060405162461bcd60e51b815260040161088a9190614e74565b505b60405162461bcd60e51b815260206004820152603460248201527f455243313135353a207472616e7366657220746f206e6f6e204552433131353560448201527f526563656976657220696d706c656d656e746572000000000000000000000000606482015260840161088a565b6001600160e01b0319811663bc197c8160e01b14613e485760405162461bcd60e51b815260206004820152602860248201527f455243313135353a204552433131353552656365697665722072656a656374656044820152676420746f6b656e7360c01b606482015260840161088a565b63ffff000082161580159060018316159082906141ce5750805b156115035760405163a2a7201360e01b81526004810186905260240161088a565b60008167ffffffffffffffff168467ffffffffffffffff161115614211578193505b8267ffffffffffffffff168467ffffffffffffffff161015614231578293505b509192915050565b614245858585846142f9565b60405163ffffffff8416815285907f39873f00c80f4f94b7bd1594aebcf650f003545b74824d57ddf4939e3ff3a34b9060200160405180910390a28167ffffffffffffffff168167ffffffffffffffff1611156115035760405167ffffffffffffffff8216815285907ff675815a0817338f93a7da433f6bd5f5542f1029b11b455191ac96c7f6a9b132906020015b60405180910390a25050505050565b6000806142ef836108cf565b5090949350505050565b614303848361498d565b60008481526001602052604090206001600160a01b03841663ffffffff60a01b60a085901b16176001600160c01b031960c084901b161790556119d0565b600080546001600160a01b0383811673ffffffffffffffffffffffffffffffffffffffff19831681178455604051919092169283917f8be0079c531659141344cd1fd0a4f28419497f9722a3daafe3b4186f6b6457e09190a35050565b6143a9826001612345565b156143ca5760405163a2a7201360e01b81526004810183905260240161088a565b6143d382614591565b604051635b0fc9c360e01b8152600481018390526001600160a01b0382811660248301527f00000000000000000000000000000000000000000000000000000000000000001690635b0fc9c390604401600060405180830381600087803b15801561443d57600080fd5b505af1158015614451573d6000803e3d6000fd5b50506040516001600160a01b03841681528492507fee2ba1195c65bcf218a83d874335c6bf9d9067b4c672f3c3bf16cf40de7586c49150602001613076565b61449c858484846149c6565b847f8ce7013e8abebc55c3890a68f5a27c67c3f7efa64e584de5fb22363c606fd340858585856040516142d49493929190615e35565b60008060006144e185856147b2565b90925090508161455357600185516144f99190615e7d565b84146145475760405162461bcd60e51b815260206004820152601d60248201527f6e616d65686173683a204a756e6b20617420656e64206f66206e616d65000000604482015260640161088a565b50600091506108c99050565b61455d85826144d2565b6040805160208101929092528101839052606001604051602081830303815290604052805190602001209250505092915050565b60008181526001602052604090205460a081901c60c082901c6145b58383836136cf565b6000868152600360209081526040808320805473ffffffffffffffffffffffffffffffffffffffff191690556001909152902063ffffffff60a01b60a083901b166001600160c01b031960c086901b1617905592506146119050565b60408051858152600160208201526000916001600160a01b0386169133917fc3d58168c5ae7397731d063d5bbf3d657854427343f4c083240f7aacaa2d0f62910160405180910390a450505050565b600080600061466e866108cf565b92509250925061467f868383613f15565b8460011480156146a05750876001600160a01b0316836001600160a01b0316145b6146ff5760405162461bcd60e51b815260206004820152602a60248201527f455243313135353a20696e73756666696369656e742062616c616e636520666f60448201526939103a3930b739b332b960b11b606482015260840161088a565b866001600160a01b0316836001600160a01b03160361472057505050611503565b60008681526001602052604090206001600160a01b03881663ffffffff60a01b60a085901b16176001600160c01b031960c084901b1617905560408051878152602081018790526001600160a01b03808a1692908b169133917fc3d58168c5ae7397731d063d5bbf3d657854427343f4c083240f7aacaa2d0f62910160405180910390a4611cea338989898989614a3a565b600080835183106148055760405162461bcd60e51b815260206004820152601e60248201527f726561644c6162656c3a20496e646578206f7574206f6620626f756e64730000604482015260640161088a565b600084848151811061481957614819615a00565b016020015160f81c905080156148455761483e85614838866001615e90565b83614b36565b925061484a565b600092505b6148548185615e90565b61485f906001615e90565b9150509250929050565b6000818152600360205260409020805473ffffffffffffffffffffffffffffffffffffffff19166001600160a01b03841690811790915581906148ab826119d6565b6001600160a01b03167f8c5be1e5ebec7d5bd14f71427d1e84f3dd0314c0f7b2291e5b200ac8c7c3b92560405160405180910390a45050565b6060600183511015614922576040517f280dacb600000000000000000000000000000000000000000000000000000000815260040160405180910390fd5b60ff8351111561496057826040517fe3ba295f00000000000000000000000000000000000000000000000000000000815260040161088a9190614e74565b8251838360405160200161497693929190615ea3565b604051602081830303815290604052905092915050565b61ffff8116158015906149a557506201000181811614155b15613c4a5760405163a2a7201360e01b81526004810183905260240161088a565b6149d0848361498d565b6000848152600160205260409020546001600160a01b03811615614a2e576149f785614591565b6040516000815285907fee2ba1195c65bcf218a83d874335c6bf9d9067b4c672f3c3bf16cf40de7586c49060200160405180910390a25b61150385858585614b5a565b6001600160a01b0384163b15613c135760405163f23a6e6160e01b81526001600160a01b0385169063f23a6e6190614a7e9089908990889088908890600401615f04565b6020604051808303816000875af1925050508015614ab9575060408051601f3d908101601f19168201909252614ab691810190615d72565b60015b614ac55761409a615d8f565b6001600160e01b0319811663f23a6e6160e01b14613e485760405162461bcd60e51b815260206004820152602860248201527f455243313135353a204552433131353552656365697665722072656a656374656044820152676420746f6b656e7360c01b606482015260840161088a565b8251600090614b458385615e90565b1115614b5057600080fd5b5091016020012090565b8360008080614b68846108cf565b9194509250905063ffff0000821667ffffffffffffffff8087169083161115614b8f578195505b428267ffffffffffffffff1610614ba557958617955b6001600160a01b03841615614bfc5760405162461bcd60e51b815260206004820152601f60248201527f455243313135353a206d696e74206f66206578697374696e6720746f6b656e00604482015260640161088a565b6001600160a01b038816614c785760405162461bcd60e51b815260206004820152602160248201527f455243313135353a206d696e7420746f20746865207a65726f2061646472657360448201527f7300000000000000000000000000000000000000000000000000000000000000606482015260840161088a565b306001600160a01b03891603614cf65760405162461bcd60e51b815260206004820152603460248201527f455243313135353a206e65774f776e65722063616e6e6f74206265207468652060448201527f4e616d655772617070657220636f6e7472616374000000000000000000000000606482015260840161088a565b60008581526001602052604090206001600160a01b03891663ffffffff60a01b60a08a901b16176001600160c01b031960c089901b1617905560408051868152600160208201526001600160a01b038a169160009133917fc3d58168c5ae7397731d063d5bbf3d657854427343f4c083240f7aacaa2d0f62910160405180910390a4612df23360008a88600160405180602001604052806000815250614a3a565b6001600160a01b03811681146125cc57600080fd5b60008060408385031215614dbf57600080fd5b8235614dca81614d97565b946020939093013593505050565b600060208284031215614dea57600080fd5b5035919050565b6001600160e01b0319811681146125cc57600080fd5b600060208284031215614e1957600080fd5b813561099681614df1565b60005b83811015614e3f578181015183820152602001614e27565b50506000910152565b60008151808452614e60816020860160208601614e24565b601f01601f19169290920160200192915050565b6020815260006109966020830184614e48565b60008060408385031215614e9a57600080fd5b823591506020830135614eac81614d97565b809150509250929050565b803567ffffffffffffffff81168114614ecf57600080fd5b919050565b60008060408385031215614ee757600080fd5b82359150614ef760208401614eb7565b90509250929050565b60008083601f840112614f1257600080fd5b50813567ffffffffffffffff811115614f2a57600080fd5b602083019150836020828501011115614f4257600080fd5b9250929050565b600080600080600060808688031215614f6157600080fd5b8535614f6c81614d97565b94506020860135614f7c81614d97565b935060408601359250606086013567ffffffffffffffff811115614f9f57600080fd5b614fab88828901614f00565b969995985093965092949392505050565b600060208284031215614fce57600080fd5b813561099681614d97565b634e487b7160e01b600052604160045260246000fd5b601f8201601f1916810167ffffffffffffffff8111828210171561501557615015614fd9565b6040525050565b600067ffffffffffffffff82111561503657615036614fd9565b50601f01601f191660200190565b600082601f83011261505557600080fd5b81356150608161501c565b60405161506d8282614fef565b82815285602084870101111561508257600080fd5b82602086016020830137600092810160200192909252509392505050565b803563ffffffff81168114614ecf57600080fd5b600080600080600080600060e0888a0312156150cf57600080fd5b87359650602088013567ffffffffffffffff8111156150ed57600080fd5b6150f98a828b01615044565b965050604088013561510a81614d97565b9450606088013561511a81614d97565b935061512860808901614eb7565b925061513660a089016150a0565b915061514460c08901614eb7565b905092959891949750929550565b600067ffffffffffffffff82111561516c5761516c614fd9565b5060051b60200190565b600082601f83011261518757600080fd5b8135602061519482615152565b6040516151a18282614fef565b83815260059390931b85018201928281019150868411156151c157600080fd5b8286015b8481101561233a57803583529183019183016151c5565b600080600080600060a086880312156151f457600080fd5b85356151ff81614d97565b9450602086013561520f81614d97565b9350604086013567ffffffffffffffff8082111561522c57600080fd5b61523889838a01615176565b9450606088013591508082111561524e57600080fd5b61525a89838a01615176565b9350608088013591508082111561527057600080fd5b5061527d88828901615044565b9150509295509295909350565b600080600080608085870312156152a057600080fd5b84359350602085013592506152b7604086016150a0565b91506152c560608601614eb7565b905092959194509250565b803561ffff81168114614ecf57600080fd5b600080604083850312156152f557600080fd5b82359150614ef7602084016152d0565b6000806040838503121561531857600080fd5b823567ffffffffffffffff8082111561533057600080fd5b818501915085601f83011261534457600080fd5b8135602061535182615152565b60405161535e8282614fef565b83815260059390931b850182019282810191508984111561537e57600080fd5b948201945b838610156153a557853561539681614d97565b82529482019490820190615383565b965050860135925050808211156153bb57600080fd5b5061485f85828601615176565b600081518084526020808501945080840160005b838110156153f8578151875295820195908201906001016153dc565b509495945050505050565b60208152600061099660208301846153c8565b60008060006060848603121561542b57600080fd5b833561543681614d97565b9250602084013561544681614d97565b929592945050506040919091013590565b60008060006060848603121561546c57600080fd5b833592506020840135915061548360408501614eb7565b90509250925092565b6000806000606084860312156154a157600080fd5b8335925060208401356154b381614d97565b915060408401356154c381614d97565b809150509250925092565b6000806000806000608086880312156154e657600080fd5b853567ffffffffffffffff8111156154fd57600080fd5b61550988828901614f00565b909650945050602086013561551d81614d97565b925061552b604087016152d0565b9150606086013561553b81614d97565b809150509295509295909350565b80151581146125cc57600080fd5b6000806040838503121561556a57600080fd5b823561557581614d97565b91506020830135614eac81615549565b60008060008060008060a0878903121561559e57600080fd5b863567ffffffffffffffff8111156155b557600080fd5b6155c189828a01614f00565b90975095505060208701356155d581614d97565b93506040870135925060608701356155ec81614d97565b91506155fa608088016152d0565b90509295509295509295565b6000806040838503121561561957600080fd5b82359150614ef7602084016150a0565b6000806040838503121561563c57600080fd5b50508035926020909101359150565b60008060008060008060a0878903121561566457600080fd5b86359550602087013567ffffffffffffffff81111561568257600080fd5b61568e89828a01614f00565b90965094505060408701356156a281614d97565b92506156b0606088016150a0565b91506155fa60808801614eb7565b600080600080604085870312156156d457600080fd5b843567ffffffffffffffff808211156156ec57600080fd5b6156f888838901614f00565b9096509450602087013591508082111561571157600080fd5b5061571e87828801614f00565b95989497509550505050565b6000806000806080858703121561574057600080fd5b84359350602085013561575281614d97565b925060408501356152b781614d97565b60008060006060848603121561577757600080fd5b833592506020840135915060408401356154c381614d97565b600080604083850312156157a357600080fd5b82356157ae81614d97565b91506020830135614eac81614d97565b600080600080606085870312156157d457600080fd5b843567ffffffffffffffff8111156157eb57600080fd5b6157f787828801614f00565b909550935050602085013561580b81614d97565b9150604085013561581b81614d97565b939692955090935050565b600080600080600060a0868803121561583e57600080fd5b853561584981614d97565b9450602086013561585981614d97565b93506040860135925060608601359150608086013567ffffffffffffffff81111561588357600080fd5b61527d88828901615044565b6000602082840312156158a157600080fd5b815167ffffffffffffffff8111156158b857600080fd5b8201601f810184136158c957600080fd5b80516158d48161501c565b6040516158e18282614fef565b8281528660208486010111156158f657600080fd5b610a73836020830160208701614e24565b6000806000806080858703121561591d57600080fd5b843567ffffffffffffffff81111561593457600080fd5b61594087828801615044565b945050602085013561595181614d97565b925061595f604086016152d0565b9150606085013561581b81614d97565b60006020828403121561598157600080fd5b5051919050565b634e487b7160e01b600052601160045260246000fd5b67ffffffffffffffff8181168382160190808211156159bf576159bf615988565b5092915050565b600181811c908216806159da57607f821691505b6020821081036159fa57634e487b7160e01b600052602260045260246000fd5b50919050565b634e487b7160e01b600052603260045260246000fd5b600060018201615a2857615a28615988565b5060010190565b604081526000615a4260408301856153c8565b8281036020840152615a5481856153c8565b95945050505050565b600060208284031215615a6f57600080fd5b815161099681614d97565b600060208284031215615a8c57600080fd5b815161099681615549565b8183823760009101908152919050565b81835281816020850137506000828201602090810191909152601f909101601f19169091010190565b60c081526000615ae460c083018a8c615aa7565b6001600160a01b03898116602085015263ffffffff8916604085015267ffffffffffffffff881660608501528616608084015282810360a0840152615b2a818587615aa7565b9b9a5050505050505050505050565b601f8211156109de57600081815260208120601f850160051c81016020861015615b605750805b601f850160051c820191505b81811015613c1357828155600101615b6c565b67ffffffffffffffff831115615b9757615b97614fd9565b615bab83615ba583546159c6565b83615b39565b6000601f841160018114615bdf5760008515615bc75750838201355b600019600387901b1c1916600186901b178355611503565b600083815260209020601f19861690835b82811015615c105786850135825560209485019460019092019101615bf0565b5086821015615c2d5760001960f88860031b161c19848701351681555b505060018560011b0183555050505050565b67ffffffffffffffff8281168282160390808211156159bf576159bf615988565b815167ffffffffffffffff811115615c7a57615c7a614fd9565b615c8e81615c8884546159c6565b84615b39565b602080601f831160018114615cc35760008415615cab5750858301515b600019600386901b1c1916600185901b178555613c13565b600085815260208120601f198616915b82811015615cf257888601518255948401946001909101908401615cd3565b5085821015615d105787850151600019600388901b60f8161c191681555b5050505050600190811b01905550565b60006001600160a01b03808816835280871660208401525060a06040830152615d4c60a08301866153c8565b8281036060840152615d5e81866153c8565b90508281036080840152613d558185614e48565b600060208284031215615d8457600080fd5b815161099681614df1565b600060033d1115615da85760046000803e5060005160e01c5b90565b600060443d1015615db95790565b6040516003193d81016004833e81513d67ffffffffffffffff8160248401118184111715615de957505050505090565b8285019150815181811115615e015750505050505090565b843d8701016020828501011115615e1b5750505050505090565b615e2a60208286010187614fef565b509095945050505050565b608081526000615e486080830187614e48565b6001600160a01b039590951660208301525063ffffffff92909216604083015267ffffffffffffffff16606090910152919050565b818103818111156108c9576108c9615988565b808201808211156108c9576108c9615988565b7fff000000000000000000000000000000000000000000000000000000000000008460f81b16815260008351615ee0816001850160208801614e24565b835190830190615ef7816001840160208801614e24565b0160010195945050505050565b60006001600160a01b03808816835280871660208401525084604083015283606083015260a06080830152615f3c60a0830184614e48565b97965050505050505056fea2646970667358221220e7d2a590b71c4459defbf81868d33a82f684445fd613195fd45a82548cc9383f64736f6c63430008110033",
  "linkReferences": {},
  "deployedLinkReferences": {}
}