{
  "_format": "hh-sol-artifact-1",
  "contractName": "ExponentialPremiumPriceOracle",
  "sourceName": "contracts/ethregistrar/ExponentialPremiumPriceOracle.sol",
  "abi": [
    {
      "inputs": [
        {
          "internalType": "contract AggregatorInterface",
          "name": "_usdOracle",
          "type": "address"
        },
        {
          "internalType": "uint256[]",
          "name": "_rentPrices",
          "type": "uint256[]"
        },
        {
          "internalType": "uint256",
          "name": "_startPremium",
          "type": "uint256"
        },
        {
          "internalType": "uint256",
          "name": "totalDays",
          "type": "uint256"
        }
      ],
      "stateMutability": "nonpayable",
      "type": "constructor"
    },
    {
      "anonymous": false,
      "inputs": [
        {
          "indexed": true,
          "internalType": "address",
          "name": "previousOwner",
          "type": "address"
        },
        {
          "indexed": true,
          "internalType": "address",
          "name": "newOwner",
          "type": "address"
        }
      ],
      "name": "OwnershipTransferred",
      "type": "event"
    },
    {
      "anonymous": false,
      "inputs": [
        {
          "indexed": false,
          "internalType": "uint256[]",
          "name": "prices",
          "type": "uint256[]"
        }
      ],
      "name": "RentPriceChanged",
      "type": "event"
    },
    {
      "inputs": [
        {
          "internalType": "uint256",
          "name": "startPremium",
          "type": "uint256"
        },
        {
          "internalType": "uint256",
          "name": "elapsed",
          "type": "uint256"
        }
      ],
      "name": "decayedPremium",
      "outputs": [
        {
          "internalType": "uint256",
          "name": "",
          "type": "uint256"
        }
      ],
      "stateMutability": "pure",
      "type": "function"
    },
    {
      "inputs": [],
      "name": "owner",
      "outputs": [
        {
          "internalType": "address",
          "name": "",
          "type": "address"
        }
      ],
      "stateMutability": "view",
      "type": "function"
    },
    {
      "inputs": [
        {
          "internalType": "string",
          "name": "name",
          "type": "string"
        },
        {
          "internalType": "uint256",
          "name": "expires",
          "type": "uint256"
        },
        {
          "internalType": "uint256",
          "name": "duration",
          "type": "uint256"
        }
      ],
      "name": "premium",
      "outputs": [
        {
          "internalType": "uint256",
          "name": "",
          "type": "uint256"
        }
      ],
      "stateMutability": "view",
      "type": "function"
    },
    {
      "inputs": [
        {
          "internalType": "string",
          "name": "name",
          "type": "string"
        },
        {
          "internalType": "uint256",
          "name": "expires",
          "type": "uint256"
        },
        {
          "internalType": "uint256",
          "name": "duration",
          "type": "uint256"
        },
        {
          "internalType": "address",
          "name": "user",
          "type": "address"
        }
      ],
      "name": "price",
      "outputs": [
        {
          "components": [
            {
              "internalType": "uint256",
              "name": "base",
              "type": "uint256"
            },
            {
              "internalType": "uint256",
              "name": "premium",
              "type": "uint256"
            }
          ],
          "internalType": "struct IPriceOracle.Price",
          "name": "",
          "type": "tuple"
        }
      ],
      "stateMutability": "view",
      "type": "function"
    },
    {
      "inputs": [],
      "name": "price1Letter",
      "outputs": [
        {
          "internalType": "uint256",
          "name": "",
          "type": "uint256"
        }
      ],
      "stateMutability": "view",
      "type": "function"
    },
    {
      "inputs": [],
      "name": "price2Letter",
      "outputs": [
        {
          "internalType": "uint256",
          "name": "",
          "type": "uint256"
        }
      ],
      "stateMutability": "view",
      "type": "function"
    },
    {
      "inputs": [],
      "name": "price3Letter",
      "outputs": [
        {
          "internalType": "uint256",
          "name": "",
          "type": "uint256"
        }
      ],
      "stateMutability": "view",
      "type": "function"
    },
    {
      "inputs": [],
      "name": "price4Letter",
      "outputs": [
        {
          "internalType": "uint256",
          "name": "",
          "type": "uint256"
        }
      ],
      "stateMutability": "view",
      "type": "function"
    },
    {
      "inputs": [],
      "name": "price5Letter",
      "outputs": [
        {
          "internalType": "uint256",
          "name": "",
          "type": "uint256"
        }
      ],
      "stateMutability": "view",
      "type": "function"
    },
    {
      "inputs": [],
      "name": "renounceOwnership",
      "outputs": [],
      "stateMutability": "nonpayable",
      "type": "function"
    },
    {
      "inputs": [
        {
          "internalType": "bytes4",
          "name": "interfaceID",
          "type": "bytes4"
        }
      ],
      "name": "supportsInterface",
      "outputs": [
        {
          "internalType": "bool",
          "name": "",
          "type": "bool"
        }
      ],
      "stateMutability": "view",
      "type": "function"
    },
    {
      "inputs": [
        {
          "internalType": "address",
          "name": "newOwner",
          "type": "address"
        }
      ],
      "name": "transferOwnership",
      "outputs": [],
      "stateMutability": "nonpayable",
      "type": "function"
    },
    {
      "inputs": [],
      "name": "usdOracle",
      "outputs": [
        {
          "internalType": "contract AggregatorInterface",
          "name": "",
          "type": "address"
        }
      ],
      "stateMutability": "view",
      "type": "function"
    }
  ],
  "bytecode": "0x6101806040523480156200001257600080fd5b506040516200133638038062001336833981016040819052620000359162000185565b838362000042336200011f565b6001600160a01b038216610120528051819060009062000066576200006662000280565b602002602001015160808181525050806001815181106200008b576200008b62000280565b602002602001015160a0818152505080600281518110620000b057620000b062000280565b602002602001015160c0818152505080600381518110620000d557620000d562000280565b602002602001015160e0818152505080600481518110620000fa57620000fa62000280565b60209081029190910101516101005250506101408290521c6101605250620002969050565b600080546001600160a01b038381166001600160a01b0319831681178455604051919092169283917f8be0079c531659141344cd1fd0a4f28419497f9722a3daafe3b4186f6b6457e09190a35050565b634e487b7160e01b600052604160045260246000fd5b600080600080608085870312156200019c57600080fd5b84516001600160a01b0381168114620001b457600080fd5b602086810151919550906001600160401b0380821115620001d457600080fd5b818801915088601f830112620001e957600080fd5b815181811115620001fe57620001fe6200016f565b8060051b604051601f19603f830116810181811085821117156200022657620002266200016f565b60405291825284820192508381018501918b8311156200024557600080fd5b938501935b8285101562000265578451845293850193928501926200024a565b60408b01516060909b0151999c909b50975050505050505050565b634e487b7160e01b600052603260045260246000fd5b60805160a05160c05160e051610100516101205161014051610160516110096200032d60003960008181610d160152610d4001526000610ced0152600081816102170152610c1501526000818161014601526103c101526000818161026501526103fa0152600081816101dd015261042c01526000818161023e015261045e015260008181610111015261048801526110096000f3fe608060405234801561001057600080fd5b50600436106100df5760003560e01c80638da5cb5b1161008c578063c8a4271f11610066578063c8a4271f14610212578063cd5d2c7414610239578063d820ed4214610260578063f2fde38b1461028757600080fd5b80638da5cb5b146101b3578063a200e153146101d8578063a34e3596146101ff57600080fd5b806359e1777c116100bd57806359e1777c14610168578063715018a61461017b57806389fce6191461018557600080fd5b806301ffc9a7146100e45780632c0fd74c1461010c57806359b6b86c14610141575b600080fd5b6100f76100f2366004610d7a565b61029a565b60405190151581526020015b60405180910390f35b6101337f000000000000000000000000000000000000000000000000000000000000000081565b604051908152602001610103565b6101337f000000000000000000000000000000000000000000000000000000000000000081565b610133610176366004610dbc565b6102ab565b610183610346565b005b610198610193366004610e43565b61035a565b60408051825181526020928301519281019290925201610103565b6000546001600160a01b03165b6040516001600160a01b039091168152602001610103565b6101337f000000000000000000000000000000000000000000000000000000000000000081565b61013361020d366004610eaa565b610521565b6101c07f000000000000000000000000000000000000000000000000000000000000000081565b6101337f000000000000000000000000000000000000000000000000000000000000000081565b6101337f000000000000000000000000000000000000000000000000000000000000000081565b610183610295366004610efb565b610572565b60006102a582610607565b92915050565b600080620151806102c4670de0b6b3a764000085610f2c565b6102ce9190610f43565b905060006102e4670de0b6b3a764000083610f43565b905084811c60006102fd670de0b6b3a764000084610f2c565b6103079085610f65565b90506000670de0b6b3a76400006103218362010000610f2c565b61032b9190610f43565b90506000610339828561069f565b9998505050505050505050565b61034e6109bf565b6103586000610a19565b565b604080518082019091526000808252602082015260006103af87878080601f016020809104026020016040519081016040528093929190818152602001838380828437600092019190915250610a8192505050565b90506000600582106103ec576103e5857f0000000000000000000000000000000000000000000000000000000000000000610f2c565b90506104af565b8160040361041e576103e5857f0000000000000000000000000000000000000000000000000000000000000000610f2c565b81600303610450576103e5857f0000000000000000000000000000000000000000000000000000000000000000610f2c565b81600203610482576103e5857f0000000000000000000000000000000000000000000000000000000000000000610f2c565b6104ac857f0000000000000000000000000000000000000000000000000000000000000000610f2c565b90505b60405180604001604052806104c383610c10565b815260200161051361050e8b8b8080601f0160208091040260200160405190810160405280939291908181526020018383808284376000920191909152508d92508c9150610cb79050565b610c10565b905298975050505050505050565b600061056961050e86868080601f016020809104026020016040519081016040528093929190818152602001838380828437600092019190915250889250879150610cb79050565b95945050505050565b61057a6109bf565b6001600160a01b0381166105fb5760405162461bcd60e51b815260206004820152602660248201527f4f776e61626c653a206e6577206f776e657220697320746865207a65726f206160448201527f646472657373000000000000000000000000000000000000000000000000000060648201526084015b60405180910390fd5b61060481610a19565b50565b60007fffffffff0000000000000000000000000000000000000000000000000000000082167f01ffc9a70000000000000000000000000000000000000000000000000000000014806102a557507fffffffff0000000000000000000000000000000000000000000000000000000082167f89fce619000000000000000000000000000000000000000000000000000000001492915050565b600060018316156106d257670de0b6b3a76400006106c5670de0ad151d09418084610f2c565b6106cf9190610f43565b91505b600283161561070357670de0b6b3a76400006106f6670de0a3769959680084610f2c565b6107009190610f43565b91505b600483161561073457670de0b6b3a7640000610727670de09039a5fa510084610f2c565b6107319190610f43565b91505b600883161561076557670de0b6b3a7640000610758670de069c00f3e120084610f2c565b6107629190610f43565b91505b601083161561079657670de0b6b3a7640000610789670de01cce21c9440084610f2c565b6107939190610f43565b91505b60208316156107c757670de0b6b3a76400006107ba670ddf82ef46ce100084610f2c565b6107c49190610f43565b91505b60408316156107f857670de0b6b3a76400006107eb670dde4f458f8e8d8084610f2c565b6107f59190610f43565b91505b608083161561082957670de0b6b3a764000061081c670ddbe84213d5f08084610f2c565b6108269190610f43565b91505b61010083161561085b57670de0b6b3a764000061084e670dd71b7aa6df5b8084610f2c565b6108589190610f43565b91505b61020083161561088d57670de0b6b3a7640000610880670dcd86e7f28cde0084610f2c565b61088a9190610f43565b91505b6104008316156108bf57670de0b6b3a76400006108b2670dba71a3084ad68084610f2c565b6108bc9190610f43565b91505b6108008316156108f157670de0b6b3a76400006108e4670d94961b13dbde8084610f2c565b6108ee9190610f43565b91505b61100083161561092357670de0b6b3a7640000610916670d4a171c35c9838084610f2c565b6109209190610f43565b91505b61200083161561095557670de0b6b3a7640000610948670cb9da519ccfb70084610f2c565b6109529190610f43565b91505b61400083161561098757670de0b6b3a764000061097a670bab76d59c18d68084610f2c565b6109849190610f43565b91505b6180008316156109b957670de0b6b3a76400006109ac6709d025defee4df8084610f2c565b6109b69190610f43565b91505b50919050565b6000546001600160a01b031633146103585760405162461bcd60e51b815260206004820181905260248201527f4f776e61626c653a2063616c6c6572206973206e6f7420746865206f776e657260448201526064016105f2565b600080546001600160a01b038381167fffffffffffffffffffffffff0000000000000000000000000000000000000000831681178455604051919092169283917f8be0079c531659141344cd1fd0a4f28419497f9722a3daafe3b4186f6b6457e09190a35050565b8051600090819081905b80821015610c07576000858381518110610aa757610aa7610f78565b01602001516001600160f81b03191690507f8000000000000000000000000000000000000000000000000000000000000000811015610af257610aeb600184610f8e565b9250610bf4565b7fe0000000000000000000000000000000000000000000000000000000000000006001600160f81b031982161015610b2f57610aeb600284610f8e565b7ff0000000000000000000000000000000000000000000000000000000000000006001600160f81b031982161015610b6c57610aeb600384610f8e565b7ff8000000000000000000000000000000000000000000000000000000000000006001600160f81b031982161015610ba957610aeb600484610f8e565b7ffc000000000000000000000000000000000000000000000000000000000000006001600160f81b031982161015610be657610aeb600584610f8e565b610bf1600684610f8e565b92505b5082610bff81610fa1565b935050610a8b565b50909392505050565b6000807f00000000000000000000000000000000000000000000000000000000000000006001600160a01b03166350d25bcd6040518163ffffffff1660e01b8152600401602060405180830381865afa158015610c71573d6000803e3d6000fd5b505050506040513d601f19601f82011682018060405250810190610c959190610fba565b905080610ca6846305f5e100610f2c565b610cb09190610f43565b9392505050565b6000610cc66276a70084610f8e565b925042831115610cd857506000610cb0565b6000610ce48442610f65565b90506000610d127f0000000000000000000000000000000000000000000000000000000000000000836102ab565b90507f00000000000000000000000000000000000000000000000000000000000000008110610d6e57610d657f000000000000000000000000000000000000000000000000000000000000000082610f65565b92505050610cb0565b50600095945050505050565b600060208284031215610d8c57600080fd5b81357fffffffff0000000000000000000000000000000000000000000000000000000081168114610cb057600080fd5b60008060408385031215610dcf57600080fd5b50508035926020909101359150565b60008083601f840112610df057600080fd5b50813567ffffffffffffffff811115610e0857600080fd5b602083019150836020828501011115610e2057600080fd5b9250929050565b80356001600160a01b0381168114610e3e57600080fd5b919050565b600080600080600060808688031215610e5b57600080fd5b853567ffffffffffffffff811115610e7257600080fd5b610e7e88828901610dde565b9096509450506020860135925060408601359150610e9e60608701610e27565b90509295509295909350565b60008060008060608587031215610ec057600080fd5b843567ffffffffffffffff811115610ed757600080fd5b610ee387828801610dde565b90989097506020870135966040013595509350505050565b600060208284031215610f0d57600080fd5b610cb082610e27565b634e487b7160e01b600052601160045260246000fd5b80820281158282048414176102a5576102a5610f16565b600082610f6057634e487b7160e01b600052601260045260246000fd5b500490565b818103818111156102a5576102a5610f16565b634e487b7160e01b600052603260045260246000fd5b808201808211156102a5576102a5610f16565b600060018201610fb357610fb3610f16565b5060010190565b600060208284031215610fcc57600080fd5b505191905056fea26469706673582212209215e8dd7cbc3b1529903ed36c6bbf621d11739cd8c12bad44ed7be5b981db1f64736f6c63430008110033",
  "linkReferences": {},
  "deployedLinkReferences": {}
}