{
  "_format": "hh-sol-artifact-1",
  "contractName": "LinearPremiumPriceOracle",
  "sourceName": "contracts/ethregistrar/LinearPremiumPriceOracle.sol",
  "abi": [
    {
      "inputs": [
        {
          "internalType": "contract AggregatorInterface",
          "name": "_usdOracle",
          "type": "address"
        },
        {
          "internalType": "uint256[]",
          "name": "_rentPrices",
          "type": "uint256[]"
        },
        {
          "internalType": "uint256",
          "name": "_initialPremium",
          "type": "uint256"
        },
        {
          "internalType": "uint256",
          "name": "_premiumDecreaseRate",
          "type": "uint256"
        }
      ],
      "stateMutability": "nonpayable",
      "type": "constructor"
    },
    {
      "anonymous": false,
      "inputs": [
        {
          "indexed": true,
          "internalType": "address",
          "name": "previousOwner",
          "type": "address"
        },
        {
          "indexed": true,
          "internalType": "address",
          "name": "newOwner",
          "type": "address"
        }
      ],
      "name": "OwnershipTransferred",
      "type": "event"
    },
    {
      "anonymous": false,
      "inputs": [
        {
          "indexed": false,
          "internalType": "uint256[]",
          "name": "prices",
          "type": "uint256[]"
        }
      ],
      "name": "RentPriceChanged",
      "type": "event"
    },
    {
      "inputs": [],
      "name": "initialPremium",
      "outputs": [
        {
          "internalType": "uint256",
          "name": "",
          "type": "uint256"
        }
      ],
      "stateMutability": "view",
      "type": "function"
    },
    {
      "inputs": [],
      "name": "owner",
      "outputs": [
        {
          "internalType": "address",
          "name": "",
          "type": "address"
        }
      ],
      "stateMutability": "view",
      "type": "function"
    },
    {
      "inputs": [
        {
          "internalType": "string",
          "name": "name",
          "type": "string"
        },
        {
          "internalType": "uint256",
          "name": "expires",
          "type": "uint256"
        },
        {
          "internalType": "uint256",
          "name": "duration",
          "type": "uint256"
        }
      ],
      "name": "premium",
      "outputs": [
        {
          "internalType": "uint256",
          "name": "",
          "type": "uint256"
        }
      ],
      "stateMutability": "view",
      "type": "function"
    },
    {
      "inputs": [],
      "name": "premiumDecreaseRate",
      "outputs": [
        {
          "internalType": "uint256",
          "name": "",
          "type": "uint256"
        }
      ],
      "stateMutability": "view",
      "type": "function"
    },
    {
      "inputs": [
        {
          "internalType": "string",
          "name": "name",
          "type": "string"
        },
        {
          "internalType": "uint256",
          "name": "expires",
          "type": "uint256"
        },
        {
          "internalType": "uint256",
          "name": "duration",
          "type": "uint256"
        },
        {
          "internalType": "address",
          "name": "user",
          "type": "address"
        }
      ],
      "name": "price",
      "outputs": [
        {
          "components": [
            {
              "internalType": "uint256",
              "name": "base",
              "type": "uint256"
            },
            {
              "internalType": "uint256",
              "name": "premium",
              "type": "uint256"
            }
          ],
          "internalType": "struct IPriceOracle.Price",
          "name": "",
          "type": "tuple"
        }
      ],
      "stateMutability": "view",
      "type": "function"
    },
    {
      "inputs": [],
      "name": "price1Letter",
      "outputs": [
        {
          "internalType": "uint256",
          "name": "",
          "type": "uint256"
        }
      ],
      "stateMutability": "view",
      "type": "function"
    },
    {
      "inputs": [],
      "name": "price2Letter",
      "outputs": [
        {
          "internalType": "uint256",
          "name": "",
          "type": "uint256"
        }
      ],
      "stateMutability": "view",
      "type": "function"
    },
    {
      "inputs": [],
      "name": "price3Letter",
      "outputs": [
        {
          "internalType": "uint256",
          "name": "",
          "type": "uint256"
        }
      ],
      "stateMutability": "view",
      "type": "function"
    },
    {
      "inputs": [],
      "name": "price4Letter",
      "outputs": [
        {
          "internalType": "uint256",
          "name": "",
          "type": "uint256"
        }
      ],
      "stateMutability": "view",
      "type": "function"
    },
    {
      "inputs": [],
      "name": "price5Letter",
      "outputs": [
        {
          "internalType": "uint256",
          "name": "",
          "type": "uint256"
        }
      ],
      "stateMutability": "view",
      "type": "function"
    },
    {
      "inputs": [],
      "name": "renounceOwnership",
      "outputs": [],
      "stateMutability": "nonpayable",
      "type": "function"
    },
    {
      "inputs": [
        {
          "internalType": "bytes4",
          "name": "interfaceID",
          "type": "bytes4"
        }
      ],
      "name": "supportsInterface",
      "outputs": [
        {
          "internalType": "bool",
          "name": "",
          "type": "bool"
        }
      ],
      "stateMutability": "view",
      "type": "function"
    },
    {
      "inputs": [
        {
          "internalType": "uint256",
          "name": "expires",
          "type": "uint256"
        },
        {
          "internalType": "uint256",
          "name": "amount",
          "type": "uint256"
        }
      ],
      "name": "timeUntilPremium",
      "outputs": [
        {
          "internalType": "uint256",
          "name": "",
          "type": "uint256"
        }
      ],
      "stateMutability": "view",
      "type": "function"
    },
    {
      "inputs": [
        {
          "internalType": "address",
          "name": "newOwner",
          "type": "address"
        }
      ],
      "name": "transferOwnership",
      "outputs": [],
      "stateMutability": "nonpayable",
      "type": "function"
    },
    {
      "inputs": [],
      "name": "usdOracle",
      "outputs": [
        {
          "internalType": "contract AggregatorInterface",
          "name": "",
          "type": "address"
        }
      ],
      "stateMutability": "view",
      "type": "function"
    }
  ],
  "bytecode": "0x6101a06040526276a700610140523480156200001a57600080fd5b506040516200126d3803806200126d8339810160408190526200003d916200018d565b83836200004a3362000127565b6001600160a01b03821661012052805181906000906200006e576200006e62000288565b6020026020010151608081815250508060018151811062000093576200009362000288565b602002602001015160a0818152505080600281518110620000b857620000b862000288565b602002602001015160c0818152505080600381518110620000dd57620000dd62000288565b602002602001015160e081815250508060048151811062000102576200010262000288565b60209081029190910101516101005250506101609190915261018052506200029e9050565b600080546001600160a01b038381166001600160a01b0319831681178455604051919092169283917f8be0079c531659141344cd1fd0a4f28419497f9722a3daafe3b4186f6b6457e09190a35050565b634e487b7160e01b600052604160045260246000fd5b60008060008060808587031215620001a457600080fd5b84516001600160a01b0381168114620001bc57600080fd5b602086810151919550906001600160401b0380821115620001dc57600080fd5b818801915088601f830112620001f157600080fd5b81518181111562000206576200020662000177565b8060051b604051601f19603f830116810181811085821117156200022e576200022e62000177565b60405291825284820192508381018501918b8311156200024d57600080fd5b938501935b828510156200026d5784518452938501939285019262000252565b60408b01516060909b0151999c909b50975050505050505050565b634e487b7160e01b600052603260045260246000fd5b60805160a05160c05160e0516101005161012051610140516101605161018051610efc62000371600039600081816102c9015281816106220152610ac601526000818161018d01528181610595015281816105f301528181610aef0152610b250152600081816105c60152610a7f015260008181610241015281816109d50152610b4e01526000818161015c01526103d501526000818161028f015261040e01526000818161020701526104400152600081816102680152610472015260008181610127015261049c0152610efc6000f3fe608060405234801561001057600080fd5b50600436106100f55760003560e01c8063a200e15311610097578063d820ed4211610066578063d820ed421461028a578063ed6c33ed146102b1578063f05af2b7146102c4578063f2fde38b146102eb57600080fd5b8063a200e15314610202578063a34e359614610229578063c8a4271f1461023c578063cd5d2c741461026357600080fd5b8063715018a6116100d3578063715018a61461017e5780637d3fb8b71461018857806389fce619146101af5780638da5cb5b146101dd57600080fd5b806301ffc9a7146100fa5780632c0fd74c1461012257806359b6b86c14610157575b600080fd5b61010d610108366004610c6d565b6102fe565b60405190151581526020015b60405180910390f35b6101497f000000000000000000000000000000000000000000000000000000000000000081565b604051908152602001610119565b6101497f000000000000000000000000000000000000000000000000000000000000000081565b61018661035a565b005b6101497f000000000000000000000000000000000000000000000000000000000000000081565b6101c26101bd366004610d14565b61036e565b60408051825181526020928301519281019290925201610119565b6000546001600160a01b03165b6040516001600160a01b039091168152602001610119565b6101497f000000000000000000000000000000000000000000000000000000000000000081565b610149610237366004610d7b565b610535565b6101ea7f000000000000000000000000000000000000000000000000000000000000000081565b6101497f000000000000000000000000000000000000000000000000000000000000000081565b6101497f000000000000000000000000000000000000000000000000000000000000000081565b6101496102bf366004610dcc565b610586565b6101497f000000000000000000000000000000000000000000000000000000000000000081565b6101866102f9366004610dee565b610652565b60007fffffffff0000000000000000000000000000000000000000000000000000000082167fa377dd960000000000000000000000000000000000000000000000000000000014806103545750610354826106e7565b92915050565b61036261077f565b61036c60006107d9565b565b604080518082019091526000808252602082015260006103c387878080601f01602080910402602001604051908101604052809392919081815260200183838082843760009201919091525061084192505050565b9050600060058210610400576103f9857f0000000000000000000000000000000000000000000000000000000000000000610e1f565b90506104c3565b81600403610432576103f9857f0000000000000000000000000000000000000000000000000000000000000000610e1f565b81600303610464576103f9857f0000000000000000000000000000000000000000000000000000000000000000610e1f565b81600203610496576103f9857f0000000000000000000000000000000000000000000000000000000000000000610e1f565b6104c0857f0000000000000000000000000000000000000000000000000000000000000000610e1f565b90505b60405180604001604052806104d7836109d0565b81526020016105276105228b8b8080601f0160208091040260200160405190810160405280939291908181526020018383808284376000920191909152508d92508c9150610a779050565b6109d0565b905298975050505050505050565b600061057d61052286868080601f016020809104026020016040519081016040528093929190818152602001838380828437600092019190915250889250879150610a779050565b95945050505050565b600061059182610b49565b91507f00000000000000000000000000000000000000000000000000000000000000008211156105c057600080fd5b6105ea837f0000000000000000000000000000000000000000000000000000000000000000610bdf565b925060006106187f000000000000000000000000000000000000000000000000000000000000000084610bfb565b90506000610646827f0000000000000000000000000000000000000000000000000000000000000000610c1e565b905061057d8582610bdf565b61065a61077f565b6001600160a01b0381166106db5760405162461bcd60e51b815260206004820152602660248201527f4f776e61626c653a206e6577206f776e657220697320746865207a65726f206160448201527f646472657373000000000000000000000000000000000000000000000000000060648201526084015b60405180910390fd5b6106e4816107d9565b50565b60007fffffffff0000000000000000000000000000000000000000000000000000000082167f01ffc9a700000000000000000000000000000000000000000000000000000000148061035457507fffffffff0000000000000000000000000000000000000000000000000000000082167f89fce619000000000000000000000000000000000000000000000000000000001492915050565b6000546001600160a01b0316331461036c5760405162461bcd60e51b815260206004820181905260248201527f4f776e61626c653a2063616c6c6572206973206e6f7420746865206f776e657260448201526064016106d2565b600080546001600160a01b038381167fffffffffffffffffffffffff0000000000000000000000000000000000000000831681178455604051919092169283917f8be0079c531659141344cd1fd0a4f28419497f9722a3daafe3b4186f6b6457e09190a35050565b8051600090819081905b808210156109c757600085838151811061086757610867610e36565b01602001516001600160f81b03191690507f80000000000000000000000000000000000000000000000000000000000000008110156108b2576108ab600184610e4c565b92506109b4565b7fe0000000000000000000000000000000000000000000000000000000000000006001600160f81b0319821610156108ef576108ab600284610e4c565b7ff0000000000000000000000000000000000000000000000000000000000000006001600160f81b03198216101561092c576108ab600384610e4c565b7ff8000000000000000000000000000000000000000000000000000000000000006001600160f81b031982161015610969576108ab600484610e4c565b7ffc000000000000000000000000000000000000000000000000000000000000006001600160f81b0319821610156109a6576108ab600584610e4c565b6109b1600684610e4c565b92505b50826109bf81610e5f565b93505061084b565b50909392505050565b6000807f00000000000000000000000000000000000000000000000000000000000000006001600160a01b03166350d25bcd6040518163ffffffff1660e01b8152600401602060405180830381865afa158015610a31573d6000803e3d6000fd5b505050506040513d601f19601f82011682018060405250810190610a559190610e78565b905080610a66846305f5e100610e1f565b610a709190610e91565b9392505050565b6000610aa3837f0000000000000000000000000000000000000000000000000000000000000000610bdf565b925042831115610ab557506000610a70565b6000610aeb610ac44286610bfb565b7f000000000000000000000000000000000000000000000000000000000000000090610c38565b90507f0000000000000000000000000000000000000000000000000000000000000000811115610b1f576000915050610a70565b61057d817f0000000000000000000000000000000000000000000000000000000000000000610eb3565b6000807f00000000000000000000000000000000000000000000000000000000000000006001600160a01b03166350d25bcd6040518163ffffffff1660e01b8152600401602060405180830381865afa158015610baa573d6000803e3d6000fd5b505050506040513d601f19601f82011682018060405250810190610bce9190610e78565b90506305f5e100610a668285610e1f565b600080610bec8385610e4c565b905083811015610a7057600080fd5b600082821115610c0a57600080fd5b6000610c168385610eb3565b949350505050565b6000808211610c2c57600080fd5b6000610c168385610e91565b600082600003610c4a57506000610354565b6000610c568385610e1f565b905082610c638583610e91565b14610a7057600080fd5b600060208284031215610c7f57600080fd5b81357fffffffff0000000000000000000000000000000000000000000000000000000081168114610a7057600080fd5b60008083601f840112610cc157600080fd5b50813567ffffffffffffffff811115610cd957600080fd5b602083019150836020828501011115610cf157600080fd5b9250929050565b80356001600160a01b0381168114610d0f57600080fd5b919050565b600080600080600060808688031215610d2c57600080fd5b853567ffffffffffffffff811115610d4357600080fd5b610d4f88828901610caf565b9096509450506020860135925060408601359150610d6f60608701610cf8565b90509295509295909350565b60008060008060608587031215610d9157600080fd5b843567ffffffffffffffff811115610da857600080fd5b610db487828801610caf565b90989097506020870135966040013595509350505050565b60008060408385031215610ddf57600080fd5b50508035926020909101359150565b600060208284031215610e0057600080fd5b610a7082610cf8565b634e487b7160e01b600052601160045260246000fd5b808202811582820484141761035457610354610e09565b634e487b7160e01b600052603260045260246000fd5b8082018082111561035457610354610e09565b600060018201610e7157610e71610e09565b5060010190565b600060208284031215610e8a57600080fd5b5051919050565b600082610eae57634e487b7160e01b600052601260045260246000fd5b500490565b8181038181111561035457610354610e0956fea26469706673582212204d7cf36c87e9b85c8db815d23ba6225e3db74043ce6d7417806f6cd87cc4d6d264736f6c63430008110033",
  "linkReferences": {},
  "deployedLinkReferences": {}
}