{
	"data": {
		"bytecode": {
			"linkReferences": {},
			"object": "60c06040523480156200001157600080fd5b5060405162009d5e38038062009d5e833981810160405281019062000037919062000583565b8233620000596200004d6200035f60201b60201c565b6200036760201b60201c565b60008273ffffffffffffffffffffffffffffffffffffffff166302571be37f91d1777781884d03a6757a803996e38de2a42967fb37eeaca72729271025a9e260001b6040518263ffffffff1660e01b8152600401620000b99190620005fa565b602060405180830381865afa158015620000d7573d6000803e3d6000fd5b505050506040513d601f19601f82011682018060405250810190620000fd919062000648565b90508073ffffffffffffffffffffffffffffffffffffffff16631e83409a836040518263ffffffff1660e01b81526004016200013a91906200068b565b6020604051808303816000875af11580156200015a573d6000803e3d6000fd5b505050506040513d601f19601f82011682018060405250810190620001809190620006d9565b505050508273ffffffffffffffffffffffffffffffffffffffff1660808173ffffffffffffffffffffffffffffffffffffffff16815250508173ffffffffffffffffffffffffffffffffffffffff1660a08173ffffffffffffffffffffffffffffffffffffffff168152505080600560006101000a81548173ffffffffffffffffffffffffffffffffffffffff021916908373ffffffffffffffffffffffffffffffffffffffff160217905550620002767fd051e4f8cb1870f877b00266e1292322bea4c492a9933488e94d7c1a935e8dfa60001b60001c60006001620100001767ffffffffffffffff6200042b60201b60201c565b6200029f6000801b60001c60006001620100001767ffffffffffffffff6200042b60201b60201c565b6040518060400160405280600181526020016000815250600660008060001b81526020019081526020016000209081620002da919062000985565b506040518060400160405280600881526020017f047363726f6c6c00000000000000000000000000000000000000000000000000815250600660007fd051e4f8cb1870f877b00266e1292322bea4c492a9933488e94d7c1a935e8dfa60001b8152602001908152602001600020908162000355919062000985565b5050505062000a6c565b600033905090565b60008060009054906101000a900473ffffffffffffffffffffffffffffffffffffffff169050816000806101000a81548173ffffffffffffffffffffffffffffffffffffffff021916908373ffffffffffffffffffffffffffffffffffffffff1602179055508173ffffffffffffffffffffffffffffffffffffffff168173ffffffffffffffffffffffffffffffffffffffff167f8be0079c531659141344cd1fd0a4f28419497f9722a3daafe3b4186f6b6457e060405160405180910390a35050565b60c08167ffffffffffffffff16901b60a08363ffffffff16901b8473ffffffffffffffffffffffffffffffffffffffff161717600160008681526020019081526020016000208190555050505050565b600080fd5b600073ffffffffffffffffffffffffffffffffffffffff82169050919050565b6000620004ad8262000480565b9050919050565b6000620004c182620004a0565b9050919050565b620004d381620004b4565b8114620004df57600080fd5b50565b600081519050620004f381620004c8565b92915050565b60006200050682620004a0565b9050919050565b6200051881620004f9565b81146200052457600080fd5b50565b60008151905062000538816200050d565b92915050565b60006200054b82620004a0565b9050919050565b6200055d816200053e565b81146200056957600080fd5b50565b6000815190506200057d8162000552565b92915050565b6000806000606084860312156200059f576200059e6200047b565b5b6000620005af86828701620004e2565b9350506020620005c28682870162000527565b9250506040620005d5868287016200056c565b9150509250925092565b6000819050919050565b620005f481620005df565b82525050565b6000602082019050620006116000830184620005e9565b92915050565b6200062281620004a0565b81146200062e57600080fd5b50565b600081519050620006428162000617565b92915050565b6000602082840312156200066157620006606200047b565b5b6000620006718482850162000631565b91505092915050565b6200068581620004a0565b82525050565b6000602082019050620006a260008301846200067a565b92915050565b620006b381620005df565b8114620006bf57600080fd5b50565b600081519050620006d381620006a8565b92915050565b600060208284031215620006f257620006f16200047b565b5b60006200070284828501620006c2565b91505092915050565b600081519050919050565b7f4e487b7100000000000000000000000000000000000000000000000000000000600052604160045260246000fd5b7f4e487b7100000000000000000000000000000000000000000000000000000000600052602260045260246000fd5b600060028204905060018216806200078d57607f821691505b602082108103620007a357620007a262000745565b5b50919050565b60008190508160005260206000209050919050565b60006020601f8301049050919050565b600082821b905092915050565b6000600883026200080d7fffffffffffffffffffffffffffffffffffffffffffffffffffffffffffffffff82620007ce565b620008198683620007ce565b95508019841693508086168417925050509392505050565b6000819050919050565b6000819050919050565b600062000866620008606200085a8462000831565b6200083b565b62000831565b9050919050565b6000819050919050565b620008828362000845565b6200089a62000891826200086d565b848454620007db565b825550505050565b600090565b620008b1620008a2565b620008be81848462000877565b505050565b5b81811015620008e657620008da600082620008a7565b600181019050620008c4565b5050565b601f8211156200093557620008ff81620007a9565b6200090a84620007be565b810160208510156200091a578190505b620009326200092985620007be565b830182620008c3565b50505b505050565b600082821c905092915050565b60006200095a600019846008026200093a565b1980831691505092915050565b600062000975838362000947565b9150826002028217905092915050565b62000990826200070b565b67ffffffffffffffff811115620009ac57620009ab62000716565b5b620009b8825462000774565b620009c5828285620008ea565b600060209050601f831160018114620009fd5760008415620009e8578287015190505b620009f4858262000967565b86555062000a64565b601f19841662000a0d86620007a9565b60005b8281101562000a375784890151825560018201915060208501945060208101905062000a10565b8683101562000a57578489015162000a53601f89168262000947565b8355505b6001600288020188555050505b505050505050565b60805160a0516191e562000b7960003960008181610f5401528181611050015281816110e601528181611606015281816121ec015281816122a6015281816123790152818161248a01528181612519015281816125aa015281816128f101528181612a8c01528181612c8401528181612eac01528181612f4c015261394d015260008181610ebd015281816112b3015281816114b1015281816115570152818161197101528181611bbb01528181612b3c01528181612d340152818161303a0152818161323a0152818161360d01528181613cdb01528181613dae01528181613ec401528181613f52015281816146aa0152818161487101528181614bc201526154d301526191e56000f3fe608060405234801561001057600080fd5b506004361061029f5760003560e01c80636352211e11610167578063c93ab3fd116100ce578063e985e9c511610087578063e985e9c5146108dc578063eb8ae5301461090c578063ed70554d14610928578063f242432a14610958578063f2fde38b14610974578063fd0cd0d9146109905761029f565b8063c93ab3fd1461080c578063cf40882314610828578063d8c9921a14610844578063d9a50c1214610860578063da8c229e14610890578063e0dba60f146108c05761029f565b8063a22cb46511610120578063a22cb46514610714578063a401498214610730578063adf4960a14610760578063b6bcad2614610790578063c475abff146107ac578063c658e086146107dc5761029f565b80636352211e146106405780636e5d6ad214610670578063715018a6146106a05780638b4dfa75146106aa5780638cf8b41e146106c65780638da5cb5b146106f65761029f565b80631f4e15041161020b5780633f15457f116101c45780633f15457f14610558578063402906fc1461057657806341415eab146105a65780634e1273f4146105d657806353095467146106065780635d3590d5146106245761029f565b80631f4e15041461048457806320c38e2b146104a257806324c1af44146104d25780632b20e397146105025780632eb2c2d61461052057806333c69ea91461053c5761029f565b80630e4cd7251161025d5780630e4cd725146103a05780630e89341c146103d057806314ab903814610400578063150b7a021461041c5780631534e1771461044c5780631896f70a146104685761029f565b8062fdd58e146102a45780630178fe3f146102d457806301ffc9a71461030657806306fdde0314610336578063081812fc14610354578063095ea7b314610384575b600080fd5b6102be60048036038101906102b99190616203565b6109c0565b6040516102cb9190616252565b60405180910390f35b6102ee60048036038101906102e9919061626d565b610a86565b6040516102fd939291906162eb565b60405180910390f35b610320600480360381019061031b919061637a565b610aba565b60405161032d91906163c2565b60405180910390f35b61033e610b9c565b60405161034b919061646d565b60405180910390f35b61036e6004803603810190610369919061626d565b610bd5565b60405161037b919061648f565b60405180910390f35b61039e60048036038101906103999190616203565b610c33565b005b6103ba60048036038101906103b591906164e0565b610ca8565b6040516103c791906163c2565b60405180910390f35b6103ea60048036038101906103e5919061626d565b610d5f565b6040516103f7919061646d565b60405180910390f35b61041a6004803603810190610415919061654c565b610e0b565b005b610436600480360381019061043191906165f1565b610f50565b6040516104439190616688565b60405180910390f35b610466600480360381019061046191906166e1565b6111b5565b005b610482600480360381019061047d91906164e0565b611201565b005b61048c611346565b604051610499919061676d565b60405180910390f35b6104bc60048036038101906104b79190616788565b61136c565b6040516104c9919061680a565b60405180910390f35b6104ec60048036038101906104e79190616988565b61140c565b6040516104f99190616a55565b60405180910390f35b61050a611604565b6040516105179190616a91565b60405180910390f35b61053a60048036038101906105359190616c10565b611628565b005b61055660048036038101906105519190616cdf565b6118f3565b005b610560611bb9565b60405161056d9190616d67565b60405180910390f35b610590600480360381019061058b9190616dbc565b611bdd565b60405161059d9190616dfc565b60405180910390f35b6105c060048036038101906105bb91906164e0565b611cc9565b6040516105cd91906163c2565b60405180910390f35b6105f060048036038101906105eb9190616eda565b611d3f565b6040516105fd9190617010565b60405180910390f35b61060e611e58565b60405161061b9190617053565b60405180910390f35b61063e6004803603810190610639919061706e565b611e7e565b005b61065a6004803603810190610655919061626d565b611f0a565b604051610667919061648f565b60405180910390f35b61068a600480360381019061068591906170c1565b611f1c565b6040516106979190617114565b60405180910390f35b6106a86120b6565b005b6106c460048036038101906106bf919061712f565b6120ca565b005b6106e060048036038101906106db91906171d8565b612282565b6040516106ed9190617114565b60405180910390f35b6106fe6126ae565b60405161070b919061648f565b60405180910390f35b61072e6004803603810190610729919061728c565b6126d7565b005b61074a600480360381019061074591906172cc565b612842565b6040516107579190616252565b60405180910390f35b61077a60048036038101906107759190617366565b6129ff565b60405161078791906163c2565b60405180910390f35b6107aa60048036038101906107a591906173e4565b612a2c565b005b6107c660048036038101906107c19190617411565b612de6565b6040516107d39190616252565b60405180910390f35b6107f660048036038101906107f19190617451565b61313e565b6040516108039190616a55565b60405180910390f35b610826600480360381019061082191906174eb565b61334b565b005b610842600480360381019061083d919061756c565b613555565b005b61085e600480360381019061085991906175d3565b613787565b005b61087a60048036038101906108759190617626565b6138fb565b60405161088791906163c2565b60405180910390f35b6108aa60048036038101906108a59190617666565b613a2b565b6040516108b791906163c2565b60405180910390f35b6108da60048036038101906108d5919061728c565b613a4b565b005b6108f660048036038101906108f19190617693565b613afc565b60405161090391906163c2565b60405180910390f35b610926600480360381019061092191906176d3565b613b90565b005b610942600480360381019061093d919061626d565b61403a565b60405161094f9190616252565b60405180910390f35b610972600480360381019061096d9190617747565b614052565b005b61098e60048036038101906109899190617666565b614154565b005b6109aa60048036038101906109a59190616788565b6141d7565b6040516109b791906163c2565b60405180910390f35b60008073ffffffffffffffffffffffffffffffffffffffff168373ffffffffffffffffffffffffffffffffffffffff1603610a30576040517f08c379a0000000000000000000000000000000000000000000000000000000008152600401610a2790617850565b60405180910390fd5b6000610a3b83611f0a565b90508373ffffffffffffffffffffffffffffffffffffffff168173ffffffffffffffffffffffffffffffffffffffff1603610a7a576001915050610a80565b60009150505b92915050565b6000806000610a94846142d3565b809350819450829550505050610aab838383614308565b80935081945050509193909250565b60007fd82c42d8000000000000000000000000000000000000000000000000000000007bffffffffffffffffffffffffffffffffffffffffffffffffffffffff1916827bffffffffffffffffffffffffffffffffffffffffffffffffffffffff19161480610b8557507f150b7a02000000000000000000000000000000000000000000000000000000007bffffffffffffffffffffffffffffffffffffffffffffffffffffffff1916827bffffffffffffffffffffffffffffffffffffffffffffffffffffffff1916145b80610b955750610b9482614350565b5b9050919050565b6040518060400160405280600b81526020017f4e616d655772617070657200000000000000000000000000000000000000000081525081565b600080610be183611f0a565b9050600073ffffffffffffffffffffffffffffffffffffffff168173ffffffffffffffffffffffffffffffffffffffff1603610c21576000915050610c2e565b610c2a83614432565b9150505b919050565b6000610c3e82610a86565b50915050604063ffffffff166040821663ffffffff1603610c99578160001b6040517fa2a72013000000000000000000000000000000000000000000000000000000008152600401610c909190616a55565b60405180910390fd5b610ca3838361446f565b505050565b600080600080610cba8660001c610a86565b9250925092508473ffffffffffffffffffffffffffffffffffffffff168373ffffffffffffffffffffffffffffffffffffffff161480610d005750610cff8386613afc565b5b80610d4157508473ffffffffffffffffffffffffffffffffffffffff16610d298760001c610bd5565b73ffffffffffffffffffffffffffffffffffffffff16145b8015610d545750610d528282614578565b155b935050505092915050565b6060600560009054906101000a900473ffffffffffffffffffffffffffffffffffffffff1673ffffffffffffffffffffffffffffffffffffffff166328205a9330846040518363ffffffff1660e01b8152600401610dbe929190617870565b600060405180830381865afa158015610ddb573d6000803e3d6000fd5b505050506040513d6000823e3d601f19601f82011682018060405250810190610e049190617909565b9050919050565b81610e168133611cc9565b610e595780336040517fb455aae8000000000000000000000000000000000000000000000000000000008152600401610e50929190617952565b60405180910390fd5b8260106000610e6a8360001c610a86565b50915050600082821663ffffffff1614610ebb57826040517fa2a72013000000000000000000000000000000000000000000000000000000008152600401610eb29190616a55565b60405180910390fd5b7f000000000000000000000000000000000000000000000000000000000000000073ffffffffffffffffffffffffffffffffffffffff166314ab903887876040518363ffffffff1660e01b8152600401610f1692919061797b565b600060405180830381600087803b158015610f3057600080fd5b505af1158015610f44573d6000803e3d6000fd5b50505050505050505050565b60007f000000000000000000000000000000000000000000000000000000000000000073ffffffffffffffffffffffffffffffffffffffff163373ffffffffffffffffffffffffffffffffffffffff1614610fd7576040517f1931a53800000000000000000000000000000000000000000000000000000000815260040160405180910390fd5b6000806000808686810190610fec91906179e2565b935093509350935060008860001b905060008580519060200120905081811461104e5780826040517fc65c3ccc000000000000000000000000000000000000000000000000000000008152600401611045929190617a65565b60405180910390fd5b7f000000000000000000000000000000000000000000000000000000000000000073ffffffffffffffffffffffffffffffffffffffff166328ed4f6c8360001c306040518363ffffffff1660e01b81526004016110ac929190617a8e565b600060405180830381600087803b1580156110c657600080fd5b505af11580156110da573d6000803e3d6000fd5b5050505060006276a7007f000000000000000000000000000000000000000000000000000000000000000073ffffffffffffffffffffffffffffffffffffffff1663d6e4fa868d6040518263ffffffff1660e01b815260040161113d9190616252565b602060405180830381865afa15801561115a573d6000803e3d6000fd5b505050506040513d601f19601f8201168201806040525081019061117e9190617acc565b6111889190617b28565b905061119b87878761ffff1684886145bc565b63150b7a0260e01b97505050505050505095945050505050565b6111bd614740565b80600560006101000a81548173ffffffffffffffffffffffffffffffffffffffff021916908373ffffffffffffffffffffffffffffffffffffffff16021790555050565b8161120c8133611cc9565b61124f5780336040517fb455aae8000000000000000000000000000000000000000000000000000000008152600401611246929190617952565b60405180910390fd5b82600860006112608360001c610a86565b50915050600082821663ffffffff16146112b157826040517fa2a720130000000000000000000000000000000000000000000000000000000081526004016112a89190616a55565b60405180910390fd5b7f000000000000000000000000000000000000000000000000000000000000000073ffffffffffffffffffffffffffffffffffffffff16631896f70a87876040518363ffffffff1660e01b815260040161130c929190617952565b600060405180830381600087803b15801561132657600080fd5b505af115801561133a573d6000803e3d6000fd5b50505050505050505050565b600760009054906101000a900473ffffffffffffffffffffffffffffffffffffffff1681565b6006602052806000526040600020600091509050805461138b90617b93565b80601f01602080910402602001604051908101604052809291908181526020018280546113b790617b93565b80156114045780601f106113d957610100808354040283529160200191611404565b820191906000526020600020905b8154815290600101906020018083116113e757829003601f168201915b505050505081565b6000876114198133611cc9565b61145c5780336040517fb455aae8000000000000000000000000000000000000000000000000000000008152600401611453929190617952565b60405180910390fd5b6000888051906020012090506114728a826147be565b925061147e8a846147f1565b61148883866149e6565b6114938a848b614a44565b506114a08a848787614b1b565b93506114ab83614b65565b611555577f000000000000000000000000000000000000000000000000000000000000000073ffffffffffffffffffffffffffffffffffffffff16635ef2c7f08b83308b8b6040518663ffffffff1660e01b8152600401611510959493929190617bc4565b600060405180830381600087803b15801561152a57600080fd5b505af115801561153e573d6000803e3d6000fd5b505050506115508a848b8b8989614c79565b6115f7565b7f000000000000000000000000000000000000000000000000000000000000000073ffffffffffffffffffffffffffffffffffffffff16635ef2c7f08b83308b8b6040518663ffffffff1660e01b81526004016115b6959493929190617bc4565b600060405180830381600087803b1580156115d057600080fd5b505af11580156115e4573d6000803e3d6000fd5b505050506115f68a848b8b8989614d38565b5b5050979650505050505050565b7f000000000000000000000000000000000000000000000000000000000000000081565b815183511461166c576040517f08c379a000000000000000000000000000000000000000000000000000000000815260040161166390617c89565b60405180910390fd5b600073ffffffffffffffffffffffffffffffffffffffff168473ffffffffffffffffffffffffffffffffffffffff16036116db576040517f08c379a00000000000000000000000000000000000000000000000000000000081526004016116d290617d1b565b60405180910390fd5b3373ffffffffffffffffffffffffffffffffffffffff168573ffffffffffffffffffffffffffffffffffffffff16148061171b575061171a8533613afc565b5b61175a576040517f08c379a000000000000000000000000000000000000000000000000000000000815260040161175190617dad565b60405180910390fd5b60005b835181101561185f57600084828151811061177b5761177a617dcd565b5b60200260200101519050600084838151811061179a57611799617dcd565b5b6020026020010151905060008060006117b285610a86565b9250925092506117c3858383614ec1565b6001841480156117fe57508a73ffffffffffffffffffffffffffffffffffffffff168373ffffffffffffffffffffffffffffffffffffffff16145b61183d576040517f08c379a000000000000000000000000000000000000000000000000000000000815260040161183490617e6e565b60405180910390fd5b611849858b8484614ff2565b50505050508061185890617e8e565b905061175d565b508373ffffffffffffffffffffffffffffffffffffffff168573ffffffffffffffffffffffffffffffffffffffff163373ffffffffffffffffffffffffffffffffffffffff167f4a39dc06d4c0dbc64b70af90fd698a233a518aa5d07e595d983b8c0526c8f7fb86866040516118d6929190617ed6565b60405180910390a46118ec338686868686615042565b5050505050565b60006118ff85856147be565b905061190b81846149e6565b600080600061191c8460001c610a86565b925092509250600073ffffffffffffffffffffffffffffffffffffffff168373ffffffffffffffffffffffffffffffffffffffff161480611a2257503073ffffffffffffffffffffffffffffffffffffffff167f000000000000000000000000000000000000000000000000000000000000000073ffffffffffffffffffffffffffffffffffffffff166302571be3866040518263ffffffff1660e01b81526004016119c89190616a55565b602060405180830381865afa1580156119e5573d6000803e3d6000fd5b505050506040513d601f19601f82011682018060405250810190611a099190617f22565b73ffffffffffffffffffffffffffffffffffffffff1614155b15611a59576040517f5374b59900000000000000000000000000000000000000000000000000000000815260040160405180910390fd5b600080611a688a60001c610a86565b92509250506000801b8a03611ac957611a818633611cc9565b611ac45785336040517fb455aae8000000000000000000000000000000000000000000000000000000008152600401611abb929190617952565b60405180910390fd5b611b17565b611ad38a33611cc9565b611b165789336040517fb455aae8000000000000000000000000000000000000000000000000000000008152600401611b0d929190617952565b60405180910390fd5b5b611b22868984615219565b611b2d878483615290565b9650600062010000851663ffffffff1614158015611b5957508363ffffffff1688851763ffffffff1614155b15611b9b57856040517fa2a72013000000000000000000000000000000000000000000000000000000008152600401611b929190616a55565b60405180910390fd5b8388179750611bad86868a868b6152dc565b50505050505050505050565b7f000000000000000000000000000000000000000000000000000000000000000081565b600082611bea8133611cc9565b611c2d5780336040517fb455aae8000000000000000000000000000000000000000000000000000000008152600401611c24929190617952565b60405180910390fd5b8360026000611c3e8360001c610a86565b50915050600082821663ffffffff1614611c8f57826040517fa2a72013000000000000000000000000000000000000000000000000000000008152600401611c869190616a55565b60405180910390fd5b6000806000611ca08a60001c610a86565b925092509250611cb98a84848c61ffff161784856152dc565b8197505050505050505092915050565b600080600080611cdb8660001c610a86565b9250925092508473ffffffffffffffffffffffffffffffffffffffff168373ffffffffffffffffffffffffffffffffffffffff161480611d215750611d208386613afc565b5b8015611d345750611d328282614578565b155b935050505092915050565b60608151835114611d85576040517f08c379a0000000000000000000000000000000000000000000000000000000008152600401611d7c90617fc1565b60405180910390fd5b6000835167ffffffffffffffff811115611da257611da1616831565b5b604051908082528060200260200182016040528015611dd05781602001602082028036833780820191505090505b50905060005b8451811015611e4d57611e1d858281518110611df557611df4617dcd565b5b6020026020010151858381518110611e1057611e0f617dcd565b5b60200260200101516109c0565b828281518110611e3057611e2f617dcd565b5b60200260200101818152505080611e4690617e8e565b9050611dd6565b508091505092915050565b600560009054906101000a900473ffffffffffffffffffffffffffffffffffffffff1681565b611e86614740565b8273ffffffffffffffffffffffffffffffffffffffff1663a9059cbb83836040518363ffffffff1660e01b8152600401611ec1929190617870565b6020604051808303816000875af1158015611ee0573d6000803e3d6000fd5b505050506040513d601f19601f82011682018060405250810190611f049190617ff6565b50505050565b6000611f158261537c565b9050919050565b600080611f2985856147be565b9050611f3481614b65565b611f6a576040517f5374b59900000000000000000000000000000000000000000000000000000000815260040160405180910390fd5b6000611f768633610ca8565b905080158015611f8d5750611f8b8233611cc9565b155b15611fd15781336040517fb455aae8000000000000000000000000000000000000000000000000000000008152600401611fc8929190617952565b60405180910390fd5b6000806000611fe28560001c610a86565b925092509250831580156120015750600062040000831663ffffffff16145b1561204357846040517fa2a7201300000000000000000000000000000000000000000000000000000000815260040161203a9190616a55565b60405180910390fd5b60006120518a60001c610a86565b92505050612060888383615290565b975061206e8685858b615395565b857ff675815a0817338f93a7da433f6bd5f5542f1029b11b455191ac96c7f6a9b1328960405161209e9190617114565b60405180910390a28796505050505050509392505050565b6120be614740565b6120c860006153b4565b565b6120f77fd051e4f8cb1870f877b00266e1292322bea4c492a9933488e94d7c1a935e8dfa60001b846147be565b6121018133611cc9565b6121445780336040517fb455aae800000000000000000000000000000000000000000000000000000000815260040161213b929190617952565b60405180910390fd5b3073ffffffffffffffffffffffffffffffffffffffff168373ffffffffffffffffffffffffffffffffffffffff16036121b457826040517f5949361a0000000000000000000000000000000000000000000000000000000081526004016121ab919061648f565b60405180910390fd5b6121ea6121e47fd051e4f8cb1870f877b00266e1292322bea4c492a9933488e94d7c1a935e8dfa60001b866147be565b83615478565b7f000000000000000000000000000000000000000000000000000000000000000073ffffffffffffffffffffffffffffffffffffffff166342842e0e30858760001c6040518463ffffffff1660e01b815260040161224a93929190618023565b600060405180830381600087803b15801561226457600080fd5b505af1158015612278573d6000803e3d6000fd5b5050505050505050565b600080868660405161229592919061808a565b604051809103902060001c905060007f000000000000000000000000000000000000000000000000000000000000000073ffffffffffffffffffffffffffffffffffffffff16636352211e836040518263ffffffff1660e01b81526004016122fd9190616252565b602060405180830381865afa15801561231a573d6000803e3d6000fd5b505050506040513d601f19601f8201168201806040525081019061233e9190617f22565b90503373ffffffffffffffffffffffffffffffffffffffff168173ffffffffffffffffffffffffffffffffffffffff161415801561241557507f000000000000000000000000000000000000000000000000000000000000000073ffffffffffffffffffffffffffffffffffffffff1663e985e9c582336040518363ffffffff1660e01b81526004016123d29291906180a3565b602060405180830381865afa1580156123ef573d6000803e3d6000fd5b505050506040513d601f19601f820116820180604052508101906124139190617ff6565b155b156124885761244a7fd051e4f8cb1870f877b00266e1292322bea4c492a9933488e94d7c1a935e8dfa60001b8360001b6147be565b336040517fb455aae800000000000000000000000000000000000000000000000000000000815260040161247f929190617952565b60405180910390fd5b7f000000000000000000000000000000000000000000000000000000000000000073ffffffffffffffffffffffffffffffffffffffff166323b872dd8230856040518463ffffffff1660e01b81526004016124e593929190618023565b600060405180830381600087803b1580156124ff57600080fd5b505af1158015612513573d6000803e3d6000fd5b505050507f000000000000000000000000000000000000000000000000000000000000000073ffffffffffffffffffffffffffffffffffffffff166328ed4f6c83306040518363ffffffff1660e01b8152600401612572929190617a8e565b600060405180830381600087803b15801561258c57600080fd5b505af11580156125a0573d6000803e3d6000fd5b505050506276a7007f000000000000000000000000000000000000000000000000000000000000000073ffffffffffffffffffffffffffffffffffffffff1663d6e4fa86846040518263ffffffff1660e01b81526004016126019190616252565b602060405180830381865afa15801561261e573d6000803e3d6000fd5b505050506040513d601f19601f820116820180604052508101906126429190617acc565b61264c9190617b28565b92506126a388888080601f016020809104026020016040519081016040528093929190818152602001838380828437600081840152601f19601f82011690508083019250505050505050878761ffff1686886145bc565b505095945050505050565b60008060009054906101000a900473ffffffffffffffffffffffffffffffffffffffff16905090565b8173ffffffffffffffffffffffffffffffffffffffff163373ffffffffffffffffffffffffffffffffffffffff1603612745576040517f08c379a000000000000000000000000000000000000000000000000000000000815260040161273c9061813e565b60405180910390fd5b80600260003373ffffffffffffffffffffffffffffffffffffffff1673ffffffffffffffffffffffffffffffffffffffff16815260200190815260200160002060008473ffffffffffffffffffffffffffffffffffffffff1673ffffffffffffffffffffffffffffffffffffffff16815260200190815260200160002060006101000a81548160ff0219169083151502179055508173ffffffffffffffffffffffffffffffffffffffff163373ffffffffffffffffffffffffffffffffffffffff167f17307eab39ab6107e8899845ad3d59bd9653f200f220920489ca2b5937696c318360405161283691906163c2565b60405180910390a35050565b6000600460003373ffffffffffffffffffffffffffffffffffffffff1673ffffffffffffffffffffffffffffffffffffffff16815260200190815260200160002060009054906101000a900460ff166128d0576040517f08c379a00000000000000000000000000000000000000000000000000000000081526004016128c7906181d0565b60405180910390fd5b600087876040516128e292919061808a565b604051809103902060001c90507f000000000000000000000000000000000000000000000000000000000000000073ffffffffffffffffffffffffffffffffffffffff1663fca247ac8230886040518463ffffffff1660e01b815260040161294c939291906181f0565b6020604051808303816000875af115801561296b573d6000803e3d6000fd5b505050506040513d601f19601f8201168201806040525081019061298f9190617acc565b91506129f488888080601f016020809104026020016040519081016040528093929190818152602001838380828437600081840152601f19601f82011690508083019250505050505050878561ffff166276a700866129ee9190617b28565b886145bc565b509695505050505050565b600080612a0e8460001c610a86565b509150508263ffffffff1683821663ffffffff161491505092915050565b612a34614740565b600073ffffffffffffffffffffffffffffffffffffffff16600760009054906101000a900473ffffffffffffffffffffffffffffffffffffffff1673ffffffffffffffffffffffffffffffffffffffff1614612beb577f000000000000000000000000000000000000000000000000000000000000000073ffffffffffffffffffffffffffffffffffffffff1663a22cb465600760009054906101000a900473ffffffffffffffffffffffffffffffffffffffff1660006040518363ffffffff1660e01b8152600401612b08929190618227565b600060405180830381600087803b158015612b2257600080fd5b505af1158015612b36573d6000803e3d6000fd5b505050507f000000000000000000000000000000000000000000000000000000000000000073ffffffffffffffffffffffffffffffffffffffff1663a22cb465600760009054906101000a900473ffffffffffffffffffffffffffffffffffffffff1660006040518363ffffffff1660e01b8152600401612bb8929190618227565b600060405180830381600087803b158015612bd257600080fd5b505af1158015612be6573d6000803e3d6000fd5b505050505b80600760006101000a81548173ffffffffffffffffffffffffffffffffffffffff021916908373ffffffffffffffffffffffffffffffffffffffff160217905550600073ffffffffffffffffffffffffffffffffffffffff16600760009054906101000a900473ffffffffffffffffffffffffffffffffffffffff1673ffffffffffffffffffffffffffffffffffffffff1614612de3577f000000000000000000000000000000000000000000000000000000000000000073ffffffffffffffffffffffffffffffffffffffff1663a22cb465600760009054906101000a900473ffffffffffffffffffffffffffffffffffffffff1660016040518363ffffffff1660e01b8152600401612d00929190618227565b600060405180830381600087803b158015612d1a57600080fd5b505af1158015612d2e573d6000803e3d6000fd5b505050507f000000000000000000000000000000000000000000000000000000000000000073ffffffffffffffffffffffffffffffffffffffff1663a22cb465600760009054906101000a900473ffffffffffffffffffffffffffffffffffffffff1660016040518363ffffffff1660e01b8152600401612db0929190618227565b600060405180830381600087803b158015612dca57600080fd5b505af1158015612dde573d6000803e3d6000fd5b505050505b50565b6000600460003373ffffffffffffffffffffffffffffffffffffffff1673ffffffffffffffffffffffffffffffffffffffff16815260200190815260200160002060009054906101000a900460ff16612e74576040517f08c379a0000000000000000000000000000000000000000000000000000000008152600401612e6b906181d0565b60405180910390fd5b6000612ea67fd051e4f8cb1870f877b00266e1292322bea4c492a9933488e94d7c1a935e8dfa60001b8560001b6147be565b905060007f000000000000000000000000000000000000000000000000000000000000000073ffffffffffffffffffffffffffffffffffffffff1663c475abff86866040518363ffffffff1660e01b8152600401612f05929190618250565b6020604051808303816000875af1158015612f24573d6000803e3d6000fd5b505050506040513d601f19601f82011682018060405250810190612f489190617acc565b90507f000000000000000000000000000000000000000000000000000000000000000073ffffffffffffffffffffffffffffffffffffffff16636352211e866040518263ffffffff1660e01b8152600401612fa39190616252565b602060405180830381865afa925050508015612fdd57506040513d601f19601f82011682018060405250810190612fda9190617f22565b60015b612feb578092505050613138565b3073ffffffffffffffffffffffffffffffffffffffff168173ffffffffffffffffffffffffffffffffffffffff161415806130eb57503073ffffffffffffffffffffffffffffffffffffffff167f000000000000000000000000000000000000000000000000000000000000000073ffffffffffffffffffffffffffffffffffffffff166302571be3856040518263ffffffff1660e01b81526004016130919190616a55565b602060405180830381865afa1580156130ae573d6000803e3d6000fd5b505050506040513d601f19601f820116820180604052508101906130d29190617f22565b73ffffffffffffffffffffffffffffffffffffffff1614155b156130fb57819350505050613138565b5060006276a7008261310d9190617b28565b905060008061311e8560001c6142d3565b509150915061312f85838386615395565b83955050505050505b92915050565b60008661314b8133611cc9565b61318e5780336040517fb455aae8000000000000000000000000000000000000000000000000000000008152600401613185929190617952565b60405180910390fd5b600087876040516131a092919061808a565b604051809103902090506131b489826147be565b92506131c089846147f1565b6131ca83866149e6565b600061321b8a858b8b8080601f016020809104026020016040519081016040528093929190818152602001838380828437600081840152601f19601f82011690508083019250505050505050614a44565b90506132298a858888614b1b565b945061323484614b65565b6132eb577f000000000000000000000000000000000000000000000000000000000000000073ffffffffffffffffffffffffffffffffffffffff166306ab59238b84306040518463ffffffff1660e01b815260040161329593929190618279565b6020604051808303816000875af11580156132b4573d6000803e3d6000fd5b505050506040513d601f19601f820116820180604052508101906132d891906182c5565b506132e6848289898961559a565b61333e565b61333d8a858b8b8080601f016020809104026020016040519081016040528093929190818152602001838380828437600081840152601f19601f820116905080830192505050505050508a8a8a614d38565b5b5050509695505050505050565b60006133a5600086868080601f016020809104026020016040519081016040528093929190818152602001838380828437600081840152601f19601f820116905080830192505050505050506155eb90919063ffffffff16565b9050600073ffffffffffffffffffffffffffffffffffffffff16600760009054906101000a900473ffffffffffffffffffffffffffffffffffffffff1673ffffffffffffffffffffffffffffffffffffffff160361342f576040517f24c1d6d400000000000000000000000000000000000000000000000000000000815260040160405180910390fd5b6134398133611cc9565b61347c5780336040517fb455aae8000000000000000000000000000000000000000000000000000000008152600401613473929190617952565b60405180910390fd5b600080600061348d8460001c610a86565b92509250925060006134a18560001c610bd5565b90506134af8560001c6156a1565b600760009054906101000a900473ffffffffffffffffffffffffffffffffffffffff1673ffffffffffffffffffffffffffffffffffffffff16639198c2768a8a878787878e8e6040518963ffffffff1660e01b815260040161351898979695949392919061831f565b600060405180830381600087803b15801561353257600080fd5b505af1158015613546573d6000803e3d6000fd5b50505050505050505050505050565b836135608133611cc9565b6135a35780336040517fb455aae800000000000000000000000000000000000000000000000000000000815260040161359a929190617952565b60405180910390fd5b84601060086004171760006135ba8360001c610a86565b50915050600082821663ffffffff161461360b57826040517fa2a720130000000000000000000000000000000000000000000000000000000081526004016136029190616a55565b60405180910390fd5b7f000000000000000000000000000000000000000000000000000000000000000073ffffffffffffffffffffffffffffffffffffffff1663cf408823893089896040518563ffffffff1660e01b815260040161366a9493929190618392565b600060405180830381600087803b15801561368457600080fd5b505af1158015613698573d6000803e3d6000fd5b50505050600073ffffffffffffffffffffffffffffffffffffffff168773ffffffffffffffffffffffffffffffffffffffff160361374b5760006136de8960001c610a86565b509150506202000063ffffffff1662020000821663ffffffff160361373a57876040517f5949361a000000000000000000000000000000000000000000000000000000008152600401613731919061648f565b60405180910390fd5b613745896000615478565b5061377d565b60006137598960001c611f0a565b905061377b81898b60001c60016040518060200160405280600081525061578f565b505b5050505050505050565b61379183836147be565b61379b8133611cc9565b6137de5780336040517fb455aae80000000000000000000000000000000000000000000000000000000081526004016137d5929190617952565b60405180910390fd5b7fd051e4f8cb1870f877b00266e1292322bea4c492a9933488e94d7c1a935e8dfa60001b840361383a576040517f615a470300000000000000000000000000000000000000000000000000000000815260040160405180910390fd5b600073ffffffffffffffffffffffffffffffffffffffff168273ffffffffffffffffffffffffffffffffffffffff1614806138a057503073ffffffffffffffffffffffffffffffffffffffff168273ffffffffffffffffffffffffffffffffffffffff16145b156138e257816040517f5949361a0000000000000000000000000000000000000000000000000000000081526004016138d9919061648f565b60405180910390fd5b6138f56138ef85856147be565b83615478565b50505050565b60008061390884846147be565b9050600061391582614b65565b90507fd051e4f8cb1870f877b00266e1292322bea4c492a9933488e94d7c1a935e8dfa60001b851461394b578092505050613a25565b7f000000000000000000000000000000000000000000000000000000000000000073ffffffffffffffffffffffffffffffffffffffff16636352211e8560001c6040518263ffffffff1660e01b81526004016139a79190616252565b602060405180830381865afa9250505080156139e157506040513d601f19601f820116820180604052508101906139de9190617f22565b60015b6139f057600092505050613a25565b3073ffffffffffffffffffffffffffffffffffffffff168173ffffffffffffffffffffffffffffffffffffffff161493505050505b92915050565b60046020528060005260406000206000915054906101000a900460ff1681565b613a53614740565b80600460008473ffffffffffffffffffffffffffffffffffffffff1673ffffffffffffffffffffffffffffffffffffffff16815260200190815260200160002060006101000a81548160ff0219169083151502179055508173ffffffffffffffffffffffffffffffffffffffff167f4c97694570a07277810af7e5669ffd5f6a2d6b74b6e9a274b8b870fd5114cf8782604051613af091906163c2565b60405180910390a25050565b6000600260008473ffffffffffffffffffffffffffffffffffffffff1673ffffffffffffffffffffffffffffffffffffffff16815260200190815260200160002060008373ffffffffffffffffffffffffffffffffffffffff1673ffffffffffffffffffffffffffffffffffffffff16815260200190815260200160002060009054906101000a900460ff16905092915050565b600080613beb600087878080601f016020809104026020016040519081016040528093929190818152602001838380828437600081840152601f19601f8201169050808301925050505050505061590690919063ffffffff16565b915091506000613c488288888080601f016020809104026020016040519081016040528093929190818152602001838380828437600081840152601f19601f820116905080830192505050505050506155eb90919063ffffffff16565b90506000613c5682856147be565b90508787600660008481526020019081526020016000209182613c7a929190618584565b507fd051e4f8cb1870f877b00266e1292322bea4c492a9933488e94d7c1a935e8dfa60001b8203613cd7576040517f615a470300000000000000000000000000000000000000000000000000000000815260040160405180910390fd5b60007f000000000000000000000000000000000000000000000000000000000000000073ffffffffffffffffffffffffffffffffffffffff166302571be3836040518263ffffffff1660e01b8152600401613d329190616a55565b602060405180830381865afa158015613d4f573d6000803e3d6000fd5b505050506040513d601f19601f82011682018060405250810190613d739190617f22565b90503373ffffffffffffffffffffffffffffffffffffffff168173ffffffffffffffffffffffffffffffffffffffff1614158015613e4a57507f000000000000000000000000000000000000000000000000000000000000000073ffffffffffffffffffffffffffffffffffffffff1663e985e9c582336040518363ffffffff1660e01b8152600401613e079291906180a3565b602060405180830381865afa158015613e24573d6000803e3d6000fd5b505050506040513d601f19601f82011682018060405250810190613e489190617ff6565b155b15613e8e5781336040517fb455aae8000000000000000000000000000000000000000000000000000000008152600401613e85929190617952565b60405180910390fd5b600073ffffffffffffffffffffffffffffffffffffffff168673ffffffffffffffffffffffffffffffffffffffff1614613f50577f000000000000000000000000000000000000000000000000000000000000000073ffffffffffffffffffffffffffffffffffffffff16631896f70a83886040518363ffffffff1660e01b8152600401613f1d929190617952565b600060405180830381600087803b158015613f3757600080fd5b505af1158015613f4b573d6000803e3d6000fd5b505050505b7f000000000000000000000000000000000000000000000000000000000000000073ffffffffffffffffffffffffffffffffffffffff16635b0fc9c383306040518363ffffffff1660e01b8152600401613fab929190617952565b600060405180830381600087803b158015613fc557600080fd5b505af1158015613fd9573d6000803e3d6000fd5b5050505061402f828a8a8080601f016020809104026020016040519081016040528093929190818152602001838380828437600081840152601f19601f820116905080830192505050505050508960008061559a565b505050505050505050565b60016020528060005260406000206000915090505481565b600073ffffffffffffffffffffffffffffffffffffffff168473ffffffffffffffffffffffffffffffffffffffff16036140c1576040517f08c379a00000000000000000000000000000000000000000000000000000000081526004016140b890617d1b565b60405180910390fd5b3373ffffffffffffffffffffffffffffffffffffffff168573ffffffffffffffffffffffffffffffffffffffff16148061410157506141008533613afc565b5b614140576040517f08c379a0000000000000000000000000000000000000000000000000000000008152600401614137906186c6565b60405180910390fd5b61414d858585858561578f565b5050505050565b61415c614740565b600073ffffffffffffffffffffffffffffffffffffffff168173ffffffffffffffffffffffffffffffffffffffff16036141cb576040517f08c379a00000000000000000000000000000000000000000000000000000000081526004016141c290618758565b60405180910390fd5b6141d4816153b4565b50565b6000806006600084815260200190815260200160002080546141f890617b93565b80601f016020809104026020016040519081016040528092919081815260200182805461422490617b93565b80156142715780601f1061424657610100808354040283529160200191614271565b820191906000526020600020905b81548152906001019060200180831161425457829003601f168201915b50505050509050600081510361428b5760009150506142ce565b6000806142a260008461590690919063ffffffff16565b9150915060006142bb82856155eb90919063ffffffff16565b90506142c781846138fb565b9450505050505b919050565b6000806000806001600086815260200190815260200160002054905080935060c081901c915060a081901c9250509193909250565b600080428367ffffffffffffffff161015614342576201000063ffffffff1662010000851663ffffffff160361433d57600094505b600093505b848491509150935093915050565b60007fd9b67a26000000000000000000000000000000000000000000000000000000007bffffffffffffffffffffffffffffffffffffffffffffffffffffffff1916827bffffffffffffffffffffffffffffffffffffffffffffffffffffffff1916148061441b57507f0e89341c000000000000000000000000000000000000000000000000000000007bffffffffffffffffffffffffffffffffffffffffffffffffffffffff1916827bffffffffffffffffffffffffffffffffffffffffffffffffffffffff1916145b8061442b575061442a826159c4565b5b9050919050565b60006003600083815260200190815260200160002060009054906101000a900473ffffffffffffffffffffffffffffffffffffffff169050919050565b600061447a82611f0a565b90508073ffffffffffffffffffffffffffffffffffffffff168373ffffffffffffffffffffffffffffffffffffffff16036144ea576040517f08c379a00000000000000000000000000000000000000000000000000000000081526004016144e1906187ea565b60405180910390fd5b8073ffffffffffffffffffffffffffffffffffffffff163373ffffffffffffffffffffffffffffffffffffffff16148061452a57506145298133613afc565b5b614569576040517f08c379a00000000000000000000000000000000000000000000000000000000081526004016145609061887c565b60405180910390fd5b6145738383615a2e565b505050565b60006202000063ffffffff1662020000841663ffffffff161480156145b45750426276a700836145a8919061889c565b67ffffffffffffffff16105b905092915050565b60008580519060200120905060006145f77fd051e4f8cb1870f877b00266e1292322bea4c492a9933488e94d7c1a935e8dfa60001b836147be565b9050600061463a886040518060400160405280600881526020017f047363726f6c6c00000000000000000000000000000000000000000000000000815250615ae7565b90508060066000848152602001908152602001600020908161465c91906188d8565b5061467482828962020000620100008b17178961559a565b600073ffffffffffffffffffffffffffffffffffffffff168473ffffffffffffffffffffffffffffffffffffffff1614614736577f000000000000000000000000000000000000000000000000000000000000000073ffffffffffffffffffffffffffffffffffffffff16631896f70a83866040518363ffffffff1660e01b8152600401614703929190617952565b600060405180830381600087803b15801561471d57600080fd5b505af1158015614731573d6000803e3d6000fd5b505050505b5050505050505050565b614748615b99565b73ffffffffffffffffffffffffffffffffffffffff166147666126ae565b73ffffffffffffffffffffffffffffffffffffffff16146147bc576040517f08c379a00000000000000000000000000000000000000000000000000000000081526004016147b3906189f6565b60405180910390fd5b565b600082826040516020016147d3929190618a37565b60405160208183030381529060405280519060200120905092915050565b60008060006148028460001c610a86565b9250925092506000428267ffffffffffffffff161090508080156149225750600073ffffffffffffffffffffffffffffffffffffffff168473ffffffffffffffffffffffffffffffffffffffff1614806149215750600073ffffffffffffffffffffffffffffffffffffffff167f000000000000000000000000000000000000000000000000000000000000000073ffffffffffffffffffffffffffffffffffffffff166302571be3876040518263ffffffff1660e01b81526004016148c89190616a55565b602060405180830381865afa1580156148e5573d6000803e3d6000fd5b505050506040513d601f19601f820116820180604052508101906149099190617f22565b73ffffffffffffffffffffffffffffffffffffffff16145b5b1561498d5760006149358760001c610a86565b5091505060006020821663ffffffff161461498757856040517fa2a7201300000000000000000000000000000000000000000000000000000000815260040161497e9190616a55565b60405180910390fd5b506149de565b600062010000841663ffffffff16146149dd57846040517fa2a720130000000000000000000000000000000000000000000000000000000081526004016149d49190616a55565b60405180910390fd5b5b505050505050565b63fffdffff63ffffffff1663fffdffff821763ffffffff1614614a4057816040517fa2a72013000000000000000000000000000000000000000000000000000000008152600401614a379190616a55565b60405180910390fd5b5050565b60606000614aed83600660008881526020019081526020016000208054614a6a90617b93565b80601f0160208091040260200160405190810160405280929190818152602001828054614a9690617b93565b8015614ae35780601f10614ab857610100808354040283529160200191614ae3565b820191906000526020600020905b815481529060010190602001808311614ac657829003601f168201915b5050505050615ae7565b905080600660008681526020019081526020016000209081614b0f91906188d8565b50809150509392505050565b600080614b2a8560001c610a86565b92505050600080614b3d8860001c610a86565b9250925050614b4d878784615219565b614b58858483615290565b9350505050949350505050565b60008073ffffffffffffffffffffffffffffffffffffffff16614b8a8360001c611f0a565b73ffffffffffffffffffffffffffffffffffffffff1614158015614c7257503073ffffffffffffffffffffffffffffffffffffffff167f000000000000000000000000000000000000000000000000000000000000000073ffffffffffffffffffffffffffffffffffffffff166302571be3846040518263ffffffff1660e01b8152600401614c199190616a55565b602060405180830381865afa158015614c36573d6000803e3d6000fd5b505050506040513d601f19601f82011682018060405250810190614c5a9190617f22565b73ffffffffffffffffffffffffffffffffffffffff16145b9050919050565b6000614d2085600660008a81526020019081526020016000208054614c9d90617b93565b80601f0160208091040260200160405190810160405280929190818152602001828054614cc990617b93565b8015614d165780601f10614ceb57610100808354040283529160200191614d16565b820191906000526020600020905b815481529060010190602001808311614cf957829003601f168201915b5050505050615ae7565b9050614d2f868286868661559a565b50505050505050565b6000806000614d498860001c610a86565b9250925092506000614df688600660008d81526020019081526020016000208054614d7390617b93565b80601f0160208091040260200160405190810160405280929190818152602001828054614d9f90617b93565b8015614dec5780601f10614dc157610100808354040283529160200191614dec565b820191906000526020600020905b815481529060010190602001808311614dcf57829003601f168201915b5050505050615ae7565b90506000600660008b81526020019081526020016000208054614e1890617b93565b905003614e415780600660008b81526020019081526020016000209081614e3f91906188d8565b505b614e50898588861785896152dc565b600073ffffffffffffffffffffffffffffffffffffffff168773ffffffffffffffffffffffffffffffffffffffff1603614e9457614e8f896000615478565b614eb5565b614eb484888b60001c60016040518060200160405280600081525061578f565b5b50505050505050505050565b6202000063ffffffff1662020000831663ffffffff1603614eee576276a70081614eeb919061889c565b90505b428167ffffffffffffffff161015614f5357600062010000831663ffffffff1614614f4e576040517f08c379a0000000000000000000000000000000000000000000000000000000008152600401614f4590617e6e565b60405180910390fd5b614fa5565b60006004831663ffffffff1614614fa4578260001b6040517fa2a72013000000000000000000000000000000000000000000000000000000008152600401614f9b9190616a55565b60405180910390fd5b5b60006040831663ffffffff1603614fed576003600084815260200190815260200160002060006101000a81549073ffffffffffffffffffffffffffffffffffffffff02191690555b505050565b60c08167ffffffffffffffff16901b60a08363ffffffff16901b8473ffffffffffffffffffffffffffffffffffffffff161717600160008681526020019081526020016000208190555050505050565b6150618473ffffffffffffffffffffffffffffffffffffffff16615ba1565b15615211578373ffffffffffffffffffffffffffffffffffffffff1663bc197c8187878686866040518663ffffffff1660e01b81526004016150a7959493929190618a63565b6020604051808303816000875af19250505080156150e357506040513d601f19601f820116820180604052508101906150e09190618ae0565b60015b615188576150ef618b1a565b806308c379a00361514b5750615103618b3c565b8061510e575061514d565b806040517f08c379a0000000000000000000000000000000000000000000000000000000008152600401615142919061646d565b60405180910390fd5b505b6040517f08c379a000000000000000000000000000000000000000000000000000000000815260040161517f90618c3e565b60405180910390fd5b63bc197c8160e01b7bffffffffffffffffffffffffffffffffffffffffffffffffffffffff1916817bffffffffffffffffffffffffffffffffffffffffffffffffffffffff19161461520f576040517f08c379a000000000000000000000000000000000000000000000000000000000815260040161520690618cd0565b60405180910390fd5b505b505050505050565b60008063ffff0000841663ffffffff16141590506000806001841663ffffffff161490508180156152475750805b1561528957846040517fa2a720130000000000000000000000000000000000000000000000000000000081526004016152809190616a55565b60405180910390fd5b5050505050565b60008167ffffffffffffffff168467ffffffffffffffff1611156152b2578193505b8267ffffffffffffffff168467ffffffffffffffff1610156152d2578293505b8390509392505050565b6152e885858584615395565b847f39873f00c80f4f94b7bd1594aebcf650f003545b74824d57ddf4939e3ff3a34b846040516153189190616dfc565b60405180910390a28167ffffffffffffffff168167ffffffffffffffff16111561537557847ff675815a0817338f93a7da433f6bd5f5542f1029b11b455191ac96c7f6a9b1328260405161536c9190617114565b60405180910390a25b5050505050565b60008061538883610a86565b5050905080915050919050565b61539f8483615bc4565b6153ae8460001c848484614ff2565b50505050565b60008060009054906101000a900473ffffffffffffffffffffffffffffffffffffffff169050816000806101000a81548173ffffffffffffffffffffffffffffffffffffffff021916908373ffffffffffffffffffffffffffffffffffffffff1602179055508173ffffffffffffffffffffffffffffffffffffffff168173ffffffffffffffffffffffffffffffffffffffff167f8be0079c531659141344cd1fd0a4f28419497f9722a3daafe3b4186f6b6457e060405160405180910390a35050565b6154838260016129ff565b156154c557816040517fa2a720130000000000000000000000000000000000000000000000000000000081526004016154bc9190616a55565b60405180910390fd5b6154d18260001c6156a1565b7f000000000000000000000000000000000000000000000000000000000000000073ffffffffffffffffffffffffffffffffffffffff16635b0fc9c383836040518363ffffffff1660e01b815260040161552c929190617952565b600060405180830381600087803b15801561554657600080fd5b505af115801561555a573d6000803e3d6000fd5b50505050817fee2ba1195c65bcf218a83d874335c6bf9d9067b4c672f3c3bf16cf40de7586c48260405161558e919061648f565b60405180910390a25050565b6155a685848484615c42565b847f8ce7013e8abebc55c3890a68f5a27c67c3f7efa64e584de5fb22363c606fd340858585856040516155dc9493929190618cf0565b60405180910390a25050505050565b60008060006155fa8585615906565b915091506000801b820361566457600185516156169190618d3c565b8414615657576040517f08c379a000000000000000000000000000000000000000000000000000000000815260040161564e90618dbc565b60405180910390fd5b6000801b9250505061569b565b61566e85826155eb565b82604051602001615680929190618a37565b60405160208183030381529060405280519060200120925050505b92915050565b60008060006156af846142d3565b9250925092506156c0838383614308565b9050809250506003600085815260200190815260200160002060006101000a81549073ffffffffffffffffffffffffffffffffffffffff02191690556157098460008484614ff2565b600073ffffffffffffffffffffffffffffffffffffffff168373ffffffffffffffffffffffffffffffffffffffff163373ffffffffffffffffffffffffffffffffffffffff167fc3d58168c5ae7397731d063d5bbf3d657854427343f4c083240f7aacaa2d0f62876001604051615781929190618e17565b60405180910390a450505050565b600080600061579d86610a86565b9250925092506157ae868383614ec1565b6001851480156157e957508773ffffffffffffffffffffffffffffffffffffffff168373ffffffffffffffffffffffffffffffffffffffff16145b615828576040517f08c379a000000000000000000000000000000000000000000000000000000000815260040161581f90617e6e565b60405180910390fd5b8673ffffffffffffffffffffffffffffffffffffffff168373ffffffffffffffffffffffffffffffffffffffff1603615863575050506158ff565b61586f86888484614ff2565b8673ffffffffffffffffffffffffffffffffffffffff168873ffffffffffffffffffffffffffffffffffffffff163373ffffffffffffffffffffffffffffffffffffffff167fc3d58168c5ae7397731d063d5bbf3d657854427343f4c083240f7aacaa2d0f6289896040516158e5929190618250565b60405180910390a46158fb338989898989615ceb565b5050505b5050505050565b6000808351831061594c576040517f08c379a000000000000000000000000000000000000000000000000000000000815260040161594390618e8c565b60405180910390fd5b600084848151811061596157615960617dcd565b5b602001015160f81c60f81b60f81c60ff169050600081111561599b576159948560018661598e9190618eac565b83615ec2565b92506159a2565b6000801b92505b600181856159b09190618eac565b6159ba9190618eac565b9150509250929050565b60007f01ffc9a7000000000000000000000000000000000000000000000000000000007bffffffffffffffffffffffffffffffffffffffffffffffffffffffff1916827bffffffffffffffffffffffffffffffffffffffffffffffffffffffff1916149050919050565b816003600083815260200190815260200160002060006101000a81548173ffffffffffffffffffffffffffffffffffffffff021916908373ffffffffffffffffffffffffffffffffffffffff160217905550808273ffffffffffffffffffffffffffffffffffffffff16615aa183611f0a565b73ffffffffffffffffffffffffffffffffffffffff167f8c5be1e5ebec7d5bd14f71427d1e84f3dd0314c0f7b2291e5b200ac8c7c3b92560405160405180910390a45050565b6060600183511015615b25576040517f280dacb600000000000000000000000000000000000000000000000000000000815260040160405180910390fd5b60ff83511115615b6c57826040517fe3ba295f000000000000000000000000000000000000000000000000000000008152600401615b63919061646d565b60405180910390fd5b82518383604051602001615b8293929190618f90565b604051602081830303815290604052905092915050565b600033905090565b6000808273ffffffffffffffffffffffffffffffffffffffff163b119050919050565b600063ffff000019821663ffffffff1614158015615bfc57506001620100001763ffffffff1660016201000017821663ffffffff1614155b15615c3e57816040517fa2a72013000000000000000000000000000000000000000000000000000000008152600401615c359190616a55565b60405180910390fd5b5050565b615c4c8483615bc4565b6000615c5a8560001c6142d3565b50509050600073ffffffffffffffffffffffffffffffffffffffff168173ffffffffffffffffffffffffffffffffffffffff1614615cd857615c9e8560001c6156a1565b847fee2ba1195c65bcf218a83d874335c6bf9d9067b4c672f3c3bf16cf40de7586c46000604051615ccf919061648f565b60405180910390a25b615ce485858585615eee565b5050505050565b615d0a8473ffffffffffffffffffffffffffffffffffffffff16615ba1565b15615eba578373ffffffffffffffffffffffffffffffffffffffff1663f23a6e6187878686866040518663ffffffff1660e01b8152600401615d50959493929190618fc5565b6020604051808303816000875af1925050508015615d8c57506040513d601f19601f82011682018060405250810190615d899190618ae0565b60015b615e3157615d98618b1a565b806308c379a003615df45750615dac618b3c565b80615db75750615df6565b806040517f08c379a0000000000000000000000000000000000000000000000000000000008152600401615deb919061646d565b60405180910390fd5b505b6040517f08c379a0000000000000000000000000000000000000000000000000000000008152600401615e2890618c3e565b60405180910390fd5b63f23a6e6160e01b7bffffffffffffffffffffffffffffffffffffffffffffffffffffffff1916817bffffffffffffffffffffffffffffffffffffffffffffffffffffffff191614615eb8576040517f08c379a0000000000000000000000000000000000000000000000000000000008152600401615eaf90618cd0565b60405180910390fd5b505b505050505050565b600083518284615ed29190618eac565b1115615edd57600080fd5b818360208601012090509392505050565b60008460001c90506000806000615f078860001c610a86565b925092509250600082601061ffff801663ffffffff16901b1690508567ffffffffffffffff168267ffffffffffffffff161115615f42578195505b428267ffffffffffffffff1610615f595780871796505b600073ffffffffffffffffffffffffffffffffffffffff168473ffffffffffffffffffffffffffffffffffffffff1614615fc8576040517f08c379a0000000000000000000000000000000000000000000000000000000008152600401615fbf9061906b565b60405180910390fd5b600073ffffffffffffffffffffffffffffffffffffffff168873ffffffffffffffffffffffffffffffffffffffff1603616037576040517f08c379a000000000000000000000000000000000000000000000000000000000815260040161602e906190fd565b60405180910390fd5b3073ffffffffffffffffffffffffffffffffffffffff168873ffffffffffffffffffffffffffffffffffffffff16036160a5576040517f08c379a000000000000000000000000000000000000000000000000000000000815260040161609c9061918f565b60405180910390fd5b6160b185898989614ff2565b8773ffffffffffffffffffffffffffffffffffffffff16600073ffffffffffffffffffffffffffffffffffffffff163373ffffffffffffffffffffffffffffffffffffffff167fc3d58168c5ae7397731d063d5bbf3d657854427343f4c083240f7aacaa2d0f62886001604051616129929190618e17565b60405180910390a46161503360008a88600160405180602001604052806000815250615ceb565b505050505050505050565b6000604051905090565b600080fd5b600080fd5b600073ffffffffffffffffffffffffffffffffffffffff82169050919050565b600061619a8261616f565b9050919050565b6161aa8161618f565b81146161b557600080fd5b50565b6000813590506161c7816161a1565b92915050565b6000819050919050565b6161e0816161cd565b81146161eb57600080fd5b50565b6000813590506161fd816161d7565b92915050565b6000806040838503121561621a57616219616165565b5b6000616228858286016161b8565b9250506020616239858286016161ee565b9150509250929050565b61624c816161cd565b82525050565b60006020820190506162676000830184616243565b92915050565b60006020828403121561628357616282616165565b5b6000616291848285016161ee565b91505092915050565b6162a38161618f565b82525050565b600063ffffffff82169050919050565b6162c2816162a9565b82525050565b600067ffffffffffffffff82169050919050565b6162e5816162c8565b82525050565b6000606082019050616300600083018661629a565b61630d60208301856162b9565b61631a60408301846162dc565b949350505050565b60007fffffffff0000000000000000000000000000000000000000000000000000000082169050919050565b61635781616322565b811461636257600080fd5b50565b6000813590506163748161634e565b92915050565b6000602082840312156163905761638f616165565b5b600061639e84828501616365565b91505092915050565b60008115159050919050565b6163bc816163a7565b82525050565b60006020820190506163d760008301846163b3565b92915050565b600081519050919050565b600082825260208201905092915050565b60005b838110156164175780820151818401526020810190506163fc565b60008484015250505050565b6000601f19601f8301169050919050565b600061643f826163dd565b61644981856163e8565b93506164598185602086016163f9565b61646281616423565b840191505092915050565b600060208201905081810360008301526164878184616434565b905092915050565b60006020820190506164a4600083018461629a565b92915050565b6000819050919050565b6164bd816164aa565b81146164c857600080fd5b50565b6000813590506164da816164b4565b92915050565b600080604083850312156164f7576164f6616165565b5b6000616505858286016164cb565b9250506020616516858286016161b8565b9150509250929050565b616529816162c8565b811461653457600080fd5b50565b60008135905061654681616520565b92915050565b6000806040838503121561656357616562616165565b5b6000616571858286016164cb565b925050602061658285828601616537565b9150509250929050565b600080fd5b600080fd5b600080fd5b60008083601f8401126165b1576165b061658c565b5b8235905067ffffffffffffffff8111156165ce576165cd616591565b5b6020830191508360018202830111156165ea576165e9616596565b5b9250929050565b60008060008060006080868803121561660d5761660c616165565b5b600061661b888289016161b8565b955050602061662c888289016161b8565b945050604061663d888289016161ee565b935050606086013567ffffffffffffffff81111561665e5761665d61616a565b5b61666a8882890161659b565b92509250509295509295909350565b61668281616322565b82525050565b600060208201905061669d6000830184616679565b92915050565b60006166ae8261618f565b9050919050565b6166be816166a3565b81146166c957600080fd5b50565b6000813590506166db816166b5565b92915050565b6000602082840312156166f7576166f6616165565b5b6000616705848285016166cc565b91505092915050565b6000819050919050565b600061673361672e6167298461616f565b61670e565b61616f565b9050919050565b600061674582616718565b9050919050565b60006167578261673a565b9050919050565b6167678161674c565b82525050565b6000602082019050616782600083018461675e565b92915050565b60006020828403121561679e5761679d616165565b5b60006167ac848285016164cb565b91505092915050565b600081519050919050565b600082825260208201905092915050565b60006167dc826167b5565b6167e681856167c0565b93506167f68185602086016163f9565b6167ff81616423565b840191505092915050565b6000602082019050818103600083015261682481846167d1565b905092915050565b600080fd5b7f4e487b7100000000000000000000000000000000000000000000000000000000600052604160045260246000fd5b61686982616423565b810181811067ffffffffffffffff8211171561688857616887616831565b5b80604052505050565b600061689b61615b565b90506168a78282616860565b919050565b600067ffffffffffffffff8211156168c7576168c6616831565b5b6168d082616423565b9050602081019050919050565b82818337600083830152505050565b60006168ff6168fa846168ac565b616891565b90508281526020810184848401111561691b5761691a61682c565b5b6169268482856168dd565b509392505050565b600082601f8301126169435761694261658c565b5b81356169538482602086016168ec565b91505092915050565b616965816162a9565b811461697057600080fd5b50565b6000813590506169828161695c565b92915050565b600080600080600080600060e0888a0312156169a7576169a6616165565b5b60006169b58a828b016164cb565b975050602088013567ffffffffffffffff8111156169d6576169d561616a565b5b6169e28a828b0161692e565b96505060406169f38a828b016161b8565b9550506060616a048a828b016161b8565b9450506080616a158a828b01616537565b93505060a0616a268a828b01616973565b92505060c0616a378a828b01616537565b91505092959891949750929550565b616a4f816164aa565b82525050565b6000602082019050616a6a6000830184616a46565b92915050565b6000616a7b8261673a565b9050919050565b616a8b81616a70565b82525050565b6000602082019050616aa66000830184616a82565b92915050565b600067ffffffffffffffff821115616ac757616ac6616831565b5b602082029050602081019050919050565b6000616aeb616ae684616aac565b616891565b90508083825260208201905060208402830185811115616b0e57616b0d616596565b5b835b81811015616b375780616b2388826161ee565b845260208401935050602081019050616b10565b5050509392505050565b600082601f830112616b5657616b5561658c565b5b8135616b66848260208601616ad8565b91505092915050565b600067ffffffffffffffff821115616b8a57616b89616831565b5b616b9382616423565b9050602081019050919050565b6000616bb3616bae84616b6f565b616891565b905082815260208101848484011115616bcf57616bce61682c565b5b616bda8482856168dd565b509392505050565b600082601f830112616bf757616bf661658c565b5b8135616c07848260208601616ba0565b91505092915050565b600080600080600060a08688031215616c2c57616c2b616165565b5b6000616c3a888289016161b8565b9550506020616c4b888289016161b8565b945050604086013567ffffffffffffffff811115616c6c57616c6b61616a565b5b616c7888828901616b41565b935050606086013567ffffffffffffffff811115616c9957616c9861616a565b5b616ca588828901616b41565b925050608086013567ffffffffffffffff811115616cc657616cc561616a565b5b616cd288828901616be2565b9150509295509295909350565b60008060008060808587031215616cf957616cf8616165565b5b6000616d07878288016164cb565b9450506020616d18878288016164cb565b9350506040616d2987828801616973565b9250506060616d3a87828801616537565b91505092959194509250565b6000616d518261673a565b9050919050565b616d6181616d46565b82525050565b6000602082019050616d7c6000830184616d58565b92915050565b600061ffff82169050919050565b616d9981616d82565b8114616da457600080fd5b50565b600081359050616db681616d90565b92915050565b60008060408385031215616dd357616dd2616165565b5b6000616de1858286016164cb565b9250506020616df285828601616da7565b9150509250929050565b6000602082019050616e1160008301846162b9565b92915050565b600067ffffffffffffffff821115616e3257616e31616831565b5b602082029050602081019050919050565b6000616e56616e5184616e17565b616891565b90508083825260208201905060208402830185811115616e7957616e78616596565b5b835b81811015616ea25780616e8e88826161b8565b845260208401935050602081019050616e7b565b5050509392505050565b600082601f830112616ec157616ec061658c565b5b8135616ed1848260208601616e43565b91505092915050565b60008060408385031215616ef157616ef0616165565b5b600083013567ffffffffffffffff811115616f0f57616f0e61616a565b5b616f1b85828601616eac565b925050602083013567ffffffffffffffff811115616f3c57616f3b61616a565b5b616f4885828601616b41565b9150509250929050565b600081519050919050565b600082825260208201905092915050565b6000819050602082019050919050565b616f87816161cd565b82525050565b6000616f998383616f7e565b60208301905092915050565b6000602082019050919050565b6000616fbd82616f52565b616fc78185616f5d565b9350616fd283616f6e565b8060005b83811015617003578151616fea8882616f8d565b9750616ff583616fa5565b925050600181019050616fd6565b5085935050505092915050565b6000602082019050818103600083015261702a8184616fb2565b905092915050565b600061703d8261673a565b9050919050565b61704d81617032565b82525050565b60006020820190506170686000830184617044565b92915050565b60008060006060848603121561708757617086616165565b5b6000617095868287016161b8565b93505060206170a6868287016161b8565b92505060406170b7868287016161ee565b9150509250925092565b6000806000606084860312156170da576170d9616165565b5b60006170e8868287016164cb565b93505060206170f9868287016164cb565b925050604061710a86828701616537565b9150509250925092565b600060208201905061712960008301846162dc565b92915050565b60008060006060848603121561714857617147616165565b5b6000617156868287016164cb565b9350506020617167868287016161b8565b9250506040617178868287016161b8565b9150509250925092565b60008083601f8401126171985761719761658c565b5b8235905067ffffffffffffffff8111156171b5576171b4616591565b5b6020830191508360018202830111156171d1576171d0616596565b5b9250929050565b6000806000806000608086880312156171f4576171f3616165565b5b600086013567ffffffffffffffff8111156172125761721161616a565b5b61721e88828901617182565b95509550506020617231888289016161b8565b935050604061724288828901616da7565b9250506060617253888289016161b8565b9150509295509295909350565b617269816163a7565b811461727457600080fd5b50565b60008135905061728681617260565b92915050565b600080604083850312156172a3576172a2616165565b5b60006172b1858286016161b8565b92505060206172c285828601617277565b9150509250929050565b60008060008060008060a087890312156172e9576172e8616165565b5b600087013567ffffffffffffffff8111156173075761730661616a565b5b61731389828a01617182565b9650965050602061732689828a016161b8565b945050604061733789828a016161ee565b935050606061734889828a016161b8565b925050608061735989828a01616da7565b9150509295509295509295565b6000806040838503121561737d5761737c616165565b5b600061738b858286016164cb565b925050602061739c85828601616973565b9150509250929050565b60006173b18261618f565b9050919050565b6173c1816173a6565b81146173cc57600080fd5b50565b6000813590506173de816173b8565b92915050565b6000602082840312156173fa576173f9616165565b5b6000617408848285016173cf565b91505092915050565b6000806040838503121561742857617427616165565b5b6000617436858286016161ee565b9250506020617447858286016161ee565b9150509250929050565b60008060008060008060a0878903121561746e5761746d616165565b5b600061747c89828a016164cb565b965050602087013567ffffffffffffffff81111561749d5761749c61616a565b5b6174a989828a01617182565b955095505060406174bc89828a016161b8565b93505060606174cd89828a01616973565b92505060806174de89828a01616537565b9150509295509295509295565b6000806000806040858703121561750557617504616165565b5b600085013567ffffffffffffffff8111156175235761752261616a565b5b61752f8782880161659b565b9450945050602085013567ffffffffffffffff8111156175525761755161616a565b5b61755e8782880161659b565b925092505092959194509250565b6000806000806080858703121561758657617585616165565b5b6000617594878288016164cb565b94505060206175a5878288016161b8565b93505060406175b6878288016161b8565b92505060606175c787828801616537565b91505092959194509250565b6000806000606084860312156175ec576175eb616165565b5b60006175fa868287016164cb565b935050602061760b868287016164cb565b925050604061761c868287016161b8565b9150509250925092565b6000806040838503121561763d5761763c616165565b5b600061764b858286016164cb565b925050602061765c858286016164cb565b9150509250929050565b60006020828403121561767c5761767b616165565b5b600061768a848285016161b8565b91505092915050565b600080604083850312156176aa576176a9616165565b5b60006176b8858286016161b8565b92505060206176c9858286016161b8565b9150509250929050565b600080600080606085870312156176ed576176ec616165565b5b600085013567ffffffffffffffff81111561770b5761770a61616a565b5b6177178782880161659b565b9450945050602061772a878288016161b8565b925050604061773b878288016161b8565b91505092959194509250565b600080600080600060a0868803121561776357617762616165565b5b6000617771888289016161b8565b9550506020617782888289016161b8565b9450506040617793888289016161ee565b93505060606177a4888289016161ee565b925050608086013567ffffffffffffffff8111156177c5576177c461616a565b5b6177d188828901616be2565b9150509295509295909350565b7f455243313135353a2062616c616e636520717565727920666f7220746865207a60008201527f65726f2061646472657373000000000000000000000000000000000000000000602082015250565b600061783a602b836163e8565b9150617845826177de565b604082019050919050565b600060208201905081810360008301526178698161782d565b9050919050565b6000604082019050617885600083018561629a565b6178926020830184616243565b9392505050565b60006178ac6178a7846168ac565b616891565b9050828152602081018484840111156178c8576178c761682c565b5b6178d38482856163f9565b509392505050565b600082601f8301126178f0576178ef61658c565b5b8151617900848260208601617899565b91505092915050565b60006020828403121561791f5761791e616165565b5b600082015167ffffffffffffffff81111561793d5761793c61616a565b5b617949848285016178db565b91505092915050565b60006040820190506179676000830185616a46565b617974602083018461629a565b9392505050565b60006040820190506179906000830185616a46565b61799d60208301846162dc565b9392505050565b60006179af8261616f565b9050919050565b6179bf816179a4565b81146179ca57600080fd5b50565b6000813590506179dc816179b6565b92915050565b600080600080608085870312156179fc576179fb616165565b5b600085013567ffffffffffffffff811115617a1a57617a1961616a565b5b617a268782880161692e565b9450506020617a37878288016179cd565b9350506040617a4887828801616da7565b9250506060617a59878288016179cd565b91505092959194509250565b6000604082019050617a7a6000830185616a46565b617a876020830184616a46565b9392505050565b6000604082019050617aa36000830185616243565b617ab0602083018461629a565b9392505050565b600081519050617ac6816161d7565b92915050565b600060208284031215617ae257617ae1616165565b5b6000617af084828501617ab7565b91505092915050565b7f4e487b7100000000000000000000000000000000000000000000000000000000600052601160045260246000fd5b6000617b33826162c8565b9150617b3e836162c8565b9250828201905067ffffffffffffffff811115617b5e57617b5d617af9565b5b92915050565b7f4e487b7100000000000000000000000000000000000000000000000000000000600052602260045260246000fd5b60006002820490506001821680617bab57607f821691505b602082108103617bbe57617bbd617b64565b5b50919050565b600060a082019050617bd96000830188616a46565b617be66020830187616a46565b617bf3604083018661629a565b617c00606083018561629a565b617c0d60808301846162dc565b9695505050505050565b7f455243313135353a2069647320616e6420616d6f756e7473206c656e6774682060008201527f6d69736d61746368000000000000000000000000000000000000000000000000602082015250565b6000617c736028836163e8565b9150617c7e82617c17565b604082019050919050565b60006020820190508181036000830152617ca281617c66565b9050919050565b7f455243313135353a207472616e7366657220746f20746865207a65726f20616460008201527f6472657373000000000000000000000000000000000000000000000000000000602082015250565b6000617d056025836163e8565b9150617d1082617ca9565b604082019050919050565b60006020820190508181036000830152617d3481617cf8565b9050919050565b7f455243313135353a207472616e736665722063616c6c6572206973206e6f742060008201527f6f776e6572206e6f7220617070726f7665640000000000000000000000000000602082015250565b6000617d976032836163e8565b9150617da282617d3b565b604082019050919050565b60006020820190508181036000830152617dc681617d8a565b9050919050565b7f4e487b7100000000000000000000000000000000000000000000000000000000600052603260045260246000fd5b7f455243313135353a20696e73756666696369656e742062616c616e636520666f60008201527f72207472616e7366657200000000000000000000000000000000000000000000602082015250565b6000617e58602a836163e8565b9150617e6382617dfc565b604082019050919050565b60006020820190508181036000830152617e8781617e4b565b9050919050565b6000617e99826161cd565b91507fffffffffffffffffffffffffffffffffffffffffffffffffffffffffffffffff8203617ecb57617eca617af9565b5b600182019050919050565b60006040820190508181036000830152617ef08185616fb2565b90508181036020830152617f048184616fb2565b90509392505050565b600081519050617f1c816161a1565b92915050565b600060208284031215617f3857617f37616165565b5b6000617f4684828501617f0d565b91505092915050565b7f455243313135353a206163636f756e747320616e6420696473206c656e67746860008201527f206d69736d617463680000000000000000000000000000000000000000000000602082015250565b6000617fab6029836163e8565b9150617fb682617f4f565b604082019050919050565b60006020820190508181036000830152617fda81617f9e565b9050919050565b600081519050617ff081617260565b92915050565b60006020828403121561800c5761800b616165565b5b600061801a84828501617fe1565b91505092915050565b6000606082019050618038600083018661629a565b618045602083018561629a565b6180526040830184616243565b949350505050565b600081905092915050565b6000618071838561805a565b935061807e8385846168dd565b82840190509392505050565b6000618097828486618065565b91508190509392505050565b60006040820190506180b8600083018561629a565b6180c5602083018461629a565b9392505050565b7f455243313135353a2073657474696e6720617070726f76616c2073746174757360008201527f20666f722073656c660000000000000000000000000000000000000000000000602082015250565b60006181286029836163e8565b9150618133826180cc565b604082019050919050565b600060208201905081810360008301526181578161811b565b9050919050565b7f436f6e74726f6c6c61626c653a2043616c6c6572206973206e6f74206120636f60008201527f6e74726f6c6c6572000000000000000000000000000000000000000000000000602082015250565b60006181ba6028836163e8565b91506181c58261815e565b604082019050919050565b600060208201905081810360008301526181e9816181ad565b9050919050565b60006060820190506182056000830186616243565b618212602083018561629a565b61821f6040830184616243565b949350505050565b600060408201905061823c600083018561629a565b61824960208301846163b3565b9392505050565b60006040820190506182656000830185616243565b6182726020830184616243565b9392505050565b600060608201905061828e6000830186616a46565b61829b6020830185616a46565b6182a8604083018461629a565b949350505050565b6000815190506182bf816164b4565b92915050565b6000602082840312156182db576182da616165565b5b60006182e9848285016182b0565b91505092915050565b60006182fe83856167c0565b935061830b8385846168dd565b61831483616423565b840190509392505050565b600060c082019050818103600083015261833a818a8c6182f2565b9050618349602083018961629a565b61835660408301886162b9565b61836360608301876162dc565b618370608083018661629a565b81810360a08301526183838184866182f2565b90509998505050505050505050565b60006080820190506183a76000830187616a46565b6183b4602083018661629a565b6183c1604083018561629a565b6183ce60608301846162dc565b95945050505050565b600082905092915050565b60008190508160005260206000209050919050565b60006020601f8301049050919050565b600082821b905092915050565b6000600883026184447fffffffffffffffffffffffffffffffffffffffffffffffffffffffffffffffff82618407565b61844e8683618407565b95508019841693508086168417925050509392505050565b600061848161847c618477846161cd565b61670e565b6161cd565b9050919050565b6000819050919050565b61849b83618466565b6184af6184a782618488565b848454618414565b825550505050565b600090565b6184c46184b7565b6184cf818484618492565b505050565b5b818110156184f3576184e86000826184bc565b6001810190506184d5565b5050565b601f82111561853857618509816183e2565b618512846183f7565b81016020851015618521578190505b61853561852d856183f7565b8301826184d4565b50505b505050565b600082821c905092915050565b600061855b6000198460080261853d565b1980831691505092915050565b6000618574838361854a565b9150826002028217905092915050565b61858e83836183d7565b67ffffffffffffffff8111156185a7576185a6616831565b5b6185b18254617b93565b6185bc8282856184f7565b6000601f8311600181146185eb57600084156185d9578287013590505b6185e38582618568565b86555061864b565b601f1984166185f9866183e2565b60005b82811015618621578489013582556001820191506020850194506020810190506185fc565b8683101561863e578489013561863a601f89168261854a565b8355505b6001600288020188555050505b50505050505050565b7f455243313135353a2063616c6c6572206973206e6f74206f776e6572206e6f7260008201527f20617070726f7665640000000000000000000000000000000000000000000000602082015250565b60006186b06029836163e8565b91506186bb82618654565b604082019050919050565b600060208201905081810360008301526186df816186a3565b9050919050565b7f4f776e61626c653a206e6577206f776e657220697320746865207a65726f206160008201527f6464726573730000000000000000000000000000000000000000000000000000602082015250565b60006187426026836163e8565b915061874d826186e6565b604082019050919050565b6000602082019050818103600083015261877181618735565b9050919050565b7f4552433732313a20617070726f76616c20746f2063757272656e74206f776e6560008201527f7200000000000000000000000000000000000000000000000000000000000000602082015250565b60006187d46021836163e8565b91506187df82618778565b604082019050919050565b60006020820190508181036000830152618803816187c7565b9050919050565b7f4552433732313a20617070726f76652063616c6c6572206973206e6f7420746f60008201527f6b656e206f776e6572206f7220617070726f76656420666f7220616c6c000000602082015250565b6000618866603d836163e8565b91506188718261880a565b604082019050919050565b6000602082019050818103600083015261889581618859565b9050919050565b60006188a7826162c8565b91506188b2836162c8565b9250828203905067ffffffffffffffff8111156188d2576188d1617af9565b5b92915050565b6188e1826167b5565b67ffffffffffffffff8111156188fa576188f9616831565b5b6189048254617b93565b61890f8282856184f7565b600060209050601f8311600181146189425760008415618930578287015190505b61893a8582618568565b8655506189a2565b601f198416618950866183e2565b60005b8281101561897857848901518255600182019150602085019450602081019050618953565b868310156189955784890151618991601f89168261854a565b8355505b6001600288020188555050505b505050505050565b7f4f776e61626c653a2063616c6c6572206973206e6f7420746865206f776e6572600082015250565b60006189e06020836163e8565b91506189eb826189aa565b602082019050919050565b60006020820190508181036000830152618a0f816189d3565b9050919050565b6000819050919050565b618a31618a2c826164aa565b618a16565b82525050565b6000618a438285618a20565b602082019150618a538284618a20565b6020820191508190509392505050565b600060a082019050618a78600083018861629a565b618a85602083018761629a565b8181036040830152618a978186616fb2565b90508181036060830152618aab8185616fb2565b90508181036080830152618abf81846167d1565b90509695505050505050565b600081519050618ada8161634e565b92915050565b600060208284031215618af657618af5616165565b5b6000618b0484828501618acb565b91505092915050565b60008160e01c9050919050565b600060033d1115618b395760046000803e618b36600051618b0d565b90505b90565b600060443d10618bc957618b4e61615b565b60043d036004823e80513d602482011167ffffffffffffffff82111715618b76575050618bc9565b808201805167ffffffffffffffff811115618b945750505050618bc9565b80602083010160043d038501811115618bb1575050505050618bc9565b618bc082602001850186616860565b82955050505050505b90565b7f455243313135353a207472616e7366657220746f206e6f6e204552433131353560008201527f526563656976657220696d706c656d656e746572000000000000000000000000602082015250565b6000618c286034836163e8565b9150618c3382618bcc565b604082019050919050565b60006020820190508181036000830152618c5781618c1b565b9050919050565b7f455243313135353a204552433131353552656365697665722072656a6563746560008201527f6420746f6b656e73000000000000000000000000000000000000000000000000602082015250565b6000618cba6028836163e8565b9150618cc582618c5e565b604082019050919050565b60006020820190508181036000830152618ce981618cad565b9050919050565b60006080820190508181036000830152618d0a81876167d1565b9050618d19602083018661629a565b618d2660408301856162b9565b618d3360608301846162dc565b95945050505050565b6000618d47826161cd565b9150618d52836161cd565b9250828203905081811115618d6a57618d69617af9565b5b92915050565b7f6e616d65686173683a204a756e6b20617420656e64206f66206e616d65000000600082015250565b6000618da6601d836163e8565b9150618db182618d70565b602082019050919050565b60006020820190508181036000830152618dd581618d99565b9050919050565b6000819050919050565b6000618e01618dfc618df784618ddc565b61670e565b6161cd565b9050919050565b618e1181618de6565b82525050565b6000604082019050618e2c6000830185616243565b618e396020830184618e08565b9392505050565b7f726561644c6162656c3a20496e646578206f7574206f6620626f756e64730000600082015250565b6000618e76601e836163e8565b9150618e8182618e40565b602082019050919050565b60006020820190508181036000830152618ea581618e69565b9050919050565b6000618eb7826161cd565b9150618ec2836161cd565b9250828201905080821115618eda57618ed9617af9565b5b92915050565b600060ff82169050919050565b60008160f81b9050919050565b6000618f0582618eed565b9050919050565b618f1d618f1882618ee0565b618efa565b82525050565b600081905092915050565b6000618f39826163dd565b618f438185618f23565b9350618f538185602086016163f9565b80840191505092915050565b6000618f6a826167b5565b618f74818561805a565b9350618f848185602086016163f9565b80840191505092915050565b6000618f9c8286618f0c565b600182019150618fac8285618f2e565b9150618fb88284618f5f565b9150819050949350505050565b600060a082019050618fda600083018861629a565b618fe7602083018761629a565b618ff46040830186616243565b6190016060830185616243565b818103608083015261901381846167d1565b90509695505050505050565b7f455243313135353a206d696e74206f66206578697374696e6720746f6b656e00600082015250565b6000619055601f836163e8565b91506190608261901f565b602082019050919050565b6000602082019050818103600083015261908481619048565b9050919050565b7f455243313135353a206d696e7420746f20746865207a65726f2061646472657360008201527f7300000000000000000000000000000000000000000000000000000000000000602082015250565b60006190e76021836163e8565b91506190f28261908b565b604082019050919050565b60006020820190508181036000830152619116816190da565b9050919050565b7f455243313135353a206e65774f776e65722063616e6e6f74206265207468652060008201527f4e616d655772617070657220636f6e7472616374000000000000000000000000602082015250565b60006191796034836163e8565b91506191848261911d565b604082019050919050565b600060208201905081810360008301526191a88161916c565b905091905056fea2646970667358221220eb12ea19f27808024c9b9910b7e33d2a2592cfe39377fd97b17ce5382786c34764736f6c63430008120033",
			"opcodes": "PUSH1 0xC0 PUSH1 0x40 MSTORE CALLVALUE DUP1 ISZERO PUSH3 0x11 JUMPI PUSH1 0x0 DUP1 REVERT JUMPDEST POP PUSH1 0x40 MLOAD PUSH3 0x9D5E CODESIZE SUB DUP1 PUSH3 0x9D5E DUP4 CODECOPY DUP2 DUP2 ADD PUSH1 0x40 MSTORE DUP2 ADD SWAP1 PUSH3 0x37 SWAP2 SWAP1 PUSH3 0x583 JUMP JUMPDEST DUP3 CALLER PUSH3 0x59 PUSH3 0x4D PUSH3 0x35F PUSH1 0x20 SHL PUSH1 0x20 SHR JUMP JUMPDEST PUSH3 0x367 PUSH1 0x20 SHL PUSH1 0x20 SHR JUMP JUMPDEST PUSH1 0x0 DUP3 PUSH20 0xFFFFFFFFFFFFFFFFFFFFFFFFFFFFFFFFFFFFFFFF AND PUSH4 0x2571BE3 PUSH32 0x91D1777781884D03A6757A803996E38DE2A42967FB37EEACA72729271025A9E2 PUSH1 0x0 SHL PUSH1 0x40 MLOAD DUP3 PUSH4 0xFFFFFFFF AND PUSH1 0xE0 SHL DUP2 MSTORE PUSH1 0x4 ADD PUSH3 0xB9 SWAP2 SWAP1 PUSH3 0x5FA JUMP JUMPDEST PUSH1 0x20 PUSH1 0x40 MLOAD DUP1 DUP4 SUB DUP2 DUP7 GAS STATICCALL ISZERO DUP1 ISZERO PUSH3 0xD7 JUMPI RETURNDATASIZE PUSH1 0x0 DUP1 RETURNDATACOPY RETURNDATASIZE PUSH1 0x0 REVERT JUMPDEST POP POP POP POP PUSH1 0x40 MLOAD RETURNDATASIZE PUSH1 0x1F NOT PUSH1 0x1F DUP3 ADD AND DUP3 ADD DUP1 PUSH1 0x40 MSTORE POP DUP2 ADD SWAP1 PUSH3 0xFD SWAP2 SWAP1 PUSH3 0x648 JUMP JUMPDEST SWAP1 POP DUP1 PUSH20 0xFFFFFFFFFFFFFFFFFFFFFFFFFFFFFFFFFFFFFFFF AND PUSH4 0x1E83409A DUP4 PUSH1 0x40 MLOAD DUP3 PUSH4 0xFFFFFFFF AND PUSH1 0xE0 SHL DUP2 MSTORE PUSH1 0x4 ADD PUSH3 0x13A SWAP2 SWAP1 PUSH3 0x68B JUMP JUMPDEST PUSH1 0x20 PUSH1 0x40 MLOAD DUP1 DUP4 SUB DUP2 PUSH1 0x0 DUP8 GAS CALL ISZERO DUP1 ISZERO PUSH3 0x15A JUMPI RETURNDATASIZE PUSH1 0x0 DUP1 RETURNDATACOPY RETURNDATASIZE PUSH1 0x0 REVERT JUMPDEST POP POP POP POP PUSH1 0x40 MLOAD RETURNDATASIZE PUSH1 0x1F NOT PUSH1 0x1F DUP3 ADD AND DUP3 ADD DUP1 PUSH1 0x40 MSTORE POP DUP2 ADD SWAP1 PUSH3 0x180 SWAP2 SWAP1 PUSH3 0x6D9 JUMP JUMPDEST POP POP POP POP DUP3 PUSH20 0xFFFFFFFFFFFFFFFFFFFFFFFFFFFFFFFFFFFFFFFF AND PUSH1 0x80 DUP2 PUSH20 0xFFFFFFFFFFFFFFFFFFFFFFFFFFFFFFFFFFFFFFFF AND DUP2 MSTORE POP POP DUP2 PUSH20 0xFFFFFFFFFFFFFFFFFFFFFFFFFFFFFFFFFFFFFFFF AND PUSH1 0xA0 DUP2 PUSH20 0xFFFFFFFFFFFFFFFFFFFFFFFFFFFFFFFFFFFFFFFF AND DUP2 MSTORE POP POP DUP1 PUSH1 0x5 PUSH1 0x0 PUSH2 0x100 EXP DUP2 SLOAD DUP2 PUSH20 0xFFFFFFFFFFFFFFFFFFFFFFFFFFFFFFFFFFFFFFFF MUL NOT AND SWAP1 DUP4 PUSH20 0xFFFFFFFFFFFFFFFFFFFFFFFFFFFFFFFFFFFFFFFF AND MUL OR SWAP1 SSTORE POP PUSH3 0x276 PUSH32 0xD051E4F8CB1870F877B00266E1292322BEA4C492A9933488E94D7C1A935E8DFA PUSH1 0x0 SHL PUSH1 0x0 SHR PUSH1 0x0 PUSH1 0x1 PUSH3 0x10000 OR PUSH8 0xFFFFFFFFFFFFFFFF PUSH3 0x42B PUSH1 0x20 SHL PUSH1 0x20 SHR JUMP JUMPDEST PUSH3 0x29F PUSH1 0x0 DUP1 SHL PUSH1 0x0 SHR PUSH1 0x0 PUSH1 0x1 PUSH3 0x10000 OR PUSH8 0xFFFFFFFFFFFFFFFF PUSH3 0x42B PUSH1 0x20 SHL PUSH1 0x20 SHR JUMP JUMPDEST PUSH1 0x40 MLOAD DUP1 PUSH1 0x40 ADD PUSH1 0x40 MSTORE DUP1 PUSH1 0x1 DUP2 MSTORE PUSH1 0x20 ADD PUSH1 0x0 DUP2 MSTORE POP PUSH1 0x6 PUSH1 0x0 DUP1 PUSH1 0x0 SHL DUP2 MSTORE PUSH1 0x20 ADD SWAP1 DUP2 MSTORE PUSH1 0x20 ADD PUSH1 0x0 KECCAK256 SWAP1 DUP2 PUSH3 0x2DA SWAP2 SWAP1 PUSH3 0x985 JUMP JUMPDEST POP PUSH1 0x40 MLOAD DUP1 PUSH1 0x40 ADD PUSH1 0x40 MSTORE DUP1 PUSH1 0x8 DUP2 MSTORE PUSH1 0x20 ADD PUSH32 0x47363726F6C6C00000000000000000000000000000000000000000000000000 DUP2 MSTORE POP PUSH1 0x6 PUSH1 0x0 PUSH32 0xD051E4F8CB1870F877B00266E1292322BEA4C492A9933488E94D7C1A935E8DFA PUSH1 0x0 SHL DUP2 MSTORE PUSH1 0x20 ADD SWAP1 DUP2 MSTORE PUSH1 0x20 ADD PUSH1 0x0 KECCAK256 SWAP1 DUP2 PUSH3 0x355 SWAP2 SWAP1 PUSH3 0x985 JUMP JUMPDEST POP POP POP POP PUSH3 0xA6C JUMP JUMPDEST PUSH1 0x0 CALLER SWAP1 POP SWAP1 JUMP JUMPDEST PUSH1 0x0 DUP1 PUSH1 0x0 SWAP1 SLOAD SWAP1 PUSH2 0x100 EXP SWAP1 DIV PUSH20 0xFFFFFFFFFFFFFFFFFFFFFFFFFFFFFFFFFFFFFFFF AND SWAP1 POP DUP2 PUSH1 0x0 DUP1 PUSH2 0x100 EXP DUP2 SLOAD DUP2 PUSH20 0xFFFFFFFFFFFFFFFFFFFFFFFFFFFFFFFFFFFFFFFF MUL NOT AND SWAP1 DUP4 PUSH20 0xFFFFFFFFFFFFFFFFFFFFFFFFFFFFFFFFFFFFFFFF AND MUL OR SWAP1 SSTORE POP DUP2 PUSH20 0xFFFFFFFFFFFFFFFFFFFFFFFFFFFFFFFFFFFFFFFF AND DUP2 PUSH20 0xFFFFFFFFFFFFFFFFFFFFFFFFFFFFFFFFFFFFFFFF AND PUSH32 0x8BE0079C531659141344CD1FD0A4F28419497F9722A3DAAFE3B4186F6B6457E0 PUSH1 0x40 MLOAD PUSH1 0x40 MLOAD DUP1 SWAP2 SUB SWAP1 LOG3 POP POP JUMP JUMPDEST PUSH1 0xC0 DUP2 PUSH8 0xFFFFFFFFFFFFFFFF AND SWAP1 SHL PUSH1 0xA0 DUP4 PUSH4 0xFFFFFFFF AND SWAP1 SHL DUP5 PUSH20 0xFFFFFFFFFFFFFFFFFFFFFFFFFFFFFFFFFFFFFFFF AND OR OR PUSH1 0x1 PUSH1 0x0 DUP7 DUP2 MSTORE PUSH1 0x20 ADD SWAP1 DUP2 MSTORE PUSH1 0x20 ADD PUSH1 0x0 KECCAK256 DUP2 SWAP1 SSTORE POP POP POP POP POP JUMP JUMPDEST PUSH1 0x0 DUP1 REVERT JUMPDEST PUSH1 0x0 PUSH20 0xFFFFFFFFFFFFFFFFFFFFFFFFFFFFFFFFFFFFFFFF DUP3 AND SWAP1 POP SWAP2 SWAP1 POP JUMP JUMPDEST PUSH1 0x0 PUSH3 0x4AD DUP3 PUSH3 0x480 JUMP JUMPDEST SWAP1 POP SWAP2 SWAP1 POP JUMP JUMPDEST PUSH1 0x0 PUSH3 0x4C1 DUP3 PUSH3 0x4A0 JUMP JUMPDEST SWAP1 POP SWAP2 SWAP1 POP JUMP JUMPDEST PUSH3 0x4D3 DUP2 PUSH3 0x4B4 JUMP JUMPDEST DUP2 EQ PUSH3 0x4DF JUMPI PUSH1 0x0 DUP1 REVERT JUMPDEST POP JUMP JUMPDEST PUSH1 0x0 DUP2 MLOAD SWAP1 POP PUSH3 0x4F3 DUP2 PUSH3 0x4C8 JUMP JUMPDEST SWAP3 SWAP2 POP POP JUMP JUMPDEST PUSH1 0x0 PUSH3 0x506 DUP3 PUSH3 0x4A0 JUMP JUMPDEST SWAP1 POP SWAP2 SWAP1 POP JUMP JUMPDEST PUSH3 0x518 DUP2 PUSH3 0x4F9 JUMP JUMPDEST DUP2 EQ PUSH3 0x524 JUMPI PUSH1 0x0 DUP1 REVERT JUMPDEST POP JUMP JUMPDEST PUSH1 0x0 DUP2 MLOAD SWAP1 POP PUSH3 0x538 DUP2 PUSH3 0x50D JUMP JUMPDEST SWAP3 SWAP2 POP POP JUMP JUMPDEST PUSH1 0x0 PUSH3 0x54B DUP3 PUSH3 0x4A0 JUMP JUMPDEST SWAP1 POP SWAP2 SWAP1 POP JUMP JUMPDEST PUSH3 0x55D DUP2 PUSH3 0x53E JUMP JUMPDEST DUP2 EQ PUSH3 0x569 JUMPI PUSH1 0x0 DUP1 REVERT JUMPDEST POP JUMP JUMPDEST PUSH1 0x0 DUP2 MLOAD SWAP1 POP PUSH3 0x57D DUP2 PUSH3 0x552 JUMP JUMPDEST SWAP3 SWAP2 POP POP JUMP JUMPDEST PUSH1 0x0 DUP1 PUSH1 0x0 PUSH1 0x60 DUP5 DUP7 SUB SLT ISZERO PUSH3 0x59F JUMPI PUSH3 0x59E PUSH3 0x47B JUMP JUMPDEST JUMPDEST PUSH1 0x0 PUSH3 0x5AF DUP7 DUP3 DUP8 ADD PUSH3 0x4E2 JUMP JUMPDEST SWAP4 POP POP PUSH1 0x20 PUSH3 0x5C2 DUP7 DUP3 DUP8 ADD PUSH3 0x527 JUMP JUMPDEST SWAP3 POP POP PUSH1 0x40 PUSH3 0x5D5 DUP7 DUP3 DUP8 ADD PUSH3 0x56C JUMP JUMPDEST SWAP2 POP POP SWAP3 POP SWAP3 POP SWAP3 JUMP JUMPDEST PUSH1 0x0 DUP2 SWAP1 POP SWAP2 SWAP1 POP JUMP JUMPDEST PUSH3 0x5F4 DUP2 PUSH3 0x5DF JUMP JUMPDEST DUP3 MSTORE POP POP JUMP JUMPDEST PUSH1 0x0 PUSH1 0x20 DUP3 ADD SWAP1 POP PUSH3 0x611 PUSH1 0x0 DUP4 ADD DUP5 PUSH3 0x5E9 JUMP JUMPDEST SWAP3 SWAP2 POP POP JUMP JUMPDEST PUSH3 0x622 DUP2 PUSH3 0x4A0 JUMP JUMPDEST DUP2 EQ PUSH3 0x62E JUMPI PUSH1 0x0 DUP1 REVERT JUMPDEST POP JUMP JUMPDEST PUSH1 0x0 DUP2 MLOAD SWAP1 POP PUSH3 0x642 DUP2 PUSH3 0x617 JUMP JUMPDEST SWAP3 SWAP2 POP POP JUMP JUMPDEST PUSH1 0x0 PUSH1 0x20 DUP3 DUP5 SUB SLT ISZERO PUSH3 0x661 JUMPI PUSH3 0x660 PUSH3 0x47B JUMP JUMPDEST JUMPDEST PUSH1 0x0 PUSH3 0x671 DUP5 DUP3 DUP6 ADD PUSH3 0x631 JUMP JUMPDEST SWAP2 POP POP SWAP3 SWAP2 POP POP JUMP JUMPDEST PUSH3 0x685 DUP2 PUSH3 0x4A0 JUMP JUMPDEST DUP3 MSTORE POP POP JUMP JUMPDEST PUSH1 0x0 PUSH1 0x20 DUP3 ADD SWAP1 POP PUSH3 0x6A2 PUSH1 0x0 DUP4 ADD DUP5 PUSH3 0x67A JUMP JUMPDEST SWAP3 SWAP2 POP POP JUMP JUMPDEST PUSH3 0x6B3 DUP2 PUSH3 0x5DF JUMP JUMPDEST DUP2 EQ PUSH3 0x6BF JUMPI PUSH1 0x0 DUP1 REVERT JUMPDEST POP JUMP JUMPDEST PUSH1 0x0 DUP2 MLOAD SWAP1 POP PUSH3 0x6D3 DUP2 PUSH3 0x6A8 JUMP JUMPDEST SWAP3 SWAP2 POP POP JUMP JUMPDEST PUSH1 0x0 PUSH1 0x20 DUP3 DUP5 SUB SLT ISZERO PUSH3 0x6F2 JUMPI PUSH3 0x6F1 PUSH3 0x47B JUMP JUMPDEST JUMPDEST PUSH1 0x0 PUSH3 0x702 DUP5 DUP3 DUP6 ADD PUSH3 0x6C2 JUMP JUMPDEST SWAP2 POP POP SWAP3 SWAP2 POP POP JUMP JUMPDEST PUSH1 0x0 DUP2 MLOAD SWAP1 POP SWAP2 SWAP1 POP JUMP JUMPDEST PUSH32 0x4E487B7100000000000000000000000000000000000000000000000000000000 PUSH1 0x0 MSTORE PUSH1 0x41 PUSH1 0x4 MSTORE PUSH1 0x24 PUSH1 0x0 REVERT JUMPDEST PUSH32 0x4E487B7100000000000000000000000000000000000000000000000000000000 PUSH1 0x0 MSTORE PUSH1 0x22 PUSH1 0x4 MSTORE PUSH1 0x24 PUSH1 0x0 REVERT JUMPDEST PUSH1 0x0 PUSH1 0x2 DUP3 DIV SWAP1 POP PUSH1 0x1 DUP3 AND DUP1 PUSH3 0x78D JUMPI PUSH1 0x7F DUP3 AND SWAP2 POP JUMPDEST PUSH1 0x20 DUP3 LT DUP2 SUB PUSH3 0x7A3 JUMPI PUSH3 0x7A2 PUSH3 0x745 JUMP JUMPDEST JUMPDEST POP SWAP2 SWAP1 POP JUMP JUMPDEST PUSH1 0x0 DUP2 SWAP1 POP DUP2 PUSH1 0x0 MSTORE PUSH1 0x20 PUSH1 0x0 KECCAK256 SWAP1 POP SWAP2 SWAP1 POP JUMP JUMPDEST PUSH1 0x0 PUSH1 0x20 PUSH1 0x1F DUP4 ADD DIV SWAP1 POP SWAP2 SWAP1 POP JUMP JUMPDEST PUSH1 0x0 DUP3 DUP3 SHL SWAP1 POP SWAP3 SWAP2 POP POP JUMP JUMPDEST PUSH1 0x0 PUSH1 0x8 DUP4 MUL PUSH3 0x80D PUSH32 0xFFFFFFFFFFFFFFFFFFFFFFFFFFFFFFFFFFFFFFFFFFFFFFFFFFFFFFFFFFFFFFFF DUP3 PUSH3 0x7CE JUMP JUMPDEST PUSH3 0x819 DUP7 DUP4 PUSH3 0x7CE JUMP JUMPDEST SWAP6 POP DUP1 NOT DUP5 AND SWAP4 POP DUP1 DUP7 AND DUP5 OR SWAP3 POP POP POP SWAP4 SWAP3 POP POP POP JUMP JUMPDEST PUSH1 0x0 DUP2 SWAP1 POP SWAP2 SWAP1 POP JUMP JUMPDEST PUSH1 0x0 DUP2 SWAP1 POP SWAP2 SWAP1 POP JUMP JUMPDEST PUSH1 0x0 PUSH3 0x866 PUSH3 0x860 PUSH3 0x85A DUP5 PUSH3 0x831 JUMP JUMPDEST PUSH3 0x83B JUMP JUMPDEST PUSH3 0x831 JUMP JUMPDEST SWAP1 POP SWAP2 SWAP1 POP JUMP JUMPDEST PUSH1 0x0 DUP2 SWAP1 POP SWAP2 SWAP1 POP JUMP JUMPDEST PUSH3 0x882 DUP4 PUSH3 0x845 JUMP JUMPDEST PUSH3 0x89A PUSH3 0x891 DUP3 PUSH3 0x86D JUMP JUMPDEST DUP5 DUP5 SLOAD PUSH3 0x7DB JUMP JUMPDEST DUP3 SSTORE POP POP POP POP JUMP JUMPDEST PUSH1 0x0 SWAP1 JUMP JUMPDEST PUSH3 0x8B1 PUSH3 0x8A2 JUMP JUMPDEST PUSH3 0x8BE DUP2 DUP5 DUP5 PUSH3 0x877 JUMP JUMPDEST POP POP POP JUMP JUMPDEST JUMPDEST DUP2 DUP2 LT ISZERO PUSH3 0x8E6 JUMPI PUSH3 0x8DA PUSH1 0x0 DUP3 PUSH3 0x8A7 JUMP JUMPDEST PUSH1 0x1 DUP2 ADD SWAP1 POP PUSH3 0x8C4 JUMP JUMPDEST POP POP JUMP JUMPDEST PUSH1 0x1F DUP3 GT ISZERO PUSH3 0x935 JUMPI PUSH3 0x8FF DUP2 PUSH3 0x7A9 JUMP JUMPDEST PUSH3 0x90A DUP5 PUSH3 0x7BE JUMP JUMPDEST DUP2 ADD PUSH1 0x20 DUP6 LT ISZERO PUSH3 0x91A JUMPI DUP2 SWAP1 POP JUMPDEST PUSH3 0x932 PUSH3 0x929 DUP6 PUSH3 0x7BE JUMP JUMPDEST DUP4 ADD DUP3 PUSH3 0x8C3 JUMP JUMPDEST POP POP JUMPDEST POP POP POP JUMP JUMPDEST PUSH1 0x0 DUP3 DUP3 SHR SWAP1 POP SWAP3 SWAP2 POP POP JUMP JUMPDEST PUSH1 0x0 PUSH3 0x95A PUSH1 0x0 NOT DUP5 PUSH1 0x8 MUL PUSH3 0x93A JUMP JUMPDEST NOT DUP1 DUP4 AND SWAP2 POP POP SWAP3 SWAP2 POP POP JUMP JUMPDEST PUSH1 0x0 PUSH3 0x975 DUP4 DUP4 PUSH3 0x947 JUMP JUMPDEST SWAP2 POP DUP3 PUSH1 0x2 MUL DUP3 OR SWAP1 POP SWAP3 SWAP2 POP POP JUMP JUMPDEST PUSH3 0x990 DUP3 PUSH3 0x70B JUMP JUMPDEST PUSH8 0xFFFFFFFFFFFFFFFF DUP2 GT ISZERO PUSH3 0x9AC JUMPI PUSH3 0x9AB PUSH3 0x716 JUMP JUMPDEST JUMPDEST PUSH3 0x9B8 DUP3 SLOAD PUSH3 0x774 JUMP JUMPDEST PUSH3 0x9C5 DUP3 DUP3 DUP6 PUSH3 0x8EA JUMP JUMPDEST PUSH1 0x0 PUSH1 0x20 SWAP1 POP PUSH1 0x1F DUP4 GT PUSH1 0x1 DUP2 EQ PUSH3 0x9FD JUMPI PUSH1 0x0 DUP5 ISZERO PUSH3 0x9E8 JUMPI DUP3 DUP8 ADD MLOAD SWAP1 POP JUMPDEST PUSH3 0x9F4 DUP6 DUP3 PUSH3 0x967 JUMP JUMPDEST DUP7 SSTORE POP PUSH3 0xA64 JUMP JUMPDEST PUSH1 0x1F NOT DUP5 AND PUSH3 0xA0D DUP7 PUSH3 0x7A9 JUMP JUMPDEST PUSH1 0x0 JUMPDEST DUP3 DUP2 LT ISZERO PUSH3 0xA37 JUMPI DUP5 DUP10 ADD MLOAD DUP3 SSTORE PUSH1 0x1 DUP3 ADD SWAP2 POP PUSH1 0x20 DUP6 ADD SWAP5 POP PUSH1 0x20 DUP2 ADD SWAP1 POP PUSH3 0xA10 JUMP JUMPDEST DUP7 DUP4 LT ISZERO PUSH3 0xA57 JUMPI DUP5 DUP10 ADD MLOAD PUSH3 0xA53 PUSH1 0x1F DUP10 AND DUP3 PUSH3 0x947 JUMP JUMPDEST DUP4 SSTORE POP JUMPDEST PUSH1 0x1 PUSH1 0x2 DUP9 MUL ADD DUP9 SSTORE POP POP POP JUMPDEST POP POP POP POP POP POP JUMP JUMPDEST PUSH1 0x80 MLOAD PUSH1 0xA0 MLOAD PUSH2 0x91E5 PUSH3 0xB79 PUSH1 0x0 CODECOPY PUSH1 0x0 DUP2 DUP2 PUSH2 0xF54 ADD MSTORE DUP2 DUP2 PUSH2 0x1050 ADD MSTORE DUP2 DUP2 PUSH2 0x10E6 ADD MSTORE DUP2 DUP2 PUSH2 0x1606 ADD MSTORE DUP2 DUP2 PUSH2 0x21EC ADD MSTORE DUP2 DUP2 PUSH2 0x22A6 ADD MSTORE DUP2 DUP2 PUSH2 0x2379 ADD MSTORE DUP2 DUP2 PUSH2 0x248A ADD MSTORE DUP2 DUP2 PUSH2 0x2519 ADD MSTORE DUP2 DUP2 PUSH2 0x25AA ADD MSTORE DUP2 DUP2 PUSH2 0x28F1 ADD MSTORE DUP2 DUP2 PUSH2 0x2A8C ADD MSTORE DUP2 DUP2 PUSH2 0x2C84 ADD MSTORE DUP2 DUP2 PUSH2 0x2EAC ADD MSTORE DUP2 DUP2 PUSH2 0x2F4C ADD MSTORE PUSH2 0x394D ADD MSTORE PUSH1 0x0 DUP2 DUP2 PUSH2 0xEBD ADD MSTORE DUP2 DUP2 PUSH2 0x12B3 ADD MSTORE DUP2 DUP2 PUSH2 0x14B1 ADD MSTORE DUP2 DUP2 PUSH2 0x1557 ADD MSTORE DUP2 DUP2 PUSH2 0x1971 ADD MSTORE DUP2 DUP2 PUSH2 0x1BBB ADD MSTORE DUP2 DUP2 PUSH2 0x2B3C ADD MSTORE DUP2 DUP2 PUSH2 0x2D34 ADD MSTORE DUP2 DUP2 PUSH2 0x303A ADD MSTORE DUP2 DUP2 PUSH2 0x323A ADD MSTORE DUP2 DUP2 PUSH2 0x360D ADD MSTORE DUP2 DUP2 PUSH2 0x3CDB ADD MSTORE DUP2 DUP2 PUSH2 0x3DAE ADD MSTORE DUP2 DUP2 PUSH2 0x3EC4 ADD MSTORE DUP2 DUP2 PUSH2 0x3F52 ADD MSTORE DUP2 DUP2 PUSH2 0x46AA ADD MSTORE DUP2 DUP2 PUSH2 0x4871 ADD MSTORE DUP2 DUP2 PUSH2 0x4BC2 ADD MSTORE PUSH2 0x54D3 ADD MSTORE PUSH2 0x91E5 PUSH1 0x0 RETURN INVALID PUSH1 0x80 PUSH1 0x40 MSTORE CALLVALUE DUP1 ISZERO PUSH2 0x10 JUMPI PUSH1 0x0 DUP1 REVERT JUMPDEST POP PUSH1 0x4 CALLDATASIZE LT PUSH2 0x29F JUMPI PUSH1 0x0 CALLDATALOAD PUSH1 0xE0 SHR DUP1 PUSH4 0x6352211E GT PUSH2 0x167 JUMPI DUP1 PUSH4 0xC93AB3FD GT PUSH2 0xCE JUMPI DUP1 PUSH4 0xE985E9C5 GT PUSH2 0x87 JUMPI DUP1 PUSH4 0xE985E9C5 EQ PUSH2 0x8DC JUMPI DUP1 PUSH4 0xEB8AE530 EQ PUSH2 0x90C JUMPI DUP1 PUSH4 0xED70554D EQ PUSH2 0x928 JUMPI DUP1 PUSH4 0xF242432A EQ PUSH2 0x958 JUMPI DUP1 PUSH4 0xF2FDE38B EQ PUSH2 0x974 JUMPI DUP1 PUSH4 0xFD0CD0D9 EQ PUSH2 0x990 JUMPI PUSH2 0x29F JUMP JUMPDEST DUP1 PUSH4 0xC93AB3FD EQ PUSH2 0x80C JUMPI DUP1 PUSH4 0xCF408823 EQ PUSH2 0x828 JUMPI DUP1 PUSH4 0xD8C9921A EQ PUSH2 0x844 JUMPI DUP1 PUSH4 0xD9A50C12 EQ PUSH2 0x860 JUMPI DUP1 PUSH4 0xDA8C229E EQ PUSH2 0x890 JUMPI DUP1 PUSH4 0xE0DBA60F EQ PUSH2 0x8C0 JUMPI PUSH2 0x29F JUMP JUMPDEST DUP1 PUSH4 0xA22CB465 GT PUSH2 0x120 JUMPI DUP1 PUSH4 0xA22CB465 EQ PUSH2 0x714 JUMPI DUP1 PUSH4 0xA4014982 EQ PUSH2 0x730 JUMPI DUP1 PUSH4 0xADF4960A EQ PUSH2 0x760 JUMPI DUP1 PUSH4 0xB6BCAD26 EQ PUSH2 0x790 JUMPI DUP1 PUSH4 0xC475ABFF EQ PUSH2 0x7AC JUMPI DUP1 PUSH4 0xC658E086 EQ PUSH2 0x7DC JUMPI PUSH2 0x29F JUMP JUMPDEST DUP1 PUSH4 0x6352211E EQ PUSH2 0x640 JUMPI DUP1 PUSH4 0x6E5D6AD2 EQ PUSH2 0x670 JUMPI DUP1 PUSH4 0x715018A6 EQ PUSH2 0x6A0 JUMPI DUP1 PUSH4 0x8B4DFA75 EQ PUSH2 0x6AA JUMPI DUP1 PUSH4 0x8CF8B41E EQ PUSH2 0x6C6 JUMPI DUP1 PUSH4 0x8DA5CB5B EQ PUSH2 0x6F6 JUMPI PUSH2 0x29F JUMP JUMPDEST DUP1 PUSH4 0x1F4E1504 GT PUSH2 0x20B JUMPI DUP1 PUSH4 0x3F15457F GT PUSH2 0x1C4 JUMPI DUP1 PUSH4 0x3F15457F EQ PUSH2 0x558 JUMPI DUP1 PUSH4 0x402906FC EQ PUSH2 0x576 JUMPI DUP1 PUSH4 0x41415EAB EQ PUSH2 0x5A6 JUMPI DUP1 PUSH4 0x4E1273F4 EQ PUSH2 0x5D6 JUMPI DUP1 PUSH4 0x53095467 EQ PUSH2 0x606 JUMPI DUP1 PUSH4 0x5D3590D5 EQ PUSH2 0x624 JUMPI PUSH2 0x29F JUMP JUMPDEST DUP1 PUSH4 0x1F4E1504 EQ PUSH2 0x484 JUMPI DUP1 PUSH4 0x20C38E2B EQ PUSH2 0x4A2 JUMPI DUP1 PUSH4 0x24C1AF44 EQ PUSH2 0x4D2 JUMPI DUP1 PUSH4 0x2B20E397 EQ PUSH2 0x502 JUMPI DUP1 PUSH4 0x2EB2C2D6 EQ PUSH2 0x520 JUMPI DUP1 PUSH4 0x33C69EA9 EQ PUSH2 0x53C JUMPI PUSH2 0x29F JUMP JUMPDEST DUP1 PUSH4 0xE4CD725 GT PUSH2 0x25D JUMPI DUP1 PUSH4 0xE4CD725 EQ PUSH2 0x3A0 JUMPI DUP1 PUSH4 0xE89341C EQ PUSH2 0x3D0 JUMPI DUP1 PUSH4 0x14AB9038 EQ PUSH2 0x400 JUMPI DUP1 PUSH4 0x150B7A02 EQ PUSH2 0x41C JUMPI DUP1 PUSH4 0x1534E177 EQ PUSH2 0x44C JUMPI DUP1 PUSH4 0x1896F70A EQ PUSH2 0x468 JUMPI PUSH2 0x29F JUMP JUMPDEST DUP1 PUSH3 0xFDD58E EQ PUSH2 0x2A4 JUMPI DUP1 PUSH4 0x178FE3F EQ PUSH2 0x2D4 JUMPI DUP1 PUSH4 0x1FFC9A7 EQ PUSH2 0x306 JUMPI DUP1 PUSH4 0x6FDDE03 EQ PUSH2 0x336 JUMPI DUP1 PUSH4 0x81812FC EQ PUSH2 0x354 JUMPI DUP1 PUSH4 0x95EA7B3 EQ PUSH2 0x384 JUMPI JUMPDEST PUSH1 0x0 DUP1 REVERT JUMPDEST PUSH2 0x2BE PUSH1 0x4 DUP1 CALLDATASIZE SUB DUP2 ADD SWAP1 PUSH2 0x2B9 SWAP2 SWAP1 PUSH2 0x6203 JUMP JUMPDEST PUSH2 0x9C0 JUMP JUMPDEST PUSH1 0x40 MLOAD PUSH2 0x2CB SWAP2 SWAP1 PUSH2 0x6252 JUMP JUMPDEST PUSH1 0x40 MLOAD DUP1 SWAP2 SUB SWAP1 RETURN JUMPDEST PUSH2 0x2EE PUSH1 0x4 DUP1 CALLDATASIZE SUB DUP2 ADD SWAP1 PUSH2 0x2E9 SWAP2 SWAP1 PUSH2 0x626D JUMP JUMPDEST PUSH2 0xA86 JUMP JUMPDEST PUSH1 0x40 MLOAD PUSH2 0x2FD SWAP4 SWAP3 SWAP2 SWAP1 PUSH2 0x62EB JUMP JUMPDEST PUSH1 0x40 MLOAD DUP1 SWAP2 SUB SWAP1 RETURN JUMPDEST PUSH2 0x320 PUSH1 0x4 DUP1 CALLDATASIZE SUB DUP2 ADD SWAP1 PUSH2 0x31B SWAP2 SWAP1 PUSH2 0x637A JUMP JUMPDEST PUSH2 0xABA JUMP JUMPDEST PUSH1 0x40 MLOAD PUSH2 0x32D SWAP2 SWAP1 PUSH2 0x63C2 JUMP JUMPDEST PUSH1 0x40 MLOAD DUP1 SWAP2 SUB SWAP1 RETURN JUMPDEST PUSH2 0x33E PUSH2 0xB9C JUMP JUMPDEST PUSH1 0x40 MLOAD PUSH2 0x34B SWAP2 SWAP1 PUSH2 0x646D JUMP JUMPDEST PUSH1 0x40 MLOAD DUP1 SWAP2 SUB SWAP1 RETURN JUMPDEST PUSH2 0x36E PUSH1 0x4 DUP1 CALLDATASIZE SUB DUP2 ADD SWAP1 PUSH2 0x369 SWAP2 SWAP1 PUSH2 0x626D JUMP JUMPDEST PUSH2 0xBD5 JUMP JUMPDEST PUSH1 0x40 MLOAD PUSH2 0x37B SWAP2 SWAP1 PUSH2 0x648F JUMP JUMPDEST PUSH1 0x40 MLOAD DUP1 SWAP2 SUB SWAP1 RETURN JUMPDEST PUSH2 0x39E PUSH1 0x4 DUP1 CALLDATASIZE SUB DUP2 ADD SWAP1 PUSH2 0x399 SWAP2 SWAP1 PUSH2 0x6203 JUMP JUMPDEST PUSH2 0xC33 JUMP JUMPDEST STOP JUMPDEST PUSH2 0x3BA PUSH1 0x4 DUP1 CALLDATASIZE SUB DUP2 ADD SWAP1 PUSH2 0x3B5 SWAP2 SWAP1 PUSH2 0x64E0 JUMP JUMPDEST PUSH2 0xCA8 JUMP JUMPDEST PUSH1 0x40 MLOAD PUSH2 0x3C7 SWAP2 SWAP1 PUSH2 0x63C2 JUMP JUMPDEST PUSH1 0x40 MLOAD DUP1 SWAP2 SUB SWAP1 RETURN JUMPDEST PUSH2 0x3EA PUSH1 0x4 DUP1 CALLDATASIZE SUB DUP2 ADD SWAP1 PUSH2 0x3E5 SWAP2 SWAP1 PUSH2 0x626D JUMP JUMPDEST PUSH2 0xD5F JUMP JUMPDEST PUSH1 0x40 MLOAD PUSH2 0x3F7 SWAP2 SWAP1 PUSH2 0x646D JUMP JUMPDEST PUSH1 0x40 MLOAD DUP1 SWAP2 SUB SWAP1 RETURN JUMPDEST PUSH2 0x41A PUSH1 0x4 DUP1 CALLDATASIZE SUB DUP2 ADD SWAP1 PUSH2 0x415 SWAP2 SWAP1 PUSH2 0x654C JUMP JUMPDEST PUSH2 0xE0B JUMP JUMPDEST STOP JUMPDEST PUSH2 0x436 PUSH1 0x4 DUP1 CALLDATASIZE SUB DUP2 ADD SWAP1 PUSH2 0x431 SWAP2 SWAP1 PUSH2 0x65F1 JUMP JUMPDEST PUSH2 0xF50 JUMP JUMPDEST PUSH1 0x40 MLOAD PUSH2 0x443 SWAP2 SWAP1 PUSH2 0x6688 JUMP JUMPDEST PUSH1 0x40 MLOAD DUP1 SWAP2 SUB SWAP1 RETURN JUMPDEST PUSH2 0x466 PUSH1 0x4 DUP1 CALLDATASIZE SUB DUP2 ADD SWAP1 PUSH2 0x461 SWAP2 SWAP1 PUSH2 0x66E1 JUMP JUMPDEST PUSH2 0x11B5 JUMP JUMPDEST STOP JUMPDEST PUSH2 0x482 PUSH1 0x4 DUP1 CALLDATASIZE SUB DUP2 ADD SWAP1 PUSH2 0x47D SWAP2 SWAP1 PUSH2 0x64E0 JUMP JUMPDEST PUSH2 0x1201 JUMP JUMPDEST STOP JUMPDEST PUSH2 0x48C PUSH2 0x1346 JUMP JUMPDEST PUSH1 0x40 MLOAD PUSH2 0x499 SWAP2 SWAP1 PUSH2 0x676D JUMP JUMPDEST PUSH1 0x40 MLOAD DUP1 SWAP2 SUB SWAP1 RETURN JUMPDEST PUSH2 0x4BC PUSH1 0x4 DUP1 CALLDATASIZE SUB DUP2 ADD SWAP1 PUSH2 0x4B7 SWAP2 SWAP1 PUSH2 0x6788 JUMP JUMPDEST PUSH2 0x136C JUMP JUMPDEST PUSH1 0x40 MLOAD PUSH2 0x4C9 SWAP2 SWAP1 PUSH2 0x680A JUMP JUMPDEST PUSH1 0x40 MLOAD DUP1 SWAP2 SUB SWAP1 RETURN JUMPDEST PUSH2 0x4EC PUSH1 0x4 DUP1 CALLDATASIZE SUB DUP2 ADD SWAP1 PUSH2 0x4E7 SWAP2 SWAP1 PUSH2 0x6988 JUMP JUMPDEST PUSH2 0x140C JUMP JUMPDEST PUSH1 0x40 MLOAD PUSH2 0x4F9 SWAP2 SWAP1 PUSH2 0x6A55 JUMP JUMPDEST PUSH1 0x40 MLOAD DUP1 SWAP2 SUB SWAP1 RETURN JUMPDEST PUSH2 0x50A PUSH2 0x1604 JUMP JUMPDEST PUSH1 0x40 MLOAD PUSH2 0x517 SWAP2 SWAP1 PUSH2 0x6A91 JUMP JUMPDEST PUSH1 0x40 MLOAD DUP1 SWAP2 SUB SWAP1 RETURN JUMPDEST PUSH2 0x53A PUSH1 0x4 DUP1 CALLDATASIZE SUB DUP2 ADD SWAP1 PUSH2 0x535 SWAP2 SWAP1 PUSH2 0x6C10 JUMP JUMPDEST PUSH2 0x1628 JUMP JUMPDEST STOP JUMPDEST PUSH2 0x556 PUSH1 0x4 DUP1 CALLDATASIZE SUB DUP2 ADD SWAP1 PUSH2 0x551 SWAP2 SWAP1 PUSH2 0x6CDF JUMP JUMPDEST PUSH2 0x18F3 JUMP JUMPDEST STOP JUMPDEST PUSH2 0x560 PUSH2 0x1BB9 JUMP JUMPDEST PUSH1 0x40 MLOAD PUSH2 0x56D SWAP2 SWAP1 PUSH2 0x6D67 JUMP JUMPDEST PUSH1 0x40 MLOAD DUP1 SWAP2 SUB SWAP1 RETURN JUMPDEST PUSH2 0x590 PUSH1 0x4 DUP1 CALLDATASIZE SUB DUP2 ADD SWAP1 PUSH2 0x58B SWAP2 SWAP1 PUSH2 0x6DBC JUMP JUMPDEST PUSH2 0x1BDD JUMP JUMPDEST PUSH1 0x40 MLOAD PUSH2 0x59D SWAP2 SWAP1 PUSH2 0x6DFC JUMP JUMPDEST PUSH1 0x40 MLOAD DUP1 SWAP2 SUB SWAP1 RETURN JUMPDEST PUSH2 0x5C0 PUSH1 0x4 DUP1 CALLDATASIZE SUB DUP2 ADD SWAP1 PUSH2 0x5BB SWAP2 SWAP1 PUSH2 0x64E0 JUMP JUMPDEST PUSH2 0x1CC9 JUMP JUMPDEST PUSH1 0x40 MLOAD PUSH2 0x5CD SWAP2 SWAP1 PUSH2 0x63C2 JUMP JUMPDEST PUSH1 0x40 MLOAD DUP1 SWAP2 SUB SWAP1 RETURN JUMPDEST PUSH2 0x5F0 PUSH1 0x4 DUP1 CALLDATASIZE SUB DUP2 ADD SWAP1 PUSH2 0x5EB SWAP2 SWAP1 PUSH2 0x6EDA JUMP JUMPDEST PUSH2 0x1D3F JUMP JUMPDEST PUSH1 0x40 MLOAD PUSH2 0x5FD SWAP2 SWAP1 PUSH2 0x7010 JUMP JUMPDEST PUSH1 0x40 MLOAD DUP1 SWAP2 SUB SWAP1 RETURN JUMPDEST PUSH2 0x60E PUSH2 0x1E58 JUMP JUMPDEST PUSH1 0x40 MLOAD PUSH2 0x61B SWAP2 SWAP1 PUSH2 0x7053 JUMP JUMPDEST PUSH1 0x40 MLOAD DUP1 SWAP2 SUB SWAP1 RETURN JUMPDEST PUSH2 0x63E PUSH1 0x4 DUP1 CALLDATASIZE SUB DUP2 ADD SWAP1 PUSH2 0x639 SWAP2 SWAP1 PUSH2 0x706E JUMP JUMPDEST PUSH2 0x1E7E JUMP JUMPDEST STOP JUMPDEST PUSH2 0x65A PUSH1 0x4 DUP1 CALLDATASIZE SUB DUP2 ADD SWAP1 PUSH2 0x655 SWAP2 SWAP1 PUSH2 0x626D JUMP JUMPDEST PUSH2 0x1F0A JUMP JUMPDEST PUSH1 0x40 MLOAD PUSH2 0x667 SWAP2 SWAP1 PUSH2 0x648F JUMP JUMPDEST PUSH1 0x40 MLOAD DUP1 SWAP2 SUB SWAP1 RETURN JUMPDEST PUSH2 0x68A PUSH1 0x4 DUP1 CALLDATASIZE SUB DUP2 ADD SWAP1 PUSH2 0x685 SWAP2 SWAP1 PUSH2 0x70C1 JUMP JUMPDEST PUSH2 0x1F1C JUMP JUMPDEST PUSH1 0x40 MLOAD PUSH2 0x697 SWAP2 SWAP1 PUSH2 0x7114 JUMP JUMPDEST PUSH1 0x40 MLOAD DUP1 SWAP2 SUB SWAP1 RETURN JUMPDEST PUSH2 0x6A8 PUSH2 0x20B6 JUMP JUMPDEST STOP JUMPDEST PUSH2 0x6C4 PUSH1 0x4 DUP1 CALLDATASIZE SUB DUP2 ADD SWAP1 PUSH2 0x6BF SWAP2 SWAP1 PUSH2 0x712F JUMP JUMPDEST PUSH2 0x20CA JUMP JUMPDEST STOP JUMPDEST PUSH2 0x6E0 PUSH1 0x4 DUP1 CALLDATASIZE SUB DUP2 ADD SWAP1 PUSH2 0x6DB SWAP2 SWAP1 PUSH2 0x71D8 JUMP JUMPDEST PUSH2 0x2282 JUMP JUMPDEST PUSH1 0x40 MLOAD PUSH2 0x6ED SWAP2 SWAP1 PUSH2 0x7114 JUMP JUMPDEST PUSH1 0x40 MLOAD DUP1 SWAP2 SUB SWAP1 RETURN JUMPDEST PUSH2 0x6FE PUSH2 0x26AE JUMP JUMPDEST PUSH1 0x40 MLOAD PUSH2 0x70B SWAP2 SWAP1 PUSH2 0x648F JUMP JUMPDEST PUSH1 0x40 MLOAD DUP1 SWAP2 SUB SWAP1 RETURN JUMPDEST PUSH2 0x72E PUSH1 0x4 DUP1 CALLDATASIZE SUB DUP2 ADD SWAP1 PUSH2 0x729 SWAP2 SWAP1 PUSH2 0x728C JUMP JUMPDEST PUSH2 0x26D7 JUMP JUMPDEST STOP JUMPDEST PUSH2 0x74A PUSH1 0x4 DUP1 CALLDATASIZE SUB DUP2 ADD SWAP1 PUSH2 0x745 SWAP2 SWAP1 PUSH2 0x72CC JUMP JUMPDEST PUSH2 0x2842 JUMP JUMPDEST PUSH1 0x40 MLOAD PUSH2 0x757 SWAP2 SWAP1 PUSH2 0x6252 JUMP JUMPDEST PUSH1 0x40 MLOAD DUP1 SWAP2 SUB SWAP1 RETURN JUMPDEST PUSH2 0x77A PUSH1 0x4 DUP1 CALLDATASIZE SUB DUP2 ADD SWAP1 PUSH2 0x775 SWAP2 SWAP1 PUSH2 0x7366 JUMP JUMPDEST PUSH2 0x29FF JUMP JUMPDEST PUSH1 0x40 MLOAD PUSH2 0x787 SWAP2 SWAP1 PUSH2 0x63C2 JUMP JUMPDEST PUSH1 0x40 MLOAD DUP1 SWAP2 SUB SWAP1 RETURN JUMPDEST PUSH2 0x7AA PUSH1 0x4 DUP1 CALLDATASIZE SUB DUP2 ADD SWAP1 PUSH2 0x7A5 SWAP2 SWAP1 PUSH2 0x73E4 JUMP JUMPDEST PUSH2 0x2A2C JUMP JUMPDEST STOP JUMPDEST PUSH2 0x7C6 PUSH1 0x4 DUP1 CALLDATASIZE SUB DUP2 ADD SWAP1 PUSH2 0x7C1 SWAP2 SWAP1 PUSH2 0x7411 JUMP JUMPDEST PUSH2 0x2DE6 JUMP JUMPDEST PUSH1 0x40 MLOAD PUSH2 0x7D3 SWAP2 SWAP1 PUSH2 0x6252 JUMP JUMPDEST PUSH1 0x40 MLOAD DUP1 SWAP2 SUB SWAP1 RETURN JUMPDEST PUSH2 0x7F6 PUSH1 0x4 DUP1 CALLDATASIZE SUB DUP2 ADD SWAP1 PUSH2 0x7F1 SWAP2 SWAP1 PUSH2 0x7451 JUMP JUMPDEST PUSH2 0x313E JUMP JUMPDEST PUSH1 0x40 MLOAD PUSH2 0x803 SWAP2 SWAP1 PUSH2 0x6A55 JUMP JUMPDEST PUSH1 0x40 MLOAD DUP1 SWAP2 SUB SWAP1 RETURN JUMPDEST PUSH2 0x826 PUSH1 0x4 DUP1 CALLDATASIZE SUB DUP2 ADD SWAP1 PUSH2 0x821 SWAP2 SWAP1 PUSH2 0x74EB JUMP JUMPDEST PUSH2 0x334B JUMP JUMPDEST STOP JUMPDEST PUSH2 0x842 PUSH1 0x4 DUP1 CALLDATASIZE SUB DUP2 ADD SWAP1 PUSH2 0x83D SWAP2 SWAP1 PUSH2 0x756C JUMP JUMPDEST PUSH2 0x3555 JUMP JUMPDEST STOP JUMPDEST PUSH2 0x85E PUSH1 0x4 DUP1 CALLDATASIZE SUB DUP2 ADD SWAP1 PUSH2 0x859 SWAP2 SWAP1 PUSH2 0x75D3 JUMP JUMPDEST PUSH2 0x3787 JUMP JUMPDEST STOP JUMPDEST PUSH2 0x87A PUSH1 0x4 DUP1 CALLDATASIZE SUB DUP2 ADD SWAP1 PUSH2 0x875 SWAP2 SWAP1 PUSH2 0x7626 JUMP JUMPDEST PUSH2 0x38FB JUMP JUMPDEST PUSH1 0x40 MLOAD PUSH2 0x887 SWAP2 SWAP1 PUSH2 0x63C2 JUMP JUMPDEST PUSH1 0x40 MLOAD DUP1 SWAP2 SUB SWAP1 RETURN JUMPDEST PUSH2 0x8AA PUSH1 0x4 DUP1 CALLDATASIZE SUB DUP2 ADD SWAP1 PUSH2 0x8A5 SWAP2 SWAP1 PUSH2 0x7666 JUMP JUMPDEST PUSH2 0x3A2B JUMP JUMPDEST PUSH1 0x40 MLOAD PUSH2 0x8B7 SWAP2 SWAP1 PUSH2 0x63C2 JUMP JUMPDEST PUSH1 0x40 MLOAD DUP1 SWAP2 SUB SWAP1 RETURN JUMPDEST PUSH2 0x8DA PUSH1 0x4 DUP1 CALLDATASIZE SUB DUP2 ADD SWAP1 PUSH2 0x8D5 SWAP2 SWAP1 PUSH2 0x728C JUMP JUMPDEST PUSH2 0x3A4B JUMP JUMPDEST STOP JUMPDEST PUSH2 0x8F6 PUSH1 0x4 DUP1 CALLDATASIZE SUB DUP2 ADD SWAP1 PUSH2 0x8F1 SWAP2 SWAP1 PUSH2 0x7693 JUMP JUMPDEST PUSH2 0x3AFC JUMP JUMPDEST PUSH1 0x40 MLOAD PUSH2 0x903 SWAP2 SWAP1 PUSH2 0x63C2 JUMP JUMPDEST PUSH1 0x40 MLOAD DUP1 SWAP2 SUB SWAP1 RETURN JUMPDEST PUSH2 0x926 PUSH1 0x4 DUP1 CALLDATASIZE SUB DUP2 ADD SWAP1 PUSH2 0x921 SWAP2 SWAP1 PUSH2 0x76D3 JUMP JUMPDEST PUSH2 0x3B90 JUMP JUMPDEST STOP JUMPDEST PUSH2 0x942 PUSH1 0x4 DUP1 CALLDATASIZE SUB DUP2 ADD SWAP1 PUSH2 0x93D SWAP2 SWAP1 PUSH2 0x626D JUMP JUMPDEST PUSH2 0x403A JUMP JUMPDEST PUSH1 0x40 MLOAD PUSH2 0x94F SWAP2 SWAP1 PUSH2 0x6252 JUMP JUMPDEST PUSH1 0x40 MLOAD DUP1 SWAP2 SUB SWAP1 RETURN JUMPDEST PUSH2 0x972 PUSH1 0x4 DUP1 CALLDATASIZE SUB DUP2 ADD SWAP1 PUSH2 0x96D SWAP2 SWAP1 PUSH2 0x7747 JUMP JUMPDEST PUSH2 0x4052 JUMP JUMPDEST STOP JUMPDEST PUSH2 0x98E PUSH1 0x4 DUP1 CALLDATASIZE SUB DUP2 ADD SWAP1 PUSH2 0x989 SWAP2 SWAP1 PUSH2 0x7666 JUMP JUMPDEST PUSH2 0x4154 JUMP JUMPDEST STOP JUMPDEST PUSH2 0x9AA PUSH1 0x4 DUP1 CALLDATASIZE SUB DUP2 ADD SWAP1 PUSH2 0x9A5 SWAP2 SWAP1 PUSH2 0x6788 JUMP JUMPDEST PUSH2 0x41D7 JUMP JUMPDEST PUSH1 0x40 MLOAD PUSH2 0x9B7 SWAP2 SWAP1 PUSH2 0x63C2 JUMP JUMPDEST PUSH1 0x40 MLOAD DUP1 SWAP2 SUB SWAP1 RETURN JUMPDEST PUSH1 0x0 DUP1 PUSH20 0xFFFFFFFFFFFFFFFFFFFFFFFFFFFFFFFFFFFFFFFF AND DUP4 PUSH20 0xFFFFFFFFFFFFFFFFFFFFFFFFFFFFFFFFFFFFFFFF AND SUB PUSH2 0xA30 JUMPI PUSH1 0x40 MLOAD PUSH32 0x8C379A000000000000000000000000000000000000000000000000000000000 DUP2 MSTORE PUSH1 0x4 ADD PUSH2 0xA27 SWAP1 PUSH2 0x7850 JUMP JUMPDEST PUSH1 0x40 MLOAD DUP1 SWAP2 SUB SWAP1 REVERT JUMPDEST PUSH1 0x0 PUSH2 0xA3B DUP4 PUSH2 0x1F0A JUMP JUMPDEST SWAP1 POP DUP4 PUSH20 0xFFFFFFFFFFFFFFFFFFFFFFFFFFFFFFFFFFFFFFFF AND DUP2 PUSH20 0xFFFFFFFFFFFFFFFFFFFFFFFFFFFFFFFFFFFFFFFF AND SUB PUSH2 0xA7A JUMPI PUSH1 0x1 SWAP2 POP POP PUSH2 0xA80 JUMP JUMPDEST PUSH1 0x0 SWAP2 POP POP JUMPDEST SWAP3 SWAP2 POP POP JUMP JUMPDEST PUSH1 0x0 DUP1 PUSH1 0x0 PUSH2 0xA94 DUP5 PUSH2 0x42D3 JUMP JUMPDEST DUP1 SWAP4 POP DUP2 SWAP5 POP DUP3 SWAP6 POP POP POP POP PUSH2 0xAAB DUP4 DUP4 DUP4 PUSH2 0x4308 JUMP JUMPDEST DUP1 SWAP4 POP DUP2 SWAP5 POP POP POP SWAP2 SWAP4 SWAP1 SWAP3 POP JUMP JUMPDEST PUSH1 0x0 PUSH32 0xD82C42D800000000000000000000000000000000000000000000000000000000 PUSH28 0xFFFFFFFFFFFFFFFFFFFFFFFFFFFFFFFFFFFFFFFFFFFFFFFFFFFFFFFF NOT AND DUP3 PUSH28 0xFFFFFFFFFFFFFFFFFFFFFFFFFFFFFFFFFFFFFFFFFFFFFFFFFFFFFFFF NOT AND EQ DUP1 PUSH2 0xB85 JUMPI POP PUSH32 0x150B7A0200000000000000000000000000000000000000000000000000000000 PUSH28 0xFFFFFFFFFFFFFFFFFFFFFFFFFFFFFFFFFFFFFFFFFFFFFFFFFFFFFFFF NOT AND DUP3 PUSH28 0xFFFFFFFFFFFFFFFFFFFFFFFFFFFFFFFFFFFFFFFFFFFFFFFFFFFFFFFF NOT AND EQ JUMPDEST DUP1 PUSH2 0xB95 JUMPI POP PUSH2 0xB94 DUP3 PUSH2 0x4350 JUMP JUMPDEST JUMPDEST SWAP1 POP SWAP2 SWAP1 POP JUMP JUMPDEST PUSH1 0x40 MLOAD DUP1 PUSH1 0x40 ADD PUSH1 0x40 MSTORE DUP1 PUSH1 0xB DUP2 MSTORE PUSH1 0x20 ADD PUSH32 0x4E616D6557726170706572000000000000000000000000000000000000000000 DUP2 MSTORE POP DUP2 JUMP JUMPDEST PUSH1 0x0 DUP1 PUSH2 0xBE1 DUP4 PUSH2 0x1F0A JUMP JUMPDEST SWAP1 POP PUSH1 0x0 PUSH20 0xFFFFFFFFFFFFFFFFFFFFFFFFFFFFFFFFFFFFFFFF AND DUP2 PUSH20 0xFFFFFFFFFFFFFFFFFFFFFFFFFFFFFFFFFFFFFFFF AND SUB PUSH2 0xC21 JUMPI PUSH1 0x0 SWAP2 POP POP PUSH2 0xC2E JUMP JUMPDEST PUSH2 0xC2A DUP4 PUSH2 0x4432 JUMP JUMPDEST SWAP2 POP POP JUMPDEST SWAP2 SWAP1 POP JUMP JUMPDEST PUSH1 0x0 PUSH2 0xC3E DUP3 PUSH2 0xA86 JUMP JUMPDEST POP SWAP2 POP POP PUSH1 0x40 PUSH4 0xFFFFFFFF AND PUSH1 0x40 DUP3 AND PUSH4 0xFFFFFFFF AND SUB PUSH2 0xC99 JUMPI DUP2 PUSH1 0x0 SHL PUSH1 0x40 MLOAD PUSH32 0xA2A7201300000000000000000000000000000000000000000000000000000000 DUP2 MSTORE PUSH1 0x4 ADD PUSH2 0xC90 SWAP2 SWAP1 PUSH2 0x6A55 JUMP JUMPDEST PUSH1 0x40 MLOAD DUP1 SWAP2 SUB SWAP1 REVERT JUMPDEST PUSH2 0xCA3 DUP4 DUP4 PUSH2 0x446F JUMP JUMPDEST POP POP POP JUMP JUMPDEST PUSH1 0x0 DUP1 PUSH1 0x0 DUP1 PUSH2 0xCBA DUP7 PUSH1 0x0 SHR PUSH2 0xA86 JUMP JUMPDEST SWAP3 POP SWAP3 POP SWAP3 POP DUP5 PUSH20 0xFFFFFFFFFFFFFFFFFFFFFFFFFFFFFFFFFFFFFFFF AND DUP4 PUSH20 0xFFFFFFFFFFFFFFFFFFFFFFFFFFFFFFFFFFFFFFFF AND EQ DUP1 PUSH2 0xD00 JUMPI POP PUSH2 0xCFF DUP4 DUP7 PUSH2 0x3AFC JUMP JUMPDEST JUMPDEST DUP1 PUSH2 0xD41 JUMPI POP DUP5 PUSH20 0xFFFFFFFFFFFFFFFFFFFFFFFFFFFFFFFFFFFFFFFF AND PUSH2 0xD29 DUP8 PUSH1 0x0 SHR PUSH2 0xBD5 JUMP JUMPDEST PUSH20 0xFFFFFFFFFFFFFFFFFFFFFFFFFFFFFFFFFFFFFFFF AND EQ JUMPDEST DUP1 ISZERO PUSH2 0xD54 JUMPI POP PUSH2 0xD52 DUP3 DUP3 PUSH2 0x4578 JUMP JUMPDEST ISZERO JUMPDEST SWAP4 POP POP POP POP SWAP3 SWAP2 POP POP JUMP JUMPDEST PUSH1 0x60 PUSH1 0x5 PUSH1 0x0 SWAP1 SLOAD SWAP1 PUSH2 0x100 EXP SWAP1 DIV PUSH20 0xFFFFFFFFFFFFFFFFFFFFFFFFFFFFFFFFFFFFFFFF AND PUSH20 0xFFFFFFFFFFFFFFFFFFFFFFFFFFFFFFFFFFFFFFFF AND PUSH4 0x28205A93 ADDRESS DUP5 PUSH1 0x40 MLOAD DUP4 PUSH4 0xFFFFFFFF AND PUSH1 0xE0 SHL DUP2 MSTORE PUSH1 0x4 ADD PUSH2 0xDBE SWAP3 SWAP2 SWAP1 PUSH2 0x7870 JUMP JUMPDEST PUSH1 0x0 PUSH1 0x40 MLOAD DUP1 DUP4 SUB DUP2 DUP7 GAS STATICCALL ISZERO DUP1 ISZERO PUSH2 0xDDB JUMPI RETURNDATASIZE PUSH1 0x0 DUP1 RETURNDATACOPY RETURNDATASIZE PUSH1 0x0 REVERT JUMPDEST POP POP POP POP PUSH1 0x40 MLOAD RETURNDATASIZE PUSH1 0x0 DUP3 RETURNDATACOPY RETURNDATASIZE PUSH1 0x1F NOT PUSH1 0x1F DUP3 ADD AND DUP3 ADD DUP1 PUSH1 0x40 MSTORE POP DUP2 ADD SWAP1 PUSH2 0xE04 SWAP2 SWAP1 PUSH2 0x7909 JUMP JUMPDEST SWAP1 POP SWAP2 SWAP1 POP JUMP JUMPDEST DUP2 PUSH2 0xE16 DUP2 CALLER PUSH2 0x1CC9 JUMP JUMPDEST PUSH2 0xE59 JUMPI DUP1 CALLER PUSH1 0x40 MLOAD PUSH32 0xB455AAE800000000000000000000000000000000000000000000000000000000 DUP2 MSTORE PUSH1 0x4 ADD PUSH2 0xE50 SWAP3 SWAP2 SWAP1 PUSH2 0x7952 JUMP JUMPDEST PUSH1 0x40 MLOAD DUP1 SWAP2 SUB SWAP1 REVERT JUMPDEST DUP3 PUSH1 0x10 PUSH1 0x0 PUSH2 0xE6A DUP4 PUSH1 0x0 SHR PUSH2 0xA86 JUMP JUMPDEST POP SWAP2 POP POP PUSH1 0x0 DUP3 DUP3 AND PUSH4 0xFFFFFFFF AND EQ PUSH2 0xEBB JUMPI DUP3 PUSH1 0x40 MLOAD PUSH32 0xA2A7201300000000000000000000000000000000000000000000000000000000 DUP2 MSTORE PUSH1 0x4 ADD PUSH2 0xEB2 SWAP2 SWAP1 PUSH2 0x6A55 JUMP JUMPDEST PUSH1 0x40 MLOAD DUP1 SWAP2 SUB SWAP1 REVERT JUMPDEST PUSH32 0x0 PUSH20 0xFFFFFFFFFFFFFFFFFFFFFFFFFFFFFFFFFFFFFFFF AND PUSH4 0x14AB9038 DUP8 DUP8 PUSH1 0x40 MLOAD DUP4 PUSH4 0xFFFFFFFF AND PUSH1 0xE0 SHL DUP2 MSTORE PUSH1 0x4 ADD PUSH2 0xF16 SWAP3 SWAP2 SWAP1 PUSH2 0x797B JUMP JUMPDEST PUSH1 0x0 PUSH1 0x40 MLOAD DUP1 DUP4 SUB DUP2 PUSH1 0x0 DUP8 DUP1 EXTCODESIZE ISZERO DUP1 ISZERO PUSH2 0xF30 JUMPI PUSH1 0x0 DUP1 REVERT JUMPDEST POP GAS CALL ISZERO DUP1 ISZERO PUSH2 0xF44 JUMPI RETURNDATASIZE PUSH1 0x0 DUP1 RETURNDATACOPY RETURNDATASIZE PUSH1 0x0 REVERT JUMPDEST POP POP POP POP POP POP POP POP POP POP JUMP JUMPDEST PUSH1 0x0 PUSH32 0x0 PUSH20 0xFFFFFFFFFFFFFFFFFFFFFFFFFFFFFFFFFFFFFFFF AND CALLER PUSH20 0xFFFFFFFFFFFFFFFFFFFFFFFFFFFFFFFFFFFFFFFF AND EQ PUSH2 0xFD7 JUMPI PUSH1 0x40 MLOAD PUSH32 0x1931A53800000000000000000000000000000000000000000000000000000000 DUP2 MSTORE PUSH1 0x4 ADD PUSH1 0x40 MLOAD DUP1 SWAP2 SUB SWAP1 REVERT JUMPDEST PUSH1 0x0 DUP1 PUSH1 0x0 DUP1 DUP7 DUP7 DUP2 ADD SWAP1 PUSH2 0xFEC SWAP2 SWAP1 PUSH2 0x79E2 JUMP JUMPDEST SWAP4 POP SWAP4 POP SWAP4 POP SWAP4 POP PUSH1 0x0 DUP9 PUSH1 0x0 SHL SWAP1 POP PUSH1 0x0 DUP6 DUP1 MLOAD SWAP1 PUSH1 0x20 ADD KECCAK256 SWAP1 POP DUP2 DUP2 EQ PUSH2 0x104E JUMPI DUP1 DUP3 PUSH1 0x40 MLOAD PUSH32 0xC65C3CCC00000000000000000000000000000000000000000000000000000000 DUP2 MSTORE PUSH1 0x4 ADD PUSH2 0x1045 SWAP3 SWAP2 SWAP1 PUSH2 0x7A65 JUMP JUMPDEST PUSH1 0x40 MLOAD DUP1 SWAP2 SUB SWAP1 REVERT JUMPDEST PUSH32 0x0 PUSH20 0xFFFFFFFFFFFFFFFFFFFFFFFFFFFFFFFFFFFFFFFF AND PUSH4 0x28ED4F6C DUP4 PUSH1 0x0 SHR ADDRESS PUSH1 0x40 MLOAD DUP4 PUSH4 0xFFFFFFFF AND PUSH1 0xE0 SHL DUP2 MSTORE PUSH1 0x4 ADD PUSH2 0x10AC SWAP3 SWAP2 SWAP1 PUSH2 0x7A8E JUMP JUMPDEST PUSH1 0x0 PUSH1 0x40 MLOAD DUP1 DUP4 SUB DUP2 PUSH1 0x0 DUP8 DUP1 EXTCODESIZE ISZERO DUP1 ISZERO PUSH2 0x10C6 JUMPI PUSH1 0x0 DUP1 REVERT JUMPDEST POP GAS CALL ISZERO DUP1 ISZERO PUSH2 0x10DA JUMPI RETURNDATASIZE PUSH1 0x0 DUP1 RETURNDATACOPY RETURNDATASIZE PUSH1 0x0 REVERT JUMPDEST POP POP POP POP PUSH1 0x0 PUSH3 0x76A700 PUSH32 0x0 PUSH20 0xFFFFFFFFFFFFFFFFFFFFFFFFFFFFFFFFFFFFFFFF AND PUSH4 0xD6E4FA86 DUP14 PUSH1 0x40 MLOAD DUP3 PUSH4 0xFFFFFFFF AND PUSH1 0xE0 SHL DUP2 MSTORE PUSH1 0x4 ADD PUSH2 0x113D SWAP2 SWAP1 PUSH2 0x6252 JUMP JUMPDEST PUSH1 0x20 PUSH1 0x40 MLOAD DUP1 DUP4 SUB DUP2 DUP7 GAS STATICCALL ISZERO DUP1 ISZERO PUSH2 0x115A JUMPI RETURNDATASIZE PUSH1 0x0 DUP1 RETURNDATACOPY RETURNDATASIZE PUSH1 0x0 REVERT JUMPDEST POP POP POP POP PUSH1 0x40 MLOAD RETURNDATASIZE PUSH1 0x1F NOT PUSH1 0x1F DUP3 ADD AND DUP3 ADD DUP1 PUSH1 0x40 MSTORE POP DUP2 ADD SWAP1 PUSH2 0x117E SWAP2 SWAP1 PUSH2 0x7ACC JUMP JUMPDEST PUSH2 0x1188 SWAP2 SWAP1 PUSH2 0x7B28 JUMP JUMPDEST SWAP1 POP PUSH2 0x119B DUP8 DUP8 DUP8 PUSH2 0xFFFF AND DUP5 DUP9 PUSH2 0x45BC JUMP JUMPDEST PUSH4 0x150B7A02 PUSH1 0xE0 SHL SWAP8 POP POP POP POP POP POP POP POP SWAP6 SWAP5 POP POP POP POP POP JUMP JUMPDEST PUSH2 0x11BD PUSH2 0x4740 JUMP JUMPDEST DUP1 PUSH1 0x5 PUSH1 0x0 PUSH2 0x100 EXP DUP2 SLOAD DUP2 PUSH20 0xFFFFFFFFFFFFFFFFFFFFFFFFFFFFFFFFFFFFFFFF MUL NOT AND SWAP1 DUP4 PUSH20 0xFFFFFFFFFFFFFFFFFFFFFFFFFFFFFFFFFFFFFFFF AND MUL OR SWAP1 SSTORE POP POP JUMP JUMPDEST DUP2 PUSH2 0x120C DUP2 CALLER PUSH2 0x1CC9 JUMP JUMPDEST PUSH2 0x124F JUMPI DUP1 CALLER PUSH1 0x40 MLOAD PUSH32 0xB455AAE800000000000000000000000000000000000000000000000000000000 DUP2 MSTORE PUSH1 0x4 ADD PUSH2 0x1246 SWAP3 SWAP2 SWAP1 PUSH2 0x7952 JUMP JUMPDEST PUSH1 0x40 MLOAD DUP1 SWAP2 SUB SWAP1 REVERT JUMPDEST DUP3 PUSH1 0x8 PUSH1 0x0 PUSH2 0x1260 DUP4 PUSH1 0x0 SHR PUSH2 0xA86 JUMP JUMPDEST POP SWAP2 POP POP PUSH1 0x0 DUP3 DUP3 AND PUSH4 0xFFFFFFFF AND EQ PUSH2 0x12B1 JUMPI DUP3 PUSH1 0x40 MLOAD PUSH32 0xA2A7201300000000000000000000000000000000000000000000000000000000 DUP2 MSTORE PUSH1 0x4 ADD PUSH2 0x12A8 SWAP2 SWAP1 PUSH2 0x6A55 JUMP JUMPDEST PUSH1 0x40 MLOAD DUP1 SWAP2 SUB SWAP1 REVERT JUMPDEST PUSH32 0x0 PUSH20 0xFFFFFFFFFFFFFFFFFFFFFFFFFFFFFFFFFFFFFFFF AND PUSH4 0x1896F70A DUP8 DUP8 PUSH1 0x40 MLOAD DUP4 PUSH4 0xFFFFFFFF AND PUSH1 0xE0 SHL DUP2 MSTORE PUSH1 0x4 ADD PUSH2 0x130C SWAP3 SWAP2 SWAP1 PUSH2 0x7952 JUMP JUMPDEST PUSH1 0x0 PUSH1 0x40 MLOAD DUP1 DUP4 SUB DUP2 PUSH1 0x0 DUP8 DUP1 EXTCODESIZE ISZERO DUP1 ISZERO PUSH2 0x1326 JUMPI PUSH1 0x0 DUP1 REVERT JUMPDEST POP GAS CALL ISZERO DUP1 ISZERO PUSH2 0x133A JUMPI RETURNDATASIZE PUSH1 0x0 DUP1 RETURNDATACOPY RETURNDATASIZE PUSH1 0x0 REVERT JUMPDEST POP POP POP POP POP POP POP POP POP POP JUMP JUMPDEST PUSH1 0x7 PUSH1 0x0 SWAP1 SLOAD SWAP1 PUSH2 0x100 EXP SWAP1 DIV PUSH20 0xFFFFFFFFFFFFFFFFFFFFFFFFFFFFFFFFFFFFFFFF AND DUP2 JUMP JUMPDEST PUSH1 0x6 PUSH1 0x20 MSTORE DUP1 PUSH1 0x0 MSTORE PUSH1 0x40 PUSH1 0x0 KECCAK256 PUSH1 0x0 SWAP2 POP SWAP1 POP DUP1 SLOAD PUSH2 0x138B SWAP1 PUSH2 0x7B93 JUMP JUMPDEST DUP1 PUSH1 0x1F ADD PUSH1 0x20 DUP1 SWAP2 DIV MUL PUSH1 0x20 ADD PUSH1 0x40 MLOAD SWAP1 DUP2 ADD PUSH1 0x40 MSTORE DUP1 SWAP3 SWAP2 SWAP1 DUP2 DUP2 MSTORE PUSH1 0x20 ADD DUP3 DUP1 SLOAD PUSH2 0x13B7 SWAP1 PUSH2 0x7B93 JUMP JUMPDEST DUP1 ISZERO PUSH2 0x1404 JUMPI DUP1 PUSH1 0x1F LT PUSH2 0x13D9 JUMPI PUSH2 0x100 DUP1 DUP4 SLOAD DIV MUL DUP4 MSTORE SWAP2 PUSH1 0x20 ADD SWAP2 PUSH2 0x1404 JUMP JUMPDEST DUP3 ADD SWAP2 SWAP1 PUSH1 0x0 MSTORE PUSH1 0x20 PUSH1 0x0 KECCAK256 SWAP1 JUMPDEST DUP2 SLOAD DUP2 MSTORE SWAP1 PUSH1 0x1 ADD SWAP1 PUSH1 0x20 ADD DUP1 DUP4 GT PUSH2 0x13E7 JUMPI DUP3 SWAP1 SUB PUSH1 0x1F AND DUP3 ADD SWAP2 JUMPDEST POP POP POP POP POP DUP2 JUMP JUMPDEST PUSH1 0x0 DUP8 PUSH2 0x1419 DUP2 CALLER PUSH2 0x1CC9 JUMP JUMPDEST PUSH2 0x145C JUMPI DUP1 CALLER PUSH1 0x40 MLOAD PUSH32 0xB455AAE800000000000000000000000000000000000000000000000000000000 DUP2 MSTORE PUSH1 0x4 ADD PUSH2 0x1453 SWAP3 SWAP2 SWAP1 PUSH2 0x7952 JUMP JUMPDEST PUSH1 0x40 MLOAD DUP1 SWAP2 SUB SWAP1 REVERT JUMPDEST PUSH1 0x0 DUP9 DUP1 MLOAD SWAP1 PUSH1 0x20 ADD KECCAK256 SWAP1 POP PUSH2 0x1472 DUP11 DUP3 PUSH2 0x47BE JUMP JUMPDEST SWAP3 POP PUSH2 0x147E DUP11 DUP5 PUSH2 0x47F1 JUMP JUMPDEST PUSH2 0x1488 DUP4 DUP7 PUSH2 0x49E6 JUMP JUMPDEST PUSH2 0x1493 DUP11 DUP5 DUP12 PUSH2 0x4A44 JUMP JUMPDEST POP PUSH2 0x14A0 DUP11 DUP5 DUP8 DUP8 PUSH2 0x4B1B JUMP JUMPDEST SWAP4 POP PUSH2 0x14AB DUP4 PUSH2 0x4B65 JUMP JUMPDEST PUSH2 0x1555 JUMPI PUSH32 0x0 PUSH20 0xFFFFFFFFFFFFFFFFFFFFFFFFFFFFFFFFFFFFFFFF AND PUSH4 0x5EF2C7F0 DUP12 DUP4 ADDRESS DUP12 DUP12 PUSH1 0x40 MLOAD DUP7 PUSH4 0xFFFFFFFF AND PUSH1 0xE0 SHL DUP2 MSTORE PUSH1 0x4 ADD PUSH2 0x1510 SWAP6 SWAP5 SWAP4 SWAP3 SWAP2 SWAP1 PUSH2 0x7BC4 JUMP JUMPDEST PUSH1 0x0 PUSH1 0x40 MLOAD DUP1 DUP4 SUB DUP2 PUSH1 0x0 DUP8 DUP1 EXTCODESIZE ISZERO DUP1 ISZERO PUSH2 0x152A JUMPI PUSH1 0x0 DUP1 REVERT JUMPDEST POP GAS CALL ISZERO DUP1 ISZERO PUSH2 0x153E JUMPI RETURNDATASIZE PUSH1 0x0 DUP1 RETURNDATACOPY RETURNDATASIZE PUSH1 0x0 REVERT JUMPDEST POP POP POP POP PUSH2 0x1550 DUP11 DUP5 DUP12 DUP12 DUP10 DUP10 PUSH2 0x4C79 JUMP JUMPDEST PUSH2 0x15F7 JUMP JUMPDEST PUSH32 0x0 PUSH20 0xFFFFFFFFFFFFFFFFFFFFFFFFFFFFFFFFFFFFFFFF AND PUSH4 0x5EF2C7F0 DUP12 DUP4 ADDRESS DUP12 DUP12 PUSH1 0x40 MLOAD DUP7 PUSH4 0xFFFFFFFF AND PUSH1 0xE0 SHL DUP2 MSTORE PUSH1 0x4 ADD PUSH2 0x15B6 SWAP6 SWAP5 SWAP4 SWAP3 SWAP2 SWAP1 PUSH2 0x7BC4 JUMP JUMPDEST PUSH1 0x0 PUSH1 0x40 MLOAD DUP1 DUP4 SUB DUP2 PUSH1 0x0 DUP8 DUP1 EXTCODESIZE ISZERO DUP1 ISZERO PUSH2 0x15D0 JUMPI PUSH1 0x0 DUP1 REVERT JUMPDEST POP GAS CALL ISZERO DUP1 ISZERO PUSH2 0x15E4 JUMPI RETURNDATASIZE PUSH1 0x0 DUP1 RETURNDATACOPY RETURNDATASIZE PUSH1 0x0 REVERT JUMPDEST POP POP POP POP PUSH2 0x15F6 DUP11 DUP5 DUP12 DUP12 DUP10 DUP10 PUSH2 0x4D38 JUMP JUMPDEST JUMPDEST POP POP SWAP8 SWAP7 POP POP POP POP POP POP POP JUMP JUMPDEST PUSH32 0x0 DUP2 JUMP JUMPDEST DUP2 MLOAD DUP4 MLOAD EQ PUSH2 0x166C JUMPI PUSH1 0x40 MLOAD PUSH32 0x8C379A000000000000000000000000000000000000000000000000000000000 DUP2 MSTORE PUSH1 0x4 ADD PUSH2 0x1663 SWAP1 PUSH2 0x7C89 JUMP JUMPDEST PUSH1 0x40 MLOAD DUP1 SWAP2 SUB SWAP1 REVERT JUMPDEST PUSH1 0x0 PUSH20 0xFFFFFFFFFFFFFFFFFFFFFFFFFFFFFFFFFFFFFFFF AND DUP5 PUSH20 0xFFFFFFFFFFFFFFFFFFFFFFFFFFFFFFFFFFFFFFFF AND SUB PUSH2 0x16DB JUMPI PUSH1 0x40 MLOAD PUSH32 0x8C379A000000000000000000000000000000000000000000000000000000000 DUP2 MSTORE PUSH1 0x4 ADD PUSH2 0x16D2 SWAP1 PUSH2 0x7D1B JUMP JUMPDEST PUSH1 0x40 MLOAD DUP1 SWAP2 SUB SWAP1 REVERT JUMPDEST CALLER PUSH20 0xFFFFFFFFFFFFFFFFFFFFFFFFFFFFFFFFFFFFFFFF AND DUP6 PUSH20 0xFFFFFFFFFFFFFFFFFFFFFFFFFFFFFFFFFFFFFFFF AND EQ DUP1 PUSH2 0x171B JUMPI POP PUSH2 0x171A DUP6 CALLER PUSH2 0x3AFC JUMP JUMPDEST JUMPDEST PUSH2 0x175A JUMPI PUSH1 0x40 MLOAD PUSH32 0x8C379A000000000000000000000000000000000000000000000000000000000 DUP2 MSTORE PUSH1 0x4 ADD PUSH2 0x1751 SWAP1 PUSH2 0x7DAD JUMP JUMPDEST PUSH1 0x40 MLOAD DUP1 SWAP2 SUB SWAP1 REVERT JUMPDEST PUSH1 0x0 JUMPDEST DUP4 MLOAD DUP2 LT ISZERO PUSH2 0x185F JUMPI PUSH1 0x0 DUP5 DUP3 DUP2 MLOAD DUP2 LT PUSH2 0x177B JUMPI PUSH2 0x177A PUSH2 0x7DCD JUMP JUMPDEST JUMPDEST PUSH1 0x20 MUL PUSH1 0x20 ADD ADD MLOAD SWAP1 POP PUSH1 0x0 DUP5 DUP4 DUP2 MLOAD DUP2 LT PUSH2 0x179A JUMPI PUSH2 0x1799 PUSH2 0x7DCD JUMP JUMPDEST JUMPDEST PUSH1 0x20 MUL PUSH1 0x20 ADD ADD MLOAD SWAP1 POP PUSH1 0x0 DUP1 PUSH1 0x0 PUSH2 0x17B2 DUP6 PUSH2 0xA86 JUMP JUMPDEST SWAP3 POP SWAP3 POP SWAP3 POP PUSH2 0x17C3 DUP6 DUP4 DUP4 PUSH2 0x4EC1 JUMP JUMPDEST PUSH1 0x1 DUP5 EQ DUP1 ISZERO PUSH2 0x17FE JUMPI POP DUP11 PUSH20 0xFFFFFFFFFFFFFFFFFFFFFFFFFFFFFFFFFFFFFFFF AND DUP4 PUSH20 0xFFFFFFFFFFFFFFFFFFFFFFFFFFFFFFFFFFFFFFFF AND EQ JUMPDEST PUSH2 0x183D JUMPI PUSH1 0x40 MLOAD PUSH32 0x8C379A000000000000000000000000000000000000000000000000000000000 DUP2 MSTORE PUSH1 0x4 ADD PUSH2 0x1834 SWAP1 PUSH2 0x7E6E JUMP JUMPDEST PUSH1 0x40 MLOAD DUP1 SWAP2 SUB SWAP1 REVERT JUMPDEST PUSH2 0x1849 DUP6 DUP12 DUP5 DUP5 PUSH2 0x4FF2 JUMP JUMPDEST POP POP POP POP POP DUP1 PUSH2 0x1858 SWAP1 PUSH2 0x7E8E JUMP JUMPDEST SWAP1 POP PUSH2 0x175D JUMP JUMPDEST POP DUP4 PUSH20 0xFFFFFFFFFFFFFFFFFFFFFFFFFFFFFFFFFFFFFFFF AND DUP6 PUSH20 0xFFFFFFFFFFFFFFFFFFFFFFFFFFFFFFFFFFFFFFFF AND CALLER PUSH20 0xFFFFFFFFFFFFFFFFFFFFFFFFFFFFFFFFFFFFFFFF AND PUSH32 0x4A39DC06D4C0DBC64B70AF90FD698A233A518AA5D07E595D983B8C0526C8F7FB DUP7 DUP7 PUSH1 0x40 MLOAD PUSH2 0x18D6 SWAP3 SWAP2 SWAP1 PUSH2 0x7ED6 JUMP JUMPDEST PUSH1 0x40 MLOAD DUP1 SWAP2 SUB SWAP1 LOG4 PUSH2 0x18EC CALLER DUP7 DUP7 DUP7 DUP7 DUP7 PUSH2 0x5042 JUMP JUMPDEST POP POP POP POP POP JUMP JUMPDEST PUSH1 0x0 PUSH2 0x18FF DUP6 DUP6 PUSH2 0x47BE JUMP JUMPDEST SWAP1 POP PUSH2 0x190B DUP2 DUP5 PUSH2 0x49E6 JUMP JUMPDEST PUSH1 0x0 DUP1 PUSH1 0x0 PUSH2 0x191C DUP5 PUSH1 0x0 SHR PUSH2 0xA86 JUMP JUMPDEST SWAP3 POP SWAP3 POP SWAP3 POP PUSH1 0x0 PUSH20 0xFFFFFFFFFFFFFFFFFFFFFFFFFFFFFFFFFFFFFFFF AND DUP4 PUSH20 0xFFFFFFFFFFFFFFFFFFFFFFFFFFFFFFFFFFFFFFFF AND EQ DUP1 PUSH2 0x1A22 JUMPI POP ADDRESS PUSH20 0xFFFFFFFFFFFFFFFFFFFFFFFFFFFFFFFFFFFFFFFF AND PUSH32 0x0 PUSH20 0xFFFFFFFFFFFFFFFFFFFFFFFFFFFFFFFFFFFFFFFF AND PUSH4 0x2571BE3 DUP7 PUSH1 0x40 MLOAD DUP3 PUSH4 0xFFFFFFFF AND PUSH1 0xE0 SHL DUP2 MSTORE PUSH1 0x4 ADD PUSH2 0x19C8 SWAP2 SWAP1 PUSH2 0x6A55 JUMP JUMPDEST PUSH1 0x20 PUSH1 0x40 MLOAD DUP1 DUP4 SUB DUP2 DUP7 GAS STATICCALL ISZERO DUP1 ISZERO PUSH2 0x19E5 JUMPI RETURNDATASIZE PUSH1 0x0 DUP1 RETURNDATACOPY RETURNDATASIZE PUSH1 0x0 REVERT JUMPDEST POP POP POP POP PUSH1 0x40 MLOAD RETURNDATASIZE PUSH1 0x1F NOT PUSH1 0x1F DUP3 ADD AND DUP3 ADD DUP1 PUSH1 0x40 MSTORE POP DUP2 ADD SWAP1 PUSH2 0x1A09 SWAP2 SWAP1 PUSH2 0x7F22 JUMP JUMPDEST PUSH20 0xFFFFFFFFFFFFFFFFFFFFFFFFFFFFFFFFFFFFFFFF AND EQ ISZERO JUMPDEST ISZERO PUSH2 0x1A59 JUMPI PUSH1 0x40 MLOAD PUSH32 0x5374B59900000000000000000000000000000000000000000000000000000000 DUP2 MSTORE PUSH1 0x4 ADD PUSH1 0x40 MLOAD DUP1 SWAP2 SUB SWAP1 REVERT JUMPDEST PUSH1 0x0 DUP1 PUSH2 0x1A68 DUP11 PUSH1 0x0 SHR PUSH2 0xA86 JUMP JUMPDEST SWAP3 POP SWAP3 POP POP PUSH1 0x0 DUP1 SHL DUP11 SUB PUSH2 0x1AC9 JUMPI PUSH2 0x1A81 DUP7 CALLER PUSH2 0x1CC9 JUMP JUMPDEST PUSH2 0x1AC4 JUMPI DUP6 CALLER PUSH1 0x40 MLOAD PUSH32 0xB455AAE800000000000000000000000000000000000000000000000000000000 DUP2 MSTORE PUSH1 0x4 ADD PUSH2 0x1ABB SWAP3 SWAP2 SWAP1 PUSH2 0x7952 JUMP JUMPDEST PUSH1 0x40 MLOAD DUP1 SWAP2 SUB SWAP1 REVERT JUMPDEST PUSH2 0x1B17 JUMP JUMPDEST PUSH2 0x1AD3 DUP11 CALLER PUSH2 0x1CC9 JUMP JUMPDEST PUSH2 0x1B16 JUMPI DUP10 CALLER PUSH1 0x40 MLOAD PUSH32 0xB455AAE800000000000000000000000000000000000000000000000000000000 DUP2 MSTORE PUSH1 0x4 ADD PUSH2 0x1B0D SWAP3 SWAP2 SWAP1 PUSH2 0x7952 JUMP JUMPDEST PUSH1 0x40 MLOAD DUP1 SWAP2 SUB SWAP1 REVERT JUMPDEST JUMPDEST PUSH2 0x1B22 DUP7 DUP10 DUP5 PUSH2 0x5219 JUMP JUMPDEST PUSH2 0x1B2D DUP8 DUP5 DUP4 PUSH2 0x5290 JUMP JUMPDEST SWAP7 POP PUSH1 0x0 PUSH3 0x10000 DUP6 AND PUSH4 0xFFFFFFFF AND EQ ISZERO DUP1 ISZERO PUSH2 0x1B59 JUMPI POP DUP4 PUSH4 0xFFFFFFFF AND DUP9 DUP6 OR PUSH4 0xFFFFFFFF AND EQ ISZERO JUMPDEST ISZERO PUSH2 0x1B9B JUMPI DUP6 PUSH1 0x40 MLOAD PUSH32 0xA2A7201300000000000000000000000000000000000000000000000000000000 DUP2 MSTORE PUSH1 0x4 ADD PUSH2 0x1B92 SWAP2 SWAP1 PUSH2 0x6A55 JUMP JUMPDEST PUSH1 0x40 MLOAD DUP1 SWAP2 SUB SWAP1 REVERT JUMPDEST DUP4 DUP9 OR SWAP8 POP PUSH2 0x1BAD DUP7 DUP7 DUP11 DUP7 DUP12 PUSH2 0x52DC JUMP JUMPDEST POP POP POP POP POP POP POP POP POP POP JUMP JUMPDEST PUSH32 0x0 DUP2 JUMP JUMPDEST PUSH1 0x0 DUP3 PUSH2 0x1BEA DUP2 CALLER PUSH2 0x1CC9 JUMP JUMPDEST PUSH2 0x1C2D JUMPI DUP1 CALLER PUSH1 0x40 MLOAD PUSH32 0xB455AAE800000000000000000000000000000000000000000000000000000000 DUP2 MSTORE PUSH1 0x4 ADD PUSH2 0x1C24 SWAP3 SWAP2 SWAP1 PUSH2 0x7952 JUMP JUMPDEST PUSH1 0x40 MLOAD DUP1 SWAP2 SUB SWAP1 REVERT JUMPDEST DUP4 PUSH1 0x2 PUSH1 0x0 PUSH2 0x1C3E DUP4 PUSH1 0x0 SHR PUSH2 0xA86 JUMP JUMPDEST POP SWAP2 POP POP PUSH1 0x0 DUP3 DUP3 AND PUSH4 0xFFFFFFFF AND EQ PUSH2 0x1C8F JUMPI DUP3 PUSH1 0x40 MLOAD PUSH32 0xA2A7201300000000000000000000000000000000000000000000000000000000 DUP2 MSTORE PUSH1 0x4 ADD PUSH2 0x1C86 SWAP2 SWAP1 PUSH2 0x6A55 JUMP JUMPDEST PUSH1 0x40 MLOAD DUP1 SWAP2 SUB SWAP1 REVERT JUMPDEST PUSH1 0x0 DUP1 PUSH1 0x0 PUSH2 0x1CA0 DUP11 PUSH1 0x0 SHR PUSH2 0xA86 JUMP JUMPDEST SWAP3 POP SWAP3 POP SWAP3 POP PUSH2 0x1CB9 DUP11 DUP5 DUP5 DUP13 PUSH2 0xFFFF AND OR DUP5 DUP6 PUSH2 0x52DC JUMP JUMPDEST DUP2 SWAP8 POP POP POP POP POP POP POP POP SWAP3 SWAP2 POP POP JUMP JUMPDEST PUSH1 0x0 DUP1 PUSH1 0x0 DUP1 PUSH2 0x1CDB DUP7 PUSH1 0x0 SHR PUSH2 0xA86 JUMP JUMPDEST SWAP3 POP SWAP3 POP SWAP3 POP DUP5 PUSH20 0xFFFFFFFFFFFFFFFFFFFFFFFFFFFFFFFFFFFFFFFF AND DUP4 PUSH20 0xFFFFFFFFFFFFFFFFFFFFFFFFFFFFFFFFFFFFFFFF AND EQ DUP1 PUSH2 0x1D21 JUMPI POP PUSH2 0x1D20 DUP4 DUP7 PUSH2 0x3AFC JUMP JUMPDEST JUMPDEST DUP1 ISZERO PUSH2 0x1D34 JUMPI POP PUSH2 0x1D32 DUP3 DUP3 PUSH2 0x4578 JUMP JUMPDEST ISZERO JUMPDEST SWAP4 POP POP POP POP SWAP3 SWAP2 POP POP JUMP JUMPDEST PUSH1 0x60 DUP2 MLOAD DUP4 MLOAD EQ PUSH2 0x1D85 JUMPI PUSH1 0x40 MLOAD PUSH32 0x8C379A000000000000000000000000000000000000000000000000000000000 DUP2 MSTORE PUSH1 0x4 ADD PUSH2 0x1D7C SWAP1 PUSH2 0x7FC1 JUMP JUMPDEST PUSH1 0x40 MLOAD DUP1 SWAP2 SUB SWAP1 REVERT JUMPDEST PUSH1 0x0 DUP4 MLOAD PUSH8 0xFFFFFFFFFFFFFFFF DUP2 GT ISZERO PUSH2 0x1DA2 JUMPI PUSH2 0x1DA1 PUSH2 0x6831 JUMP JUMPDEST JUMPDEST PUSH1 0x40 MLOAD SWAP1 DUP1 DUP3 MSTORE DUP1 PUSH1 0x20 MUL PUSH1 0x20 ADD DUP3 ADD PUSH1 0x40 MSTORE DUP1 ISZERO PUSH2 0x1DD0 JUMPI DUP2 PUSH1 0x20 ADD PUSH1 0x20 DUP3 MUL DUP1 CALLDATASIZE DUP4 CALLDATACOPY DUP1 DUP3 ADD SWAP2 POP POP SWAP1 POP JUMPDEST POP SWAP1 POP PUSH1 0x0 JUMPDEST DUP5 MLOAD DUP2 LT ISZERO PUSH2 0x1E4D JUMPI PUSH2 0x1E1D DUP6 DUP3 DUP2 MLOAD DUP2 LT PUSH2 0x1DF5 JUMPI PUSH2 0x1DF4 PUSH2 0x7DCD JUMP JUMPDEST JUMPDEST PUSH1 0x20 MUL PUSH1 0x20 ADD ADD MLOAD DUP6 DUP4 DUP2 MLOAD DUP2 LT PUSH2 0x1E10 JUMPI PUSH2 0x1E0F PUSH2 0x7DCD JUMP JUMPDEST JUMPDEST PUSH1 0x20 MUL PUSH1 0x20 ADD ADD MLOAD PUSH2 0x9C0 JUMP JUMPDEST DUP3 DUP3 DUP2 MLOAD DUP2 LT PUSH2 0x1E30 JUMPI PUSH2 0x1E2F PUSH2 0x7DCD JUMP JUMPDEST JUMPDEST PUSH1 0x20 MUL PUSH1 0x20 ADD ADD DUP2 DUP2 MSTORE POP POP DUP1 PUSH2 0x1E46 SWAP1 PUSH2 0x7E8E JUMP JUMPDEST SWAP1 POP PUSH2 0x1DD6 JUMP JUMPDEST POP DUP1 SWAP2 POP POP SWAP3 SWAP2 POP POP JUMP JUMPDEST PUSH1 0x5 PUSH1 0x0 SWAP1 SLOAD SWAP1 PUSH2 0x100 EXP SWAP1 DIV PUSH20 0xFFFFFFFFFFFFFFFFFFFFFFFFFFFFFFFFFFFFFFFF AND DUP2 JUMP JUMPDEST PUSH2 0x1E86 PUSH2 0x4740 JUMP JUMPDEST DUP3 PUSH20 0xFFFFFFFFFFFFFFFFFFFFFFFFFFFFFFFFFFFFFFFF AND PUSH4 0xA9059CBB DUP4 DUP4 PUSH1 0x40 MLOAD DUP4 PUSH4 0xFFFFFFFF AND PUSH1 0xE0 SHL DUP2 MSTORE PUSH1 0x4 ADD PUSH2 0x1EC1 SWAP3 SWAP2 SWAP1 PUSH2 0x7870 JUMP JUMPDEST PUSH1 0x20 PUSH1 0x40 MLOAD DUP1 DUP4 SUB DUP2 PUSH1 0x0 DUP8 GAS CALL ISZERO DUP1 ISZERO PUSH2 0x1EE0 JUMPI RETURNDATASIZE PUSH1 0x0 DUP1 RETURNDATACOPY RETURNDATASIZE PUSH1 0x0 REVERT JUMPDEST POP POP POP POP PUSH1 0x40 MLOAD RETURNDATASIZE PUSH1 0x1F NOT PUSH1 0x1F DUP3 ADD AND DUP3 ADD DUP1 PUSH1 0x40 MSTORE POP DUP2 ADD SWAP1 PUSH2 0x1F04 SWAP2 SWAP1 PUSH2 0x7FF6 JUMP JUMPDEST POP POP POP POP JUMP JUMPDEST PUSH1 0x0 PUSH2 0x1F15 DUP3 PUSH2 0x537C JUMP JUMPDEST SWAP1 POP SWAP2 SWAP1 POP JUMP JUMPDEST PUSH1 0x0 DUP1 PUSH2 0x1F29 DUP6 DUP6 PUSH2 0x47BE JUMP JUMPDEST SWAP1 POP PUSH2 0x1F34 DUP2 PUSH2 0x4B65 JUMP JUMPDEST PUSH2 0x1F6A JUMPI PUSH1 0x40 MLOAD PUSH32 0x5374B59900000000000000000000000000000000000000000000000000000000 DUP2 MSTORE PUSH1 0x4 ADD PUSH1 0x40 MLOAD DUP1 SWAP2 SUB SWAP1 REVERT JUMPDEST PUSH1 0x0 PUSH2 0x1F76 DUP7 CALLER PUSH2 0xCA8 JUMP JUMPDEST SWAP1 POP DUP1 ISZERO DUP1 ISZERO PUSH2 0x1F8D JUMPI POP PUSH2 0x1F8B DUP3 CALLER PUSH2 0x1CC9 JUMP JUMPDEST ISZERO JUMPDEST ISZERO PUSH2 0x1FD1 JUMPI DUP2 CALLER PUSH1 0x40 MLOAD PUSH32 0xB455AAE800000000000000000000000000000000000000000000000000000000 DUP2 MSTORE PUSH1 0x4 ADD PUSH2 0x1FC8 SWAP3 SWAP2 SWAP1 PUSH2 0x7952 JUMP JUMPDEST PUSH1 0x40 MLOAD DUP1 SWAP2 SUB SWAP1 REVERT JUMPDEST PUSH1 0x0 DUP1 PUSH1 0x0 PUSH2 0x1FE2 DUP6 PUSH1 0x0 SHR PUSH2 0xA86 JUMP JUMPDEST SWAP3 POP SWAP3 POP SWAP3 POP DUP4 ISZERO DUP1 ISZERO PUSH2 0x2001 JUMPI POP PUSH1 0x0 PUSH3 0x40000 DUP4 AND PUSH4 0xFFFFFFFF AND EQ JUMPDEST ISZERO PUSH2 0x2043 JUMPI DUP5 PUSH1 0x40 MLOAD PUSH32 0xA2A7201300000000000000000000000000000000000000000000000000000000 DUP2 MSTORE PUSH1 0x4 ADD PUSH2 0x203A SWAP2 SWAP1 PUSH2 0x6A55 JUMP JUMPDEST PUSH1 0x40 MLOAD DUP1 SWAP2 SUB SWAP1 REVERT JUMPDEST PUSH1 0x0 PUSH2 0x2051 DUP11 PUSH1 0x0 SHR PUSH2 0xA86 JUMP JUMPDEST SWAP3 POP POP POP PUSH2 0x2060 DUP9 DUP4 DUP4 PUSH2 0x5290 JUMP JUMPDEST SWAP8 POP PUSH2 0x206E DUP7 DUP6 DUP6 DUP12 PUSH2 0x5395 JUMP JUMPDEST DUP6 PUSH32 0xF675815A0817338F93A7DA433F6BD5F5542F1029B11B455191AC96C7F6A9B132 DUP10 PUSH1 0x40 MLOAD PUSH2 0x209E SWAP2 SWAP1 PUSH2 0x7114 JUMP JUMPDEST PUSH1 0x40 MLOAD DUP1 SWAP2 SUB SWAP1 LOG2 DUP8 SWAP7 POP POP POP POP POP POP POP SWAP4 SWAP3 POP POP POP JUMP JUMPDEST PUSH2 0x20BE PUSH2 0x4740 JUMP JUMPDEST PUSH2 0x20C8 PUSH1 0x0 PUSH2 0x53B4 JUMP JUMPDEST JUMP JUMPDEST PUSH2 0x20F7 PUSH32 0xD051E4F8CB1870F877B00266E1292322BEA4C492A9933488E94D7C1A935E8DFA PUSH1 0x0 SHL DUP5 PUSH2 0x47BE JUMP JUMPDEST PUSH2 0x2101 DUP2 CALLER PUSH2 0x1CC9 JUMP JUMPDEST PUSH2 0x2144 JUMPI DUP1 CALLER PUSH1 0x40 MLOAD PUSH32 0xB455AAE800000000000000000000000000000000000000000000000000000000 DUP2 MSTORE PUSH1 0x4 ADD PUSH2 0x213B SWAP3 SWAP2 SWAP1 PUSH2 0x7952 JUMP JUMPDEST PUSH1 0x40 MLOAD DUP1 SWAP2 SUB SWAP1 REVERT JUMPDEST ADDRESS PUSH20 0xFFFFFFFFFFFFFFFFFFFFFFFFFFFFFFFFFFFFFFFF AND DUP4 PUSH20 0xFFFFFFFFFFFFFFFFFFFFFFFFFFFFFFFFFFFFFFFF AND SUB PUSH2 0x21B4 JUMPI DUP3 PUSH1 0x40 MLOAD PUSH32 0x5949361A00000000000000000000000000000000000000000000000000000000 DUP2 MSTORE PUSH1 0x4 ADD PUSH2 0x21AB SWAP2 SWAP1 PUSH2 0x648F JUMP JUMPDEST PUSH1 0x40 MLOAD DUP1 SWAP2 SUB SWAP1 REVERT JUMPDEST PUSH2 0x21EA PUSH2 0x21E4 PUSH32 0xD051E4F8CB1870F877B00266E1292322BEA4C492A9933488E94D7C1A935E8DFA PUSH1 0x0 SHL DUP7 PUSH2 0x47BE JUMP JUMPDEST DUP4 PUSH2 0x5478 JUMP JUMPDEST PUSH32 0x0 PUSH20 0xFFFFFFFFFFFFFFFFFFFFFFFFFFFFFFFFFFFFFFFF AND PUSH4 0x42842E0E ADDRESS DUP6 DUP8 PUSH1 0x0 SHR PUSH1 0x40 MLOAD DUP5 PUSH4 0xFFFFFFFF AND PUSH1 0xE0 SHL DUP2 MSTORE PUSH1 0x4 ADD PUSH2 0x224A SWAP4 SWAP3 SWAP2 SWAP1 PUSH2 0x8023 JUMP JUMPDEST PUSH1 0x0 PUSH1 0x40 MLOAD DUP1 DUP4 SUB DUP2 PUSH1 0x0 DUP8 DUP1 EXTCODESIZE ISZERO DUP1 ISZERO PUSH2 0x2264 JUMPI PUSH1 0x0 DUP1 REVERT JUMPDEST POP GAS CALL ISZERO DUP1 ISZERO PUSH2 0x2278 JUMPI RETURNDATASIZE PUSH1 0x0 DUP1 RETURNDATACOPY RETURNDATASIZE PUSH1 0x0 REVERT JUMPDEST POP POP POP POP POP POP POP POP JUMP JUMPDEST PUSH1 0x0 DUP1 DUP7 DUP7 PUSH1 0x40 MLOAD PUSH2 0x2295 SWAP3 SWAP2 SWAP1 PUSH2 0x808A JUMP JUMPDEST PUSH1 0x40 MLOAD DUP1 SWAP2 SUB SWAP1 KECCAK256 PUSH1 0x0 SHR SWAP1 POP PUSH1 0x0 PUSH32 0x0 PUSH20 0xFFFFFFFFFFFFFFFFFFFFFFFFFFFFFFFFFFFFFFFF AND PUSH4 0x6352211E DUP4 PUSH1 0x40 MLOAD DUP3 PUSH4 0xFFFFFFFF AND PUSH1 0xE0 SHL DUP2 MSTORE PUSH1 0x4 ADD PUSH2 0x22FD SWAP2 SWAP1 PUSH2 0x6252 JUMP JUMPDEST PUSH1 0x20 PUSH1 0x40 MLOAD DUP1 DUP4 SUB DUP2 DUP7 GAS STATICCALL ISZERO DUP1 ISZERO PUSH2 0x231A JUMPI RETURNDATASIZE PUSH1 0x0 DUP1 RETURNDATACOPY RETURNDATASIZE PUSH1 0x0 REVERT JUMPDEST POP POP POP POP PUSH1 0x40 MLOAD RETURNDATASIZE PUSH1 0x1F NOT PUSH1 0x1F DUP3 ADD AND DUP3 ADD DUP1 PUSH1 0x40 MSTORE POP DUP2 ADD SWAP1 PUSH2 0x233E SWAP2 SWAP1 PUSH2 0x7F22 JUMP JUMPDEST SWAP1 POP CALLER PUSH20 0xFFFFFFFFFFFFFFFFFFFFFFFFFFFFFFFFFFFFFFFF AND DUP2 PUSH20 0xFFFFFFFFFFFFFFFFFFFFFFFFFFFFFFFFFFFFFFFF AND EQ ISZERO DUP1 ISZERO PUSH2 0x2415 JUMPI POP PUSH32 0x0 PUSH20 0xFFFFFFFFFFFFFFFFFFFFFFFFFFFFFFFFFFFFFFFF AND PUSH4 0xE985E9C5 DUP3 CALLER PUSH1 0x40 MLOAD DUP4 PUSH4 0xFFFFFFFF AND PUSH1 0xE0 SHL DUP2 MSTORE PUSH1 0x4 ADD PUSH2 0x23D2 SWAP3 SWAP2 SWAP1 PUSH2 0x80A3 JUMP JUMPDEST PUSH1 0x20 PUSH1 0x40 MLOAD DUP1 DUP4 SUB DUP2 DUP7 GAS STATICCALL ISZERO DUP1 ISZERO PUSH2 0x23EF JUMPI RETURNDATASIZE PUSH1 0x0 DUP1 RETURNDATACOPY RETURNDATASIZE PUSH1 0x0 REVERT JUMPDEST POP POP POP POP PUSH1 0x40 MLOAD RETURNDATASIZE PUSH1 0x1F NOT PUSH1 0x1F DUP3 ADD AND DUP3 ADD DUP1 PUSH1 0x40 MSTORE POP DUP2 ADD SWAP1 PUSH2 0x2413 SWAP2 SWAP1 PUSH2 0x7FF6 JUMP JUMPDEST ISZERO JUMPDEST ISZERO PUSH2 0x2488 JUMPI PUSH2 0x244A PUSH32 0xD051E4F8CB1870F877B00266E1292322BEA4C492A9933488E94D7C1A935E8DFA PUSH1 0x0 SHL DUP4 PUSH1 0x0 SHL PUSH2 0x47BE JUMP JUMPDEST CALLER PUSH1 0x40 MLOAD PUSH32 0xB455AAE800000000000000000000000000000000000000000000000000000000 DUP2 MSTORE PUSH1 0x4 ADD PUSH2 0x247F SWAP3 SWAP2 SWAP1 PUSH2 0x7952 JUMP JUMPDEST PUSH1 0x40 MLOAD DUP1 SWAP2 SUB SWAP1 REVERT JUMPDEST PUSH32 0x0 PUSH20 0xFFFFFFFFFFFFFFFFFFFFFFFFFFFFFFFFFFFFFFFF AND PUSH4 0x23B872DD DUP3 ADDRESS DUP6 PUSH1 0x40 MLOAD DUP5 PUSH4 0xFFFFFFFF AND PUSH1 0xE0 SHL DUP2 MSTORE PUSH1 0x4 ADD PUSH2 0x24E5 SWAP4 SWAP3 SWAP2 SWAP1 PUSH2 0x8023 JUMP JUMPDEST PUSH1 0x0 PUSH1 0x40 MLOAD DUP1 DUP4 SUB DUP2 PUSH1 0x0 DUP8 DUP1 EXTCODESIZE ISZERO DUP1 ISZERO PUSH2 0x24FF JUMPI PUSH1 0x0 DUP1 REVERT JUMPDEST POP GAS CALL ISZERO DUP1 ISZERO PUSH2 0x2513 JUMPI RETURNDATASIZE PUSH1 0x0 DUP1 RETURNDATACOPY RETURNDATASIZE PUSH1 0x0 REVERT JUMPDEST POP POP POP POP PUSH32 0x0 PUSH20 0xFFFFFFFFFFFFFFFFFFFFFFFFFFFFFFFFFFFFFFFF AND PUSH4 0x28ED4F6C DUP4 ADDRESS PUSH1 0x40 MLOAD DUP4 PUSH4 0xFFFFFFFF AND PUSH1 0xE0 SHL DUP2 MSTORE PUSH1 0x4 ADD PUSH2 0x2572 SWAP3 SWAP2 SWAP1 PUSH2 0x7A8E JUMP JUMPDEST PUSH1 0x0 PUSH1 0x40 MLOAD DUP1 DUP4 SUB DUP2 PUSH1 0x0 DUP8 DUP1 EXTCODESIZE ISZERO DUP1 ISZERO PUSH2 0x258C JUMPI PUSH1 0x0 DUP1 REVERT JUMPDEST POP GAS CALL ISZERO DUP1 ISZERO PUSH2 0x25A0 JUMPI RETURNDATASIZE PUSH1 0x0 DUP1 RETURNDATACOPY RETURNDATASIZE PUSH1 0x0 REVERT JUMPDEST POP POP POP POP PUSH3 0x76A700 PUSH32 0x0 PUSH20 0xFFFFFFFFFFFFFFFFFFFFFFFFFFFFFFFFFFFFFFFF AND PUSH4 0xD6E4FA86 DUP5 PUSH1 0x40 MLOAD DUP3 PUSH4 0xFFFFFFFF AND PUSH1 0xE0 SHL DUP2 MSTORE PUSH1 0x4 ADD PUSH2 0x2601 SWAP2 SWAP1 PUSH2 0x6252 JUMP JUMPDEST PUSH1 0x20 PUSH1 0x40 MLOAD DUP1 DUP4 SUB DUP2 DUP7 GAS STATICCALL ISZERO DUP1 ISZERO PUSH2 0x261E JUMPI RETURNDATASIZE PUSH1 0x0 DUP1 RETURNDATACOPY RETURNDATASIZE PUSH1 0x0 REVERT JUMPDEST POP POP POP POP PUSH1 0x40 MLOAD RETURNDATASIZE PUSH1 0x1F NOT PUSH1 0x1F DUP3 ADD AND DUP3 ADD DUP1 PUSH1 0x40 MSTORE POP DUP2 ADD SWAP1 PUSH2 0x2642 SWAP2 SWAP1 PUSH2 0x7ACC JUMP JUMPDEST PUSH2 0x264C SWAP2 SWAP1 PUSH2 0x7B28 JUMP JUMPDEST SWAP3 POP PUSH2 0x26A3 DUP9 DUP9 DUP1 DUP1 PUSH1 0x1F ADD PUSH1 0x20 DUP1 SWAP2 DIV MUL PUSH1 0x20 ADD PUSH1 0x40 MLOAD SWAP1 DUP2 ADD PUSH1 0x40 MSTORE DUP1 SWAP4 SWAP3 SWAP2 SWAP1 DUP2 DUP2 MSTORE PUSH1 0x20 ADD DUP4 DUP4 DUP1 DUP3 DUP5 CALLDATACOPY PUSH1 0x0 DUP2 DUP5 ADD MSTORE PUSH1 0x1F NOT PUSH1 0x1F DUP3 ADD AND SWAP1 POP DUP1 DUP4 ADD SWAP3 POP POP POP POP POP POP POP DUP8 DUP8 PUSH2 0xFFFF AND DUP7 DUP9 PUSH2 0x45BC JUMP JUMPDEST POP POP SWAP6 SWAP5 POP POP POP POP POP JUMP JUMPDEST PUSH1 0x0 DUP1 PUSH1 0x0 SWAP1 SLOAD SWAP1 PUSH2 0x100 EXP SWAP1 DIV PUSH20 0xFFFFFFFFFFFFFFFFFFFFFFFFFFFFFFFFFFFFFFFF AND SWAP1 POP SWAP1 JUMP JUMPDEST DUP2 PUSH20 0xFFFFFFFFFFFFFFFFFFFFFFFFFFFFFFFFFFFFFFFF AND CALLER PUSH20 0xFFFFFFFFFFFFFFFFFFFFFFFFFFFFFFFFFFFFFFFF AND SUB PUSH2 0x2745 JUMPI PUSH1 0x40 MLOAD PUSH32 0x8C379A000000000000000000000000000000000000000000000000000000000 DUP2 MSTORE PUSH1 0x4 ADD PUSH2 0x273C SWAP1 PUSH2 0x813E JUMP JUMPDEST PUSH1 0x40 MLOAD DUP1 SWAP2 SUB SWAP1 REVERT JUMPDEST DUP1 PUSH1 0x2 PUSH1 0x0 CALLER PUSH20 0xFFFFFFFFFFFFFFFFFFFFFFFFFFFFFFFFFFFFFFFF AND PUSH20 0xFFFFFFFFFFFFFFFFFFFFFFFFFFFFFFFFFFFFFFFF AND DUP2 MSTORE PUSH1 0x20 ADD SWAP1 DUP2 MSTORE PUSH1 0x20 ADD PUSH1 0x0 KECCAK256 PUSH1 0x0 DUP5 PUSH20 0xFFFFFFFFFFFFFFFFFFFFFFFFFFFFFFFFFFFFFFFF AND PUSH20 0xFFFFFFFFFFFFFFFFFFFFFFFFFFFFFFFFFFFFFFFF AND DUP2 MSTORE PUSH1 0x20 ADD SWAP1 DUP2 MSTORE PUSH1 0x20 ADD PUSH1 0x0 KECCAK256 PUSH1 0x0 PUSH2 0x100 EXP DUP2 SLOAD DUP2 PUSH1 0xFF MUL NOT AND SWAP1 DUP4 ISZERO ISZERO MUL OR SWAP1 SSTORE POP DUP2 PUSH20 0xFFFFFFFFFFFFFFFFFFFFFFFFFFFFFFFFFFFFFFFF AND CALLER PUSH20 0xFFFFFFFFFFFFFFFFFFFFFFFFFFFFFFFFFFFFFFFF AND PUSH32 0x17307EAB39AB6107E8899845AD3D59BD9653F200F220920489CA2B5937696C31 DUP4 PUSH1 0x40 MLOAD PUSH2 0x2836 SWAP2 SWAP1 PUSH2 0x63C2 JUMP JUMPDEST PUSH1 0x40 MLOAD DUP1 SWAP2 SUB SWAP1 LOG3 POP POP JUMP JUMPDEST PUSH1 0x0 PUSH1 0x4 PUSH1 0x0 CALLER PUSH20 0xFFFFFFFFFFFFFFFFFFFFFFFFFFFFFFFFFFFFFFFF AND PUSH20 0xFFFFFFFFFFFFFFFFFFFFFFFFFFFFFFFFFFFFFFFF AND DUP2 MSTORE PUSH1 0x20 ADD SWAP1 DUP2 MSTORE PUSH1 0x20 ADD PUSH1 0x0 KECCAK256 PUSH1 0x0 SWAP1 SLOAD SWAP1 PUSH2 0x100 EXP SWAP1 DIV PUSH1 0xFF AND PUSH2 0x28D0 JUMPI PUSH1 0x40 MLOAD PUSH32 0x8C379A000000000000000000000000000000000000000000000000000000000 DUP2 MSTORE PUSH1 0x4 ADD PUSH2 0x28C7 SWAP1 PUSH2 0x81D0 JUMP JUMPDEST PUSH1 0x40 MLOAD DUP1 SWAP2 SUB SWAP1 REVERT JUMPDEST PUSH1 0x0 DUP8 DUP8 PUSH1 0x40 MLOAD PUSH2 0x28E2 SWAP3 SWAP2 SWAP1 PUSH2 0x808A JUMP JUMPDEST PUSH1 0x40 MLOAD DUP1 SWAP2 SUB SWAP1 KECCAK256 PUSH1 0x0 SHR SWAP1 POP PUSH32 0x0 PUSH20 0xFFFFFFFFFFFFFFFFFFFFFFFFFFFFFFFFFFFFFFFF AND PUSH4 0xFCA247AC DUP3 ADDRESS DUP9 PUSH1 0x40 MLOAD DUP5 PUSH4 0xFFFFFFFF AND PUSH1 0xE0 SHL DUP2 MSTORE PUSH1 0x4 ADD PUSH2 0x294C SWAP4 SWAP3 SWAP2 SWAP1 PUSH2 0x81F0 JUMP JUMPDEST PUSH1 0x20 PUSH1 0x40 MLOAD DUP1 DUP4 SUB DUP2 PUSH1 0x0 DUP8 GAS CALL ISZERO DUP1 ISZERO PUSH2 0x296B JUMPI RETURNDATASIZE PUSH1 0x0 DUP1 RETURNDATACOPY RETURNDATASIZE PUSH1 0x0 REVERT JUMPDEST POP POP POP POP PUSH1 0x40 MLOAD RETURNDATASIZE PUSH1 0x1F NOT PUSH1 0x1F DUP3 ADD AND DUP3 ADD DUP1 PUSH1 0x40 MSTORE POP DUP2 ADD SWAP1 PUSH2 0x298F SWAP2 SWAP1 PUSH2 0x7ACC JUMP JUMPDEST SWAP2 POP PUSH2 0x29F4 DUP9 DUP9 DUP1 DUP1 PUSH1 0x1F ADD PUSH1 0x20 DUP1 SWAP2 DIV MUL PUSH1 0x20 ADD PUSH1 0x40 MLOAD SWAP1 DUP2 ADD PUSH1 0x40 MSTORE DUP1 SWAP4 SWAP3 SWAP2 SWAP1 DUP2 DUP2 MSTORE PUSH1 0x20 ADD DUP4 DUP4 DUP1 DUP3 DUP5 CALLDATACOPY PUSH1 0x0 DUP2 DUP5 ADD MSTORE PUSH1 0x1F NOT PUSH1 0x1F DUP3 ADD AND SWAP1 POP DUP1 DUP4 ADD SWAP3 POP POP POP POP POP POP POP DUP8 DUP6 PUSH2 0xFFFF AND PUSH3 0x76A700 DUP7 PUSH2 0x29EE SWAP2 SWAP1 PUSH2 0x7B28 JUMP JUMPDEST DUP9 PUSH2 0x45BC JUMP JUMPDEST POP SWAP7 SWAP6 POP POP POP POP POP POP JUMP JUMPDEST PUSH1 0x0 DUP1 PUSH2 0x2A0E DUP5 PUSH1 0x0 SHR PUSH2 0xA86 JUMP JUMPDEST POP SWAP2 POP POP DUP3 PUSH4 0xFFFFFFFF AND DUP4 DUP3 AND PUSH4 0xFFFFFFFF AND EQ SWAP2 POP POP SWAP3 SWAP2 POP POP JUMP JUMPDEST PUSH2 0x2A34 PUSH2 0x4740 JUMP JUMPDEST PUSH1 0x0 PUSH20 0xFFFFFFFFFFFFFFFFFFFFFFFFFFFFFFFFFFFFFFFF AND PUSH1 0x7 PUSH1 0x0 SWAP1 SLOAD SWAP1 PUSH2 0x100 EXP SWAP1 DIV PUSH20 0xFFFFFFFFFFFFFFFFFFFFFFFFFFFFFFFFFFFFFFFF AND PUSH20 0xFFFFFFFFFFFFFFFFFFFFFFFFFFFFFFFFFFFFFFFF AND EQ PUSH2 0x2BEB JUMPI PUSH32 0x0 PUSH20 0xFFFFFFFFFFFFFFFFFFFFFFFFFFFFFFFFFFFFFFFF AND PUSH4 0xA22CB465 PUSH1 0x7 PUSH1 0x0 SWAP1 SLOAD SWAP1 PUSH2 0x100 EXP SWAP1 DIV PUSH20 0xFFFFFFFFFFFFFFFFFFFFFFFFFFFFFFFFFFFFFFFF AND PUSH1 0x0 PUSH1 0x40 MLOAD DUP4 PUSH4 0xFFFFFFFF AND PUSH1 0xE0 SHL DUP2 MSTORE PUSH1 0x4 ADD PUSH2 0x2B08 SWAP3 SWAP2 SWAP1 PUSH2 0x8227 JUMP JUMPDEST PUSH1 0x0 PUSH1 0x40 MLOAD DUP1 DUP4 SUB DUP2 PUSH1 0x0 DUP8 DUP1 EXTCODESIZE ISZERO DUP1 ISZERO PUSH2 0x2B22 JUMPI PUSH1 0x0 DUP1 REVERT JUMPDEST POP GAS CALL ISZERO DUP1 ISZERO PUSH2 0x2B36 JUMPI RETURNDATASIZE PUSH1 0x0 DUP1 RETURNDATACOPY RETURNDATASIZE PUSH1 0x0 REVERT JUMPDEST POP POP POP POP PUSH32 0x0 PUSH20 0xFFFFFFFFFFFFFFFFFFFFFFFFFFFFFFFFFFFFFFFF AND PUSH4 0xA22CB465 PUSH1 0x7 PUSH1 0x0 SWAP1 SLOAD SWAP1 PUSH2 0x100 EXP SWAP1 DIV PUSH20 0xFFFFFFFFFFFFFFFFFFFFFFFFFFFFFFFFFFFFFFFF AND PUSH1 0x0 PUSH1 0x40 MLOAD DUP4 PUSH4 0xFFFFFFFF AND PUSH1 0xE0 SHL DUP2 MSTORE PUSH1 0x4 ADD PUSH2 0x2BB8 SWAP3 SWAP2 SWAP1 PUSH2 0x8227 JUMP JUMPDEST PUSH1 0x0 PUSH1 0x40 MLOAD DUP1 DUP4 SUB DUP2 PUSH1 0x0 DUP8 DUP1 EXTCODESIZE ISZERO DUP1 ISZERO PUSH2 0x2BD2 JUMPI PUSH1 0x0 DUP1 REVERT JUMPDEST POP GAS CALL ISZERO DUP1 ISZERO PUSH2 0x2BE6 JUMPI RETURNDATASIZE PUSH1 0x0 DUP1 RETURNDATACOPY RETURNDATASIZE PUSH1 0x0 REVERT JUMPDEST POP POP POP POP JUMPDEST DUP1 PUSH1 0x7 PUSH1 0x0 PUSH2 0x100 EXP DUP2 SLOAD DUP2 PUSH20 0xFFFFFFFFFFFFFFFFFFFFFFFFFFFFFFFFFFFFFFFF MUL NOT AND SWAP1 DUP4 PUSH20 0xFFFFFFFFFFFFFFFFFFFFFFFFFFFFFFFFFFFFFFFF AND MUL OR SWAP1 SSTORE POP PUSH1 0x0 PUSH20 0xFFFFFFFFFFFFFFFFFFFFFFFFFFFFFFFFFFFFFFFF AND PUSH1 0x7 PUSH1 0x0 SWAP1 SLOAD SWAP1 PUSH2 0x100 EXP SWAP1 DIV PUSH20 0xFFFFFFFFFFFFFFFFFFFFFFFFFFFFFFFFFFFFFFFF AND PUSH20 0xFFFFFFFFFFFFFFFFFFFFFFFFFFFFFFFFFFFFFFFF AND EQ PUSH2 0x2DE3 JUMPI PUSH32 0x0 PUSH20 0xFFFFFFFFFFFFFFFFFFFFFFFFFFFFFFFFFFFFFFFF AND PUSH4 0xA22CB465 PUSH1 0x7 PUSH1 0x0 SWAP1 SLOAD SWAP1 PUSH2 0x100 EXP SWAP1 DIV PUSH20 0xFFFFFFFFFFFFFFFFFFFFFFFFFFFFFFFFFFFFFFFF AND PUSH1 0x1 PUSH1 0x40 MLOAD DUP4 PUSH4 0xFFFFFFFF AND PUSH1 0xE0 SHL DUP2 MSTORE PUSH1 0x4 ADD PUSH2 0x2D00 SWAP3 SWAP2 SWAP1 PUSH2 0x8227 JUMP JUMPDEST PUSH1 0x0 PUSH1 0x40 MLOAD DUP1 DUP4 SUB DUP2 PUSH1 0x0 DUP8 DUP1 EXTCODESIZE ISZERO DUP1 ISZERO PUSH2 0x2D1A JUMPI PUSH1 0x0 DUP1 REVERT JUMPDEST POP GAS CALL ISZERO DUP1 ISZERO PUSH2 0x2D2E JUMPI RETURNDATASIZE PUSH1 0x0 DUP1 RETURNDATACOPY RETURNDATASIZE PUSH1 0x0 REVERT JUMPDEST POP POP POP POP PUSH32 0x0 PUSH20 0xFFFFFFFFFFFFFFFFFFFFFFFFFFFFFFFFFFFFFFFF AND PUSH4 0xA22CB465 PUSH1 0x7 PUSH1 0x0 SWAP1 SLOAD SWAP1 PUSH2 0x100 EXP SWAP1 DIV PUSH20 0xFFFFFFFFFFFFFFFFFFFFFFFFFFFFFFFFFFFFFFFF AND PUSH1 0x1 PUSH1 0x40 MLOAD DUP4 PUSH4 0xFFFFFFFF AND PUSH1 0xE0 SHL DUP2 MSTORE PUSH1 0x4 ADD PUSH2 0x2DB0 SWAP3 SWAP2 SWAP1 PUSH2 0x8227 JUMP JUMPDEST PUSH1 0x0 PUSH1 0x40 MLOAD DUP1 DUP4 SUB DUP2 PUSH1 0x0 DUP8 DUP1 EXTCODESIZE ISZERO DUP1 ISZERO PUSH2 0x2DCA JUMPI PUSH1 0x0 DUP1 REVERT JUMPDEST POP GAS CALL ISZERO DUP1 ISZERO PUSH2 0x2DDE JUMPI RETURNDATASIZE PUSH1 0x0 DUP1 RETURNDATACOPY RETURNDATASIZE PUSH1 0x0 REVERT JUMPDEST POP POP POP POP JUMPDEST POP JUMP JUMPDEST PUSH1 0x0 PUSH1 0x4 PUSH1 0x0 CALLER PUSH20 0xFFFFFFFFFFFFFFFFFFFFFFFFFFFFFFFFFFFFFFFF AND PUSH20 0xFFFFFFFFFFFFFFFFFFFFFFFFFFFFFFFFFFFFFFFF AND DUP2 MSTORE PUSH1 0x20 ADD SWAP1 DUP2 MSTORE PUSH1 0x20 ADD PUSH1 0x0 KECCAK256 PUSH1 0x0 SWAP1 SLOAD SWAP1 PUSH2 0x100 EXP SWAP1 DIV PUSH1 0xFF AND PUSH2 0x2E74 JUMPI PUSH1 0x40 MLOAD PUSH32 0x8C379A000000000000000000000000000000000000000000000000000000000 DUP2 MSTORE PUSH1 0x4 ADD PUSH2 0x2E6B SWAP1 PUSH2 0x81D0 JUMP JUMPDEST PUSH1 0x40 MLOAD DUP1 SWAP2 SUB SWAP1 REVERT JUMPDEST PUSH1 0x0 PUSH2 0x2EA6 PUSH32 0xD051E4F8CB1870F877B00266E1292322BEA4C492A9933488E94D7C1A935E8DFA PUSH1 0x0 SHL DUP6 PUSH1 0x0 SHL PUSH2 0x47BE JUMP JUMPDEST SWAP1 POP PUSH1 0x0 PUSH32 0x0 PUSH20 0xFFFFFFFFFFFFFFFFFFFFFFFFFFFFFFFFFFFFFFFF AND PUSH4 0xC475ABFF DUP7 DUP7 PUSH1 0x40 MLOAD DUP4 PUSH4 0xFFFFFFFF AND PUSH1 0xE0 SHL DUP2 MSTORE PUSH1 0x4 ADD PUSH2 0x2F05 SWAP3 SWAP2 SWAP1 PUSH2 0x8250 JUMP JUMPDEST PUSH1 0x20 PUSH1 0x40 MLOAD DUP1 DUP4 SUB DUP2 PUSH1 0x0 DUP8 GAS CALL ISZERO DUP1 ISZERO PUSH2 0x2F24 JUMPI RETURNDATASIZE PUSH1 0x0 DUP1 RETURNDATACOPY RETURNDATASIZE PUSH1 0x0 REVERT JUMPDEST POP POP POP POP PUSH1 0x40 MLOAD RETURNDATASIZE PUSH1 0x1F NOT PUSH1 0x1F DUP3 ADD AND DUP3 ADD DUP1 PUSH1 0x40 MSTORE POP DUP2 ADD SWAP1 PUSH2 0x2F48 SWAP2 SWAP1 PUSH2 0x7ACC JUMP JUMPDEST SWAP1 POP PUSH32 0x0 PUSH20 0xFFFFFFFFFFFFFFFFFFFFFFFFFFFFFFFFFFFFFFFF AND PUSH4 0x6352211E DUP7 PUSH1 0x40 MLOAD DUP3 PUSH4 0xFFFFFFFF AND PUSH1 0xE0 SHL DUP2 MSTORE PUSH1 0x4 ADD PUSH2 0x2FA3 SWAP2 SWAP1 PUSH2 0x6252 JUMP JUMPDEST PUSH1 0x20 PUSH1 0x40 MLOAD DUP1 DUP4 SUB DUP2 DUP7 GAS STATICCALL SWAP3 POP POP POP DUP1 ISZERO PUSH2 0x2FDD JUMPI POP PUSH1 0x40 MLOAD RETURNDATASIZE PUSH1 0x1F NOT PUSH1 0x1F DUP3 ADD AND DUP3 ADD DUP1 PUSH1 0x40 MSTORE POP DUP2 ADD SWAP1 PUSH2 0x2FDA SWAP2 SWAP1 PUSH2 0x7F22 JUMP JUMPDEST PUSH1 0x1 JUMPDEST PUSH2 0x2FEB JUMPI DUP1 SWAP3 POP POP POP PUSH2 0x3138 JUMP JUMPDEST ADDRESS PUSH20 0xFFFFFFFFFFFFFFFFFFFFFFFFFFFFFFFFFFFFFFFF AND DUP2 PUSH20 0xFFFFFFFFFFFFFFFFFFFFFFFFFFFFFFFFFFFFFFFF AND EQ ISZERO DUP1 PUSH2 0x30EB JUMPI POP ADDRESS PUSH20 0xFFFFFFFFFFFFFFFFFFFFFFFFFFFFFFFFFFFFFFFF AND PUSH32 0x0 PUSH20 0xFFFFFFFFFFFFFFFFFFFFFFFFFFFFFFFFFFFFFFFF AND PUSH4 0x2571BE3 DUP6 PUSH1 0x40 MLOAD DUP3 PUSH4 0xFFFFFFFF AND PUSH1 0xE0 SHL DUP2 MSTORE PUSH1 0x4 ADD PUSH2 0x3091 SWAP2 SWAP1 PUSH2 0x6A55 JUMP JUMPDEST PUSH1 0x20 PUSH1 0x40 MLOAD DUP1 DUP4 SUB DUP2 DUP7 GAS STATICCALL ISZERO DUP1 ISZERO PUSH2 0x30AE JUMPI RETURNDATASIZE PUSH1 0x0 DUP1 RETURNDATACOPY RETURNDATASIZE PUSH1 0x0 REVERT JUMPDEST POP POP POP POP PUSH1 0x40 MLOAD RETURNDATASIZE PUSH1 0x1F NOT PUSH1 0x1F DUP3 ADD AND DUP3 ADD DUP1 PUSH1 0x40 MSTORE POP DUP2 ADD SWAP1 PUSH2 0x30D2 SWAP2 SWAP1 PUSH2 0x7F22 JUMP JUMPDEST PUSH20 0xFFFFFFFFFFFFFFFFFFFFFFFFFFFFFFFFFFFFFFFF AND EQ ISZERO JUMPDEST ISZERO PUSH2 0x30FB JUMPI DUP2 SWAP4 POP POP POP POP PUSH2 0x3138 JUMP JUMPDEST POP PUSH1 0x0 PUSH3 0x76A700 DUP3 PUSH2 0x310D SWAP2 SWAP1 PUSH2 0x7B28 JUMP JUMPDEST SWAP1 POP PUSH1 0x0 DUP1 PUSH2 0x311E DUP6 PUSH1 0x0 SHR PUSH2 0x42D3 JUMP JUMPDEST POP SWAP2 POP SWAP2 POP PUSH2 0x312F DUP6 DUP4 DUP4 DUP7 PUSH2 0x5395 JUMP JUMPDEST DUP4 SWAP6 POP POP POP POP POP POP JUMPDEST SWAP3 SWAP2 POP POP JUMP JUMPDEST PUSH1 0x0 DUP7 PUSH2 0x314B DUP2 CALLER PUSH2 0x1CC9 JUMP JUMPDEST PUSH2 0x318E JUMPI DUP1 CALLER PUSH1 0x40 MLOAD PUSH32 0xB455AAE800000000000000000000000000000000000000000000000000000000 DUP2 MSTORE PUSH1 0x4 ADD PUSH2 0x3185 SWAP3 SWAP2 SWAP1 PUSH2 0x7952 JUMP JUMPDEST PUSH1 0x40 MLOAD DUP1 SWAP2 SUB SWAP1 REVERT JUMPDEST PUSH1 0x0 DUP8 DUP8 PUSH1 0x40 MLOAD PUSH2 0x31A0 SWAP3 SWAP2 SWAP1 PUSH2 0x808A JUMP JUMPDEST PUSH1 0x40 MLOAD DUP1 SWAP2 SUB SWAP1 KECCAK256 SWAP1 POP PUSH2 0x31B4 DUP10 DUP3 PUSH2 0x47BE JUMP JUMPDEST SWAP3 POP PUSH2 0x31C0 DUP10 DUP5 PUSH2 0x47F1 JUMP JUMPDEST PUSH2 0x31CA DUP4 DUP7 PUSH2 0x49E6 JUMP JUMPDEST PUSH1 0x0 PUSH2 0x321B DUP11 DUP6 DUP12 DUP12 DUP1 DUP1 PUSH1 0x1F ADD PUSH1 0x20 DUP1 SWAP2 DIV MUL PUSH1 0x20 ADD PUSH1 0x40 MLOAD SWAP1 DUP2 ADD PUSH1 0x40 MSTORE DUP1 SWAP4 SWAP3 SWAP2 SWAP1 DUP2 DUP2 MSTORE PUSH1 0x20 ADD DUP4 DUP4 DUP1 DUP3 DUP5 CALLDATACOPY PUSH1 0x0 DUP2 DUP5 ADD MSTORE PUSH1 0x1F NOT PUSH1 0x1F DUP3 ADD AND SWAP1 POP DUP1 DUP4 ADD SWAP3 POP POP POP POP POP POP POP PUSH2 0x4A44 JUMP JUMPDEST SWAP1 POP PUSH2 0x3229 DUP11 DUP6 DUP9 DUP9 PUSH2 0x4B1B JUMP JUMPDEST SWAP5 POP PUSH2 0x3234 DUP5 PUSH2 0x4B65 JUMP JUMPDEST PUSH2 0x32EB JUMPI PUSH32 0x0 PUSH20 0xFFFFFFFFFFFFFFFFFFFFFFFFFFFFFFFFFFFFFFFF AND PUSH4 0x6AB5923 DUP12 DUP5 ADDRESS PUSH1 0x40 MLOAD DUP5 PUSH4 0xFFFFFFFF AND PUSH1 0xE0 SHL DUP2 MSTORE PUSH1 0x4 ADD PUSH2 0x3295 SWAP4 SWAP3 SWAP2 SWAP1 PUSH2 0x8279 JUMP JUMPDEST PUSH1 0x20 PUSH1 0x40 MLOAD DUP1 DUP4 SUB DUP2 PUSH1 0x0 DUP8 GAS CALL ISZERO DUP1 ISZERO PUSH2 0x32B4 JUMPI RETURNDATASIZE PUSH1 0x0 DUP1 RETURNDATACOPY RETURNDATASIZE PUSH1 0x0 REVERT JUMPDEST POP POP POP POP PUSH1 0x40 MLOAD RETURNDATASIZE PUSH1 0x1F NOT PUSH1 0x1F DUP3 ADD AND DUP3 ADD DUP1 PUSH1 0x40 MSTORE POP DUP2 ADD SWAP1 PUSH2 0x32D8 SWAP2 SWAP1 PUSH2 0x82C5 JUMP JUMPDEST POP PUSH2 0x32E6 DUP5 DUP3 DUP10 DUP10 DUP10 PUSH2 0x559A JUMP JUMPDEST PUSH2 0x333E JUMP JUMPDEST PUSH2 0x333D DUP11 DUP6 DUP12 DUP12 DUP1 DUP1 PUSH1 0x1F ADD PUSH1 0x20 DUP1 SWAP2 DIV MUL PUSH1 0x20 ADD PUSH1 0x40 MLOAD SWAP1 DUP2 ADD PUSH1 0x40 MSTORE DUP1 SWAP4 SWAP3 SWAP2 SWAP1 DUP2 DUP2 MSTORE PUSH1 0x20 ADD DUP4 DUP4 DUP1 DUP3 DUP5 CALLDATACOPY PUSH1 0x0 DUP2 DUP5 ADD MSTORE PUSH1 0x1F NOT PUSH1 0x1F DUP3 ADD AND SWAP1 POP DUP1 DUP4 ADD SWAP3 POP POP POP POP POP POP POP DUP11 DUP11 DUP11 PUSH2 0x4D38 JUMP JUMPDEST JUMPDEST POP POP POP SWAP7 SWAP6 POP POP POP POP POP POP JUMP JUMPDEST PUSH1 0x0 PUSH2 0x33A5 PUSH1 0x0 DUP7 DUP7 DUP1 DUP1 PUSH1 0x1F ADD PUSH1 0x20 DUP1 SWAP2 DIV MUL PUSH1 0x20 ADD PUSH1 0x40 MLOAD SWAP1 DUP2 ADD PUSH1 0x40 MSTORE DUP1 SWAP4 SWAP3 SWAP2 SWAP1 DUP2 DUP2 MSTORE PUSH1 0x20 ADD DUP4 DUP4 DUP1 DUP3 DUP5 CALLDATACOPY PUSH1 0x0 DUP2 DUP5 ADD MSTORE PUSH1 0x1F NOT PUSH1 0x1F DUP3 ADD AND SWAP1 POP DUP1 DUP4 ADD SWAP3 POP POP POP POP POP POP POP PUSH2 0x55EB SWAP1 SWAP2 SWAP1 PUSH4 0xFFFFFFFF AND JUMP JUMPDEST SWAP1 POP PUSH1 0x0 PUSH20 0xFFFFFFFFFFFFFFFFFFFFFFFFFFFFFFFFFFFFFFFF AND PUSH1 0x7 PUSH1 0x0 SWAP1 SLOAD SWAP1 PUSH2 0x100 EXP SWAP1 DIV PUSH20 0xFFFFFFFFFFFFFFFFFFFFFFFFFFFFFFFFFFFFFFFF AND PUSH20 0xFFFFFFFFFFFFFFFFFFFFFFFFFFFFFFFFFFFFFFFF AND SUB PUSH2 0x342F JUMPI PUSH1 0x40 MLOAD PUSH32 0x24C1D6D400000000000000000000000000000000000000000000000000000000 DUP2 MSTORE PUSH1 0x4 ADD PUSH1 0x40 MLOAD DUP1 SWAP2 SUB SWAP1 REVERT JUMPDEST PUSH2 0x3439 DUP2 CALLER PUSH2 0x1CC9 JUMP JUMPDEST PUSH2 0x347C JUMPI DUP1 CALLER PUSH1 0x40 MLOAD PUSH32 0xB455AAE800000000000000000000000000000000000000000000000000000000 DUP2 MSTORE PUSH1 0x4 ADD PUSH2 0x3473 SWAP3 SWAP2 SWAP1 PUSH2 0x7952 JUMP JUMPDEST PUSH1 0x40 MLOAD DUP1 SWAP2 SUB SWAP1 REVERT JUMPDEST PUSH1 0x0 DUP1 PUSH1 0x0 PUSH2 0x348D DUP5 PUSH1 0x0 SHR PUSH2 0xA86 JUMP JUMPDEST SWAP3 POP SWAP3 POP SWAP3 POP PUSH1 0x0 PUSH2 0x34A1 DUP6 PUSH1 0x0 SHR PUSH2 0xBD5 JUMP JUMPDEST SWAP1 POP PUSH2 0x34AF DUP6 PUSH1 0x0 SHR PUSH2 0x56A1 JUMP JUMPDEST PUSH1 0x7 PUSH1 0x0 SWAP1 SLOAD SWAP1 PUSH2 0x100 EXP SWAP1 DIV PUSH20 0xFFFFFFFFFFFFFFFFFFFFFFFFFFFFFFFFFFFFFFFF AND PUSH20 0xFFFFFFFFFFFFFFFFFFFFFFFFFFFFFFFFFFFFFFFF AND PUSH4 0x9198C276 DUP11 DUP11 DUP8 DUP8 DUP8 DUP8 DUP15 DUP15 PUSH1 0x40 MLOAD DUP10 PUSH4 0xFFFFFFFF AND PUSH1 0xE0 SHL DUP2 MSTORE PUSH1 0x4 ADD PUSH2 0x3518 SWAP9 SWAP8 SWAP7 SWAP6 SWAP5 SWAP4 SWAP3 SWAP2 SWAP1 PUSH2 0x831F JUMP JUMPDEST PUSH1 0x0 PUSH1 0x40 MLOAD DUP1 DUP4 SUB DUP2 PUSH1 0x0 DUP8 DUP1 EXTCODESIZE ISZERO DUP1 ISZERO PUSH2 0x3532 JUMPI PUSH1 0x0 DUP1 REVERT JUMPDEST POP GAS CALL ISZERO DUP1 ISZERO PUSH2 0x3546 JUMPI RETURNDATASIZE PUSH1 0x0 DUP1 RETURNDATACOPY RETURNDATASIZE PUSH1 0x0 REVERT JUMPDEST POP POP POP POP POP POP POP POP POP POP POP POP POP JUMP JUMPDEST DUP4 PUSH2 0x3560 DUP2 CALLER PUSH2 0x1CC9 JUMP JUMPDEST PUSH2 0x35A3 JUMPI DUP1 CALLER PUSH1 0x40 MLOAD PUSH32 0xB455AAE800000000000000000000000000000000000000000000000000000000 DUP2 MSTORE PUSH1 0x4 ADD PUSH2 0x359A SWAP3 SWAP2 SWAP1 PUSH2 0x7952 JUMP JUMPDEST PUSH1 0x40 MLOAD DUP1 SWAP2 SUB SWAP1 REVERT JUMPDEST DUP5 PUSH1 0x10 PUSH1 0x8 PUSH1 0x4 OR OR PUSH1 0x0 PUSH2 0x35BA DUP4 PUSH1 0x0 SHR PUSH2 0xA86 JUMP JUMPDEST POP SWAP2 POP POP PUSH1 0x0 DUP3 DUP3 AND PUSH4 0xFFFFFFFF AND EQ PUSH2 0x360B JUMPI DUP3 PUSH1 0x40 MLOAD PUSH32 0xA2A7201300000000000000000000000000000000000000000000000000000000 DUP2 MSTORE PUSH1 0x4 ADD PUSH2 0x3602 SWAP2 SWAP1 PUSH2 0x6A55 JUMP JUMPDEST PUSH1 0x40 MLOAD DUP1 SWAP2 SUB SWAP1 REVERT JUMPDEST PUSH32 0x0 PUSH20 0xFFFFFFFFFFFFFFFFFFFFFFFFFFFFFFFFFFFFFFFF AND PUSH4 0xCF408823 DUP10 ADDRESS DUP10 DUP10 PUSH1 0x40 MLOAD DUP6 PUSH4 0xFFFFFFFF AND PUSH1 0xE0 SHL DUP2 MSTORE PUSH1 0x4 ADD PUSH2 0x366A SWAP5 SWAP4 SWAP3 SWAP2 SWAP1 PUSH2 0x8392 JUMP JUMPDEST PUSH1 0x0 PUSH1 0x40 MLOAD DUP1 DUP4 SUB DUP2 PUSH1 0x0 DUP8 DUP1 EXTCODESIZE ISZERO DUP1 ISZERO PUSH2 0x3684 JUMPI PUSH1 0x0 DUP1 REVERT JUMPDEST POP GAS CALL ISZERO DUP1 ISZERO PUSH2 0x3698 JUMPI RETURNDATASIZE PUSH1 0x0 DUP1 RETURNDATACOPY RETURNDATASIZE PUSH1 0x0 REVERT JUMPDEST POP POP POP POP PUSH1 0x0 PUSH20 0xFFFFFFFFFFFFFFFFFFFFFFFFFFFFFFFFFFFFFFFF AND DUP8 PUSH20 0xFFFFFFFFFFFFFFFFFFFFFFFFFFFFFFFFFFFFFFFF AND SUB PUSH2 0x374B JUMPI PUSH1 0x0 PUSH2 0x36DE DUP10 PUSH1 0x0 SHR PUSH2 0xA86 JUMP JUMPDEST POP SWAP2 POP POP PUSH3 0x20000 PUSH4 0xFFFFFFFF AND PUSH3 0x20000 DUP3 AND PUSH4 0xFFFFFFFF AND SUB PUSH2 0x373A JUMPI DUP8 PUSH1 0x40 MLOAD PUSH32 0x5949361A00000000000000000000000000000000000000000000000000000000 DUP2 MSTORE PUSH1 0x4 ADD PUSH2 0x3731 SWAP2 SWAP1 PUSH2 0x648F JUMP JUMPDEST PUSH1 0x40 MLOAD DUP1 SWAP2 SUB SWAP1 REVERT JUMPDEST PUSH2 0x3745 DUP10 PUSH1 0x0 PUSH2 0x5478 JUMP JUMPDEST POP PUSH2 0x377D JUMP JUMPDEST PUSH1 0x0 PUSH2 0x3759 DUP10 PUSH1 0x0 SHR PUSH2 0x1F0A JUMP JUMPDEST SWAP1 POP PUSH2 0x377B DUP2 DUP10 DUP12 PUSH1 0x0 SHR PUSH1 0x1 PUSH1 0x40 MLOAD DUP1 PUSH1 0x20 ADD PUSH1 0x40 MSTORE DUP1 PUSH1 0x0 DUP2 MSTORE POP PUSH2 0x578F JUMP JUMPDEST POP JUMPDEST POP POP POP POP POP POP POP POP JUMP JUMPDEST PUSH2 0x3791 DUP4 DUP4 PUSH2 0x47BE JUMP JUMPDEST PUSH2 0x379B DUP2 CALLER PUSH2 0x1CC9 JUMP JUMPDEST PUSH2 0x37DE JUMPI DUP1 CALLER PUSH1 0x40 MLOAD PUSH32 0xB455AAE800000000000000000000000000000000000000000000000000000000 DUP2 MSTORE PUSH1 0x4 ADD PUSH2 0x37D5 SWAP3 SWAP2 SWAP1 PUSH2 0x7952 JUMP JUMPDEST PUSH1 0x40 MLOAD DUP1 SWAP2 SUB SWAP1 REVERT JUMPDEST PUSH32 0xD051E4F8CB1870F877B00266E1292322BEA4C492A9933488E94D7C1A935E8DFA PUSH1 0x0 SHL DUP5 SUB PUSH2 0x383A JUMPI PUSH1 0x40 MLOAD PUSH32 0x615A470300000000000000000000000000000000000000000000000000000000 DUP2 MSTORE PUSH1 0x4 ADD PUSH1 0x40 MLOAD DUP1 SWAP2 SUB SWAP1 REVERT JUMPDEST PUSH1 0x0 PUSH20 0xFFFFFFFFFFFFFFFFFFFFFFFFFFFFFFFFFFFFFFFF AND DUP3 PUSH20 0xFFFFFFFFFFFFFFFFFFFFFFFFFFFFFFFFFFFFFFFF AND EQ DUP1 PUSH2 0x38A0 JUMPI POP ADDRESS PUSH20 0xFFFFFFFFFFFFFFFFFFFFFFFFFFFFFFFFFFFFFFFF AND DUP3 PUSH20 0xFFFFFFFFFFFFFFFFFFFFFFFFFFFFFFFFFFFFFFFF AND EQ JUMPDEST ISZERO PUSH2 0x38E2 JUMPI DUP2 PUSH1 0x40 MLOAD PUSH32 0x5949361A00000000000000000000000000000000000000000000000000000000 DUP2 MSTORE PUSH1 0x4 ADD PUSH2 0x38D9 SWAP2 SWAP1 PUSH2 0x648F JUMP JUMPDEST PUSH1 0x40 MLOAD DUP1 SWAP2 SUB SWAP1 REVERT JUMPDEST PUSH2 0x38F5 PUSH2 0x38EF DUP6 DUP6 PUSH2 0x47BE JUMP JUMPDEST DUP4 PUSH2 0x5478 JUMP JUMPDEST POP POP POP POP JUMP JUMPDEST PUSH1 0x0 DUP1 PUSH2 0x3908 DUP5 DUP5 PUSH2 0x47BE JUMP JUMPDEST SWAP1 POP PUSH1 0x0 PUSH2 0x3915 DUP3 PUSH2 0x4B65 JUMP JUMPDEST SWAP1 POP PUSH32 0xD051E4F8CB1870F877B00266E1292322BEA4C492A9933488E94D7C1A935E8DFA PUSH1 0x0 SHL DUP6 EQ PUSH2 0x394B JUMPI DUP1 SWAP3 POP POP POP PUSH2 0x3A25 JUMP JUMPDEST PUSH32 0x0 PUSH20 0xFFFFFFFFFFFFFFFFFFFFFFFFFFFFFFFFFFFFFFFF AND PUSH4 0x6352211E DUP6 PUSH1 0x0 SHR PUSH1 0x40 MLOAD DUP3 PUSH4 0xFFFFFFFF AND PUSH1 0xE0 SHL DUP2 MSTORE PUSH1 0x4 ADD PUSH2 0x39A7 SWAP2 SWAP1 PUSH2 0x6252 JUMP JUMPDEST PUSH1 0x20 PUSH1 0x40 MLOAD DUP1 DUP4 SUB DUP2 DUP7 GAS STATICCALL SWAP3 POP POP POP DUP1 ISZERO PUSH2 0x39E1 JUMPI POP PUSH1 0x40 MLOAD RETURNDATASIZE PUSH1 0x1F NOT PUSH1 0x1F DUP3 ADD AND DUP3 ADD DUP1 PUSH1 0x40 MSTORE POP DUP2 ADD SWAP1 PUSH2 0x39DE SWAP2 SWAP1 PUSH2 0x7F22 JUMP JUMPDEST PUSH1 0x1 JUMPDEST PUSH2 0x39F0 JUMPI PUSH1 0x0 SWAP3 POP POP POP PUSH2 0x3A25 JUMP JUMPDEST ADDRESS PUSH20 0xFFFFFFFFFFFFFFFFFFFFFFFFFFFFFFFFFFFFFFFF AND DUP2 PUSH20 0xFFFFFFFFFFFFFFFFFFFFFFFFFFFFFFFFFFFFFFFF AND EQ SWAP4 POP POP POP POP JUMPDEST SWAP3 SWAP2 POP POP JUMP JUMPDEST PUSH1 0x4 PUSH1 0x20 MSTORE DUP1 PUSH1 0x0 MSTORE PUSH1 0x40 PUSH1 0x0 KECCAK256 PUSH1 0x0 SWAP2 POP SLOAD SWAP1 PUSH2 0x100 EXP SWAP1 DIV PUSH1 0xFF AND DUP2 JUMP JUMPDEST PUSH2 0x3A53 PUSH2 0x4740 JUMP JUMPDEST DUP1 PUSH1 0x4 PUSH1 0x0 DUP5 PUSH20 0xFFFFFFFFFFFFFFFFFFFFFFFFFFFFFFFFFFFFFFFF AND PUSH20 0xFFFFFFFFFFFFFFFFFFFFFFFFFFFFFFFFFFFFFFFF AND DUP2 MSTORE PUSH1 0x20 ADD SWAP1 DUP2 MSTORE PUSH1 0x20 ADD PUSH1 0x0 KECCAK256 PUSH1 0x0 PUSH2 0x100 EXP DUP2 SLOAD DUP2 PUSH1 0xFF MUL NOT AND SWAP1 DUP4 ISZERO ISZERO MUL OR SWAP1 SSTORE POP DUP2 PUSH20 0xFFFFFFFFFFFFFFFFFFFFFFFFFFFFFFFFFFFFFFFF AND PUSH32 0x4C97694570A07277810AF7E5669FFD5F6A2D6B74B6E9A274B8B870FD5114CF87 DUP3 PUSH1 0x40 MLOAD PUSH2 0x3AF0 SWAP2 SWAP1 PUSH2 0x63C2 JUMP JUMPDEST PUSH1 0x40 MLOAD DUP1 SWAP2 SUB SWAP1 LOG2 POP POP JUMP JUMPDEST PUSH1 0x0 PUSH1 0x2 PUSH1 0x0 DUP5 PUSH20 0xFFFFFFFFFFFFFFFFFFFFFFFFFFFFFFFFFFFFFFFF AND PUSH20 0xFFFFFFFFFFFFFFFFFFFFFFFFFFFFFFFFFFFFFFFF AND DUP2 MSTORE PUSH1 0x20 ADD SWAP1 DUP2 MSTORE PUSH1 0x20 ADD PUSH1 0x0 KECCAK256 PUSH1 0x0 DUP4 PUSH20 0xFFFFFFFFFFFFFFFFFFFFFFFFFFFFFFFFFFFFFFFF AND PUSH20 0xFFFFFFFFFFFFFFFFFFFFFFFFFFFFFFFFFFFFFFFF AND DUP2 MSTORE PUSH1 0x20 ADD SWAP1 DUP2 MSTORE PUSH1 0x20 ADD PUSH1 0x0 KECCAK256 PUSH1 0x0 SWAP1 SLOAD SWAP1 PUSH2 0x100 EXP SWAP1 DIV PUSH1 0xFF AND SWAP1 POP SWAP3 SWAP2 POP POP JUMP JUMPDEST PUSH1 0x0 DUP1 PUSH2 0x3BEB PUSH1 0x0 DUP8 DUP8 DUP1 DUP1 PUSH1 0x1F ADD PUSH1 0x20 DUP1 SWAP2 DIV MUL PUSH1 0x20 ADD PUSH1 0x40 MLOAD SWAP1 DUP2 ADD PUSH1 0x40 MSTORE DUP1 SWAP4 SWAP3 SWAP2 SWAP1 DUP2 DUP2 MSTORE PUSH1 0x20 ADD DUP4 DUP4 DUP1 DUP3 DUP5 CALLDATACOPY PUSH1 0x0 DUP2 DUP5 ADD MSTORE PUSH1 0x1F NOT PUSH1 0x1F DUP3 ADD AND SWAP1 POP DUP1 DUP4 ADD SWAP3 POP POP POP POP POP POP POP PUSH2 0x5906 SWAP1 SWAP2 SWAP1 PUSH4 0xFFFFFFFF AND JUMP JUMPDEST SWAP2 POP SWAP2 POP PUSH1 0x0 PUSH2 0x3C48 DUP3 DUP9 DUP9 DUP1 DUP1 PUSH1 0x1F ADD PUSH1 0x20 DUP1 SWAP2 DIV MUL PUSH1 0x20 ADD PUSH1 0x40 MLOAD SWAP1 DUP2 ADD PUSH1 0x40 MSTORE DUP1 SWAP4 SWAP3 SWAP2 SWAP1 DUP2 DUP2 MSTORE PUSH1 0x20 ADD DUP4 DUP4 DUP1 DUP3 DUP5 CALLDATACOPY PUSH1 0x0 DUP2 DUP5 ADD MSTORE PUSH1 0x1F NOT PUSH1 0x1F DUP3 ADD AND SWAP1 POP DUP1 DUP4 ADD SWAP3 POP POP POP POP POP POP POP PUSH2 0x55EB SWAP1 SWAP2 SWAP1 PUSH4 0xFFFFFFFF AND JUMP JUMPDEST SWAP1 POP PUSH1 0x0 PUSH2 0x3C56 DUP3 DUP6 PUSH2 0x47BE JUMP JUMPDEST SWAP1 POP DUP8 DUP8 PUSH1 0x6 PUSH1 0x0 DUP5 DUP2 MSTORE PUSH1 0x20 ADD SWAP1 DUP2 MSTORE PUSH1 0x20 ADD PUSH1 0x0 KECCAK256 SWAP2 DUP3 PUSH2 0x3C7A SWAP3 SWAP2 SWAP1 PUSH2 0x8584 JUMP JUMPDEST POP PUSH32 0xD051E4F8CB1870F877B00266E1292322BEA4C492A9933488E94D7C1A935E8DFA PUSH1 0x0 SHL DUP3 SUB PUSH2 0x3CD7 JUMPI PUSH1 0x40 MLOAD PUSH32 0x615A470300000000000000000000000000000000000000000000000000000000 DUP2 MSTORE PUSH1 0x4 ADD PUSH1 0x40 MLOAD DUP1 SWAP2 SUB SWAP1 REVERT JUMPDEST PUSH1 0x0 PUSH32 0x0 PUSH20 0xFFFFFFFFFFFFFFFFFFFFFFFFFFFFFFFFFFFFFFFF AND PUSH4 0x2571BE3 DUP4 PUSH1 0x40 MLOAD DUP3 PUSH4 0xFFFFFFFF AND PUSH1 0xE0 SHL DUP2 MSTORE PUSH1 0x4 ADD PUSH2 0x3D32 SWAP2 SWAP1 PUSH2 0x6A55 JUMP JUMPDEST PUSH1 0x20 PUSH1 0x40 MLOAD DUP1 DUP4 SUB DUP2 DUP7 GAS STATICCALL ISZERO DUP1 ISZERO PUSH2 0x3D4F JUMPI RETURNDATASIZE PUSH1 0x0 DUP1 RETURNDATACOPY RETURNDATASIZE PUSH1 0x0 REVERT JUMPDEST POP POP POP POP PUSH1 0x40 MLOAD RETURNDATASIZE PUSH1 0x1F NOT PUSH1 0x1F DUP3 ADD AND DUP3 ADD DUP1 PUSH1 0x40 MSTORE POP DUP2 ADD SWAP1 PUSH2 0x3D73 SWAP2 SWAP1 PUSH2 0x7F22 JUMP JUMPDEST SWAP1 POP CALLER PUSH20 0xFFFFFFFFFFFFFFFFFFFFFFFFFFFFFFFFFFFFFFFF AND DUP2 PUSH20 0xFFFFFFFFFFFFFFFFFFFFFFFFFFFFFFFFFFFFFFFF AND EQ ISZERO DUP1 ISZERO PUSH2 0x3E4A JUMPI POP PUSH32 0x0 PUSH20 0xFFFFFFFFFFFFFFFFFFFFFFFFFFFFFFFFFFFFFFFF AND PUSH4 0xE985E9C5 DUP3 CALLER PUSH1 0x40 MLOAD DUP4 PUSH4 0xFFFFFFFF AND PUSH1 0xE0 SHL DUP2 MSTORE PUSH1 0x4 ADD PUSH2 0x3E07 SWAP3 SWAP2 SWAP1 PUSH2 0x80A3 JUMP JUMPDEST PUSH1 0x20 PUSH1 0x40 MLOAD DUP1 DUP4 SUB DUP2 DUP7 GAS STATICCALL ISZERO DUP1 ISZERO PUSH2 0x3E24 JUMPI RETURNDATASIZE PUSH1 0x0 DUP1 RETURNDATACOPY RETURNDATASIZE PUSH1 0x0 REVERT JUMPDEST POP POP POP POP PUSH1 0x40 MLOAD RETURNDATASIZE PUSH1 0x1F NOT PUSH1 0x1F DUP3 ADD AND DUP3 ADD DUP1 PUSH1 0x40 MSTORE POP DUP2 ADD SWAP1 PUSH2 0x3E48 SWAP2 SWAP1 PUSH2 0x7FF6 JUMP JUMPDEST ISZERO JUMPDEST ISZERO PUSH2 0x3E8E JUMPI DUP2 CALLER PUSH1 0x40 MLOAD PUSH32 0xB455AAE800000000000000000000000000000000000000000000000000000000 DUP2 MSTORE PUSH1 0x4 ADD PUSH2 0x3E85 SWAP3 SWAP2 SWAP1 PUSH2 0x7952 JUMP JUMPDEST PUSH1 0x40 MLOAD DUP1 SWAP2 SUB SWAP1 REVERT JUMPDEST PUSH1 0x0 PUSH20 0xFFFFFFFFFFFFFFFFFFFFFFFFFFFFFFFFFFFFFFFF AND DUP7 PUSH20 0xFFFFFFFFFFFFFFFFFFFFFFFFFFFFFFFFFFFFFFFF AND EQ PUSH2 0x3F50 JUMPI PUSH32 0x0 PUSH20 0xFFFFFFFFFFFFFFFFFFFFFFFFFFFFFFFFFFFFFFFF AND PUSH4 0x1896F70A DUP4 DUP9 PUSH1 0x40 MLOAD DUP4 PUSH4 0xFFFFFFFF AND PUSH1 0xE0 SHL DUP2 MSTORE PUSH1 0x4 ADD PUSH2 0x3F1D SWAP3 SWAP2 SWAP1 PUSH2 0x7952 JUMP JUMPDEST PUSH1 0x0 PUSH1 0x40 MLOAD DUP1 DUP4 SUB DUP2 PUSH1 0x0 DUP8 DUP1 EXTCODESIZE ISZERO DUP1 ISZERO PUSH2 0x3F37 JUMPI PUSH1 0x0 DUP1 REVERT JUMPDEST POP GAS CALL ISZERO DUP1 ISZERO PUSH2 0x3F4B JUMPI RETURNDATASIZE PUSH1 0x0 DUP1 RETURNDATACOPY RETURNDATASIZE PUSH1 0x0 REVERT JUMPDEST POP POP POP POP JUMPDEST PUSH32 0x0 PUSH20 0xFFFFFFFFFFFFFFFFFFFFFFFFFFFFFFFFFFFFFFFF AND PUSH4 0x5B0FC9C3 DUP4 ADDRESS PUSH1 0x40 MLOAD DUP4 PUSH4 0xFFFFFFFF AND PUSH1 0xE0 SHL DUP2 MSTORE PUSH1 0x4 ADD PUSH2 0x3FAB SWAP3 SWAP2 SWAP1 PUSH2 0x7952 JUMP JUMPDEST PUSH1 0x0 PUSH1 0x40 MLOAD DUP1 DUP4 SUB DUP2 PUSH1 0x0 DUP8 DUP1 EXTCODESIZE ISZERO DUP1 ISZERO PUSH2 0x3FC5 JUMPI PUSH1 0x0 DUP1 REVERT JUMPDEST POP GAS CALL ISZERO DUP1 ISZERO PUSH2 0x3FD9 JUMPI RETURNDATASIZE PUSH1 0x0 DUP1 RETURNDATACOPY RETURNDATASIZE PUSH1 0x0 REVERT JUMPDEST POP POP POP POP PUSH2 0x402F DUP3 DUP11 DUP11 DUP1 DUP1 PUSH1 0x1F ADD PUSH1 0x20 DUP1 SWAP2 DIV MUL PUSH1 0x20 ADD PUSH1 0x40 MLOAD SWAP1 DUP2 ADD PUSH1 0x40 MSTORE DUP1 SWAP4 SWAP3 SWAP2 SWAP1 DUP2 DUP2 MSTORE PUSH1 0x20 ADD DUP4 DUP4 DUP1 DUP3 DUP5 CALLDATACOPY PUSH1 0x0 DUP2 DUP5 ADD MSTORE PUSH1 0x1F NOT PUSH1 0x1F DUP3 ADD AND SWAP1 POP DUP1 DUP4 ADD SWAP3 POP POP POP POP POP POP POP DUP10 PUSH1 0x0 DUP1 PUSH2 0x559A JUMP JUMPDEST POP POP POP POP POP POP POP POP POP JUMP JUMPDEST PUSH1 0x1 PUSH1 0x20 MSTORE DUP1 PUSH1 0x0 MSTORE PUSH1 0x40 PUSH1 0x0 KECCAK256 PUSH1 0x0 SWAP2 POP SWAP1 POP SLOAD DUP2 JUMP JUMPDEST PUSH1 0x0 PUSH20 0xFFFFFFFFFFFFFFFFFFFFFFFFFFFFFFFFFFFFFFFF AND DUP5 PUSH20 0xFFFFFFFFFFFFFFFFFFFFFFFFFFFFFFFFFFFFFFFF AND SUB PUSH2 0x40C1 JUMPI PUSH1 0x40 MLOAD PUSH32 0x8C379A000000000000000000000000000000000000000000000000000000000 DUP2 MSTORE PUSH1 0x4 ADD PUSH2 0x40B8 SWAP1 PUSH2 0x7D1B JUMP JUMPDEST PUSH1 0x40 MLOAD DUP1 SWAP2 SUB SWAP1 REVERT JUMPDEST CALLER PUSH20 0xFFFFFFFFFFFFFFFFFFFFFFFFFFFFFFFFFFFFFFFF AND DUP6 PUSH20 0xFFFFFFFFFFFFFFFFFFFFFFFFFFFFFFFFFFFFFFFF AND EQ DUP1 PUSH2 0x4101 JUMPI POP PUSH2 0x4100 DUP6 CALLER PUSH2 0x3AFC JUMP JUMPDEST JUMPDEST PUSH2 0x4140 JUMPI PUSH1 0x40 MLOAD PUSH32 0x8C379A000000000000000000000000000000000000000000000000000000000 DUP2 MSTORE PUSH1 0x4 ADD PUSH2 0x4137 SWAP1 PUSH2 0x86C6 JUMP JUMPDEST PUSH1 0x40 MLOAD DUP1 SWAP2 SUB SWAP1 REVERT JUMPDEST PUSH2 0x414D DUP6 DUP6 DUP6 DUP6 DUP6 PUSH2 0x578F JUMP JUMPDEST POP POP POP POP POP JUMP JUMPDEST PUSH2 0x415C PUSH2 0x4740 JUMP JUMPDEST PUSH1 0x0 PUSH20 0xFFFFFFFFFFFFFFFFFFFFFFFFFFFFFFFFFFFFFFFF AND DUP2 PUSH20 0xFFFFFFFFFFFFFFFFFFFFFFFFFFFFFFFFFFFFFFFF AND SUB PUSH2 0x41CB JUMPI PUSH1 0x40 MLOAD PUSH32 0x8C379A000000000000000000000000000000000000000000000000000000000 DUP2 MSTORE PUSH1 0x4 ADD PUSH2 0x41C2 SWAP1 PUSH2 0x8758 JUMP JUMPDEST PUSH1 0x40 MLOAD DUP1 SWAP2 SUB SWAP1 REVERT JUMPDEST PUSH2 0x41D4 DUP2 PUSH2 0x53B4 JUMP JUMPDEST POP JUMP JUMPDEST PUSH1 0x0 DUP1 PUSH1 0x6 PUSH1 0x0 DUP5 DUP2 MSTORE PUSH1 0x20 ADD SWAP1 DUP2 MSTORE PUSH1 0x20 ADD PUSH1 0x0 KECCAK256 DUP1 SLOAD PUSH2 0x41F8 SWAP1 PUSH2 0x7B93 JUMP JUMPDEST DUP1 PUSH1 0x1F ADD PUSH1 0x20 DUP1 SWAP2 DIV MUL PUSH1 0x20 ADD PUSH1 0x40 MLOAD SWAP1 DUP2 ADD PUSH1 0x40 MSTORE DUP1 SWAP3 SWAP2 SWAP1 DUP2 DUP2 MSTORE PUSH1 0x20 ADD DUP3 DUP1 SLOAD PUSH2 0x4224 SWAP1 PUSH2 0x7B93 JUMP JUMPDEST DUP1 ISZERO PUSH2 0x4271 JUMPI DUP1 PUSH1 0x1F LT PUSH2 0x4246 JUMPI PUSH2 0x100 DUP1 DUP4 SLOAD DIV MUL DUP4 MSTORE SWAP2 PUSH1 0x20 ADD SWAP2 PUSH2 0x4271 JUMP JUMPDEST DUP3 ADD SWAP2 SWAP1 PUSH1 0x0 MSTORE PUSH1 0x20 PUSH1 0x0 KECCAK256 SWAP1 JUMPDEST DUP2 SLOAD DUP2 MSTORE SWAP1 PUSH1 0x1 ADD SWAP1 PUSH1 0x20 ADD DUP1 DUP4 GT PUSH2 0x4254 JUMPI DUP3 SWAP1 SUB PUSH1 0x1F AND DUP3 ADD SWAP2 JUMPDEST POP POP POP POP POP SWAP1 POP PUSH1 0x0 DUP2 MLOAD SUB PUSH2 0x428B JUMPI PUSH1 0x0 SWAP2 POP POP PUSH2 0x42CE JUMP JUMPDEST PUSH1 0x0 DUP1 PUSH2 0x42A2 PUSH1 0x0 DUP5 PUSH2 0x5906 SWAP1 SWAP2 SWAP1 PUSH4 0xFFFFFFFF AND JUMP JUMPDEST SWAP2 POP SWAP2 POP PUSH1 0x0 PUSH2 0x42BB DUP3 DUP6 PUSH2 0x55EB SWAP1 SWAP2 SWAP1 PUSH4 0xFFFFFFFF AND JUMP JUMPDEST SWAP1 POP PUSH2 0x42C7 DUP2 DUP5 PUSH2 0x38FB JUMP JUMPDEST SWAP5 POP POP POP POP POP JUMPDEST SWAP2 SWAP1 POP JUMP JUMPDEST PUSH1 0x0 DUP1 PUSH1 0x0 DUP1 PUSH1 0x1 PUSH1 0x0 DUP7 DUP2 MSTORE PUSH1 0x20 ADD SWAP1 DUP2 MSTORE PUSH1 0x20 ADD PUSH1 0x0 KECCAK256 SLOAD SWAP1 POP DUP1 SWAP4 POP PUSH1 0xC0 DUP2 SWAP1 SHR SWAP2 POP PUSH1 0xA0 DUP2 SWAP1 SHR SWAP3 POP POP SWAP2 SWAP4 SWAP1 SWAP3 POP JUMP JUMPDEST PUSH1 0x0 DUP1 TIMESTAMP DUP4 PUSH8 0xFFFFFFFFFFFFFFFF AND LT ISZERO PUSH2 0x4342 JUMPI PUSH3 0x10000 PUSH4 0xFFFFFFFF AND PUSH3 0x10000 DUP6 AND PUSH4 0xFFFFFFFF AND SUB PUSH2 0x433D JUMPI PUSH1 0x0 SWAP5 POP JUMPDEST PUSH1 0x0 SWAP4 POP JUMPDEST DUP5 DUP5 SWAP2 POP SWAP2 POP SWAP4 POP SWAP4 SWAP2 POP POP JUMP JUMPDEST PUSH1 0x0 PUSH32 0xD9B67A2600000000000000000000000000000000000000000000000000000000 PUSH28 0xFFFFFFFFFFFFFFFFFFFFFFFFFFFFFFFFFFFFFFFFFFFFFFFFFFFFFFFF NOT AND DUP3 PUSH28 0xFFFFFFFFFFFFFFFFFFFFFFFFFFFFFFFFFFFFFFFFFFFFFFFFFFFFFFFF NOT AND EQ DUP1 PUSH2 0x441B JUMPI POP PUSH32 0xE89341C00000000000000000000000000000000000000000000000000000000 PUSH28 0xFFFFFFFFFFFFFFFFFFFFFFFFFFFFFFFFFFFFFFFFFFFFFFFFFFFFFFFF NOT AND DUP3 PUSH28 0xFFFFFFFFFFFFFFFFFFFFFFFFFFFFFFFFFFFFFFFFFFFFFFFFFFFFFFFF NOT AND EQ JUMPDEST DUP1 PUSH2 0x442B JUMPI POP PUSH2 0x442A DUP3 PUSH2 0x59C4 JUMP JUMPDEST JUMPDEST SWAP1 POP SWAP2 SWAP1 POP JUMP JUMPDEST PUSH1 0x0 PUSH1 0x3 PUSH1 0x0 DUP4 DUP2 MSTORE PUSH1 0x20 ADD SWAP1 DUP2 MSTORE PUSH1 0x20 ADD PUSH1 0x0 KECCAK256 PUSH1 0x0 SWAP1 SLOAD SWAP1 PUSH2 0x100 EXP SWAP1 DIV PUSH20 0xFFFFFFFFFFFFFFFFFFFFFFFFFFFFFFFFFFFFFFFF AND SWAP1 POP SWAP2 SWAP1 POP JUMP JUMPDEST PUSH1 0x0 PUSH2 0x447A DUP3 PUSH2 0x1F0A JUMP JUMPDEST SWAP1 POP DUP1 PUSH20 0xFFFFFFFFFFFFFFFFFFFFFFFFFFFFFFFFFFFFFFFF AND DUP4 PUSH20 0xFFFFFFFFFFFFFFFFFFFFFFFFFFFFFFFFFFFFFFFF AND SUB PUSH2 0x44EA JUMPI PUSH1 0x40 MLOAD PUSH32 0x8C379A000000000000000000000000000000000000000000000000000000000 DUP2 MSTORE PUSH1 0x4 ADD PUSH2 0x44E1 SWAP1 PUSH2 0x87EA JUMP JUMPDEST PUSH1 0x40 MLOAD DUP1 SWAP2 SUB SWAP1 REVERT JUMPDEST DUP1 PUSH20 0xFFFFFFFFFFFFFFFFFFFFFFFFFFFFFFFFFFFFFFFF AND CALLER PUSH20 0xFFFFFFFFFFFFFFFFFFFFFFFFFFFFFFFFFFFFFFFF AND EQ DUP1 PUSH2 0x452A JUMPI POP PUSH2 0x4529 DUP2 CALLER PUSH2 0x3AFC JUMP JUMPDEST JUMPDEST PUSH2 0x4569 JUMPI PUSH1 0x40 MLOAD PUSH32 0x8C379A000000000000000000000000000000000000000000000000000000000 DUP2 MSTORE PUSH1 0x4 ADD PUSH2 0x4560 SWAP1 PUSH2 0x887C JUMP JUMPDEST PUSH1 0x40 MLOAD DUP1 SWAP2 SUB SWAP1 REVERT JUMPDEST PUSH2 0x4573 DUP4 DUP4 PUSH2 0x5A2E JUMP JUMPDEST POP POP POP JUMP JUMPDEST PUSH1 0x0 PUSH3 0x20000 PUSH4 0xFFFFFFFF AND PUSH3 0x20000 DUP5 AND PUSH4 0xFFFFFFFF AND EQ DUP1 ISZERO PUSH2 0x45B4 JUMPI POP TIMESTAMP PUSH3 0x76A700 DUP4 PUSH2 0x45A8 SWAP2 SWAP1 PUSH2 0x889C JUMP JUMPDEST PUSH8 0xFFFFFFFFFFFFFFFF AND LT JUMPDEST SWAP1 POP SWAP3 SWAP2 POP POP JUMP JUMPDEST PUSH1 0x0 DUP6 DUP1 MLOAD SWAP1 PUSH1 0x20 ADD KECCAK256 SWAP1 POP PUSH1 0x0 PUSH2 0x45F7 PUSH32 0xD051E4F8CB1870F877B00266E1292322BEA4C492A9933488E94D7C1A935E8DFA PUSH1 0x0 SHL DUP4 PUSH2 0x47BE JUMP JUMPDEST SWAP1 POP PUSH1 0x0 PUSH2 0x463A DUP9 PUSH1 0x40 MLOAD DUP1 PUSH1 0x40 ADD PUSH1 0x40 MSTORE DUP1 PUSH1 0x8 DUP2 MSTORE PUSH1 0x20 ADD PUSH32 0x47363726F6C6C00000000000000000000000000000000000000000000000000 DUP2 MSTORE POP PUSH2 0x5AE7 JUMP JUMPDEST SWAP1 POP DUP1 PUSH1 0x6 PUSH1 0x0 DUP5 DUP2 MSTORE PUSH1 0x20 ADD SWAP1 DUP2 MSTORE PUSH1 0x20 ADD PUSH1 0x0 KECCAK256 SWAP1 DUP2 PUSH2 0x465C SWAP2 SWAP1 PUSH2 0x88D8 JUMP JUMPDEST POP PUSH2 0x4674 DUP3 DUP3 DUP10 PUSH3 0x20000 PUSH3 0x10000 DUP12 OR OR DUP10 PUSH2 0x559A JUMP JUMPDEST PUSH1 0x0 PUSH20 0xFFFFFFFFFFFFFFFFFFFFFFFFFFFFFFFFFFFFFFFF AND DUP5 PUSH20 0xFFFFFFFFFFFFFFFFFFFFFFFFFFFFFFFFFFFFFFFF AND EQ PUSH2 0x4736 JUMPI PUSH32 0x0 PUSH20 0xFFFFFFFFFFFFFFFFFFFFFFFFFFFFFFFFFFFFFFFF AND PUSH4 0x1896F70A DUP4 DUP7 PUSH1 0x40 MLOAD DUP4 PUSH4 0xFFFFFFFF AND PUSH1 0xE0 SHL DUP2 MSTORE PUSH1 0x4 ADD PUSH2 0x4703 SWAP3 SWAP2 SWAP1 PUSH2 0x7952 JUMP JUMPDEST PUSH1 0x0 PUSH1 0x40 MLOAD DUP1 DUP4 SUB DUP2 PUSH1 0x0 DUP8 DUP1 EXTCODESIZE ISZERO DUP1 ISZERO PUSH2 0x471D JUMPI PUSH1 0x0 DUP1 REVERT JUMPDEST POP GAS CALL ISZERO DUP1 ISZERO PUSH2 0x4731 JUMPI RETURNDATASIZE PUSH1 0x0 DUP1 RETURNDATACOPY RETURNDATASIZE PUSH1 0x0 REVERT JUMPDEST POP POP POP POP JUMPDEST POP POP POP POP POP POP POP POP JUMP JUMPDEST PUSH2 0x4748 PUSH2 0x5B99 JUMP JUMPDEST PUSH20 0xFFFFFFFFFFFFFFFFFFFFFFFFFFFFFFFFFFFFFFFF AND PUSH2 0x4766 PUSH2 0x26AE JUMP JUMPDEST PUSH20 0xFFFFFFFFFFFFFFFFFFFFFFFFFFFFFFFFFFFFFFFF AND EQ PUSH2 0x47BC JUMPI PUSH1 0x40 MLOAD PUSH32 0x8C379A000000000000000000000000000000000000000000000000000000000 DUP2 MSTORE PUSH1 0x4 ADD PUSH2 0x47B3 SWAP1 PUSH2 0x89F6 JUMP JUMPDEST PUSH1 0x40 MLOAD DUP1 SWAP2 SUB SWAP1 REVERT JUMPDEST JUMP JUMPDEST PUSH1 0x0 DUP3 DUP3 PUSH1 0x40 MLOAD PUSH1 0x20 ADD PUSH2 0x47D3 SWAP3 SWAP2 SWAP1 PUSH2 0x8A37 JUMP JUMPDEST PUSH1 0x40 MLOAD PUSH1 0x20 DUP2 DUP4 SUB SUB DUP2 MSTORE SWAP1 PUSH1 0x40 MSTORE DUP1 MLOAD SWAP1 PUSH1 0x20 ADD KECCAK256 SWAP1 POP SWAP3 SWAP2 POP POP JUMP JUMPDEST PUSH1 0x0 DUP1 PUSH1 0x0 PUSH2 0x4802 DUP5 PUSH1 0x0 SHR PUSH2 0xA86 JUMP JUMPDEST SWAP3 POP SWAP3 POP SWAP3 POP PUSH1 0x0 TIMESTAMP DUP3 PUSH8 0xFFFFFFFFFFFFFFFF AND LT SWAP1 POP DUP1 DUP1 ISZERO PUSH2 0x4922 JUMPI POP PUSH1 0x0 PUSH20 0xFFFFFFFFFFFFFFFFFFFFFFFFFFFFFFFFFFFFFFFF AND DUP5 PUSH20 0xFFFFFFFFFFFFFFFFFFFFFFFFFFFFFFFFFFFFFFFF AND EQ DUP1 PUSH2 0x4921 JUMPI POP PUSH1 0x0 PUSH20 0xFFFFFFFFFFFFFFFFFFFFFFFFFFFFFFFFFFFFFFFF AND PUSH32 0x0 PUSH20 0xFFFFFFFFFFFFFFFFFFFFFFFFFFFFFFFFFFFFFFFF AND PUSH4 0x2571BE3 DUP8 PUSH1 0x40 MLOAD DUP3 PUSH4 0xFFFFFFFF AND PUSH1 0xE0 SHL DUP2 MSTORE PUSH1 0x4 ADD PUSH2 0x48C8 SWAP2 SWAP1 PUSH2 0x6A55 JUMP JUMPDEST PUSH1 0x20 PUSH1 0x40 MLOAD DUP1 DUP4 SUB DUP2 DUP7 GAS STATICCALL ISZERO DUP1 ISZERO PUSH2 0x48E5 JUMPI RETURNDATASIZE PUSH1 0x0 DUP1 RETURNDATACOPY RETURNDATASIZE PUSH1 0x0 REVERT JUMPDEST POP POP POP POP PUSH1 0x40 MLOAD RETURNDATASIZE PUSH1 0x1F NOT PUSH1 0x1F DUP3 ADD AND DUP3 ADD DUP1 PUSH1 0x40 MSTORE POP DUP2 ADD SWAP1 PUSH2 0x4909 SWAP2 SWAP1 PUSH2 0x7F22 JUMP JUMPDEST PUSH20 0xFFFFFFFFFFFFFFFFFFFFFFFFFFFFFFFFFFFFFFFF AND EQ JUMPDEST JUMPDEST ISZERO PUSH2 0x498D JUMPI PUSH1 0x0 PUSH2 0x4935 DUP8 PUSH1 0x0 SHR PUSH2 0xA86 JUMP JUMPDEST POP SWAP2 POP POP PUSH1 0x0 PUSH1 0x20 DUP3 AND PUSH4 0xFFFFFFFF AND EQ PUSH2 0x4987 JUMPI DUP6 PUSH1 0x40 MLOAD PUSH32 0xA2A7201300000000000000000000000000000000000000000000000000000000 DUP2 MSTORE PUSH1 0x4 ADD PUSH2 0x497E SWAP2 SWAP1 PUSH2 0x6A55 JUMP JUMPDEST PUSH1 0x40 MLOAD DUP1 SWAP2 SUB SWAP1 REVERT JUMPDEST POP PUSH2 0x49DE JUMP JUMPDEST PUSH1 0x0 PUSH3 0x10000 DUP5 AND PUSH4 0xFFFFFFFF AND EQ PUSH2 0x49DD JUMPI DUP5 PUSH1 0x40 MLOAD PUSH32 0xA2A7201300000000000000000000000000000000000000000000000000000000 DUP2 MSTORE PUSH1 0x4 ADD PUSH2 0x49D4 SWAP2 SWAP1 PUSH2 0x6A55 JUMP JUMPDEST PUSH1 0x40 MLOAD DUP1 SWAP2 SUB SWAP1 REVERT JUMPDEST JUMPDEST POP POP POP POP POP POP JUMP JUMPDEST PUSH4 0xFFFDFFFF PUSH4 0xFFFFFFFF AND PUSH4 0xFFFDFFFF DUP3 OR PUSH4 0xFFFFFFFF AND EQ PUSH2 0x4A40 JUMPI DUP2 PUSH1 0x40 MLOAD PUSH32 0xA2A7201300000000000000000000000000000000000000000000000000000000 DUP2 MSTORE PUSH1 0x4 ADD PUSH2 0x4A37 SWAP2 SWAP1 PUSH2 0x6A55 JUMP JUMPDEST PUSH1 0x40 MLOAD DUP1 SWAP2 SUB SWAP1 REVERT JUMPDEST POP POP JUMP JUMPDEST PUSH1 0x60 PUSH1 0x0 PUSH2 0x4AED DUP4 PUSH1 0x6 PUSH1 0x0 DUP9 DUP2 MSTORE PUSH1 0x20 ADD SWAP1 DUP2 MSTORE PUSH1 0x20 ADD PUSH1 0x0 KECCAK256 DUP1 SLOAD PUSH2 0x4A6A SWAP1 PUSH2 0x7B93 JUMP JUMPDEST DUP1 PUSH1 0x1F ADD PUSH1 0x20 DUP1 SWAP2 DIV MUL PUSH1 0x20 ADD PUSH1 0x40 MLOAD SWAP1 DUP2 ADD PUSH1 0x40 MSTORE DUP1 SWAP3 SWAP2 SWAP1 DUP2 DUP2 MSTORE PUSH1 0x20 ADD DUP3 DUP1 SLOAD PUSH2 0x4A96 SWAP1 PUSH2 0x7B93 JUMP JUMPDEST DUP1 ISZERO PUSH2 0x4AE3 JUMPI DUP1 PUSH1 0x1F LT PUSH2 0x4AB8 JUMPI PUSH2 0x100 DUP1 DUP4 SLOAD DIV MUL DUP4 MSTORE SWAP2 PUSH1 0x20 ADD SWAP2 PUSH2 0x4AE3 JUMP JUMPDEST DUP3 ADD SWAP2 SWAP1 PUSH1 0x0 MSTORE PUSH1 0x20 PUSH1 0x0 KECCAK256 SWAP1 JUMPDEST DUP2 SLOAD DUP2 MSTORE SWAP1 PUSH1 0x1 ADD SWAP1 PUSH1 0x20 ADD DUP1 DUP4 GT PUSH2 0x4AC6 JUMPI DUP3 SWAP1 SUB PUSH1 0x1F AND DUP3 ADD SWAP2 JUMPDEST POP POP POP POP POP PUSH2 0x5AE7 JUMP JUMPDEST SWAP1 POP DUP1 PUSH1 0x6 PUSH1 0x0 DUP7 DUP2 MSTORE PUSH1 0x20 ADD SWAP1 DUP2 MSTORE PUSH1 0x20 ADD PUSH1 0x0 KECCAK256 SWAP1 DUP2 PUSH2 0x4B0F SWAP2 SWAP1 PUSH2 0x88D8 JUMP JUMPDEST POP DUP1 SWAP2 POP POP SWAP4 SWAP3 POP POP POP JUMP JUMPDEST PUSH1 0x0 DUP1 PUSH2 0x4B2A DUP6 PUSH1 0x0 SHR PUSH2 0xA86 JUMP JUMPDEST SWAP3 POP POP POP PUSH1 0x0 DUP1 PUSH2 0x4B3D DUP9 PUSH1 0x0 SHR PUSH2 0xA86 JUMP JUMPDEST SWAP3 POP SWAP3 POP POP PUSH2 0x4B4D DUP8 DUP8 DUP5 PUSH2 0x5219 JUMP JUMPDEST PUSH2 0x4B58 DUP6 DUP5 DUP4 PUSH2 0x5290 JUMP JUMPDEST SWAP4 POP POP POP POP SWAP5 SWAP4 POP POP POP POP JUMP JUMPDEST PUSH1 0x0 DUP1 PUSH20 0xFFFFFFFFFFFFFFFFFFFFFFFFFFFFFFFFFFFFFFFF AND PUSH2 0x4B8A DUP4 PUSH1 0x0 SHR PUSH2 0x1F0A JUMP JUMPDEST PUSH20 0xFFFFFFFFFFFFFFFFFFFFFFFFFFFFFFFFFFFFFFFF AND EQ ISZERO DUP1 ISZERO PUSH2 0x4C72 JUMPI POP ADDRESS PUSH20 0xFFFFFFFFFFFFFFFFFFFFFFFFFFFFFFFFFFFFFFFF AND PUSH32 0x0 PUSH20 0xFFFFFFFFFFFFFFFFFFFFFFFFFFFFFFFFFFFFFFFF AND PUSH4 0x2571BE3 DUP5 PUSH1 0x40 MLOAD DUP3 PUSH4 0xFFFFFFFF AND PUSH1 0xE0 SHL DUP2 MSTORE PUSH1 0x4 ADD PUSH2 0x4C19 SWAP2 SWAP1 PUSH2 0x6A55 JUMP JUMPDEST PUSH1 0x20 PUSH1 0x40 MLOAD DUP1 DUP4 SUB DUP2 DUP7 GAS STATICCALL ISZERO DUP1 ISZERO PUSH2 0x4C36 JUMPI RETURNDATASIZE PUSH1 0x0 DUP1 RETURNDATACOPY RETURNDATASIZE PUSH1 0x0 REVERT JUMPDEST POP POP POP POP PUSH1 0x40 MLOAD RETURNDATASIZE PUSH1 0x1F NOT PUSH1 0x1F DUP3 ADD AND DUP3 ADD DUP1 PUSH1 0x40 MSTORE POP DUP2 ADD SWAP1 PUSH2 0x4C5A SWAP2 SWAP1 PUSH2 0x7F22 JUMP JUMPDEST PUSH20 0xFFFFFFFFFFFFFFFFFFFFFFFFFFFFFFFFFFFFFFFF AND EQ JUMPDEST SWAP1 POP SWAP2 SWAP1 POP JUMP JUMPDEST PUSH1 0x0 PUSH2 0x4D20 DUP6 PUSH1 0x6 PUSH1 0x0 DUP11 DUP2 MSTORE PUSH1 0x20 ADD SWAP1 DUP2 MSTORE PUSH1 0x20 ADD PUSH1 0x0 KECCAK256 DUP1 SLOAD PUSH2 0x4C9D SWAP1 PUSH2 0x7B93 JUMP JUMPDEST DUP1 PUSH1 0x1F ADD PUSH1 0x20 DUP1 SWAP2 DIV MUL PUSH1 0x20 ADD PUSH1 0x40 MLOAD SWAP1 DUP2 ADD PUSH1 0x40 MSTORE DUP1 SWAP3 SWAP2 SWAP1 DUP2 DUP2 MSTORE PUSH1 0x20 ADD DUP3 DUP1 SLOAD PUSH2 0x4CC9 SWAP1 PUSH2 0x7B93 JUMP JUMPDEST DUP1 ISZERO PUSH2 0x4D16 JUMPI DUP1 PUSH1 0x1F LT PUSH2 0x4CEB JUMPI PUSH2 0x100 DUP1 DUP4 SLOAD DIV MUL DUP4 MSTORE SWAP2 PUSH1 0x20 ADD SWAP2 PUSH2 0x4D16 JUMP JUMPDEST DUP3 ADD SWAP2 SWAP1 PUSH1 0x0 MSTORE PUSH1 0x20 PUSH1 0x0 KECCAK256 SWAP1 JUMPDEST DUP2 SLOAD DUP2 MSTORE SWAP1 PUSH1 0x1 ADD SWAP1 PUSH1 0x20 ADD DUP1 DUP4 GT PUSH2 0x4CF9 JUMPI DUP3 SWAP1 SUB PUSH1 0x1F AND DUP3 ADD SWAP2 JUMPDEST POP POP POP POP POP PUSH2 0x5AE7 JUMP JUMPDEST SWAP1 POP PUSH2 0x4D2F DUP7 DUP3 DUP7 DUP7 DUP7 PUSH2 0x559A JUMP JUMPDEST POP POP POP POP POP POP POP JUMP JUMPDEST PUSH1 0x0 DUP1 PUSH1 0x0 PUSH2 0x4D49 DUP9 PUSH1 0x0 SHR PUSH2 0xA86 JUMP JUMPDEST SWAP3 POP SWAP3 POP SWAP3 POP PUSH1 0x0 PUSH2 0x4DF6 DUP9 PUSH1 0x6 PUSH1 0x0 DUP14 DUP2 MSTORE PUSH1 0x20 ADD SWAP1 DUP2 MSTORE PUSH1 0x20 ADD PUSH1 0x0 KECCAK256 DUP1 SLOAD PUSH2 0x4D73 SWAP1 PUSH2 0x7B93 JUMP JUMPDEST DUP1 PUSH1 0x1F ADD PUSH1 0x20 DUP1 SWAP2 DIV MUL PUSH1 0x20 ADD PUSH1 0x40 MLOAD SWAP1 DUP2 ADD PUSH1 0x40 MSTORE DUP1 SWAP3 SWAP2 SWAP1 DUP2 DUP2 MSTORE PUSH1 0x20 ADD DUP3 DUP1 SLOAD PUSH2 0x4D9F SWAP1 PUSH2 0x7B93 JUMP JUMPDEST DUP1 ISZERO PUSH2 0x4DEC JUMPI DUP1 PUSH1 0x1F LT PUSH2 0x4DC1 JUMPI PUSH2 0x100 DUP1 DUP4 SLOAD DIV MUL DUP4 MSTORE SWAP2 PUSH1 0x20 ADD SWAP2 PUSH2 0x4DEC JUMP JUMPDEST DUP3 ADD SWAP2 SWAP1 PUSH1 0x0 MSTORE PUSH1 0x20 PUSH1 0x0 KECCAK256 SWAP1 JUMPDEST DUP2 SLOAD DUP2 MSTORE SWAP1 PUSH1 0x1 ADD SWAP1 PUSH1 0x20 ADD DUP1 DUP4 GT PUSH2 0x4DCF JUMPI DUP3 SWAP1 SUB PUSH1 0x1F AND DUP3 ADD SWAP2 JUMPDEST POP POP POP POP POP PUSH2 0x5AE7 JUMP JUMPDEST SWAP1 POP PUSH1 0x0 PUSH1 0x6 PUSH1 0x0 DUP12 DUP2 MSTORE PUSH1 0x20 ADD SWAP1 DUP2 MSTORE PUSH1 0x20 ADD PUSH1 0x0 KECCAK256 DUP1 SLOAD PUSH2 0x4E18 SWAP1 PUSH2 0x7B93 JUMP JUMPDEST SWAP1 POP SUB PUSH2 0x4E41 JUMPI DUP1 PUSH1 0x6 PUSH1 0x0 DUP12 DUP2 MSTORE PUSH1 0x20 ADD SWAP1 DUP2 MSTORE PUSH1 0x20 ADD PUSH1 0x0 KECCAK256 SWAP1 DUP2 PUSH2 0x4E3F SWAP2 SWAP1 PUSH2 0x88D8 JUMP JUMPDEST POP JUMPDEST PUSH2 0x4E50 DUP10 DUP6 DUP9 DUP7 OR DUP6 DUP10 PUSH2 0x52DC JUMP JUMPDEST PUSH1 0x0 PUSH20 0xFFFFFFFFFFFFFFFFFFFFFFFFFFFFFFFFFFFFFFFF AND DUP8 PUSH20 0xFFFFFFFFFFFFFFFFFFFFFFFFFFFFFFFFFFFFFFFF AND SUB PUSH2 0x4E94 JUMPI PUSH2 0x4E8F DUP10 PUSH1 0x0 PUSH2 0x5478 JUMP JUMPDEST PUSH2 0x4EB5 JUMP JUMPDEST PUSH2 0x4EB4 DUP5 DUP9 DUP12 PUSH1 0x0 SHR PUSH1 0x1 PUSH1 0x40 MLOAD DUP1 PUSH1 0x20 ADD PUSH1 0x40 MSTORE DUP1 PUSH1 0x0 DUP2 MSTORE POP PUSH2 0x578F JUMP JUMPDEST JUMPDEST POP POP POP POP POP POP POP POP POP POP JUMP JUMPDEST PUSH3 0x20000 PUSH4 0xFFFFFFFF AND PUSH3 0x20000 DUP4 AND PUSH4 0xFFFFFFFF AND SUB PUSH2 0x4EEE JUMPI PUSH3 0x76A700 DUP2 PUSH2 0x4EEB SWAP2 SWAP1 PUSH2 0x889C JUMP JUMPDEST SWAP1 POP JUMPDEST TIMESTAMP DUP2 PUSH8 0xFFFFFFFFFFFFFFFF AND LT ISZERO PUSH2 0x4F53 JUMPI PUSH1 0x0 PUSH3 0x10000 DUP4 AND PUSH4 0xFFFFFFFF AND EQ PUSH2 0x4F4E JUMPI PUSH1 0x40 MLOAD PUSH32 0x8C379A000000000000000000000000000000000000000000000000000000000 DUP2 MSTORE PUSH1 0x4 ADD PUSH2 0x4F45 SWAP1 PUSH2 0x7E6E JUMP JUMPDEST PUSH1 0x40 MLOAD DUP1 SWAP2 SUB SWAP1 REVERT JUMPDEST PUSH2 0x4FA5 JUMP JUMPDEST PUSH1 0x0 PUSH1 0x4 DUP4 AND PUSH4 0xFFFFFFFF AND EQ PUSH2 0x4FA4 JUMPI DUP3 PUSH1 0x0 SHL PUSH1 0x40 MLOAD PUSH32 0xA2A7201300000000000000000000000000000000000000000000000000000000 DUP2 MSTORE PUSH1 0x4 ADD PUSH2 0x4F9B SWAP2 SWAP1 PUSH2 0x6A55 JUMP JUMPDEST PUSH1 0x40 MLOAD DUP1 SWAP2 SUB SWAP1 REVERT JUMPDEST JUMPDEST PUSH1 0x0 PUSH1 0x40 DUP4 AND PUSH4 0xFFFFFFFF AND SUB PUSH2 0x4FED JUMPI PUSH1 0x3 PUSH1 0x0 DUP5 DUP2 MSTORE PUSH1 0x20 ADD SWAP1 DUP2 MSTORE PUSH1 0x20 ADD PUSH1 0x0 KECCAK256 PUSH1 0x0 PUSH2 0x100 EXP DUP2 SLOAD SWAP1 PUSH20 0xFFFFFFFFFFFFFFFFFFFFFFFFFFFFFFFFFFFFFFFF MUL NOT AND SWAP1 SSTORE JUMPDEST POP POP POP JUMP JUMPDEST PUSH1 0xC0 DUP2 PUSH8 0xFFFFFFFFFFFFFFFF AND SWAP1 SHL PUSH1 0xA0 DUP4 PUSH4 0xFFFFFFFF AND SWAP1 SHL DUP5 PUSH20 0xFFFFFFFFFFFFFFFFFFFFFFFFFFFFFFFFFFFFFFFF AND OR OR PUSH1 0x1 PUSH1 0x0 DUP7 DUP2 MSTORE PUSH1 0x20 ADD SWAP1 DUP2 MSTORE PUSH1 0x20 ADD PUSH1 0x0 KECCAK256 DUP2 SWAP1 SSTORE POP POP POP POP POP JUMP JUMPDEST PUSH2 0x5061 DUP5 PUSH20 0xFFFFFFFFFFFFFFFFFFFFFFFFFFFFFFFFFFFFFFFF AND PUSH2 0x5BA1 JUMP JUMPDEST ISZERO PUSH2 0x5211 JUMPI DUP4 PUSH20 0xFFFFFFFFFFFFFFFFFFFFFFFFFFFFFFFFFFFFFFFF AND PUSH4 0xBC197C81 DUP8 DUP8 DUP7 DUP7 DUP7 PUSH1 0x40 MLOAD DUP7 PUSH4 0xFFFFFFFF AND PUSH1 0xE0 SHL DUP2 MSTORE PUSH1 0x4 ADD PUSH2 0x50A7 SWAP6 SWAP5 SWAP4 SWAP3 SWAP2 SWAP1 PUSH2 0x8A63 JUMP JUMPDEST PUSH1 0x20 PUSH1 0x40 MLOAD DUP1 DUP4 SUB DUP2 PUSH1 0x0 DUP8 GAS CALL SWAP3 POP POP POP DUP1 ISZERO PUSH2 0x50E3 JUMPI POP PUSH1 0x40 MLOAD RETURNDATASIZE PUSH1 0x1F NOT PUSH1 0x1F DUP3 ADD AND DUP3 ADD DUP1 PUSH1 0x40 MSTORE POP DUP2 ADD SWAP1 PUSH2 0x50E0 SWAP2 SWAP1 PUSH2 0x8AE0 JUMP JUMPDEST PUSH1 0x1 JUMPDEST PUSH2 0x5188 JUMPI PUSH2 0x50EF PUSH2 0x8B1A JUMP JUMPDEST DUP1 PUSH4 0x8C379A0 SUB PUSH2 0x514B JUMPI POP PUSH2 0x5103 PUSH2 0x8B3C JUMP JUMPDEST DUP1 PUSH2 0x510E JUMPI POP PUSH2 0x514D JUMP JUMPDEST DUP1 PUSH1 0x40 MLOAD PUSH32 0x8C379A000000000000000000000000000000000000000000000000000000000 DUP2 MSTORE PUSH1 0x4 ADD PUSH2 0x5142 SWAP2 SWAP1 PUSH2 0x646D JUMP JUMPDEST PUSH1 0x40 MLOAD DUP1 SWAP2 SUB SWAP1 REVERT JUMPDEST POP JUMPDEST PUSH1 0x40 MLOAD PUSH32 0x8C379A000000000000000000000000000000000000000000000000000000000 DUP2 MSTORE PUSH1 0x4 ADD PUSH2 0x517F SWAP1 PUSH2 0x8C3E JUMP JUMPDEST PUSH1 0x40 MLOAD DUP1 SWAP2 SUB SWAP1 REVERT JUMPDEST PUSH4 0xBC197C81 PUSH1 0xE0 SHL PUSH28 0xFFFFFFFFFFFFFFFFFFFFFFFFFFFFFFFFFFFFFFFFFFFFFFFFFFFFFFFF NOT AND DUP2 PUSH28 0xFFFFFFFFFFFFFFFFFFFFFFFFFFFFFFFFFFFFFFFFFFFFFFFFFFFFFFFF NOT AND EQ PUSH2 0x520F JUMPI PUSH1 0x40 MLOAD PUSH32 0x8C379A000000000000000000000000000000000000000000000000000000000 DUP2 MSTORE PUSH1 0x4 ADD PUSH2 0x5206 SWAP1 PUSH2 0x8CD0 JUMP JUMPDEST PUSH1 0x40 MLOAD DUP1 SWAP2 SUB SWAP1 REVERT JUMPDEST POP JUMPDEST POP POP POP POP POP POP JUMP JUMPDEST PUSH1 0x0 DUP1 PUSH4 0xFFFF0000 DUP5 AND PUSH4 0xFFFFFFFF AND EQ ISZERO SWAP1 POP PUSH1 0x0 DUP1 PUSH1 0x1 DUP5 AND PUSH4 0xFFFFFFFF AND EQ SWAP1 POP DUP2 DUP1 ISZERO PUSH2 0x5247 JUMPI POP DUP1 JUMPDEST ISZERO PUSH2 0x5289 JUMPI DUP5 PUSH1 0x40 MLOAD PUSH32 0xA2A7201300000000000000000000000000000000000000000000000000000000 DUP2 MSTORE PUSH1 0x4 ADD PUSH2 0x5280 SWAP2 SWAP1 PUSH2 0x6A55 JUMP JUMPDEST PUSH1 0x40 MLOAD DUP1 SWAP2 SUB SWAP1 REVERT JUMPDEST POP POP POP POP POP JUMP JUMPDEST PUSH1 0x0 DUP2 PUSH8 0xFFFFFFFFFFFFFFFF AND DUP5 PUSH8 0xFFFFFFFFFFFFFFFF AND GT ISZERO PUSH2 0x52B2 JUMPI DUP2 SWAP4 POP JUMPDEST DUP3 PUSH8 0xFFFFFFFFFFFFFFFF AND DUP5 PUSH8 0xFFFFFFFFFFFFFFFF AND LT ISZERO PUSH2 0x52D2 JUMPI DUP3 SWAP4 POP JUMPDEST DUP4 SWAP1 POP SWAP4 SWAP3 POP POP POP JUMP JUMPDEST PUSH2 0x52E8 DUP6 DUP6 DUP6 DUP5 PUSH2 0x5395 JUMP JUMPDEST DUP5 PUSH32 0x39873F00C80F4F94B7BD1594AEBCF650F003545B74824D57DDF4939E3FF3A34B DUP5 PUSH1 0x40 MLOAD PUSH2 0x5318 SWAP2 SWAP1 PUSH2 0x6DFC JUMP JUMPDEST PUSH1 0x40 MLOAD DUP1 SWAP2 SUB SWAP1 LOG2 DUP2 PUSH8 0xFFFFFFFFFFFFFFFF AND DUP2 PUSH8 0xFFFFFFFFFFFFFFFF AND GT ISZERO PUSH2 0x5375 JUMPI DUP5 PUSH32 0xF675815A0817338F93A7DA433F6BD5F5542F1029B11B455191AC96C7F6A9B132 DUP3 PUSH1 0x40 MLOAD PUSH2 0x536C SWAP2 SWAP1 PUSH2 0x7114 JUMP JUMPDEST PUSH1 0x40 MLOAD DUP1 SWAP2 SUB SWAP1 LOG2 JUMPDEST POP POP POP POP POP JUMP JUMPDEST PUSH1 0x0 DUP1 PUSH2 0x5388 DUP4 PUSH2 0xA86 JUMP JUMPDEST POP POP SWAP1 POP DUP1 SWAP2 POP POP SWAP2 SWAP1 POP JUMP JUMPDEST PUSH2 0x539F DUP5 DUP4 PUSH2 0x5BC4 JUMP JUMPDEST PUSH2 0x53AE DUP5 PUSH1 0x0 SHR DUP5 DUP5 DUP5 PUSH2 0x4FF2 JUMP JUMPDEST POP POP POP POP JUMP JUMPDEST PUSH1 0x0 DUP1 PUSH1 0x0 SWAP1 SLOAD SWAP1 PUSH2 0x100 EXP SWAP1 DIV PUSH20 0xFFFFFFFFFFFFFFFFFFFFFFFFFFFFFFFFFFFFFFFF AND SWAP1 POP DUP2 PUSH1 0x0 DUP1 PUSH2 0x100 EXP DUP2 SLOAD DUP2 PUSH20 0xFFFFFFFFFFFFFFFFFFFFFFFFFFFFFFFFFFFFFFFF MUL NOT AND SWAP1 DUP4 PUSH20 0xFFFFFFFFFFFFFFFFFFFFFFFFFFFFFFFFFFFFFFFF AND MUL OR SWAP1 SSTORE POP DUP2 PUSH20 0xFFFFFFFFFFFFFFFFFFFFFFFFFFFFFFFFFFFFFFFF AND DUP2 PUSH20 0xFFFFFFFFFFFFFFFFFFFFFFFFFFFFFFFFFFFFFFFF AND PUSH32 0x8BE0079C531659141344CD1FD0A4F28419497F9722A3DAAFE3B4186F6B6457E0 PUSH1 0x40 MLOAD PUSH1 0x40 MLOAD DUP1 SWAP2 SUB SWAP1 LOG3 POP POP JUMP JUMPDEST PUSH2 0x5483 DUP3 PUSH1 0x1 PUSH2 0x29FF JUMP JUMPDEST ISZERO PUSH2 0x54C5 JUMPI DUP2 PUSH1 0x40 MLOAD PUSH32 0xA2A7201300000000000000000000000000000000000000000000000000000000 DUP2 MSTORE PUSH1 0x4 ADD PUSH2 0x54BC SWAP2 SWAP1 PUSH2 0x6A55 JUMP JUMPDEST PUSH1 0x40 MLOAD DUP1 SWAP2 SUB SWAP1 REVERT JUMPDEST PUSH2 0x54D1 DUP3 PUSH1 0x0 SHR PUSH2 0x56A1 JUMP JUMPDEST PUSH32 0x0 PUSH20 0xFFFFFFFFFFFFFFFFFFFFFFFFFFFFFFFFFFFFFFFF AND PUSH4 0x5B0FC9C3 DUP4 DUP4 PUSH1 0x40 MLOAD DUP4 PUSH4 0xFFFFFFFF AND PUSH1 0xE0 SHL DUP2 MSTORE PUSH1 0x4 ADD PUSH2 0x552C SWAP3 SWAP2 SWAP1 PUSH2 0x7952 JUMP JUMPDEST PUSH1 0x0 PUSH1 0x40 MLOAD DUP1 DUP4 SUB DUP2 PUSH1 0x0 DUP8 DUP1 EXTCODESIZE ISZERO DUP1 ISZERO PUSH2 0x5546 JUMPI PUSH1 0x0 DUP1 REVERT JUMPDEST POP GAS CALL ISZERO DUP1 ISZERO PUSH2 0x555A JUMPI RETURNDATASIZE PUSH1 0x0 DUP1 RETURNDATACOPY RETURNDATASIZE PUSH1 0x0 REVERT JUMPDEST POP POP POP POP DUP2 PUSH32 0xEE2BA1195C65BCF218A83D874335C6BF9D9067B4C672F3C3BF16CF40DE7586C4 DUP3 PUSH1 0x40 MLOAD PUSH2 0x558E SWAP2 SWAP1 PUSH2 0x648F JUMP JUMPDEST PUSH1 0x40 MLOAD DUP1 SWAP2 SUB SWAP1 LOG2 POP POP JUMP JUMPDEST PUSH2 0x55A6 DUP6 DUP5 DUP5 DUP5 PUSH2 0x5C42 JUMP JUMPDEST DUP5 PUSH32 0x8CE7013E8ABEBC55C3890A68F5A27C67C3F7EFA64E584DE5FB22363C606FD340 DUP6 DUP6 DUP6 DUP6 PUSH1 0x40 MLOAD PUSH2 0x55DC SWAP5 SWAP4 SWAP3 SWAP2 SWAP1 PUSH2 0x8CF0 JUMP JUMPDEST PUSH1 0x40 MLOAD DUP1 SWAP2 SUB SWAP1 LOG2 POP POP POP POP POP JUMP JUMPDEST PUSH1 0x0 DUP1 PUSH1 0x0 PUSH2 0x55FA DUP6 DUP6 PUSH2 0x5906 JUMP JUMPDEST SWAP2 POP SWAP2 POP PUSH1 0x0 DUP1 SHL DUP3 SUB PUSH2 0x5664 JUMPI PUSH1 0x1 DUP6 MLOAD PUSH2 0x5616 SWAP2 SWAP1 PUSH2 0x8D3C JUMP JUMPDEST DUP5 EQ PUSH2 0x5657 JUMPI PUSH1 0x40 MLOAD PUSH32 0x8C379A000000000000000000000000000000000000000000000000000000000 DUP2 MSTORE PUSH1 0x4 ADD PUSH2 0x564E SWAP1 PUSH2 0x8DBC JUMP JUMPDEST PUSH1 0x40 MLOAD DUP1 SWAP2 SUB SWAP1 REVERT JUMPDEST PUSH1 0x0 DUP1 SHL SWAP3 POP POP POP PUSH2 0x569B JUMP JUMPDEST PUSH2 0x566E DUP6 DUP3 PUSH2 0x55EB JUMP JUMPDEST DUP3 PUSH1 0x40 MLOAD PUSH1 0x20 ADD PUSH2 0x5680 SWAP3 SWAP2 SWAP1 PUSH2 0x8A37 JUMP JUMPDEST PUSH1 0x40 MLOAD PUSH1 0x20 DUP2 DUP4 SUB SUB DUP2 MSTORE SWAP1 PUSH1 0x40 MSTORE DUP1 MLOAD SWAP1 PUSH1 0x20 ADD KECCAK256 SWAP3 POP POP POP JUMPDEST SWAP3 SWAP2 POP POP JUMP JUMPDEST PUSH1 0x0 DUP1 PUSH1 0x0 PUSH2 0x56AF DUP5 PUSH2 0x42D3 JUMP JUMPDEST SWAP3 POP SWAP3 POP SWAP3 POP PUSH2 0x56C0 DUP4 DUP4 DUP4 PUSH2 0x4308 JUMP JUMPDEST SWAP1 POP DUP1 SWAP3 POP POP PUSH1 0x3 PUSH1 0x0 DUP6 DUP2 MSTORE PUSH1 0x20 ADD SWAP1 DUP2 MSTORE PUSH1 0x20 ADD PUSH1 0x0 KECCAK256 PUSH1 0x0 PUSH2 0x100 EXP DUP2 SLOAD SWAP1 PUSH20 0xFFFFFFFFFFFFFFFFFFFFFFFFFFFFFFFFFFFFFFFF MUL NOT AND SWAP1 SSTORE PUSH2 0x5709 DUP5 PUSH1 0x0 DUP5 DUP5 PUSH2 0x4FF2 JUMP JUMPDEST PUSH1 0x0 PUSH20 0xFFFFFFFFFFFFFFFFFFFFFFFFFFFFFFFFFFFFFFFF AND DUP4 PUSH20 0xFFFFFFFFFFFFFFFFFFFFFFFFFFFFFFFFFFFFFFFF AND CALLER PUSH20 0xFFFFFFFFFFFFFFFFFFFFFFFFFFFFFFFFFFFFFFFF AND PUSH32 0xC3D58168C5AE7397731D063D5BBF3D657854427343F4C083240F7AACAA2D0F62 DUP8 PUSH1 0x1 PUSH1 0x40 MLOAD PUSH2 0x5781 SWAP3 SWAP2 SWAP1 PUSH2 0x8E17 JUMP JUMPDEST PUSH1 0x40 MLOAD DUP1 SWAP2 SUB SWAP1 LOG4 POP POP POP POP JUMP JUMPDEST PUSH1 0x0 DUP1 PUSH1 0x0 PUSH2 0x579D DUP7 PUSH2 0xA86 JUMP JUMPDEST SWAP3 POP SWAP3 POP SWAP3 POP PUSH2 0x57AE DUP7 DUP4 DUP4 PUSH2 0x4EC1 JUMP JUMPDEST PUSH1 0x1 DUP6 EQ DUP1 ISZERO PUSH2 0x57E9 JUMPI POP DUP8 PUSH20 0xFFFFFFFFFFFFFFFFFFFFFFFFFFFFFFFFFFFFFFFF AND DUP4 PUSH20 0xFFFFFFFFFFFFFFFFFFFFFFFFFFFFFFFFFFFFFFFF AND EQ JUMPDEST PUSH2 0x5828 JUMPI PUSH1 0x40 MLOAD PUSH32 0x8C379A000000000000000000000000000000000000000000000000000000000 DUP2 MSTORE PUSH1 0x4 ADD PUSH2 0x581F SWAP1 PUSH2 0x7E6E JUMP JUMPDEST PUSH1 0x40 MLOAD DUP1 SWAP2 SUB SWAP1 REVERT JUMPDEST DUP7 PUSH20 0xFFFFFFFFFFFFFFFFFFFFFFFFFFFFFFFFFFFFFFFF AND DUP4 PUSH20 0xFFFFFFFFFFFFFFFFFFFFFFFFFFFFFFFFFFFFFFFF AND SUB PUSH2 0x5863 JUMPI POP POP POP PUSH2 0x58FF JUMP JUMPDEST PUSH2 0x586F DUP7 DUP9 DUP5 DUP5 PUSH2 0x4FF2 JUMP JUMPDEST DUP7 PUSH20 0xFFFFFFFFFFFFFFFFFFFFFFFFFFFFFFFFFFFFFFFF AND DUP9 PUSH20 0xFFFFFFFFFFFFFFFFFFFFFFFFFFFFFFFFFFFFFFFF AND CALLER PUSH20 0xFFFFFFFFFFFFFFFFFFFFFFFFFFFFFFFFFFFFFFFF AND PUSH32 0xC3D58168C5AE7397731D063D5BBF3D657854427343F4C083240F7AACAA2D0F62 DUP10 DUP10 PUSH1 0x40 MLOAD PUSH2 0x58E5 SWAP3 SWAP2 SWAP1 PUSH2 0x8250 JUMP JUMPDEST PUSH1 0x40 MLOAD DUP1 SWAP2 SUB SWAP1 LOG4 PUSH2 0x58FB CALLER DUP10 DUP10 DUP10 DUP10 DUP10 PUSH2 0x5CEB JUMP JUMPDEST POP POP POP JUMPDEST POP POP POP POP POP JUMP JUMPDEST PUSH1 0x0 DUP1 DUP4 MLOAD DUP4 LT PUSH2 0x594C JUMPI PUSH1 0x40 MLOAD PUSH32 0x8C379A000000000000000000000000000000000000000000000000000000000 DUP2 MSTORE PUSH1 0x4 ADD PUSH2 0x5943 SWAP1 PUSH2 0x8E8C JUMP JUMPDEST PUSH1 0x40 MLOAD DUP1 SWAP2 SUB SWAP1 REVERT JUMPDEST PUSH1 0x0 DUP5 DUP5 DUP2 MLOAD DUP2 LT PUSH2 0x5961 JUMPI PUSH2 0x5960 PUSH2 0x7DCD JUMP JUMPDEST JUMPDEST PUSH1 0x20 ADD ADD MLOAD PUSH1 0xF8 SHR PUSH1 0xF8 SHL PUSH1 0xF8 SHR PUSH1 0xFF AND SWAP1 POP PUSH1 0x0 DUP2 GT ISZERO PUSH2 0x599B JUMPI PUSH2 0x5994 DUP6 PUSH1 0x1 DUP7 PUSH2 0x598E SWAP2 SWAP1 PUSH2 0x8EAC JUMP JUMPDEST DUP4 PUSH2 0x5EC2 JUMP JUMPDEST SWAP3 POP PUSH2 0x59A2 JUMP JUMPDEST PUSH1 0x0 DUP1 SHL SWAP3 POP JUMPDEST PUSH1 0x1 DUP2 DUP6 PUSH2 0x59B0 SWAP2 SWAP1 PUSH2 0x8EAC JUMP JUMPDEST PUSH2 0x59BA SWAP2 SWAP1 PUSH2 0x8EAC JUMP JUMPDEST SWAP2 POP POP SWAP3 POP SWAP3 SWAP1 POP JUMP JUMPDEST PUSH1 0x0 PUSH32 0x1FFC9A700000000000000000000000000000000000000000000000000000000 PUSH28 0xFFFFFFFFFFFFFFFFFFFFFFFFFFFFFFFFFFFFFFFFFFFFFFFFFFFFFFFF NOT AND DUP3 PUSH28 0xFFFFFFFFFFFFFFFFFFFFFFFFFFFFFFFFFFFFFFFFFFFFFFFFFFFFFFFF NOT AND EQ SWAP1 POP SWAP2 SWAP1 POP JUMP JUMPDEST DUP2 PUSH1 0x3 PUSH1 0x0 DUP4 DUP2 MSTORE PUSH1 0x20 ADD SWAP1 DUP2 MSTORE PUSH1 0x20 ADD PUSH1 0x0 KECCAK256 PUSH1 0x0 PUSH2 0x100 EXP DUP2 SLOAD DUP2 PUSH20 0xFFFFFFFFFFFFFFFFFFFFFFFFFFFFFFFFFFFFFFFF MUL NOT AND SWAP1 DUP4 PUSH20 0xFFFFFFFFFFFFFFFFFFFFFFFFFFFFFFFFFFFFFFFF AND MUL OR SWAP1 SSTORE POP DUP1 DUP3 PUSH20 0xFFFFFFFFFFFFFFFFFFFFFFFFFFFFFFFFFFFFFFFF AND PUSH2 0x5AA1 DUP4 PUSH2 0x1F0A JUMP JUMPDEST PUSH20 0xFFFFFFFFFFFFFFFFFFFFFFFFFFFFFFFFFFFFFFFF AND PUSH32 0x8C5BE1E5EBEC7D5BD14F71427D1E84F3DD0314C0F7B2291E5B200AC8C7C3B925 PUSH1 0x40 MLOAD PUSH1 0x40 MLOAD DUP1 SWAP2 SUB SWAP1 LOG4 POP POP JUMP JUMPDEST PUSH1 0x60 PUSH1 0x1 DUP4 MLOAD LT ISZERO PUSH2 0x5B25 JUMPI PUSH1 0x40 MLOAD PUSH32 0x280DACB600000000000000000000000000000000000000000000000000000000 DUP2 MSTORE PUSH1 0x4 ADD PUSH1 0x40 MLOAD DUP1 SWAP2 SUB SWAP1 REVERT JUMPDEST PUSH1 0xFF DUP4 MLOAD GT ISZERO PUSH2 0x5B6C JUMPI DUP3 PUSH1 0x40 MLOAD PUSH32 0xE3BA295F00000000000000000000000000000000000000000000000000000000 DUP2 MSTORE PUSH1 0x4 ADD PUSH2 0x5B63 SWAP2 SWAP1 PUSH2 0x646D JUMP JUMPDEST PUSH1 0x40 MLOAD DUP1 SWAP2 SUB SWAP1 REVERT JUMPDEST DUP3 MLOAD DUP4 DUP4 PUSH1 0x40 MLOAD PUSH1 0x20 ADD PUSH2 0x5B82 SWAP4 SWAP3 SWAP2 SWAP1 PUSH2 0x8F90 JUMP JUMPDEST PUSH1 0x40 MLOAD PUSH1 0x20 DUP2 DUP4 SUB SUB DUP2 MSTORE SWAP1 PUSH1 0x40 MSTORE SWAP1 POP SWAP3 SWAP2 POP POP JUMP JUMPDEST PUSH1 0x0 CALLER SWAP1 POP SWAP1 JUMP JUMPDEST PUSH1 0x0 DUP1 DUP3 PUSH20 0xFFFFFFFFFFFFFFFFFFFFFFFFFFFFFFFFFFFFFFFF AND EXTCODESIZE GT SWAP1 POP SWAP2 SWAP1 POP JUMP JUMPDEST PUSH1 0x0 PUSH4 0xFFFF0000 NOT DUP3 AND PUSH4 0xFFFFFFFF AND EQ ISZERO DUP1 ISZERO PUSH2 0x5BFC JUMPI POP PUSH1 0x1 PUSH3 0x10000 OR PUSH4 0xFFFFFFFF AND PUSH1 0x1 PUSH3 0x10000 OR DUP3 AND PUSH4 0xFFFFFFFF AND EQ ISZERO JUMPDEST ISZERO PUSH2 0x5C3E JUMPI DUP2 PUSH1 0x40 MLOAD PUSH32 0xA2A7201300000000000000000000000000000000000000000000000000000000 DUP2 MSTORE PUSH1 0x4 ADD PUSH2 0x5C35 SWAP2 SWAP1 PUSH2 0x6A55 JUMP JUMPDEST PUSH1 0x40 MLOAD DUP1 SWAP2 SUB SWAP1 REVERT JUMPDEST POP POP JUMP JUMPDEST PUSH2 0x5C4C DUP5 DUP4 PUSH2 0x5BC4 JUMP JUMPDEST PUSH1 0x0 PUSH2 0x5C5A DUP6 PUSH1 0x0 SHR PUSH2 0x42D3 JUMP JUMPDEST POP POP SWAP1 POP PUSH1 0x0 PUSH20 0xFFFFFFFFFFFFFFFFFFFFFFFFFFFFFFFFFFFFFFFF AND DUP2 PUSH20 0xFFFFFFFFFFFFFFFFFFFFFFFFFFFFFFFFFFFFFFFF AND EQ PUSH2 0x5CD8 JUMPI PUSH2 0x5C9E DUP6 PUSH1 0x0 SHR PUSH2 0x56A1 JUMP JUMPDEST DUP5 PUSH32 0xEE2BA1195C65BCF218A83D874335C6BF9D9067B4C672F3C3BF16CF40DE7586C4 PUSH1 0x0 PUSH1 0x40 MLOAD PUSH2 0x5CCF SWAP2 SWAP1 PUSH2 0x648F JUMP JUMPDEST PUSH1 0x40 MLOAD DUP1 SWAP2 SUB SWAP1 LOG2 JUMPDEST PUSH2 0x5CE4 DUP6 DUP6 DUP6 DUP6 PUSH2 0x5EEE JUMP JUMPDEST POP POP POP POP POP JUMP JUMPDEST PUSH2 0x5D0A DUP5 PUSH20 0xFFFFFFFFFFFFFFFFFFFFFFFFFFFFFFFFFFFFFFFF AND PUSH2 0x5BA1 JUMP JUMPDEST ISZERO PUSH2 0x5EBA JUMPI DUP4 PUSH20 0xFFFFFFFFFFFFFFFFFFFFFFFFFFFFFFFFFFFFFFFF AND PUSH4 0xF23A6E61 DUP8 DUP8 DUP7 DUP7 DUP7 PUSH1 0x40 MLOAD DUP7 PUSH4 0xFFFFFFFF AND PUSH1 0xE0 SHL DUP2 MSTORE PUSH1 0x4 ADD PUSH2 0x5D50 SWAP6 SWAP5 SWAP4 SWAP3 SWAP2 SWAP1 PUSH2 0x8FC5 JUMP JUMPDEST PUSH1 0x20 PUSH1 0x40 MLOAD DUP1 DUP4 SUB DUP2 PUSH1 0x0 DUP8 GAS CALL SWAP3 POP POP POP DUP1 ISZERO PUSH2 0x5D8C JUMPI POP PUSH1 0x40 MLOAD RETURNDATASIZE PUSH1 0x1F NOT PUSH1 0x1F DUP3 ADD AND DUP3 ADD DUP1 PUSH1 0x40 MSTORE POP DUP2 ADD SWAP1 PUSH2 0x5D89 SWAP2 SWAP1 PUSH2 0x8AE0 JUMP JUMPDEST PUSH1 0x1 JUMPDEST PUSH2 0x5E31 JUMPI PUSH2 0x5D98 PUSH2 0x8B1A JUMP JUMPDEST DUP1 PUSH4 0x8C379A0 SUB PUSH2 0x5DF4 JUMPI POP PUSH2 0x5DAC PUSH2 0x8B3C JUMP JUMPDEST DUP1 PUSH2 0x5DB7 JUMPI POP PUSH2 0x5DF6 JUMP JUMPDEST DUP1 PUSH1 0x40 MLOAD PUSH32 0x8C379A000000000000000000000000000000000000000000000000000000000 DUP2 MSTORE PUSH1 0x4 ADD PUSH2 0x5DEB SWAP2 SWAP1 PUSH2 0x646D JUMP JUMPDEST PUSH1 0x40 MLOAD DUP1 SWAP2 SUB SWAP1 REVERT JUMPDEST POP JUMPDEST PUSH1 0x40 MLOAD PUSH32 0x8C379A000000000000000000000000000000000000000000000000000000000 DUP2 MSTORE PUSH1 0x4 ADD PUSH2 0x5E28 SWAP1 PUSH2 0x8C3E JUMP JUMPDEST PUSH1 0x40 MLOAD DUP1 SWAP2 SUB SWAP1 REVERT JUMPDEST PUSH4 0xF23A6E61 PUSH1 0xE0 SHL PUSH28 0xFFFFFFFFFFFFFFFFFFFFFFFFFFFFFFFFFFFFFFFFFFFFFFFFFFFFFFFF NOT AND DUP2 PUSH28 0xFFFFFFFFFFFFFFFFFFFFFFFFFFFFFFFFFFFFFFFFFFFFFFFFFFFFFFFF NOT AND EQ PUSH2 0x5EB8 JUMPI PUSH1 0x40 MLOAD PUSH32 0x8C379A000000000000000000000000000000000000000000000000000000000 DUP2 MSTORE PUSH1 0x4 ADD PUSH2 0x5EAF SWAP1 PUSH2 0x8CD0 JUMP JUMPDEST PUSH1 0x40 MLOAD DUP1 SWAP2 SUB SWAP1 REVERT JUMPDEST POP JUMPDEST POP POP POP POP POP POP JUMP JUMPDEST PUSH1 0x0 DUP4 MLOAD DUP3 DUP5 PUSH2 0x5ED2 SWAP2 SWAP1 PUSH2 0x8EAC JUMP JUMPDEST GT ISZERO PUSH2 0x5EDD JUMPI PUSH1 0x0 DUP1 REVERT JUMPDEST DUP2 DUP4 PUSH1 0x20 DUP7 ADD ADD KECCAK256 SWAP1 POP SWAP4 SWAP3 POP POP POP JUMP JUMPDEST PUSH1 0x0 DUP5 PUSH1 0x0 SHR SWAP1 POP PUSH1 0x0 DUP1 PUSH1 0x0 PUSH2 0x5F07 DUP9 PUSH1 0x0 SHR PUSH2 0xA86 JUMP JUMPDEST SWAP3 POP SWAP3 POP SWAP3 POP PUSH1 0x0 DUP3 PUSH1 0x10 PUSH2 0xFFFF DUP1 AND PUSH4 0xFFFFFFFF AND SWAP1 SHL AND SWAP1 POP DUP6 PUSH8 0xFFFFFFFFFFFFFFFF AND DUP3 PUSH8 0xFFFFFFFFFFFFFFFF AND GT ISZERO PUSH2 0x5F42 JUMPI DUP2 SWAP6 POP JUMPDEST TIMESTAMP DUP3 PUSH8 0xFFFFFFFFFFFFFFFF AND LT PUSH2 0x5F59 JUMPI DUP1 DUP8 OR SWAP7 POP JUMPDEST PUSH1 0x0 PUSH20 0xFFFFFFFFFFFFFFFFFFFFFFFFFFFFFFFFFFFFFFFF AND DUP5 PUSH20 0xFFFFFFFFFFFFFFFFFFFFFFFFFFFFFFFFFFFFFFFF AND EQ PUSH2 0x5FC8 JUMPI PUSH1 0x40 MLOAD PUSH32 0x8C379A000000000000000000000000000000000000000000000000000000000 DUP2 MSTORE PUSH1 0x4 ADD PUSH2 0x5FBF SWAP1 PUSH2 0x906B JUMP JUMPDEST PUSH1 0x40 MLOAD DUP1 SWAP2 SUB SWAP1 REVERT JUMPDEST PUSH1 0x0 PUSH20 0xFFFFFFFFFFFFFFFFFFFFFFFFFFFFFFFFFFFFFFFF AND DUP9 PUSH20 0xFFFFFFFFFFFFFFFFFFFFFFFFFFFFFFFFFFFFFFFF AND SUB PUSH2 0x6037 JUMPI PUSH1 0x40 MLOAD PUSH32 0x8C379A000000000000000000000000000000000000000000000000000000000 DUP2 MSTORE PUSH1 0x4 ADD PUSH2 0x602E SWAP1 PUSH2 0x90FD JUMP JUMPDEST PUSH1 0x40 MLOAD DUP1 SWAP2 SUB SWAP1 REVERT JUMPDEST ADDRESS PUSH20 0xFFFFFFFFFFFFFFFFFFFFFFFFFFFFFFFFFFFFFFFF AND DUP9 PUSH20 0xFFFFFFFFFFFFFFFFFFFFFFFFFFFFFFFFFFFFFFFF AND SUB PUSH2 0x60A5 JUMPI PUSH1 0x40 MLOAD PUSH32 0x8C379A000000000000000000000000000000000000000000000000000000000 DUP2 MSTORE PUSH1 0x4 ADD PUSH2 0x609C SWAP1 PUSH2 0x918F JUMP JUMPDEST PUSH1 0x40 MLOAD DUP1 SWAP2 SUB SWAP1 REVERT JUMPDEST PUSH2 0x60B1 DUP6 DUP10 DUP10 DUP10 PUSH2 0x4FF2 JUMP JUMPDEST DUP8 PUSH20 0xFFFFFFFFFFFFFFFFFFFFFFFFFFFFFFFFFFFFFFFF AND PUSH1 0x0 PUSH20 0xFFFFFFFFFFFFFFFFFFFFFFFFFFFFFFFFFFFFFFFF AND CALLER PUSH20 0xFFFFFFFFFFFFFFFFFFFFFFFFFFFFFFFFFFFFFFFF AND PUSH32 0xC3D58168C5AE7397731D063D5BBF3D657854427343F4C083240F7AACAA2D0F62 DUP9 PUSH1 0x1 PUSH1 0x40 MLOAD PUSH2 0x6129 SWAP3 SWAP2 SWAP1 PUSH2 0x8E17 JUMP JUMPDEST PUSH1 0x40 MLOAD DUP1 SWAP2 SUB SWAP1 LOG4 PUSH2 0x6150 CALLER PUSH1 0x0 DUP11 DUP9 PUSH1 0x1 PUSH1 0x40 MLOAD DUP1 PUSH1 0x20 ADD PUSH1 0x40 MSTORE DUP1 PUSH1 0x0 DUP2 MSTORE POP PUSH2 0x5CEB JUMP JUMPDEST POP POP POP POP POP POP POP POP POP JUMP JUMPDEST PUSH1 0x0 PUSH1 0x40 MLOAD SWAP1 POP SWAP1 JUMP JUMPDEST PUSH1 0x0 DUP1 REVERT JUMPDEST PUSH1 0x0 DUP1 REVERT JUMPDEST PUSH1 0x0 PUSH20 0xFFFFFFFFFFFFFFFFFFFFFFFFFFFFFFFFFFFFFFFF DUP3 AND SWAP1 POP SWAP2 SWAP1 POP JUMP JUMPDEST PUSH1 0x0 PUSH2 0x619A DUP3 PUSH2 0x616F JUMP JUMPDEST SWAP1 POP SWAP2 SWAP1 POP JUMP JUMPDEST PUSH2 0x61AA DUP2 PUSH2 0x618F JUMP JUMPDEST DUP2 EQ PUSH2 0x61B5 JUMPI PUSH1 0x0 DUP1 REVERT JUMPDEST POP JUMP JUMPDEST PUSH1 0x0 DUP2 CALLDATALOAD SWAP1 POP PUSH2 0x61C7 DUP2 PUSH2 0x61A1 JUMP JUMPDEST SWAP3 SWAP2 POP POP JUMP JUMPDEST PUSH1 0x0 DUP2 SWAP1 POP SWAP2 SWAP1 POP JUMP JUMPDEST PUSH2 0x61E0 DUP2 PUSH2 0x61CD JUMP JUMPDEST DUP2 EQ PUSH2 0x61EB JUMPI PUSH1 0x0 DUP1 REVERT JUMPDEST POP JUMP JUMPDEST PUSH1 0x0 DUP2 CALLDATALOAD SWAP1 POP PUSH2 0x61FD DUP2 PUSH2 0x61D7 JUMP JUMPDEST SWAP3 SWAP2 POP POP JUMP JUMPDEST PUSH1 0x0 DUP1 PUSH1 0x40 DUP4 DUP6 SUB SLT ISZERO PUSH2 0x621A JUMPI PUSH2 0x6219 PUSH2 0x6165 JUMP JUMPDEST JUMPDEST PUSH1 0x0 PUSH2 0x6228 DUP6 DUP3 DUP7 ADD PUSH2 0x61B8 JUMP JUMPDEST SWAP3 POP POP PUSH1 0x20 PUSH2 0x6239 DUP6 DUP3 DUP7 ADD PUSH2 0x61EE JUMP JUMPDEST SWAP2 POP POP SWAP3 POP SWAP3 SWAP1 POP JUMP JUMPDEST PUSH2 0x624C DUP2 PUSH2 0x61CD JUMP JUMPDEST DUP3 MSTORE POP POP JUMP JUMPDEST PUSH1 0x0 PUSH1 0x20 DUP3 ADD SWAP1 POP PUSH2 0x6267 PUSH1 0x0 DUP4 ADD DUP5 PUSH2 0x6243 JUMP JUMPDEST SWAP3 SWAP2 POP POP JUMP JUMPDEST PUSH1 0x0 PUSH1 0x20 DUP3 DUP5 SUB SLT ISZERO PUSH2 0x6283 JUMPI PUSH2 0x6282 PUSH2 0x6165 JUMP JUMPDEST JUMPDEST PUSH1 0x0 PUSH2 0x6291 DUP5 DUP3 DUP6 ADD PUSH2 0x61EE JUMP JUMPDEST SWAP2 POP POP SWAP3 SWAP2 POP POP JUMP JUMPDEST PUSH2 0x62A3 DUP2 PUSH2 0x618F JUMP JUMPDEST DUP3 MSTORE POP POP JUMP JUMPDEST PUSH1 0x0 PUSH4 0xFFFFFFFF DUP3 AND SWAP1 POP SWAP2 SWAP1 POP JUMP JUMPDEST PUSH2 0x62C2 DUP2 PUSH2 0x62A9 JUMP JUMPDEST DUP3 MSTORE POP POP JUMP JUMPDEST PUSH1 0x0 PUSH8 0xFFFFFFFFFFFFFFFF DUP3 AND SWAP1 POP SWAP2 SWAP1 POP JUMP JUMPDEST PUSH2 0x62E5 DUP2 PUSH2 0x62C8 JUMP JUMPDEST DUP3 MSTORE POP POP JUMP JUMPDEST PUSH1 0x0 PUSH1 0x60 DUP3 ADD SWAP1 POP PUSH2 0x6300 PUSH1 0x0 DUP4 ADD DUP7 PUSH2 0x629A JUMP JUMPDEST PUSH2 0x630D PUSH1 0x20 DUP4 ADD DUP6 PUSH2 0x62B9 JUMP JUMPDEST PUSH2 0x631A PUSH1 0x40 DUP4 ADD DUP5 PUSH2 0x62DC JUMP JUMPDEST SWAP5 SWAP4 POP POP POP POP JUMP JUMPDEST PUSH1 0x0 PUSH32 0xFFFFFFFF00000000000000000000000000000000000000000000000000000000 DUP3 AND SWAP1 POP SWAP2 SWAP1 POP JUMP JUMPDEST PUSH2 0x6357 DUP2 PUSH2 0x6322 JUMP JUMPDEST DUP2 EQ PUSH2 0x6362 JUMPI PUSH1 0x0 DUP1 REVERT JUMPDEST POP JUMP JUMPDEST PUSH1 0x0 DUP2 CALLDATALOAD SWAP1 POP PUSH2 0x6374 DUP2 PUSH2 0x634E JUMP JUMPDEST SWAP3 SWAP2 POP POP JUMP JUMPDEST PUSH1 0x0 PUSH1 0x20 DUP3 DUP5 SUB SLT ISZERO PUSH2 0x6390 JUMPI PUSH2 0x638F PUSH2 0x6165 JUMP JUMPDEST JUMPDEST PUSH1 0x0 PUSH2 0x639E DUP5 DUP3 DUP6 ADD PUSH2 0x6365 JUMP JUMPDEST SWAP2 POP POP SWAP3 SWAP2 POP POP JUMP JUMPDEST PUSH1 0x0 DUP2 ISZERO ISZERO SWAP1 POP SWAP2 SWAP1 POP JUMP JUMPDEST PUSH2 0x63BC DUP2 PUSH2 0x63A7 JUMP JUMPDEST DUP3 MSTORE POP POP JUMP JUMPDEST PUSH1 0x0 PUSH1 0x20 DUP3 ADD SWAP1 POP PUSH2 0x63D7 PUSH1 0x0 DUP4 ADD DUP5 PUSH2 0x63B3 JUMP JUMPDEST SWAP3 SWAP2 POP POP JUMP JUMPDEST PUSH1 0x0 DUP2 MLOAD SWAP1 POP SWAP2 SWAP1 POP JUMP JUMPDEST PUSH1 0x0 DUP3 DUP3 MSTORE PUSH1 0x20 DUP3 ADD SWAP1 POP SWAP3 SWAP2 POP POP JUMP JUMPDEST PUSH1 0x0 JUMPDEST DUP4 DUP2 LT ISZERO PUSH2 0x6417 JUMPI DUP1 DUP3 ADD MLOAD DUP2 DUP5 ADD MSTORE PUSH1 0x20 DUP2 ADD SWAP1 POP PUSH2 0x63FC JUMP JUMPDEST PUSH1 0x0 DUP5 DUP5 ADD MSTORE POP POP POP POP JUMP JUMPDEST PUSH1 0x0 PUSH1 0x1F NOT PUSH1 0x1F DUP4 ADD AND SWAP1 POP SWAP2 SWAP1 POP JUMP JUMPDEST PUSH1 0x0 PUSH2 0x643F DUP3 PUSH2 0x63DD JUMP JUMPDEST PUSH2 0x6449 DUP2 DUP6 PUSH2 0x63E8 JUMP JUMPDEST SWAP4 POP PUSH2 0x6459 DUP2 DUP6 PUSH1 0x20 DUP7 ADD PUSH2 0x63F9 JUMP JUMPDEST PUSH2 0x6462 DUP2 PUSH2 0x6423 JUMP JUMPDEST DUP5 ADD SWAP2 POP POP SWAP3 SWAP2 POP POP JUMP JUMPDEST PUSH1 0x0 PUSH1 0x20 DUP3 ADD SWAP1 POP DUP2 DUP2 SUB PUSH1 0x0 DUP4 ADD MSTORE PUSH2 0x6487 DUP2 DUP5 PUSH2 0x6434 JUMP JUMPDEST SWAP1 POP SWAP3 SWAP2 POP POP JUMP JUMPDEST PUSH1 0x0 PUSH1 0x20 DUP3 ADD SWAP1 POP PUSH2 0x64A4 PUSH1 0x0 DUP4 ADD DUP5 PUSH2 0x629A JUMP JUMPDEST SWAP3 SWAP2 POP POP JUMP JUMPDEST PUSH1 0x0 DUP2 SWAP1 POP SWAP2 SWAP1 POP JUMP JUMPDEST PUSH2 0x64BD DUP2 PUSH2 0x64AA JUMP JUMPDEST DUP2 EQ PUSH2 0x64C8 JUMPI PUSH1 0x0 DUP1 REVERT JUMPDEST POP JUMP JUMPDEST PUSH1 0x0 DUP2 CALLDATALOAD SWAP1 POP PUSH2 0x64DA DUP2 PUSH2 0x64B4 JUMP JUMPDEST SWAP3 SWAP2 POP POP JUMP JUMPDEST PUSH1 0x0 DUP1 PUSH1 0x40 DUP4 DUP6 SUB SLT ISZERO PUSH2 0x64F7 JUMPI PUSH2 0x64F6 PUSH2 0x6165 JUMP JUMPDEST JUMPDEST PUSH1 0x0 PUSH2 0x6505 DUP6 DUP3 DUP7 ADD PUSH2 0x64CB JUMP JUMPDEST SWAP3 POP POP PUSH1 0x20 PUSH2 0x6516 DUP6 DUP3 DUP7 ADD PUSH2 0x61B8 JUMP JUMPDEST SWAP2 POP POP SWAP3 POP SWAP3 SWAP1 POP JUMP JUMPDEST PUSH2 0x6529 DUP2 PUSH2 0x62C8 JUMP JUMPDEST DUP2 EQ PUSH2 0x6534 JUMPI PUSH1 0x0 DUP1 REVERT JUMPDEST POP JUMP JUMPDEST PUSH1 0x0 DUP2 CALLDATALOAD SWAP1 POP PUSH2 0x6546 DUP2 PUSH2 0x6520 JUMP JUMPDEST SWAP3 SWAP2 POP POP JUMP JUMPDEST PUSH1 0x0 DUP1 PUSH1 0x40 DUP4 DUP6 SUB SLT ISZERO PUSH2 0x6563 JUMPI PUSH2 0x6562 PUSH2 0x6165 JUMP JUMPDEST JUMPDEST PUSH1 0x0 PUSH2 0x6571 DUP6 DUP3 DUP7 ADD PUSH2 0x64CB JUMP JUMPDEST SWAP3 POP POP PUSH1 0x20 PUSH2 0x6582 DUP6 DUP3 DUP7 ADD PUSH2 0x6537 JUMP JUMPDEST SWAP2 POP POP SWAP3 POP SWAP3 SWAP1 POP JUMP JUMPDEST PUSH1 0x0 DUP1 REVERT JUMPDEST PUSH1 0x0 DUP1 REVERT JUMPDEST PUSH1 0x0 DUP1 REVERT JUMPDEST PUSH1 0x0 DUP1 DUP4 PUSH1 0x1F DUP5 ADD SLT PUSH2 0x65B1 JUMPI PUSH2 0x65B0 PUSH2 0x658C JUMP JUMPDEST JUMPDEST DUP3 CALLDATALOAD SWAP1 POP PUSH8 0xFFFFFFFFFFFFFFFF DUP2 GT ISZERO PUSH2 0x65CE JUMPI PUSH2 0x65CD PUSH2 0x6591 JUMP JUMPDEST JUMPDEST PUSH1 0x20 DUP4 ADD SWAP2 POP DUP4 PUSH1 0x1 DUP3 MUL DUP4 ADD GT ISZERO PUSH2 0x65EA JUMPI PUSH2 0x65E9 PUSH2 0x6596 JUMP JUMPDEST JUMPDEST SWAP3 POP SWAP3 SWAP1 POP JUMP JUMPDEST PUSH1 0x0 DUP1 PUSH1 0x0 DUP1 PUSH1 0x0 PUSH1 0x80 DUP7 DUP9 SUB SLT ISZERO PUSH2 0x660D JUMPI PUSH2 0x660C PUSH2 0x6165 JUMP JUMPDEST JUMPDEST PUSH1 0x0 PUSH2 0x661B DUP9 DUP3 DUP10 ADD PUSH2 0x61B8 JUMP JUMPDEST SWAP6 POP POP PUSH1 0x20 PUSH2 0x662C DUP9 DUP3 DUP10 ADD PUSH2 0x61B8 JUMP JUMPDEST SWAP5 POP POP PUSH1 0x40 PUSH2 0x663D DUP9 DUP3 DUP10 ADD PUSH2 0x61EE JUMP JUMPDEST SWAP4 POP POP PUSH1 0x60 DUP7 ADD CALLDATALOAD PUSH8 0xFFFFFFFFFFFFFFFF DUP2 GT ISZERO PUSH2 0x665E JUMPI PUSH2 0x665D PUSH2 0x616A JUMP JUMPDEST JUMPDEST PUSH2 0x666A DUP9 DUP3 DUP10 ADD PUSH2 0x659B JUMP JUMPDEST SWAP3 POP SWAP3 POP POP SWAP3 SWAP6 POP SWAP3 SWAP6 SWAP1 SWAP4 POP JUMP JUMPDEST PUSH2 0x6682 DUP2 PUSH2 0x6322 JUMP JUMPDEST DUP3 MSTORE POP POP JUMP JUMPDEST PUSH1 0x0 PUSH1 0x20 DUP3 ADD SWAP1 POP PUSH2 0x669D PUSH1 0x0 DUP4 ADD DUP5 PUSH2 0x6679 JUMP JUMPDEST SWAP3 SWAP2 POP POP JUMP JUMPDEST PUSH1 0x0 PUSH2 0x66AE DUP3 PUSH2 0x618F JUMP JUMPDEST SWAP1 POP SWAP2 SWAP1 POP JUMP JUMPDEST PUSH2 0x66BE DUP2 PUSH2 0x66A3 JUMP JUMPDEST DUP2 EQ PUSH2 0x66C9 JUMPI PUSH1 0x0 DUP1 REVERT JUMPDEST POP JUMP JUMPDEST PUSH1 0x0 DUP2 CALLDATALOAD SWAP1 POP PUSH2 0x66DB DUP2 PUSH2 0x66B5 JUMP JUMPDEST SWAP3 SWAP2 POP POP JUMP JUMPDEST PUSH1 0x0 PUSH1 0x20 DUP3 DUP5 SUB SLT ISZERO PUSH2 0x66F7 JUMPI PUSH2 0x66F6 PUSH2 0x6165 JUMP JUMPDEST JUMPDEST PUSH1 0x0 PUSH2 0x6705 DUP5 DUP3 DUP6 ADD PUSH2 0x66CC JUMP JUMPDEST SWAP2 POP POP SWAP3 SWAP2 POP POP JUMP JUMPDEST PUSH1 0x0 DUP2 SWAP1 POP SWAP2 SWAP1 POP JUMP JUMPDEST PUSH1 0x0 PUSH2 0x6733 PUSH2 0x672E PUSH2 0x6729 DUP5 PUSH2 0x616F JUMP JUMPDEST PUSH2 0x670E JUMP JUMPDEST PUSH2 0x616F JUMP JUMPDEST SWAP1 POP SWAP2 SWAP1 POP JUMP JUMPDEST PUSH1 0x0 PUSH2 0x6745 DUP3 PUSH2 0x6718 JUMP JUMPDEST SWAP1 POP SWAP2 SWAP1 POP JUMP JUMPDEST PUSH1 0x0 PUSH2 0x6757 DUP3 PUSH2 0x673A JUMP JUMPDEST SWAP1 POP SWAP2 SWAP1 POP JUMP JUMPDEST PUSH2 0x6767 DUP2 PUSH2 0x674C JUMP JUMPDEST DUP3 MSTORE POP POP JUMP JUMPDEST PUSH1 0x0 PUSH1 0x20 DUP3 ADD SWAP1 POP PUSH2 0x6782 PUSH1 0x0 DUP4 ADD DUP5 PUSH2 0x675E JUMP JUMPDEST SWAP3 SWAP2 POP POP JUMP JUMPDEST PUSH1 0x0 PUSH1 0x20 DUP3 DUP5 SUB SLT ISZERO PUSH2 0x679E JUMPI PUSH2 0x679D PUSH2 0x6165 JUMP JUMPDEST JUMPDEST PUSH1 0x0 PUSH2 0x67AC DUP5 DUP3 DUP6 ADD PUSH2 0x64CB JUMP JUMPDEST SWAP2 POP POP SWAP3 SWAP2 POP POP JUMP JUMPDEST PUSH1 0x0 DUP2 MLOAD SWAP1 POP SWAP2 SWAP1 POP JUMP JUMPDEST PUSH1 0x0 DUP3 DUP3 MSTORE PUSH1 0x20 DUP3 ADD SWAP1 POP SWAP3 SWAP2 POP POP JUMP JUMPDEST PUSH1 0x0 PUSH2 0x67DC DUP3 PUSH2 0x67B5 JUMP JUMPDEST PUSH2 0x67E6 DUP2 DUP6 PUSH2 0x67C0 JUMP JUMPDEST SWAP4 POP PUSH2 0x67F6 DUP2 DUP6 PUSH1 0x20 DUP7 ADD PUSH2 0x63F9 JUMP JUMPDEST PUSH2 0x67FF DUP2 PUSH2 0x6423 JUMP JUMPDEST DUP5 ADD SWAP2 POP POP SWAP3 SWAP2 POP POP JUMP JUMPDEST PUSH1 0x0 PUSH1 0x20 DUP3 ADD SWAP1 POP DUP2 DUP2 SUB PUSH1 0x0 DUP4 ADD MSTORE PUSH2 0x6824 DUP2 DUP5 PUSH2 0x67D1 JUMP JUMPDEST SWAP1 POP SWAP3 SWAP2 POP POP JUMP JUMPDEST PUSH1 0x0 DUP1 REVERT JUMPDEST PUSH32 0x4E487B7100000000000000000000000000000000000000000000000000000000 PUSH1 0x0 MSTORE PUSH1 0x41 PUSH1 0x4 MSTORE PUSH1 0x24 PUSH1 0x0 REVERT JUMPDEST PUSH2 0x6869 DUP3 PUSH2 0x6423 JUMP JUMPDEST DUP2 ADD DUP2 DUP2 LT PUSH8 0xFFFFFFFFFFFFFFFF DUP3 GT OR ISZERO PUSH2 0x6888 JUMPI PUSH2 0x6887 PUSH2 0x6831 JUMP JUMPDEST JUMPDEST DUP1 PUSH1 0x40 MSTORE POP POP POP JUMP JUMPDEST PUSH1 0x0 PUSH2 0x689B PUSH2 0x615B JUMP JUMPDEST SWAP1 POP PUSH2 0x68A7 DUP3 DUP3 PUSH2 0x6860 JUMP JUMPDEST SWAP2 SWAP1 POP JUMP JUMPDEST PUSH1 0x0 PUSH8 0xFFFFFFFFFFFFFFFF DUP3 GT ISZERO PUSH2 0x68C7 JUMPI PUSH2 0x68C6 PUSH2 0x6831 JUMP JUMPDEST JUMPDEST PUSH2 0x68D0 DUP3 PUSH2 0x6423 JUMP JUMPDEST SWAP1 POP PUSH1 0x20 DUP2 ADD SWAP1 POP SWAP2 SWAP1 POP JUMP JUMPDEST DUP3 DUP2 DUP4 CALLDATACOPY PUSH1 0x0 DUP4 DUP4 ADD MSTORE POP POP POP JUMP JUMPDEST PUSH1 0x0 PUSH2 0x68FF PUSH2 0x68FA DUP5 PUSH2 0x68AC JUMP JUMPDEST PUSH2 0x6891 JUMP JUMPDEST SWAP1 POP DUP3 DUP2 MSTORE PUSH1 0x20 DUP2 ADD DUP5 DUP5 DUP5 ADD GT ISZERO PUSH2 0x691B JUMPI PUSH2 0x691A PUSH2 0x682C JUMP JUMPDEST JUMPDEST PUSH2 0x6926 DUP5 DUP3 DUP6 PUSH2 0x68DD JUMP JUMPDEST POP SWAP4 SWAP3 POP POP POP JUMP JUMPDEST PUSH1 0x0 DUP3 PUSH1 0x1F DUP4 ADD SLT PUSH2 0x6943 JUMPI PUSH2 0x6942 PUSH2 0x658C JUMP JUMPDEST JUMPDEST DUP2 CALLDATALOAD PUSH2 0x6953 DUP5 DUP3 PUSH1 0x20 DUP7 ADD PUSH2 0x68EC JUMP JUMPDEST SWAP2 POP POP SWAP3 SWAP2 POP POP JUMP JUMPDEST PUSH2 0x6965 DUP2 PUSH2 0x62A9 JUMP JUMPDEST DUP2 EQ PUSH2 0x6970 JUMPI PUSH1 0x0 DUP1 REVERT JUMPDEST POP JUMP JUMPDEST PUSH1 0x0 DUP2 CALLDATALOAD SWAP1 POP PUSH2 0x6982 DUP2 PUSH2 0x695C JUMP JUMPDEST SWAP3 SWAP2 POP POP JUMP JUMPDEST PUSH1 0x0 DUP1 PUSH1 0x0 DUP1 PUSH1 0x0 DUP1 PUSH1 0x0 PUSH1 0xE0 DUP9 DUP11 SUB SLT ISZERO PUSH2 0x69A7 JUMPI PUSH2 0x69A6 PUSH2 0x6165 JUMP JUMPDEST JUMPDEST PUSH1 0x0 PUSH2 0x69B5 DUP11 DUP3 DUP12 ADD PUSH2 0x64CB JUMP JUMPDEST SWAP8 POP POP PUSH1 0x20 DUP9 ADD CALLDATALOAD PUSH8 0xFFFFFFFFFFFFFFFF DUP2 GT ISZERO PUSH2 0x69D6 JUMPI PUSH2 0x69D5 PUSH2 0x616A JUMP JUMPDEST JUMPDEST PUSH2 0x69E2 DUP11 DUP3 DUP12 ADD PUSH2 0x692E JUMP JUMPDEST SWAP7 POP POP PUSH1 0x40 PUSH2 0x69F3 DUP11 DUP3 DUP12 ADD PUSH2 0x61B8 JUMP JUMPDEST SWAP6 POP POP PUSH1 0x60 PUSH2 0x6A04 DUP11 DUP3 DUP12 ADD PUSH2 0x61B8 JUMP JUMPDEST SWAP5 POP POP PUSH1 0x80 PUSH2 0x6A15 DUP11 DUP3 DUP12 ADD PUSH2 0x6537 JUMP JUMPDEST SWAP4 POP POP PUSH1 0xA0 PUSH2 0x6A26 DUP11 DUP3 DUP12 ADD PUSH2 0x6973 JUMP JUMPDEST SWAP3 POP POP PUSH1 0xC0 PUSH2 0x6A37 DUP11 DUP3 DUP12 ADD PUSH2 0x6537 JUMP JUMPDEST SWAP2 POP POP SWAP3 SWAP6 SWAP9 SWAP2 SWAP5 SWAP8 POP SWAP3 SWAP6 POP JUMP JUMPDEST PUSH2 0x6A4F DUP2 PUSH2 0x64AA JUMP JUMPDEST DUP3 MSTORE POP POP JUMP JUMPDEST PUSH1 0x0 PUSH1 0x20 DUP3 ADD SWAP1 POP PUSH2 0x6A6A PUSH1 0x0 DUP4 ADD DUP5 PUSH2 0x6A46 JUMP JUMPDEST SWAP3 SWAP2 POP POP JUMP JUMPDEST PUSH1 0x0 PUSH2 0x6A7B DUP3 PUSH2 0x673A JUMP JUMPDEST SWAP1 POP SWAP2 SWAP1 POP JUMP JUMPDEST PUSH2 0x6A8B DUP2 PUSH2 0x6A70 JUMP JUMPDEST DUP3 MSTORE POP POP JUMP JUMPDEST PUSH1 0x0 PUSH1 0x20 DUP3 ADD SWAP1 POP PUSH2 0x6AA6 PUSH1 0x0 DUP4 ADD DUP5 PUSH2 0x6A82 JUMP JUMPDEST SWAP3 SWAP2 POP POP JUMP JUMPDEST PUSH1 0x0 PUSH8 0xFFFFFFFFFFFFFFFF DUP3 GT ISZERO PUSH2 0x6AC7 JUMPI PUSH2 0x6AC6 PUSH2 0x6831 JUMP JUMPDEST JUMPDEST PUSH1 0x20 DUP3 MUL SWAP1 POP PUSH1 0x20 DUP2 ADD SWAP1 POP SWAP2 SWAP1 POP JUMP JUMPDEST PUSH1 0x0 PUSH2 0x6AEB PUSH2 0x6AE6 DUP5 PUSH2 0x6AAC JUMP JUMPDEST PUSH2 0x6891 JUMP JUMPDEST SWAP1 POP DUP1 DUP4 DUP3 MSTORE PUSH1 0x20 DUP3 ADD SWAP1 POP PUSH1 0x20 DUP5 MUL DUP4 ADD DUP6 DUP2 GT ISZERO PUSH2 0x6B0E JUMPI PUSH2 0x6B0D PUSH2 0x6596 JUMP JUMPDEST JUMPDEST DUP4 JUMPDEST DUP2 DUP2 LT ISZERO PUSH2 0x6B37 JUMPI DUP1 PUSH2 0x6B23 DUP9 DUP3 PUSH2 0x61EE JUMP JUMPDEST DUP5 MSTORE PUSH1 0x20 DUP5 ADD SWAP4 POP POP PUSH1 0x20 DUP2 ADD SWAP1 POP PUSH2 0x6B10 JUMP JUMPDEST POP POP POP SWAP4 SWAP3 POP POP POP JUMP JUMPDEST PUSH1 0x0 DUP3 PUSH1 0x1F DUP4 ADD SLT PUSH2 0x6B56 JUMPI PUSH2 0x6B55 PUSH2 0x658C JUMP JUMPDEST JUMPDEST DUP2 CALLDATALOAD PUSH2 0x6B66 DUP5 DUP3 PUSH1 0x20 DUP7 ADD PUSH2 0x6AD8 JUMP JUMPDEST SWAP2 POP POP SWAP3 SWAP2 POP POP JUMP JUMPDEST PUSH1 0x0 PUSH8 0xFFFFFFFFFFFFFFFF DUP3 GT ISZERO PUSH2 0x6B8A JUMPI PUSH2 0x6B89 PUSH2 0x6831 JUMP JUMPDEST JUMPDEST PUSH2 0x6B93 DUP3 PUSH2 0x6423 JUMP JUMPDEST SWAP1 POP PUSH1 0x20 DUP2 ADD SWAP1 POP SWAP2 SWAP1 POP JUMP JUMPDEST PUSH1 0x0 PUSH2 0x6BB3 PUSH2 0x6BAE DUP5 PUSH2 0x6B6F JUMP JUMPDEST PUSH2 0x6891 JUMP JUMPDEST SWAP1 POP DUP3 DUP2 MSTORE PUSH1 0x20 DUP2 ADD DUP5 DUP5 DUP5 ADD GT ISZERO PUSH2 0x6BCF JUMPI PUSH2 0x6BCE PUSH2 0x682C JUMP JUMPDEST JUMPDEST PUSH2 0x6BDA DUP5 DUP3 DUP6 PUSH2 0x68DD JUMP JUMPDEST POP SWAP4 SWAP3 POP POP POP JUMP JUMPDEST PUSH1 0x0 DUP3 PUSH1 0x1F DUP4 ADD SLT PUSH2 0x6BF7 JUMPI PUSH2 0x6BF6 PUSH2 0x658C JUMP JUMPDEST JUMPDEST DUP2 CALLDATALOAD PUSH2 0x6C07 DUP5 DUP3 PUSH1 0x20 DUP7 ADD PUSH2 0x6BA0 JUMP JUMPDEST SWAP2 POP POP SWAP3 SWAP2 POP POP JUMP JUMPDEST PUSH1 0x0 DUP1 PUSH1 0x0 DUP1 PUSH1 0x0 PUSH1 0xA0 DUP7 DUP9 SUB SLT ISZERO PUSH2 0x6C2C JUMPI PUSH2 0x6C2B PUSH2 0x6165 JUMP JUMPDEST JUMPDEST PUSH1 0x0 PUSH2 0x6C3A DUP9 DUP3 DUP10 ADD PUSH2 0x61B8 JUMP JUMPDEST SWAP6 POP POP PUSH1 0x20 PUSH2 0x6C4B DUP9 DUP3 DUP10 ADD PUSH2 0x61B8 JUMP JUMPDEST SWAP5 POP POP PUSH1 0x40 DUP7 ADD CALLDATALOAD PUSH8 0xFFFFFFFFFFFFFFFF DUP2 GT ISZERO PUSH2 0x6C6C JUMPI PUSH2 0x6C6B PUSH2 0x616A JUMP JUMPDEST JUMPDEST PUSH2 0x6C78 DUP9 DUP3 DUP10 ADD PUSH2 0x6B41 JUMP JUMPDEST SWAP4 POP POP PUSH1 0x60 DUP7 ADD CALLDATALOAD PUSH8 0xFFFFFFFFFFFFFFFF DUP2 GT ISZERO PUSH2 0x6C99 JUMPI PUSH2 0x6C98 PUSH2 0x616A JUMP JUMPDEST JUMPDEST PUSH2 0x6CA5 DUP9 DUP3 DUP10 ADD PUSH2 0x6B41 JUMP JUMPDEST SWAP3 POP POP PUSH1 0x80 DUP7 ADD CALLDATALOAD PUSH8 0xFFFFFFFFFFFFFFFF DUP2 GT ISZERO PUSH2 0x6CC6 JUMPI PUSH2 0x6CC5 PUSH2 0x616A JUMP JUMPDEST JUMPDEST PUSH2 0x6CD2 DUP9 DUP3 DUP10 ADD PUSH2 0x6BE2 JUMP JUMPDEST SWAP2 POP POP SWAP3 SWAP6 POP SWAP3 SWAP6 SWAP1 SWAP4 POP JUMP JUMPDEST PUSH1 0x0 DUP1 PUSH1 0x0 DUP1 PUSH1 0x80 DUP6 DUP8 SUB SLT ISZERO PUSH2 0x6CF9 JUMPI PUSH2 0x6CF8 PUSH2 0x6165 JUMP JUMPDEST JUMPDEST PUSH1 0x0 PUSH2 0x6D07 DUP8 DUP3 DUP9 ADD PUSH2 0x64CB JUMP JUMPDEST SWAP5 POP POP PUSH1 0x20 PUSH2 0x6D18 DUP8 DUP3 DUP9 ADD PUSH2 0x64CB JUMP JUMPDEST SWAP4 POP POP PUSH1 0x40 PUSH2 0x6D29 DUP8 DUP3 DUP9 ADD PUSH2 0x6973 JUMP JUMPDEST SWAP3 POP POP PUSH1 0x60 PUSH2 0x6D3A DUP8 DUP3 DUP9 ADD PUSH2 0x6537 JUMP JUMPDEST SWAP2 POP POP SWAP3 SWAP6 SWAP2 SWAP5 POP SWAP3 POP JUMP JUMPDEST PUSH1 0x0 PUSH2 0x6D51 DUP3 PUSH2 0x673A JUMP JUMPDEST SWAP1 POP SWAP2 SWAP1 POP JUMP JUMPDEST PUSH2 0x6D61 DUP2 PUSH2 0x6D46 JUMP JUMPDEST DUP3 MSTORE POP POP JUMP JUMPDEST PUSH1 0x0 PUSH1 0x20 DUP3 ADD SWAP1 POP PUSH2 0x6D7C PUSH1 0x0 DUP4 ADD DUP5 PUSH2 0x6D58 JUMP JUMPDEST SWAP3 SWAP2 POP POP JUMP JUMPDEST PUSH1 0x0 PUSH2 0xFFFF DUP3 AND SWAP1 POP SWAP2 SWAP1 POP JUMP JUMPDEST PUSH2 0x6D99 DUP2 PUSH2 0x6D82 JUMP JUMPDEST DUP2 EQ PUSH2 0x6DA4 JUMPI PUSH1 0x0 DUP1 REVERT JUMPDEST POP JUMP JUMPDEST PUSH1 0x0 DUP2 CALLDATALOAD SWAP1 POP PUSH2 0x6DB6 DUP2 PUSH2 0x6D90 JUMP JUMPDEST SWAP3 SWAP2 POP POP JUMP JUMPDEST PUSH1 0x0 DUP1 PUSH1 0x40 DUP4 DUP6 SUB SLT ISZERO PUSH2 0x6DD3 JUMPI PUSH2 0x6DD2 PUSH2 0x6165 JUMP JUMPDEST JUMPDEST PUSH1 0x0 PUSH2 0x6DE1 DUP6 DUP3 DUP7 ADD PUSH2 0x64CB JUMP JUMPDEST SWAP3 POP POP PUSH1 0x20 PUSH2 0x6DF2 DUP6 DUP3 DUP7 ADD PUSH2 0x6DA7 JUMP JUMPDEST SWAP2 POP POP SWAP3 POP SWAP3 SWAP1 POP JUMP JUMPDEST PUSH1 0x0 PUSH1 0x20 DUP3 ADD SWAP1 POP PUSH2 0x6E11 PUSH1 0x0 DUP4 ADD DUP5 PUSH2 0x62B9 JUMP JUMPDEST SWAP3 SWAP2 POP POP JUMP JUMPDEST PUSH1 0x0 PUSH8 0xFFFFFFFFFFFFFFFF DUP3 GT ISZERO PUSH2 0x6E32 JUMPI PUSH2 0x6E31 PUSH2 0x6831 JUMP JUMPDEST JUMPDEST PUSH1 0x20 DUP3 MUL SWAP1 POP PUSH1 0x20 DUP2 ADD SWAP1 POP SWAP2 SWAP1 POP JUMP JUMPDEST PUSH1 0x0 PUSH2 0x6E56 PUSH2 0x6E51 DUP5 PUSH2 0x6E17 JUMP JUMPDEST PUSH2 0x6891 JUMP JUMPDEST SWAP1 POP DUP1 DUP4 DUP3 MSTORE PUSH1 0x20 DUP3 ADD SWAP1 POP PUSH1 0x20 DUP5 MUL DUP4 ADD DUP6 DUP2 GT ISZERO PUSH2 0x6E79 JUMPI PUSH2 0x6E78 PUSH2 0x6596 JUMP JUMPDEST JUMPDEST DUP4 JUMPDEST DUP2 DUP2 LT ISZERO PUSH2 0x6EA2 JUMPI DUP1 PUSH2 0x6E8E DUP9 DUP3 PUSH2 0x61B8 JUMP JUMPDEST DUP5 MSTORE PUSH1 0x20 DUP5 ADD SWAP4 POP POP PUSH1 0x20 DUP2 ADD SWAP1 POP PUSH2 0x6E7B JUMP JUMPDEST POP POP POP SWAP4 SWAP3 POP POP POP JUMP JUMPDEST PUSH1 0x0 DUP3 PUSH1 0x1F DUP4 ADD SLT PUSH2 0x6EC1 JUMPI PUSH2 0x6EC0 PUSH2 0x658C JUMP JUMPDEST JUMPDEST DUP2 CALLDATALOAD PUSH2 0x6ED1 DUP5 DUP3 PUSH1 0x20 DUP7 ADD PUSH2 0x6E43 JUMP JUMPDEST SWAP2 POP POP SWAP3 SWAP2 POP POP JUMP JUMPDEST PUSH1 0x0 DUP1 PUSH1 0x40 DUP4 DUP6 SUB SLT ISZERO PUSH2 0x6EF1 JUMPI PUSH2 0x6EF0 PUSH2 0x6165 JUMP JUMPDEST JUMPDEST PUSH1 0x0 DUP4 ADD CALLDATALOAD PUSH8 0xFFFFFFFFFFFFFFFF DUP2 GT ISZERO PUSH2 0x6F0F JUMPI PUSH2 0x6F0E PUSH2 0x616A JUMP JUMPDEST JUMPDEST PUSH2 0x6F1B DUP6 DUP3 DUP7 ADD PUSH2 0x6EAC JUMP JUMPDEST SWAP3 POP POP PUSH1 0x20 DUP4 ADD CALLDATALOAD PUSH8 0xFFFFFFFFFFFFFFFF DUP2 GT ISZERO PUSH2 0x6F3C JUMPI PUSH2 0x6F3B PUSH2 0x616A JUMP JUMPDEST JUMPDEST PUSH2 0x6F48 DUP6 DUP3 DUP7 ADD PUSH2 0x6B41 JUMP JUMPDEST SWAP2 POP POP SWAP3 POP SWAP3 SWAP1 POP JUMP JUMPDEST PUSH1 0x0 DUP2 MLOAD SWAP1 POP SWAP2 SWAP1 POP JUMP JUMPDEST PUSH1 0x0 DUP3 DUP3 MSTORE PUSH1 0x20 DUP3 ADD SWAP1 POP SWAP3 SWAP2 POP POP JUMP JUMPDEST PUSH1 0x0 DUP2 SWAP1 POP PUSH1 0x20 DUP3 ADD SWAP1 POP SWAP2 SWAP1 POP JUMP JUMPDEST PUSH2 0x6F87 DUP2 PUSH2 0x61CD JUMP JUMPDEST DUP3 MSTORE POP POP JUMP JUMPDEST PUSH1 0x0 PUSH2 0x6F99 DUP4 DUP4 PUSH2 0x6F7E JUMP JUMPDEST PUSH1 0x20 DUP4 ADD SWAP1 POP SWAP3 SWAP2 POP POP JUMP JUMPDEST PUSH1 0x0 PUSH1 0x20 DUP3 ADD SWAP1 POP SWAP2 SWAP1 POP JUMP JUMPDEST PUSH1 0x0 PUSH2 0x6FBD DUP3 PUSH2 0x6F52 JUMP JUMPDEST PUSH2 0x6FC7 DUP2 DUP6 PUSH2 0x6F5D JUMP JUMPDEST SWAP4 POP PUSH2 0x6FD2 DUP4 PUSH2 0x6F6E JUMP JUMPDEST DUP1 PUSH1 0x0 JUMPDEST DUP4 DUP2 LT ISZERO PUSH2 0x7003 JUMPI DUP2 MLOAD PUSH2 0x6FEA DUP9 DUP3 PUSH2 0x6F8D JUMP JUMPDEST SWAP8 POP PUSH2 0x6FF5 DUP4 PUSH2 0x6FA5 JUMP JUMPDEST SWAP3 POP POP PUSH1 0x1 DUP2 ADD SWAP1 POP PUSH2 0x6FD6 JUMP JUMPDEST POP DUP6 SWAP4 POP POP POP POP SWAP3 SWAP2 POP POP JUMP JUMPDEST PUSH1 0x0 PUSH1 0x20 DUP3 ADD SWAP1 POP DUP2 DUP2 SUB PUSH1 0x0 DUP4 ADD MSTORE PUSH2 0x702A DUP2 DUP5 PUSH2 0x6FB2 JUMP JUMPDEST SWAP1 POP SWAP3 SWAP2 POP POP JUMP JUMPDEST PUSH1 0x0 PUSH2 0x703D DUP3 PUSH2 0x673A JUMP JUMPDEST SWAP1 POP SWAP2 SWAP1 POP JUMP JUMPDEST PUSH2 0x704D DUP2 PUSH2 0x7032 JUMP JUMPDEST DUP3 MSTORE POP POP JUMP JUMPDEST PUSH1 0x0 PUSH1 0x20 DUP3 ADD SWAP1 POP PUSH2 0x7068 PUSH1 0x0 DUP4 ADD DUP5 PUSH2 0x7044 JUMP JUMPDEST SWAP3 SWAP2 POP POP JUMP JUMPDEST PUSH1 0x0 DUP1 PUSH1 0x0 PUSH1 0x60 DUP5 DUP7 SUB SLT ISZERO PUSH2 0x7087 JUMPI PUSH2 0x7086 PUSH2 0x6165 JUMP JUMPDEST JUMPDEST PUSH1 0x0 PUSH2 0x7095 DUP7 DUP3 DUP8 ADD PUSH2 0x61B8 JUMP JUMPDEST SWAP4 POP POP PUSH1 0x20 PUSH2 0x70A6 DUP7 DUP3 DUP8 ADD PUSH2 0x61B8 JUMP JUMPDEST SWAP3 POP POP PUSH1 0x40 PUSH2 0x70B7 DUP7 DUP3 DUP8 ADD PUSH2 0x61EE JUMP JUMPDEST SWAP2 POP POP SWAP3 POP SWAP3 POP SWAP3 JUMP JUMPDEST PUSH1 0x0 DUP1 PUSH1 0x0 PUSH1 0x60 DUP5 DUP7 SUB SLT ISZERO PUSH2 0x70DA JUMPI PUSH2 0x70D9 PUSH2 0x6165 JUMP JUMPDEST JUMPDEST PUSH1 0x0 PUSH2 0x70E8 DUP7 DUP3 DUP8 ADD PUSH2 0x64CB JUMP JUMPDEST SWAP4 POP POP PUSH1 0x20 PUSH2 0x70F9 DUP7 DUP3 DUP8 ADD PUSH2 0x64CB JUMP JUMPDEST SWAP3 POP POP PUSH1 0x40 PUSH2 0x710A DUP7 DUP3 DUP8 ADD PUSH2 0x6537 JUMP JUMPDEST SWAP2 POP POP SWAP3 POP SWAP3 POP SWAP3 JUMP JUMPDEST PUSH1 0x0 PUSH1 0x20 DUP3 ADD SWAP1 POP PUSH2 0x7129 PUSH1 0x0 DUP4 ADD DUP5 PUSH2 0x62DC JUMP JUMPDEST SWAP3 SWAP2 POP POP JUMP JUMPDEST PUSH1 0x0 DUP1 PUSH1 0x0 PUSH1 0x60 DUP5 DUP7 SUB SLT ISZERO PUSH2 0x7148 JUMPI PUSH2 0x7147 PUSH2 0x6165 JUMP JUMPDEST JUMPDEST PUSH1 0x0 PUSH2 0x7156 DUP7 DUP3 DUP8 ADD PUSH2 0x64CB JUMP JUMPDEST SWAP4 POP POP PUSH1 0x20 PUSH2 0x7167 DUP7 DUP3 DUP8 ADD PUSH2 0x61B8 JUMP JUMPDEST SWAP3 POP POP PUSH1 0x40 PUSH2 0x7178 DUP7 DUP3 DUP8 ADD PUSH2 0x61B8 JUMP JUMPDEST SWAP2 POP POP SWAP3 POP SWAP3 POP SWAP3 JUMP JUMPDEST PUSH1 0x0 DUP1 DUP4 PUSH1 0x1F DUP5 ADD SLT PUSH2 0x7198 JUMPI PUSH2 0x7197 PUSH2 0x658C JUMP JUMPDEST JUMPDEST DUP3 CALLDATALOAD SWAP1 POP PUSH8 0xFFFFFFFFFFFFFFFF DUP2 GT ISZERO PUSH2 0x71B5 JUMPI PUSH2 0x71B4 PUSH2 0x6591 JUMP JUMPDEST JUMPDEST PUSH1 0x20 DUP4 ADD SWAP2 POP DUP4 PUSH1 0x1 DUP3 MUL DUP4 ADD GT ISZERO PUSH2 0x71D1 JUMPI PUSH2 0x71D0 PUSH2 0x6596 JUMP JUMPDEST JUMPDEST SWAP3 POP SWAP3 SWAP1 POP JUMP JUMPDEST PUSH1 0x0 DUP1 PUSH1 0x0 DUP1 PUSH1 0x0 PUSH1 0x80 DUP7 DUP9 SUB SLT ISZERO PUSH2 0x71F4 JUMPI PUSH2 0x71F3 PUSH2 0x6165 JUMP JUMPDEST JUMPDEST PUSH1 0x0 DUP7 ADD CALLDATALOAD PUSH8 0xFFFFFFFFFFFFFFFF DUP2 GT ISZERO PUSH2 0x7212 JUMPI PUSH2 0x7211 PUSH2 0x616A JUMP JUMPDEST JUMPDEST PUSH2 0x721E DUP9 DUP3 DUP10 ADD PUSH2 0x7182 JUMP JUMPDEST SWAP6 POP SWAP6 POP POP PUSH1 0x20 PUSH2 0x7231 DUP9 DUP3 DUP10 ADD PUSH2 0x61B8 JUMP JUMPDEST SWAP4 POP POP PUSH1 0x40 PUSH2 0x7242 DUP9 DUP3 DUP10 ADD PUSH2 0x6DA7 JUMP JUMPDEST SWAP3 POP POP PUSH1 0x60 PUSH2 0x7253 DUP9 DUP3 DUP10 ADD PUSH2 0x61B8 JUMP JUMPDEST SWAP2 POP POP SWAP3 SWAP6 POP SWAP3 SWAP6 SWAP1 SWAP4 POP JUMP JUMPDEST PUSH2 0x7269 DUP2 PUSH2 0x63A7 JUMP JUMPDEST DUP2 EQ PUSH2 0x7274 JUMPI PUSH1 0x0 DUP1 REVERT JUMPDEST POP JUMP JUMPDEST PUSH1 0x0 DUP2 CALLDATALOAD SWAP1 POP PUSH2 0x7286 DUP2 PUSH2 0x7260 JUMP JUMPDEST SWAP3 SWAP2 POP POP JUMP JUMPDEST PUSH1 0x0 DUP1 PUSH1 0x40 DUP4 DUP6 SUB SLT ISZERO PUSH2 0x72A3 JUMPI PUSH2 0x72A2 PUSH2 0x6165 JUMP JUMPDEST JUMPDEST PUSH1 0x0 PUSH2 0x72B1 DUP6 DUP3 DUP7 ADD PUSH2 0x61B8 JUMP JUMPDEST SWAP3 POP POP PUSH1 0x20 PUSH2 0x72C2 DUP6 DUP3 DUP7 ADD PUSH2 0x7277 JUMP JUMPDEST SWAP2 POP POP SWAP3 POP SWAP3 SWAP1 POP JUMP JUMPDEST PUSH1 0x0 DUP1 PUSH1 0x0 DUP1 PUSH1 0x0 DUP1 PUSH1 0xA0 DUP8 DUP10 SUB SLT ISZERO PUSH2 0x72E9 JUMPI PUSH2 0x72E8 PUSH2 0x6165 JUMP JUMPDEST JUMPDEST PUSH1 0x0 DUP8 ADD CALLDATALOAD PUSH8 0xFFFFFFFFFFFFFFFF DUP2 GT ISZERO PUSH2 0x7307 JUMPI PUSH2 0x7306 PUSH2 0x616A JUMP JUMPDEST JUMPDEST PUSH2 0x7313 DUP10 DUP3 DUP11 ADD PUSH2 0x7182 JUMP JUMPDEST SWAP7 POP SWAP7 POP POP PUSH1 0x20 PUSH2 0x7326 DUP10 DUP3 DUP11 ADD PUSH2 0x61B8 JUMP JUMPDEST SWAP5 POP POP PUSH1 0x40 PUSH2 0x7337 DUP10 DUP3 DUP11 ADD PUSH2 0x61EE JUMP JUMPDEST SWAP4 POP POP PUSH1 0x60 PUSH2 0x7348 DUP10 DUP3 DUP11 ADD PUSH2 0x61B8 JUMP JUMPDEST SWAP3 POP POP PUSH1 0x80 PUSH2 0x7359 DUP10 DUP3 DUP11 ADD PUSH2 0x6DA7 JUMP JUMPDEST SWAP2 POP POP SWAP3 SWAP6 POP SWAP3 SWAP6 POP SWAP3 SWAP6 JUMP JUMPDEST PUSH1 0x0 DUP1 PUSH1 0x40 DUP4 DUP6 SUB SLT ISZERO PUSH2 0x737D JUMPI PUSH2 0x737C PUSH2 0x6165 JUMP JUMPDEST JUMPDEST PUSH1 0x0 PUSH2 0x738B DUP6 DUP3 DUP7 ADD PUSH2 0x64CB JUMP JUMPDEST SWAP3 POP POP PUSH1 0x20 PUSH2 0x739C DUP6 DUP3 DUP7 ADD PUSH2 0x6973 JUMP JUMPDEST SWAP2 POP POP SWAP3 POP SWAP3 SWAP1 POP JUMP JUMPDEST PUSH1 0x0 PUSH2 0x73B1 DUP3 PUSH2 0x618F JUMP JUMPDEST SWAP1 POP SWAP2 SWAP1 POP JUMP JUMPDEST PUSH2 0x73C1 DUP2 PUSH2 0x73A6 JUMP JUMPDEST DUP2 EQ PUSH2 0x73CC JUMPI PUSH1 0x0 DUP1 REVERT JUMPDEST POP JUMP JUMPDEST PUSH1 0x0 DUP2 CALLDATALOAD SWAP1 POP PUSH2 0x73DE DUP2 PUSH2 0x73B8 JUMP JUMPDEST SWAP3 SWAP2 POP POP JUMP JUMPDEST PUSH1 0x0 PUSH1 0x20 DUP3 DUP5 SUB SLT ISZERO PUSH2 0x73FA JUMPI PUSH2 0x73F9 PUSH2 0x6165 JUMP JUMPDEST JUMPDEST PUSH1 0x0 PUSH2 0x7408 DUP5 DUP3 DUP6 ADD PUSH2 0x73CF JUMP JUMPDEST SWAP2 POP POP SWAP3 SWAP2 POP POP JUMP JUMPDEST PUSH1 0x0 DUP1 PUSH1 0x40 DUP4 DUP6 SUB SLT ISZERO PUSH2 0x7428 JUMPI PUSH2 0x7427 PUSH2 0x6165 JUMP JUMPDEST JUMPDEST PUSH1 0x0 PUSH2 0x7436 DUP6 DUP3 DUP7 ADD PUSH2 0x61EE JUMP JUMPDEST SWAP3 POP POP PUSH1 0x20 PUSH2 0x7447 DUP6 DUP3 DUP7 ADD PUSH2 0x61EE JUMP JUMPDEST SWAP2 POP POP SWAP3 POP SWAP3 SWAP1 POP JUMP JUMPDEST PUSH1 0x0 DUP1 PUSH1 0x0 DUP1 PUSH1 0x0 DUP1 PUSH1 0xA0 DUP8 DUP10 SUB SLT ISZERO PUSH2 0x746E JUMPI PUSH2 0x746D PUSH2 0x6165 JUMP JUMPDEST JUMPDEST PUSH1 0x0 PUSH2 0x747C DUP10 DUP3 DUP11 ADD PUSH2 0x64CB JUMP JUMPDEST SWAP7 POP POP PUSH1 0x20 DUP8 ADD CALLDATALOAD PUSH8 0xFFFFFFFFFFFFFFFF DUP2 GT ISZERO PUSH2 0x749D JUMPI PUSH2 0x749C PUSH2 0x616A JUMP JUMPDEST JUMPDEST PUSH2 0x74A9 DUP10 DUP3 DUP11 ADD PUSH2 0x7182 JUMP JUMPDEST SWAP6 POP SWAP6 POP POP PUSH1 0x40 PUSH2 0x74BC DUP10 DUP3 DUP11 ADD PUSH2 0x61B8 JUMP JUMPDEST SWAP4 POP POP PUSH1 0x60 PUSH2 0x74CD DUP10 DUP3 DUP11 ADD PUSH2 0x6973 JUMP JUMPDEST SWAP3 POP POP PUSH1 0x80 PUSH2 0x74DE DUP10 DUP3 DUP11 ADD PUSH2 0x6537 JUMP JUMPDEST SWAP2 POP POP SWAP3 SWAP6 POP SWAP3 SWAP6 POP SWAP3 SWAP6 JUMP JUMPDEST PUSH1 0x0 DUP1 PUSH1 0x0 DUP1 PUSH1 0x40 DUP6 DUP8 SUB SLT ISZERO PUSH2 0x7505 JUMPI PUSH2 0x7504 PUSH2 0x6165 JUMP JUMPDEST JUMPDEST PUSH1 0x0 DUP6 ADD CALLDATALOAD PUSH8 0xFFFFFFFFFFFFFFFF DUP2 GT ISZERO PUSH2 0x7523 JUMPI PUSH2 0x7522 PUSH2 0x616A JUMP JUMPDEST JUMPDEST PUSH2 0x752F DUP8 DUP3 DUP9 ADD PUSH2 0x659B JUMP JUMPDEST SWAP5 POP SWAP5 POP POP PUSH1 0x20 DUP6 ADD CALLDATALOAD PUSH8 0xFFFFFFFFFFFFFFFF DUP2 GT ISZERO PUSH2 0x7552 JUMPI PUSH2 0x7551 PUSH2 0x616A JUMP JUMPDEST JUMPDEST PUSH2 0x755E DUP8 DUP3 DUP9 ADD PUSH2 0x659B JUMP JUMPDEST SWAP3 POP SWAP3 POP POP SWAP3 SWAP6 SWAP2 SWAP5 POP SWAP3 POP JUMP JUMPDEST PUSH1 0x0 DUP1 PUSH1 0x0 DUP1 PUSH1 0x80 DUP6 DUP8 SUB SLT ISZERO PUSH2 0x7586 JUMPI PUSH2 0x7585 PUSH2 0x6165 JUMP JUMPDEST JUMPDEST PUSH1 0x0 PUSH2 0x7594 DUP8 DUP3 DUP9 ADD PUSH2 0x64CB JUMP JUMPDEST SWAP5 POP POP PUSH1 0x20 PUSH2 0x75A5 DUP8 DUP3 DUP9 ADD PUSH2 0x61B8 JUMP JUMPDEST SWAP4 POP POP PUSH1 0x40 PUSH2 0x75B6 DUP8 DUP3 DUP9 ADD PUSH2 0x61B8 JUMP JUMPDEST SWAP3 POP POP PUSH1 0x60 PUSH2 0x75C7 DUP8 DUP3 DUP9 ADD PUSH2 0x6537 JUMP JUMPDEST SWAP2 POP POP SWAP3 SWAP6 SWAP2 SWAP5 POP SWAP3 POP JUMP JUMPDEST PUSH1 0x0 DUP1 PUSH1 0x0 PUSH1 0x60 DUP5 DUP7 SUB SLT ISZERO PUSH2 0x75EC JUMPI PUSH2 0x75EB PUSH2 0x6165 JUMP JUMPDEST JUMPDEST PUSH1 0x0 PUSH2 0x75FA DUP7 DUP3 DUP8 ADD PUSH2 0x64CB JUMP JUMPDEST SWAP4 POP POP PUSH1 0x20 PUSH2 0x760B DUP7 DUP3 DUP8 ADD PUSH2 0x64CB JUMP JUMPDEST SWAP3 POP POP PUSH1 0x40 PUSH2 0x761C DUP7 DUP3 DUP8 ADD PUSH2 0x61B8 JUMP JUMPDEST SWAP2 POP POP SWAP3 POP SWAP3 POP SWAP3 JUMP JUMPDEST PUSH1 0x0 DUP1 PUSH1 0x40 DUP4 DUP6 SUB SLT ISZERO PUSH2 0x763D JUMPI PUSH2 0x763C PUSH2 0x6165 JUMP JUMPDEST JUMPDEST PUSH1 0x0 PUSH2 0x764B DUP6 DUP3 DUP7 ADD PUSH2 0x64CB JUMP JUMPDEST SWAP3 POP POP PUSH1 0x20 PUSH2 0x765C DUP6 DUP3 DUP7 ADD PUSH2 0x64CB JUMP JUMPDEST SWAP2 POP POP SWAP3 POP SWAP3 SWAP1 POP JUMP JUMPDEST PUSH1 0x0 PUSH1 0x20 DUP3 DUP5 SUB SLT ISZERO PUSH2 0x767C JUMPI PUSH2 0x767B PUSH2 0x6165 JUMP JUMPDEST JUMPDEST PUSH1 0x0 PUSH2 0x768A DUP5 DUP3 DUP6 ADD PUSH2 0x61B8 JUMP JUMPDEST SWAP2 POP POP SWAP3 SWAP2 POP POP JUMP JUMPDEST PUSH1 0x0 DUP1 PUSH1 0x40 DUP4 DUP6 SUB SLT ISZERO PUSH2 0x76AA JUMPI PUSH2 0x76A9 PUSH2 0x6165 JUMP JUMPDEST JUMPDEST PUSH1 0x0 PUSH2 0x76B8 DUP6 DUP3 DUP7 ADD PUSH2 0x61B8 JUMP JUMPDEST SWAP3 POP POP PUSH1 0x20 PUSH2 0x76C9 DUP6 DUP3 DUP7 ADD PUSH2 0x61B8 JUMP JUMPDEST SWAP2 POP POP SWAP3 POP SWAP3 SWAP1 POP JUMP JUMPDEST PUSH1 0x0 DUP1 PUSH1 0x0 DUP1 PUSH1 0x60 DUP6 DUP8 SUB SLT ISZERO PUSH2 0x76ED JUMPI PUSH2 0x76EC PUSH2 0x6165 JUMP JUMPDEST JUMPDEST PUSH1 0x0 DUP6 ADD CALLDATALOAD PUSH8 0xFFFFFFFFFFFFFFFF DUP2 GT ISZERO PUSH2 0x770B JUMPI PUSH2 0x770A PUSH2 0x616A JUMP JUMPDEST JUMPDEST PUSH2 0x7717 DUP8 DUP3 DUP9 ADD PUSH2 0x659B JUMP JUMPDEST SWAP5 POP SWAP5 POP POP PUSH1 0x20 PUSH2 0x772A DUP8 DUP3 DUP9 ADD PUSH2 0x61B8 JUMP JUMPDEST SWAP3 POP POP PUSH1 0x40 PUSH2 0x773B DUP8 DUP3 DUP9 ADD PUSH2 0x61B8 JUMP JUMPDEST SWAP2 POP POP SWAP3 SWAP6 SWAP2 SWAP5 POP SWAP3 POP JUMP JUMPDEST PUSH1 0x0 DUP1 PUSH1 0x0 DUP1 PUSH1 0x0 PUSH1 0xA0 DUP7 DUP9 SUB SLT ISZERO PUSH2 0x7763 JUMPI PUSH2 0x7762 PUSH2 0x6165 JUMP JUMPDEST JUMPDEST PUSH1 0x0 PUSH2 0x7771 DUP9 DUP3 DUP10 ADD PUSH2 0x61B8 JUMP JUMPDEST SWAP6 POP POP PUSH1 0x20 PUSH2 0x7782 DUP9 DUP3 DUP10 ADD PUSH2 0x61B8 JUMP JUMPDEST SWAP5 POP POP PUSH1 0x40 PUSH2 0x7793 DUP9 DUP3 DUP10 ADD PUSH2 0x61EE JUMP JUMPDEST SWAP4 POP POP PUSH1 0x60 PUSH2 0x77A4 DUP9 DUP3 DUP10 ADD PUSH2 0x61EE JUMP JUMPDEST SWAP3 POP POP PUSH1 0x80 DUP7 ADD CALLDATALOAD PUSH8 0xFFFFFFFFFFFFFFFF DUP2 GT ISZERO PUSH2 0x77C5 JUMPI PUSH2 0x77C4 PUSH2 0x616A JUMP JUMPDEST JUMPDEST PUSH2 0x77D1 DUP9 DUP3 DUP10 ADD PUSH2 0x6BE2 JUMP JUMPDEST SWAP2 POP POP SWAP3 SWAP6 POP SWAP3 SWAP6 SWAP1 SWAP4 POP JUMP JUMPDEST PUSH32 0x455243313135353A2062616C616E636520717565727920666F7220746865207A PUSH1 0x0 DUP3 ADD MSTORE PUSH32 0x65726F2061646472657373000000000000000000000000000000000000000000 PUSH1 0x20 DUP3 ADD MSTORE POP JUMP JUMPDEST PUSH1 0x0 PUSH2 0x783A PUSH1 0x2B DUP4 PUSH2 0x63E8 JUMP JUMPDEST SWAP2 POP PUSH2 0x7845 DUP3 PUSH2 0x77DE JUMP JUMPDEST PUSH1 0x40 DUP3 ADD SWAP1 POP SWAP2 SWAP1 POP JUMP JUMPDEST PUSH1 0x0 PUSH1 0x20 DUP3 ADD SWAP1 POP DUP2 DUP2 SUB PUSH1 0x0 DUP4 ADD MSTORE PUSH2 0x7869 DUP2 PUSH2 0x782D JUMP JUMPDEST SWAP1 POP SWAP2 SWAP1 POP JUMP JUMPDEST PUSH1 0x0 PUSH1 0x40 DUP3 ADD SWAP1 POP PUSH2 0x7885 PUSH1 0x0 DUP4 ADD DUP6 PUSH2 0x629A JUMP JUMPDEST PUSH2 0x7892 PUSH1 0x20 DUP4 ADD DUP5 PUSH2 0x6243 JUMP JUMPDEST SWAP4 SWAP3 POP POP POP JUMP JUMPDEST PUSH1 0x0 PUSH2 0x78AC PUSH2 0x78A7 DUP5 PUSH2 0x68AC JUMP JUMPDEST PUSH2 0x6891 JUMP JUMPDEST SWAP1 POP DUP3 DUP2 MSTORE PUSH1 0x20 DUP2 ADD DUP5 DUP5 DUP5 ADD GT ISZERO PUSH2 0x78C8 JUMPI PUSH2 0x78C7 PUSH2 0x682C JUMP JUMPDEST JUMPDEST PUSH2 0x78D3 DUP5 DUP3 DUP6 PUSH2 0x63F9 JUMP JUMPDEST POP SWAP4 SWAP3 POP POP POP JUMP JUMPDEST PUSH1 0x0 DUP3 PUSH1 0x1F DUP4 ADD SLT PUSH2 0x78F0 JUMPI PUSH2 0x78EF PUSH2 0x658C JUMP JUMPDEST JUMPDEST DUP2 MLOAD PUSH2 0x7900 DUP5 DUP3 PUSH1 0x20 DUP7 ADD PUSH2 0x7899 JUMP JUMPDEST SWAP2 POP POP SWAP3 SWAP2 POP POP JUMP JUMPDEST PUSH1 0x0 PUSH1 0x20 DUP3 DUP5 SUB SLT ISZERO PUSH2 0x791F JUMPI PUSH2 0x791E PUSH2 0x6165 JUMP JUMPDEST JUMPDEST PUSH1 0x0 DUP3 ADD MLOAD PUSH8 0xFFFFFFFFFFFFFFFF DUP2 GT ISZERO PUSH2 0x793D JUMPI PUSH2 0x793C PUSH2 0x616A JUMP JUMPDEST JUMPDEST PUSH2 0x7949 DUP5 DUP3 DUP6 ADD PUSH2 0x78DB JUMP JUMPDEST SWAP2 POP POP SWAP3 SWAP2 POP POP JUMP JUMPDEST PUSH1 0x0 PUSH1 0x40 DUP3 ADD SWAP1 POP PUSH2 0x7967 PUSH1 0x0 DUP4 ADD DUP6 PUSH2 0x6A46 JUMP JUMPDEST PUSH2 0x7974 PUSH1 0x20 DUP4 ADD DUP5 PUSH2 0x629A JUMP JUMPDEST SWAP4 SWAP3 POP POP POP JUMP JUMPDEST PUSH1 0x0 PUSH1 0x40 DUP3 ADD SWAP1 POP PUSH2 0x7990 PUSH1 0x0 DUP4 ADD DUP6 PUSH2 0x6A46 JUMP JUMPDEST PUSH2 0x799D PUSH1 0x20 DUP4 ADD DUP5 PUSH2 0x62DC JUMP JUMPDEST SWAP4 SWAP3 POP POP POP JUMP JUMPDEST PUSH1 0x0 PUSH2 0x79AF DUP3 PUSH2 0x616F JUMP JUMPDEST SWAP1 POP SWAP2 SWAP1 POP JUMP JUMPDEST PUSH2 0x79BF DUP2 PUSH2 0x79A4 JUMP JUMPDEST DUP2 EQ PUSH2 0x79CA JUMPI PUSH1 0x0 DUP1 REVERT JUMPDEST POP JUMP JUMPDEST PUSH1 0x0 DUP2 CALLDATALOAD SWAP1 POP PUSH2 0x79DC DUP2 PUSH2 0x79B6 JUMP JUMPDEST SWAP3 SWAP2 POP POP JUMP JUMPDEST PUSH1 0x0 DUP1 PUSH1 0x0 DUP1 PUSH1 0x80 DUP6 DUP8 SUB SLT ISZERO PUSH2 0x79FC JUMPI PUSH2 0x79FB PUSH2 0x6165 JUMP JUMPDEST JUMPDEST PUSH1 0x0 DUP6 ADD CALLDATALOAD PUSH8 0xFFFFFFFFFFFFFFFF DUP2 GT ISZERO PUSH2 0x7A1A JUMPI PUSH2 0x7A19 PUSH2 0x616A JUMP JUMPDEST JUMPDEST PUSH2 0x7A26 DUP8 DUP3 DUP9 ADD PUSH2 0x692E JUMP JUMPDEST SWAP5 POP POP PUSH1 0x20 PUSH2 0x7A37 DUP8 DUP3 DUP9 ADD PUSH2 0x79CD JUMP JUMPDEST SWAP4 POP POP PUSH1 0x40 PUSH2 0x7A48 DUP8 DUP3 DUP9 ADD PUSH2 0x6DA7 JUMP JUMPDEST SWAP3 POP POP PUSH1 0x60 PUSH2 0x7A59 DUP8 DUP3 DUP9 ADD PUSH2 0x79CD JUMP JUMPDEST SWAP2 POP POP SWAP3 SWAP6 SWAP2 SWAP5 POP SWAP3 POP JUMP JUMPDEST PUSH1 0x0 PUSH1 0x40 DUP3 ADD SWAP1 POP PUSH2 0x7A7A PUSH1 0x0 DUP4 ADD DUP6 PUSH2 0x6A46 JUMP JUMPDEST PUSH2 0x7A87 PUSH1 0x20 DUP4 ADD DUP5 PUSH2 0x6A46 JUMP JUMPDEST SWAP4 SWAP3 POP POP POP JUMP JUMPDEST PUSH1 0x0 PUSH1 0x40 DUP3 ADD SWAP1 POP PUSH2 0x7AA3 PUSH1 0x0 DUP4 ADD DUP6 PUSH2 0x6243 JUMP JUMPDEST PUSH2 0x7AB0 PUSH1 0x20 DUP4 ADD DUP5 PUSH2 0x629A JUMP JUMPDEST SWAP4 SWAP3 POP POP POP JUMP JUMPDEST PUSH1 0x0 DUP2 MLOAD SWAP1 POP PUSH2 0x7AC6 DUP2 PUSH2 0x61D7 JUMP JUMPDEST SWAP3 SWAP2 POP POP JUMP JUMPDEST PUSH1 0x0 PUSH1 0x20 DUP3 DUP5 SUB SLT ISZERO PUSH2 0x7AE2 JUMPI PUSH2 0x7AE1 PUSH2 0x6165 JUMP JUMPDEST JUMPDEST PUSH1 0x0 PUSH2 0x7AF0 DUP5 DUP3 DUP6 ADD PUSH2 0x7AB7 JUMP JUMPDEST SWAP2 POP POP SWAP3 SWAP2 POP POP JUMP JUMPDEST PUSH32 0x4E487B7100000000000000000000000000000000000000000000000000000000 PUSH1 0x0 MSTORE PUSH1 0x11 PUSH1 0x4 MSTORE PUSH1 0x24 PUSH1 0x0 REVERT JUMPDEST PUSH1 0x0 PUSH2 0x7B33 DUP3 PUSH2 0x62C8 JUMP JUMPDEST SWAP2 POP PUSH2 0x7B3E DUP4 PUSH2 0x62C8 JUMP JUMPDEST SWAP3 POP DUP3 DUP3 ADD SWAP1 POP PUSH8 0xFFFFFFFFFFFFFFFF DUP2 GT ISZERO PUSH2 0x7B5E JUMPI PUSH2 0x7B5D PUSH2 0x7AF9 JUMP JUMPDEST JUMPDEST SWAP3 SWAP2 POP POP JUMP JUMPDEST PUSH32 0x4E487B7100000000000000000000000000000000000000000000000000000000 PUSH1 0x0 MSTORE PUSH1 0x22 PUSH1 0x4 MSTORE PUSH1 0x24 PUSH1 0x0 REVERT JUMPDEST PUSH1 0x0 PUSH1 0x2 DUP3 DIV SWAP1 POP PUSH1 0x1 DUP3 AND DUP1 PUSH2 0x7BAB JUMPI PUSH1 0x7F DUP3 AND SWAP2 POP JUMPDEST PUSH1 0x20 DUP3 LT DUP2 SUB PUSH2 0x7BBE JUMPI PUSH2 0x7BBD PUSH2 0x7B64 JUMP JUMPDEST JUMPDEST POP SWAP2 SWAP1 POP JUMP JUMPDEST PUSH1 0x0 PUSH1 0xA0 DUP3 ADD SWAP1 POP PUSH2 0x7BD9 PUSH1 0x0 DUP4 ADD DUP9 PUSH2 0x6A46 JUMP JUMPDEST PUSH2 0x7BE6 PUSH1 0x20 DUP4 ADD DUP8 PUSH2 0x6A46 JUMP JUMPDEST PUSH2 0x7BF3 PUSH1 0x40 DUP4 ADD DUP7 PUSH2 0x629A JUMP JUMPDEST PUSH2 0x7C00 PUSH1 0x60 DUP4 ADD DUP6 PUSH2 0x629A JUMP JUMPDEST PUSH2 0x7C0D PUSH1 0x80 DUP4 ADD DUP5 PUSH2 0x62DC JUMP JUMPDEST SWAP7 SWAP6 POP POP POP POP POP POP JUMP JUMPDEST PUSH32 0x455243313135353A2069647320616E6420616D6F756E7473206C656E67746820 PUSH1 0x0 DUP3 ADD MSTORE PUSH32 0x6D69736D61746368000000000000000000000000000000000000000000000000 PUSH1 0x20 DUP3 ADD MSTORE POP JUMP JUMPDEST PUSH1 0x0 PUSH2 0x7C73 PUSH1 0x28 DUP4 PUSH2 0x63E8 JUMP JUMPDEST SWAP2 POP PUSH2 0x7C7E DUP3 PUSH2 0x7C17 JUMP JUMPDEST PUSH1 0x40 DUP3 ADD SWAP1 POP SWAP2 SWAP1 POP JUMP JUMPDEST PUSH1 0x0 PUSH1 0x20 DUP3 ADD SWAP1 POP DUP2 DUP2 SUB PUSH1 0x0 DUP4 ADD MSTORE PUSH2 0x7CA2 DUP2 PUSH2 0x7C66 JUMP JUMPDEST SWAP1 POP SWAP2 SWAP1 POP JUMP JUMPDEST PUSH32 0x455243313135353A207472616E7366657220746F20746865207A65726F206164 PUSH1 0x0 DUP3 ADD MSTORE PUSH32 0x6472657373000000000000000000000000000000000000000000000000000000 PUSH1 0x20 DUP3 ADD MSTORE POP JUMP JUMPDEST PUSH1 0x0 PUSH2 0x7D05 PUSH1 0x25 DUP4 PUSH2 0x63E8 JUMP JUMPDEST SWAP2 POP PUSH2 0x7D10 DUP3 PUSH2 0x7CA9 JUMP JUMPDEST PUSH1 0x40 DUP3 ADD SWAP1 POP SWAP2 SWAP1 POP JUMP JUMPDEST PUSH1 0x0 PUSH1 0x20 DUP3 ADD SWAP1 POP DUP2 DUP2 SUB PUSH1 0x0 DUP4 ADD MSTORE PUSH2 0x7D34 DUP2 PUSH2 0x7CF8 JUMP JUMPDEST SWAP1 POP SWAP2 SWAP1 POP JUMP JUMPDEST PUSH32 0x455243313135353A207472616E736665722063616C6C6572206973206E6F7420 PUSH1 0x0 DUP3 ADD MSTORE PUSH32 0x6F776E6572206E6F7220617070726F7665640000000000000000000000000000 PUSH1 0x20 DUP3 ADD MSTORE POP JUMP JUMPDEST PUSH1 0x0 PUSH2 0x7D97 PUSH1 0x32 DUP4 PUSH2 0x63E8 JUMP JUMPDEST SWAP2 POP PUSH2 0x7DA2 DUP3 PUSH2 0x7D3B JUMP JUMPDEST PUSH1 0x40 DUP3 ADD SWAP1 POP SWAP2 SWAP1 POP JUMP JUMPDEST PUSH1 0x0 PUSH1 0x20 DUP3 ADD SWAP1 POP DUP2 DUP2 SUB PUSH1 0x0 DUP4 ADD MSTORE PUSH2 0x7DC6 DUP2 PUSH2 0x7D8A JUMP JUMPDEST SWAP1 POP SWAP2 SWAP1 POP JUMP JUMPDEST PUSH32 0x4E487B7100000000000000000000000000000000000000000000000000000000 PUSH1 0x0 MSTORE PUSH1 0x32 PUSH1 0x4 MSTORE PUSH1 0x24 PUSH1 0x0 REVERT JUMPDEST PUSH32 0x455243313135353A20696E73756666696369656E742062616C616E636520666F PUSH1 0x0 DUP3 ADD MSTORE PUSH32 0x72207472616E7366657200000000000000000000000000000000000000000000 PUSH1 0x20 DUP3 ADD MSTORE POP JUMP JUMPDEST PUSH1 0x0 PUSH2 0x7E58 PUSH1 0x2A DUP4 PUSH2 0x63E8 JUMP JUMPDEST SWAP2 POP PUSH2 0x7E63 DUP3 PUSH2 0x7DFC JUMP JUMPDEST PUSH1 0x40 DUP3 ADD SWAP1 POP SWAP2 SWAP1 POP JUMP JUMPDEST PUSH1 0x0 PUSH1 0x20 DUP3 ADD SWAP1 POP DUP2 DUP2 SUB PUSH1 0x0 DUP4 ADD MSTORE PUSH2 0x7E87 DUP2 PUSH2 0x7E4B JUMP JUMPDEST SWAP1 POP SWAP2 SWAP1 POP JUMP JUMPDEST PUSH1 0x0 PUSH2 0x7E99 DUP3 PUSH2 0x61CD JUMP JUMPDEST SWAP2 POP PUSH32 0xFFFFFFFFFFFFFFFFFFFFFFFFFFFFFFFFFFFFFFFFFFFFFFFFFFFFFFFFFFFFFFFF DUP3 SUB PUSH2 0x7ECB JUMPI PUSH2 0x7ECA PUSH2 0x7AF9 JUMP JUMPDEST JUMPDEST PUSH1 0x1 DUP3 ADD SWAP1 POP SWAP2 SWAP1 POP JUMP JUMPDEST PUSH1 0x0 PUSH1 0x40 DUP3 ADD SWAP1 POP DUP2 DUP2 SUB PUSH1 0x0 DUP4 ADD MSTORE PUSH2 0x7EF0 DUP2 DUP6 PUSH2 0x6FB2 JUMP JUMPDEST SWAP1 POP DUP2 DUP2 SUB PUSH1 0x20 DUP4 ADD MSTORE PUSH2 0x7F04 DUP2 DUP5 PUSH2 0x6FB2 JUMP JUMPDEST SWAP1 POP SWAP4 SWAP3 POP POP POP JUMP JUMPDEST PUSH1 0x0 DUP2 MLOAD SWAP1 POP PUSH2 0x7F1C DUP2 PUSH2 0x61A1 JUMP JUMPDEST SWAP3 SWAP2 POP POP JUMP JUMPDEST PUSH1 0x0 PUSH1 0x20 DUP3 DUP5 SUB SLT ISZERO PUSH2 0x7F38 JUMPI PUSH2 0x7F37 PUSH2 0x6165 JUMP JUMPDEST JUMPDEST PUSH1 0x0 PUSH2 0x7F46 DUP5 DUP3 DUP6 ADD PUSH2 0x7F0D JUMP JUMPDEST SWAP2 POP POP SWAP3 SWAP2 POP POP JUMP JUMPDEST PUSH32 0x455243313135353A206163636F756E747320616E6420696473206C656E677468 PUSH1 0x0 DUP3 ADD MSTORE PUSH32 0x206D69736D617463680000000000000000000000000000000000000000000000 PUSH1 0x20 DUP3 ADD MSTORE POP JUMP JUMPDEST PUSH1 0x0 PUSH2 0x7FAB PUSH1 0x29 DUP4 PUSH2 0x63E8 JUMP JUMPDEST SWAP2 POP PUSH2 0x7FB6 DUP3 PUSH2 0x7F4F JUMP JUMPDEST PUSH1 0x40 DUP3 ADD SWAP1 POP SWAP2 SWAP1 POP JUMP JUMPDEST PUSH1 0x0 PUSH1 0x20 DUP3 ADD SWAP1 POP DUP2 DUP2 SUB PUSH1 0x0 DUP4 ADD MSTORE PUSH2 0x7FDA DUP2 PUSH2 0x7F9E JUMP JUMPDEST SWAP1 POP SWAP2 SWAP1 POP JUMP JUMPDEST PUSH1 0x0 DUP2 MLOAD SWAP1 POP PUSH2 0x7FF0 DUP2 PUSH2 0x7260 JUMP JUMPDEST SWAP3 SWAP2 POP POP JUMP JUMPDEST PUSH1 0x0 PUSH1 0x20 DUP3 DUP5 SUB SLT ISZERO PUSH2 0x800C JUMPI PUSH2 0x800B PUSH2 0x6165 JUMP JUMPDEST JUMPDEST PUSH1 0x0 PUSH2 0x801A DUP5 DUP3 DUP6 ADD PUSH2 0x7FE1 JUMP JUMPDEST SWAP2 POP POP SWAP3 SWAP2 POP POP JUMP JUMPDEST PUSH1 0x0 PUSH1 0x60 DUP3 ADD SWAP1 POP PUSH2 0x8038 PUSH1 0x0 DUP4 ADD DUP7 PUSH2 0x629A JUMP JUMPDEST PUSH2 0x8045 PUSH1 0x20 DUP4 ADD DUP6 PUSH2 0x629A JUMP JUMPDEST PUSH2 0x8052 PUSH1 0x40 DUP4 ADD DUP5 PUSH2 0x6243 JUMP JUMPDEST SWAP5 SWAP4 POP POP POP POP JUMP JUMPDEST PUSH1 0x0 DUP2 SWAP1 POP SWAP3 SWAP2 POP POP JUMP JUMPDEST PUSH1 0x0 PUSH2 0x8071 DUP4 DUP6 PUSH2 0x805A JUMP JUMPDEST SWAP4 POP PUSH2 0x807E DUP4 DUP6 DUP5 PUSH2 0x68DD JUMP JUMPDEST DUP3 DUP5 ADD SWAP1 POP SWAP4 SWAP3 POP POP POP JUMP JUMPDEST PUSH1 0x0 PUSH2 0x8097 DUP3 DUP5 DUP7 PUSH2 0x8065 JUMP JUMPDEST SWAP2 POP DUP2 SWAP1 POP SWAP4 SWAP3 POP POP POP JUMP JUMPDEST PUSH1 0x0 PUSH1 0x40 DUP3 ADD SWAP1 POP PUSH2 0x80B8 PUSH1 0x0 DUP4 ADD DUP6 PUSH2 0x629A JUMP JUMPDEST PUSH2 0x80C5 PUSH1 0x20 DUP4 ADD DUP5 PUSH2 0x629A JUMP JUMPDEST SWAP4 SWAP3 POP POP POP JUMP JUMPDEST PUSH32 0x455243313135353A2073657474696E6720617070726F76616C20737461747573 PUSH1 0x0 DUP3 ADD MSTORE PUSH32 0x20666F722073656C660000000000000000000000000000000000000000000000 PUSH1 0x20 DUP3 ADD MSTORE POP JUMP JUMPDEST PUSH1 0x0 PUSH2 0x8128 PUSH1 0x29 DUP4 PUSH2 0x63E8 JUMP JUMPDEST SWAP2 POP PUSH2 0x8133 DUP3 PUSH2 0x80CC JUMP JUMPDEST PUSH1 0x40 DUP3 ADD SWAP1 POP SWAP2 SWAP1 POP JUMP JUMPDEST PUSH1 0x0 PUSH1 0x20 DUP3 ADD SWAP1 POP DUP2 DUP2 SUB PUSH1 0x0 DUP4 ADD MSTORE PUSH2 0x8157 DUP2 PUSH2 0x811B JUMP JUMPDEST SWAP1 POP SWAP2 SWAP1 POP JUMP JUMPDEST PUSH32 0x436F6E74726F6C6C61626C653A2043616C6C6572206973206E6F74206120636F PUSH1 0x0 DUP3 ADD MSTORE PUSH32 0x6E74726F6C6C6572000000000000000000000000000000000000000000000000 PUSH1 0x20 DUP3 ADD MSTORE POP JUMP JUMPDEST PUSH1 0x0 PUSH2 0x81BA PUSH1 0x28 DUP4 PUSH2 0x63E8 JUMP JUMPDEST SWAP2 POP PUSH2 0x81C5 DUP3 PUSH2 0x815E JUMP JUMPDEST PUSH1 0x40 DUP3 ADD SWAP1 POP SWAP2 SWAP1 POP JUMP JUMPDEST PUSH1 0x0 PUSH1 0x20 DUP3 ADD SWAP1 POP DUP2 DUP2 SUB PUSH1 0x0 DUP4 ADD MSTORE PUSH2 0x81E9 DUP2 PUSH2 0x81AD JUMP JUMPDEST SWAP1 POP SWAP2 SWAP1 POP JUMP JUMPDEST PUSH1 0x0 PUSH1 0x60 DUP3 ADD SWAP1 POP PUSH2 0x8205 PUSH1 0x0 DUP4 ADD DUP7 PUSH2 0x6243 JUMP JUMPDEST PUSH2 0x8212 PUSH1 0x20 DUP4 ADD DUP6 PUSH2 0x629A JUMP JUMPDEST PUSH2 0x821F PUSH1 0x40 DUP4 ADD DUP5 PUSH2 0x6243 JUMP JUMPDEST SWAP5 SWAP4 POP POP POP POP JUMP JUMPDEST PUSH1 0x0 PUSH1 0x40 DUP3 ADD SWAP1 POP PUSH2 0x823C PUSH1 0x0 DUP4 ADD DUP6 PUSH2 0x629A JUMP JUMPDEST PUSH2 0x8249 PUSH1 0x20 DUP4 ADD DUP5 PUSH2 0x63B3 JUMP JUMPDEST SWAP4 SWAP3 POP POP POP JUMP JUMPDEST PUSH1 0x0 PUSH1 0x40 DUP3 ADD SWAP1 POP PUSH2 0x8265 PUSH1 0x0 DUP4 ADD DUP6 PUSH2 0x6243 JUMP JUMPDEST PUSH2 0x8272 PUSH1 0x20 DUP4 ADD DUP5 PUSH2 0x6243 JUMP JUMPDEST SWAP4 SWAP3 POP POP POP JUMP JUMPDEST PUSH1 0x0 PUSH1 0x60 DUP3 ADD SWAP1 POP PUSH2 0x828E PUSH1 0x0 DUP4 ADD DUP7 PUSH2 0x6A46 JUMP JUMPDEST PUSH2 0x829B PUSH1 0x20 DUP4 ADD DUP6 PUSH2 0x6A46 JUMP JUMPDEST PUSH2 0x82A8 PUSH1 0x40 DUP4 ADD DUP5 PUSH2 0x629A JUMP JUMPDEST SWAP5 SWAP4 POP POP POP POP JUMP JUMPDEST PUSH1 0x0 DUP2 MLOAD SWAP1 POP PUSH2 0x82BF DUP2 PUSH2 0x64B4 JUMP JUMPDEST SWAP3 SWAP2 POP POP JUMP JUMPDEST PUSH1 0x0 PUSH1 0x20 DUP3 DUP5 SUB SLT ISZERO PUSH2 0x82DB JUMPI PUSH2 0x82DA PUSH2 0x6165 JUMP JUMPDEST JUMPDEST PUSH1 0x0 PUSH2 0x82E9 DUP5 DUP3 DUP6 ADD PUSH2 0x82B0 JUMP JUMPDEST SWAP2 POP POP SWAP3 SWAP2 POP POP JUMP JUMPDEST PUSH1 0x0 PUSH2 0x82FE DUP4 DUP6 PUSH2 0x67C0 JUMP JUMPDEST SWAP4 POP PUSH2 0x830B DUP4 DUP6 DUP5 PUSH2 0x68DD JUMP JUMPDEST PUSH2 0x8314 DUP4 PUSH2 0x6423 JUMP JUMPDEST DUP5 ADD SWAP1 POP SWAP4 SWAP3 POP POP POP JUMP JUMPDEST PUSH1 0x0 PUSH1 0xC0 DUP3 ADD SWAP1 POP DUP2 DUP2 SUB PUSH1 0x0 DUP4 ADD MSTORE PUSH2 0x833A DUP2 DUP11 DUP13 PUSH2 0x82F2 JUMP JUMPDEST SWAP1 POP PUSH2 0x8349 PUSH1 0x20 DUP4 ADD DUP10 PUSH2 0x629A JUMP JUMPDEST PUSH2 0x8356 PUSH1 0x40 DUP4 ADD DUP9 PUSH2 0x62B9 JUMP JUMPDEST PUSH2 0x8363 PUSH1 0x60 DUP4 ADD DUP8 PUSH2 0x62DC JUMP JUMPDEST PUSH2 0x8370 PUSH1 0x80 DUP4 ADD DUP7 PUSH2 0x629A JUMP JUMPDEST DUP2 DUP2 SUB PUSH1 0xA0 DUP4 ADD MSTORE PUSH2 0x8383 DUP2 DUP5 DUP7 PUSH2 0x82F2 JUMP JUMPDEST SWAP1 POP SWAP10 SWAP9 POP POP POP POP POP POP POP POP POP JUMP JUMPDEST PUSH1 0x0 PUSH1 0x80 DUP3 ADD SWAP1 POP PUSH2 0x83A7 PUSH1 0x0 DUP4 ADD DUP8 PUSH2 0x6A46 JUMP JUMPDEST PUSH2 0x83B4 PUSH1 0x20 DUP4 ADD DUP7 PUSH2 0x629A JUMP JUMPDEST PUSH2 0x83C1 PUSH1 0x40 DUP4 ADD DUP6 PUSH2 0x629A JUMP JUMPDEST PUSH2 0x83CE PUSH1 0x60 DUP4 ADD DUP5 PUSH2 0x62DC JUMP JUMPDEST SWAP6 SWAP5 POP POP POP POP POP JUMP JUMPDEST PUSH1 0x0 DUP3 SWAP1 POP SWAP3 SWAP2 POP POP JUMP JUMPDEST PUSH1 0x0 DUP2 SWAP1 POP DUP2 PUSH1 0x0 MSTORE PUSH1 0x20 PUSH1 0x0 KECCAK256 SWAP1 POP SWAP2 SWAP1 POP JUMP JUMPDEST PUSH1 0x0 PUSH1 0x20 PUSH1 0x1F DUP4 ADD DIV SWAP1 POP SWAP2 SWAP1 POP JUMP JUMPDEST PUSH1 0x0 DUP3 DUP3 SHL SWAP1 POP SWAP3 SWAP2 POP POP JUMP JUMPDEST PUSH1 0x0 PUSH1 0x8 DUP4 MUL PUSH2 0x8444 PUSH32 0xFFFFFFFFFFFFFFFFFFFFFFFFFFFFFFFFFFFFFFFFFFFFFFFFFFFFFFFFFFFFFFFF DUP3 PUSH2 0x8407 JUMP JUMPDEST PUSH2 0x844E DUP7 DUP4 PUSH2 0x8407 JUMP JUMPDEST SWAP6 POP DUP1 NOT DUP5 AND SWAP4 POP DUP1 DUP7 AND DUP5 OR SWAP3 POP POP POP SWAP4 SWAP3 POP POP POP JUMP JUMPDEST PUSH1 0x0 PUSH2 0x8481 PUSH2 0x847C PUSH2 0x8477 DUP5 PUSH2 0x61CD JUMP JUMPDEST PUSH2 0x670E JUMP JUMPDEST PUSH2 0x61CD JUMP JUMPDEST SWAP1 POP SWAP2 SWAP1 POP JUMP JUMPDEST PUSH1 0x0 DUP2 SWAP1 POP SWAP2 SWAP1 POP JUMP JUMPDEST PUSH2 0x849B DUP4 PUSH2 0x8466 JUMP JUMPDEST PUSH2 0x84AF PUSH2 0x84A7 DUP3 PUSH2 0x8488 JUMP JUMPDEST DUP5 DUP5 SLOAD PUSH2 0x8414 JUMP JUMPDEST DUP3 SSTORE POP POP POP POP JUMP JUMPDEST PUSH1 0x0 SWAP1 JUMP JUMPDEST PUSH2 0x84C4 PUSH2 0x84B7 JUMP JUMPDEST PUSH2 0x84CF DUP2 DUP5 DUP5 PUSH2 0x8492 JUMP JUMPDEST POP POP POP JUMP JUMPDEST JUMPDEST DUP2 DUP2 LT ISZERO PUSH2 0x84F3 JUMPI PUSH2 0x84E8 PUSH1 0x0 DUP3 PUSH2 0x84BC JUMP JUMPDEST PUSH1 0x1 DUP2 ADD SWAP1 POP PUSH2 0x84D5 JUMP JUMPDEST POP POP JUMP JUMPDEST PUSH1 0x1F DUP3 GT ISZERO PUSH2 0x8538 JUMPI PUSH2 0x8509 DUP2 PUSH2 0x83E2 JUMP JUMPDEST PUSH2 0x8512 DUP5 PUSH2 0x83F7 JUMP JUMPDEST DUP2 ADD PUSH1 0x20 DUP6 LT ISZERO PUSH2 0x8521 JUMPI DUP2 SWAP1 POP JUMPDEST PUSH2 0x8535 PUSH2 0x852D DUP6 PUSH2 0x83F7 JUMP JUMPDEST DUP4 ADD DUP3 PUSH2 0x84D4 JUMP JUMPDEST POP POP JUMPDEST POP POP POP JUMP JUMPDEST PUSH1 0x0 DUP3 DUP3 SHR SWAP1 POP SWAP3 SWAP2 POP POP JUMP JUMPDEST PUSH1 0x0 PUSH2 0x855B PUSH1 0x0 NOT DUP5 PUSH1 0x8 MUL PUSH2 0x853D JUMP JUMPDEST NOT DUP1 DUP4 AND SWAP2 POP POP SWAP3 SWAP2 POP POP JUMP JUMPDEST PUSH1 0x0 PUSH2 0x8574 DUP4 DUP4 PUSH2 0x854A JUMP JUMPDEST SWAP2 POP DUP3 PUSH1 0x2 MUL DUP3 OR SWAP1 POP SWAP3 SWAP2 POP POP JUMP JUMPDEST PUSH2 0x858E DUP4 DUP4 PUSH2 0x83D7 JUMP JUMPDEST PUSH8 0xFFFFFFFFFFFFFFFF DUP2 GT ISZERO PUSH2 0x85A7 JUMPI PUSH2 0x85A6 PUSH2 0x6831 JUMP JUMPDEST JUMPDEST PUSH2 0x85B1 DUP3 SLOAD PUSH2 0x7B93 JUMP JUMPDEST PUSH2 0x85BC DUP3 DUP3 DUP6 PUSH2 0x84F7 JUMP JUMPDEST PUSH1 0x0 PUSH1 0x1F DUP4 GT PUSH1 0x1 DUP2 EQ PUSH2 0x85EB JUMPI PUSH1 0x0 DUP5 ISZERO PUSH2 0x85D9 JUMPI DUP3 DUP8 ADD CALLDATALOAD SWAP1 POP JUMPDEST PUSH2 0x85E3 DUP6 DUP3 PUSH2 0x8568 JUMP JUMPDEST DUP7 SSTORE POP PUSH2 0x864B JUMP JUMPDEST PUSH1 0x1F NOT DUP5 AND PUSH2 0x85F9 DUP7 PUSH2 0x83E2 JUMP JUMPDEST PUSH1 0x0 JUMPDEST DUP3 DUP2 LT ISZERO PUSH2 0x8621 JUMPI DUP5 DUP10 ADD CALLDATALOAD DUP3 SSTORE PUSH1 0x1 DUP3 ADD SWAP2 POP PUSH1 0x20 DUP6 ADD SWAP5 POP PUSH1 0x20 DUP2 ADD SWAP1 POP PUSH2 0x85FC JUMP JUMPDEST DUP7 DUP4 LT ISZERO PUSH2 0x863E JUMPI DUP5 DUP10 ADD CALLDATALOAD PUSH2 0x863A PUSH1 0x1F DUP10 AND DUP3 PUSH2 0x854A JUMP JUMPDEST DUP4 SSTORE POP JUMPDEST PUSH1 0x1 PUSH1 0x2 DUP9 MUL ADD DUP9 SSTORE POP POP POP JUMPDEST POP POP POP POP POP POP POP JUMP JUMPDEST PUSH32 0x455243313135353A2063616C6C6572206973206E6F74206F776E6572206E6F72 PUSH1 0x0 DUP3 ADD MSTORE PUSH32 0x20617070726F7665640000000000000000000000000000000000000000000000 PUSH1 0x20 DUP3 ADD MSTORE POP JUMP JUMPDEST PUSH1 0x0 PUSH2 0x86B0 PUSH1 0x29 DUP4 PUSH2 0x63E8 JUMP JUMPDEST SWAP2 POP PUSH2 0x86BB DUP3 PUSH2 0x8654 JUMP JUMPDEST PUSH1 0x40 DUP3 ADD SWAP1 POP SWAP2 SWAP1 POP JUMP JUMPDEST PUSH1 0x0 PUSH1 0x20 DUP3 ADD SWAP1 POP DUP2 DUP2 SUB PUSH1 0x0 DUP4 ADD MSTORE PUSH2 0x86DF DUP2 PUSH2 0x86A3 JUMP JUMPDEST SWAP1 POP SWAP2 SWAP1 POP JUMP JUMPDEST PUSH32 0x4F776E61626C653A206E6577206F776E657220697320746865207A65726F2061 PUSH1 0x0 DUP3 ADD MSTORE PUSH32 0x6464726573730000000000000000000000000000000000000000000000000000 PUSH1 0x20 DUP3 ADD MSTORE POP JUMP JUMPDEST PUSH1 0x0 PUSH2 0x8742 PUSH1 0x26 DUP4 PUSH2 0x63E8 JUMP JUMPDEST SWAP2 POP PUSH2 0x874D DUP3 PUSH2 0x86E6 JUMP JUMPDEST PUSH1 0x40 DUP3 ADD SWAP1 POP SWAP2 SWAP1 POP JUMP JUMPDEST PUSH1 0x0 PUSH1 0x20 DUP3 ADD SWAP1 POP DUP2 DUP2 SUB PUSH1 0x0 DUP4 ADD MSTORE PUSH2 0x8771 DUP2 PUSH2 0x8735 JUMP JUMPDEST SWAP1 POP SWAP2 SWAP1 POP JUMP JUMPDEST PUSH32 0x4552433732313A20617070726F76616C20746F2063757272656E74206F776E65 PUSH1 0x0 DUP3 ADD MSTORE PUSH32 0x7200000000000000000000000000000000000000000000000000000000000000 PUSH1 0x20 DUP3 ADD MSTORE POP JUMP JUMPDEST PUSH1 0x0 PUSH2 0x87D4 PUSH1 0x21 DUP4 PUSH2 0x63E8 JUMP JUMPDEST SWAP2 POP PUSH2 0x87DF DUP3 PUSH2 0x8778 JUMP JUMPDEST PUSH1 0x40 DUP3 ADD SWAP1 POP SWAP2 SWAP1 POP JUMP JUMPDEST PUSH1 0x0 PUSH1 0x20 DUP3 ADD SWAP1 POP DUP2 DUP2 SUB PUSH1 0x0 DUP4 ADD MSTORE PUSH2 0x8803 DUP2 PUSH2 0x87C7 JUMP JUMPDEST SWAP1 POP SWAP2 SWAP1 POP JUMP JUMPDEST PUSH32 0x4552433732313A20617070726F76652063616C6C6572206973206E6F7420746F PUSH1 0x0 DUP3 ADD MSTORE PUSH32 0x6B656E206F776E6572206F7220617070726F76656420666F7220616C6C000000 PUSH1 0x20 DUP3 ADD MSTORE POP JUMP JUMPDEST PUSH1 0x0 PUSH2 0x8866 PUSH1 0x3D DUP4 PUSH2 0x63E8 JUMP JUMPDEST SWAP2 POP PUSH2 0x8871 DUP3 PUSH2 0x880A JUMP JUMPDEST PUSH1 0x40 DUP3 ADD SWAP1 POP SWAP2 SWAP1 POP JUMP JUMPDEST PUSH1 0x0 PUSH1 0x20 DUP3 ADD SWAP1 POP DUP2 DUP2 SUB PUSH1 0x0 DUP4 ADD MSTORE PUSH2 0x8895 DUP2 PUSH2 0x8859 JUMP JUMPDEST SWAP1 POP SWAP2 SWAP1 POP JUMP JUMPDEST PUSH1 0x0 PUSH2 0x88A7 DUP3 PUSH2 0x62C8 JUMP JUMPDEST SWAP2 POP PUSH2 0x88B2 DUP4 PUSH2 0x62C8 JUMP JUMPDEST SWAP3 POP DUP3 DUP3 SUB SWAP1 POP PUSH8 0xFFFFFFFFFFFFFFFF DUP2 GT ISZERO PUSH2 0x88D2 JUMPI PUSH2 0x88D1 PUSH2 0x7AF9 JUMP JUMPDEST JUMPDEST SWAP3 SWAP2 POP POP JUMP JUMPDEST PUSH2 0x88E1 DUP3 PUSH2 0x67B5 JUMP JUMPDEST PUSH8 0xFFFFFFFFFFFFFFFF DUP2 GT ISZERO PUSH2 0x88FA JUMPI PUSH2 0x88F9 PUSH2 0x6831 JUMP JUMPDEST JUMPDEST PUSH2 0x8904 DUP3 SLOAD PUSH2 0x7B93 JUMP JUMPDEST PUSH2 0x890F DUP3 DUP3 DUP6 PUSH2 0x84F7 JUMP JUMPDEST PUSH1 0x0 PUSH1 0x20 SWAP1 POP PUSH1 0x1F DUP4 GT PUSH1 0x1 DUP2 EQ PUSH2 0x8942 JUMPI PUSH1 0x0 DUP5 ISZERO PUSH2 0x8930 JUMPI DUP3 DUP8 ADD MLOAD SWAP1 POP JUMPDEST PUSH2 0x893A DUP6 DUP3 PUSH2 0x8568 JUMP JUMPDEST DUP7 SSTORE POP PUSH2 0x89A2 JUMP JUMPDEST PUSH1 0x1F NOT DUP5 AND PUSH2 0x8950 DUP7 PUSH2 0x83E2 JUMP JUMPDEST PUSH1 0x0 JUMPDEST DUP3 DUP2 LT ISZERO PUSH2 0x8978 JUMPI DUP5 DUP10 ADD MLOAD DUP3 SSTORE PUSH1 0x1 DUP3 ADD SWAP2 POP PUSH1 0x20 DUP6 ADD SWAP5 POP PUSH1 0x20 DUP2 ADD SWAP1 POP PUSH2 0x8953 JUMP JUMPDEST DUP7 DUP4 LT ISZERO PUSH2 0x8995 JUMPI DUP5 DUP10 ADD MLOAD PUSH2 0x8991 PUSH1 0x1F DUP10 AND DUP3 PUSH2 0x854A JUMP JUMPDEST DUP4 SSTORE POP JUMPDEST PUSH1 0x1 PUSH1 0x2 DUP9 MUL ADD DUP9 SSTORE POP POP POP JUMPDEST POP POP POP POP POP POP JUMP JUMPDEST PUSH32 0x4F776E61626C653A2063616C6C6572206973206E6F7420746865206F776E6572 PUSH1 0x0 DUP3 ADD MSTORE POP JUMP JUMPDEST PUSH1 0x0 PUSH2 0x89E0 PUSH1 0x20 DUP4 PUSH2 0x63E8 JUMP JUMPDEST SWAP2 POP PUSH2 0x89EB DUP3 PUSH2 0x89AA JUMP JUMPDEST PUSH1 0x20 DUP3 ADD SWAP1 POP SWAP2 SWAP1 POP JUMP JUMPDEST PUSH1 0x0 PUSH1 0x20 DUP3 ADD SWAP1 POP DUP2 DUP2 SUB PUSH1 0x0 DUP4 ADD MSTORE PUSH2 0x8A0F DUP2 PUSH2 0x89D3 JUMP JUMPDEST SWAP1 POP SWAP2 SWAP1 POP JUMP JUMPDEST PUSH1 0x0 DUP2 SWAP1 POP SWAP2 SWAP1 POP JUMP JUMPDEST PUSH2 0x8A31 PUSH2 0x8A2C DUP3 PUSH2 0x64AA JUMP JUMPDEST PUSH2 0x8A16 JUMP JUMPDEST DUP3 MSTORE POP POP JUMP JUMPDEST PUSH1 0x0 PUSH2 0x8A43 DUP3 DUP6 PUSH2 0x8A20 JUMP JUMPDEST PUSH1 0x20 DUP3 ADD SWAP2 POP PUSH2 0x8A53 DUP3 DUP5 PUSH2 0x8A20 JUMP JUMPDEST PUSH1 0x20 DUP3 ADD SWAP2 POP DUP2 SWAP1 POP SWAP4 SWAP3 POP POP POP JUMP JUMPDEST PUSH1 0x0 PUSH1 0xA0 DUP3 ADD SWAP1 POP PUSH2 0x8A78 PUSH1 0x0 DUP4 ADD DUP9 PUSH2 0x629A JUMP JUMPDEST PUSH2 0x8A85 PUSH1 0x20 DUP4 ADD DUP8 PUSH2 0x629A JUMP JUMPDEST DUP2 DUP2 SUB PUSH1 0x40 DUP4 ADD MSTORE PUSH2 0x8A97 DUP2 DUP7 PUSH2 0x6FB2 JUMP JUMPDEST SWAP1 POP DUP2 DUP2 SUB PUSH1 0x60 DUP4 ADD MSTORE PUSH2 0x8AAB DUP2 DUP6 PUSH2 0x6FB2 JUMP JUMPDEST SWAP1 POP DUP2 DUP2 SUB PUSH1 0x80 DUP4 ADD MSTORE PUSH2 0x8ABF DUP2 DUP5 PUSH2 0x67D1 JUMP JUMPDEST SWAP1 POP SWAP7 SWAP6 POP POP POP POP POP POP JUMP JUMPDEST PUSH1 0x0 DUP2 MLOAD SWAP1 POP PUSH2 0x8ADA DUP2 PUSH2 0x634E JUMP JUMPDEST SWAP3 SWAP2 POP POP JUMP JUMPDEST PUSH1 0x0 PUSH1 0x20 DUP3 DUP5 SUB SLT ISZERO PUSH2 0x8AF6 JUMPI PUSH2 0x8AF5 PUSH2 0x6165 JUMP JUMPDEST JUMPDEST PUSH1 0x0 PUSH2 0x8B04 DUP5 DUP3 DUP6 ADD PUSH2 0x8ACB JUMP JUMPDEST SWAP2 POP POP SWAP3 SWAP2 POP POP JUMP JUMPDEST PUSH1 0x0 DUP2 PUSH1 0xE0 SHR SWAP1 POP SWAP2 SWAP1 POP JUMP JUMPDEST PUSH1 0x0 PUSH1 0x3 RETURNDATASIZE GT ISZERO PUSH2 0x8B39 JUMPI PUSH1 0x4 PUSH1 0x0 DUP1 RETURNDATACOPY PUSH2 0x8B36 PUSH1 0x0 MLOAD PUSH2 0x8B0D JUMP JUMPDEST SWAP1 POP JUMPDEST SWAP1 JUMP JUMPDEST PUSH1 0x0 PUSH1 0x44 RETURNDATASIZE LT PUSH2 0x8BC9 JUMPI PUSH2 0x8B4E PUSH2 0x615B JUMP JUMPDEST PUSH1 0x4 RETURNDATASIZE SUB PUSH1 0x4 DUP3 RETURNDATACOPY DUP1 MLOAD RETURNDATASIZE PUSH1 0x24 DUP3 ADD GT PUSH8 0xFFFFFFFFFFFFFFFF DUP3 GT OR ISZERO PUSH2 0x8B76 JUMPI POP POP PUSH2 0x8BC9 JUMP JUMPDEST DUP1 DUP3 ADD DUP1 MLOAD PUSH8 0xFFFFFFFFFFFFFFFF DUP2 GT ISZERO PUSH2 0x8B94 JUMPI POP POP POP POP PUSH2 0x8BC9 JUMP JUMPDEST DUP1 PUSH1 0x20 DUP4 ADD ADD PUSH1 0x4 RETURNDATASIZE SUB DUP6 ADD DUP2 GT ISZERO PUSH2 0x8BB1 JUMPI POP POP POP POP POP PUSH2 0x8BC9 JUMP JUMPDEST PUSH2 0x8BC0 DUP3 PUSH1 0x20 ADD DUP6 ADD DUP7 PUSH2 0x6860 JUMP JUMPDEST DUP3 SWAP6 POP POP POP POP POP POP JUMPDEST SWAP1 JUMP JUMPDEST PUSH32 0x455243313135353A207472616E7366657220746F206E6F6E2045524331313535 PUSH1 0x0 DUP3 ADD MSTORE PUSH32 0x526563656976657220696D706C656D656E746572000000000000000000000000 PUSH1 0x20 DUP3 ADD MSTORE POP JUMP JUMPDEST PUSH1 0x0 PUSH2 0x8C28 PUSH1 0x34 DUP4 PUSH2 0x63E8 JUMP JUMPDEST SWAP2 POP PUSH2 0x8C33 DUP3 PUSH2 0x8BCC JUMP JUMPDEST PUSH1 0x40 DUP3 ADD SWAP1 POP SWAP2 SWAP1 POP JUMP JUMPDEST PUSH1 0x0 PUSH1 0x20 DUP3 ADD SWAP1 POP DUP2 DUP2 SUB PUSH1 0x0 DUP4 ADD MSTORE PUSH2 0x8C57 DUP2 PUSH2 0x8C1B JUMP JUMPDEST SWAP1 POP SWAP2 SWAP1 POP JUMP JUMPDEST PUSH32 0x455243313135353A204552433131353552656365697665722072656A65637465 PUSH1 0x0 DUP3 ADD MSTORE PUSH32 0x6420746F6B656E73000000000000000000000000000000000000000000000000 PUSH1 0x20 DUP3 ADD MSTORE POP JUMP JUMPDEST PUSH1 0x0 PUSH2 0x8CBA PUSH1 0x28 DUP4 PUSH2 0x63E8 JUMP JUMPDEST SWAP2 POP PUSH2 0x8CC5 DUP3 PUSH2 0x8C5E JUMP JUMPDEST PUSH1 0x40 DUP3 ADD SWAP1 POP SWAP2 SWAP1 POP JUMP JUMPDEST PUSH1 0x0 PUSH1 0x20 DUP3 ADD SWAP1 POP DUP2 DUP2 SUB PUSH1 0x0 DUP4 ADD MSTORE PUSH2 0x8CE9 DUP2 PUSH2 0x8CAD JUMP JUMPDEST SWAP1 POP SWAP2 SWAP1 POP JUMP JUMPDEST PUSH1 0x0 PUSH1 0x80 DUP3 ADD SWAP1 POP DUP2 DUP2 SUB PUSH1 0x0 DUP4 ADD MSTORE PUSH2 0x8D0A DUP2 DUP8 PUSH2 0x67D1 JUMP JUMPDEST SWAP1 POP PUSH2 0x8D19 PUSH1 0x20 DUP4 ADD DUP7 PUSH2 0x629A JUMP JUMPDEST PUSH2 0x8D26 PUSH1 0x40 DUP4 ADD DUP6 PUSH2 0x62B9 JUMP JUMPDEST PUSH2 0x8D33 PUSH1 0x60 DUP4 ADD DUP5 PUSH2 0x62DC JUMP JUMPDEST SWAP6 SWAP5 POP POP POP POP POP JUMP JUMPDEST PUSH1 0x0 PUSH2 0x8D47 DUP3 PUSH2 0x61CD JUMP JUMPDEST SWAP2 POP PUSH2 0x8D52 DUP4 PUSH2 0x61CD JUMP JUMPDEST SWAP3 POP DUP3 DUP3 SUB SWAP1 POP DUP2 DUP2 GT ISZERO PUSH2 0x8D6A JUMPI PUSH2 0x8D69 PUSH2 0x7AF9 JUMP JUMPDEST JUMPDEST SWAP3 SWAP2 POP POP JUMP JUMPDEST PUSH32 0x6E616D65686173683A204A756E6B20617420656E64206F66206E616D65000000 PUSH1 0x0 DUP3 ADD MSTORE POP JUMP JUMPDEST PUSH1 0x0 PUSH2 0x8DA6 PUSH1 0x1D DUP4 PUSH2 0x63E8 JUMP JUMPDEST SWAP2 POP PUSH2 0x8DB1 DUP3 PUSH2 0x8D70 JUMP JUMPDEST PUSH1 0x20 DUP3 ADD SWAP1 POP SWAP2 SWAP1 POP JUMP JUMPDEST PUSH1 0x0 PUSH1 0x20 DUP3 ADD SWAP1 POP DUP2 DUP2 SUB PUSH1 0x0 DUP4 ADD MSTORE PUSH2 0x8DD5 DUP2 PUSH2 0x8D99 JUMP JUMPDEST SWAP1 POP SWAP2 SWAP1 POP JUMP JUMPDEST PUSH1 0x0 DUP2 SWAP1 POP SWAP2 SWAP1 POP JUMP JUMPDEST PUSH1 0x0 PUSH2 0x8E01 PUSH2 0x8DFC PUSH2 0x8DF7 DUP5 PUSH2 0x8DDC JUMP JUMPDEST PUSH2 0x670E JUMP JUMPDEST PUSH2 0x61CD JUMP JUMPDEST SWAP1 POP SWAP2 SWAP1 POP JUMP JUMPDEST PUSH2 0x8E11 DUP2 PUSH2 0x8DE6 JUMP JUMPDEST DUP3 MSTORE POP POP JUMP JUMPDEST PUSH1 0x0 PUSH1 0x40 DUP3 ADD SWAP1 POP PUSH2 0x8E2C PUSH1 0x0 DUP4 ADD DUP6 PUSH2 0x6243 JUMP JUMPDEST PUSH2 0x8E39 PUSH1 0x20 DUP4 ADD DUP5 PUSH2 0x8E08 JUMP JUMPDEST SWAP4 SWAP3 POP POP POP JUMP JUMPDEST PUSH32 0x726561644C6162656C3A20496E646578206F7574206F6620626F756E64730000 PUSH1 0x0 DUP3 ADD MSTORE POP JUMP JUMPDEST PUSH1 0x0 PUSH2 0x8E76 PUSH1 0x1E DUP4 PUSH2 0x63E8 JUMP JUMPDEST SWAP2 POP PUSH2 0x8E81 DUP3 PUSH2 0x8E40 JUMP JUMPDEST PUSH1 0x20 DUP3 ADD SWAP1 POP SWAP2 SWAP1 POP JUMP JUMPDEST PUSH1 0x0 PUSH1 0x20 DUP3 ADD SWAP1 POP DUP2 DUP2 SUB PUSH1 0x0 DUP4 ADD MSTORE PUSH2 0x8EA5 DUP2 PUSH2 0x8E69 JUMP JUMPDEST SWAP1 POP SWAP2 SWAP1 POP JUMP JUMPDEST PUSH1 0x0 PUSH2 0x8EB7 DUP3 PUSH2 0x61CD JUMP JUMPDEST SWAP2 POP PUSH2 0x8EC2 DUP4 PUSH2 0x61CD JUMP JUMPDEST SWAP3 POP DUP3 DUP3 ADD SWAP1 POP DUP1 DUP3 GT ISZERO PUSH2 0x8EDA JUMPI PUSH2 0x8ED9 PUSH2 0x7AF9 JUMP JUMPDEST JUMPDEST SWAP3 SWAP2 POP POP JUMP JUMPDEST PUSH1 0x0 PUSH1 0xFF DUP3 AND SWAP1 POP SWAP2 SWAP1 POP JUMP JUMPDEST PUSH1 0x0 DUP2 PUSH1 0xF8 SHL SWAP1 POP SWAP2 SWAP1 POP JUMP JUMPDEST PUSH1 0x0 PUSH2 0x8F05 DUP3 PUSH2 0x8EED JUMP JUMPDEST SWAP1 POP SWAP2 SWAP1 POP JUMP JUMPDEST PUSH2 0x8F1D PUSH2 0x8F18 DUP3 PUSH2 0x8EE0 JUMP JUMPDEST PUSH2 0x8EFA JUMP JUMPDEST DUP3 MSTORE POP POP JUMP JUMPDEST PUSH1 0x0 DUP2 SWAP1 POP SWAP3 SWAP2 POP POP JUMP JUMPDEST PUSH1 0x0 PUSH2 0x8F39 DUP3 PUSH2 0x63DD JUMP JUMPDEST PUSH2 0x8F43 DUP2 DUP6 PUSH2 0x8F23 JUMP JUMPDEST SWAP4 POP PUSH2 0x8F53 DUP2 DUP6 PUSH1 0x20 DUP7 ADD PUSH2 0x63F9 JUMP JUMPDEST DUP1 DUP5 ADD SWAP2 POP POP SWAP3 SWAP2 POP POP JUMP JUMPDEST PUSH1 0x0 PUSH2 0x8F6A DUP3 PUSH2 0x67B5 JUMP JUMPDEST PUSH2 0x8F74 DUP2 DUP6 PUSH2 0x805A JUMP JUMPDEST SWAP4 POP PUSH2 0x8F84 DUP2 DUP6 PUSH1 0x20 DUP7 ADD PUSH2 0x63F9 JUMP JUMPDEST DUP1 DUP5 ADD SWAP2 POP POP SWAP3 SWAP2 POP POP JUMP JUMPDEST PUSH1 0x0 PUSH2 0x8F9C DUP3 DUP7 PUSH2 0x8F0C JUMP JUMPDEST PUSH1 0x1 DUP3 ADD SWAP2 POP PUSH2 0x8FAC DUP3 DUP6 PUSH2 0x8F2E JUMP JUMPDEST SWAP2 POP PUSH2 0x8FB8 DUP3 DUP5 PUSH2 0x8F5F JUMP JUMPDEST SWAP2 POP DUP2 SWAP1 POP SWAP5 SWAP4 POP POP POP POP JUMP JUMPDEST PUSH1 0x0 PUSH1 0xA0 DUP3 ADD SWAP1 POP PUSH2 0x8FDA PUSH1 0x0 DUP4 ADD DUP9 PUSH2 0x629A JUMP JUMPDEST PUSH2 0x8FE7 PUSH1 0x20 DUP4 ADD DUP8 PUSH2 0x629A JUMP JUMPDEST PUSH2 0x8FF4 PUSH1 0x40 DUP4 ADD DUP7 PUSH2 0x6243 JUMP JUMPDEST PUSH2 0x9001 PUSH1 0x60 DUP4 ADD DUP6 PUSH2 0x6243 JUMP JUMPDEST DUP2 DUP2 SUB PUSH1 0x80 DUP4 ADD MSTORE PUSH2 0x9013 DUP2 DUP5 PUSH2 0x67D1 JUMP JUMPDEST SWAP1 POP SWAP7 SWAP6 POP POP POP POP POP POP JUMP JUMPDEST PUSH32 0x455243313135353A206D696E74206F66206578697374696E6720746F6B656E00 PUSH1 0x0 DUP3 ADD MSTORE POP JUMP JUMPDEST PUSH1 0x0 PUSH2 0x9055 PUSH1 0x1F DUP4 PUSH2 0x63E8 JUMP JUMPDEST SWAP2 POP PUSH2 0x9060 DUP3 PUSH2 0x901F JUMP JUMPDEST PUSH1 0x20 DUP3 ADD SWAP1 POP SWAP2 SWAP1 POP JUMP JUMPDEST PUSH1 0x0 PUSH1 0x20 DUP3 ADD SWAP1 POP DUP2 DUP2 SUB PUSH1 0x0 DUP4 ADD MSTORE PUSH2 0x9084 DUP2 PUSH2 0x9048 JUMP JUMPDEST SWAP1 POP SWAP2 SWAP1 POP JUMP JUMPDEST PUSH32 0x455243313135353A206D696E7420746F20746865207A65726F20616464726573 PUSH1 0x0 DUP3 ADD MSTORE PUSH32 0x7300000000000000000000000000000000000000000000000000000000000000 PUSH1 0x20 DUP3 ADD MSTORE POP JUMP JUMPDEST PUSH1 0x0 PUSH2 0x90E7 PUSH1 0x21 DUP4 PUSH2 0x63E8 JUMP JUMPDEST SWAP2 POP PUSH2 0x90F2 DUP3 PUSH2 0x908B JUMP JUMPDEST PUSH1 0x40 DUP3 ADD SWAP1 POP SWAP2 SWAP1 POP JUMP JUMPDEST PUSH1 0x0 PUSH1 0x20 DUP3 ADD SWAP1 POP DUP2 DUP2 SUB PUSH1 0x0 DUP4 ADD MSTORE PUSH2 0x9116 DUP2 PUSH2 0x90DA JUMP JUMPDEST SWAP1 POP SWAP2 SWAP1 POP JUMP JUMPDEST PUSH32 0x455243313135353A206E65774F776E65722063616E6E6F742062652074686520 PUSH1 0x0 DUP3 ADD MSTORE PUSH32 0x4E616D655772617070657220636F6E7472616374000000000000000000000000 PUSH1 0x20 DUP3 ADD MSTORE POP JUMP JUMPDEST PUSH1 0x0 PUSH2 0x9179 PUSH1 0x34 DUP4 PUSH2 0x63E8 JUMP JUMPDEST SWAP2 POP PUSH2 0x9184 DUP3 PUSH2 0x911D JUMP JUMPDEST PUSH1 0x40 DUP3 ADD SWAP1 POP SWAP2 SWAP1 POP JUMP JUMPDEST PUSH1 0x0 PUSH1 0x20 DUP3 ADD SWAP1 POP DUP2 DUP2 SUB PUSH1 0x0 DUP4 ADD MSTORE PUSH2 0x91A8 DUP2 PUSH2 0x916C JUMP JUMPDEST SWAP1 POP SWAP2 SWAP1 POP JUMP INVALID LOG2 PUSH5 0x6970667358 0x22 SLT KECCAK256 0xEB SLT 0xEA NOT CALLCODE PUSH25 0x8024C9B9910B7E33D2A2592CFE39377FD97B17CE5382786C3 SELFBALANCE PUSH5 0x736F6C6343 STOP ADDMOD SLT STOP CALLER "
		},
		"gasEstimates": {
			"creation": {
				"codeDepositCost": "7469800",
				"executionCost": "infinite",
				"totalCost": "infinite"
			},
			"external": {
				"_tokens(uint256)": "infinite",
				"allFusesBurned(bytes32,uint32)": "3461",
				"approve(address,uint256)": "infinite",
				"balanceOf(address,uint256)": "infinite",
				"balanceOfBatch(address[],uint256[])": "infinite",
				"canExtendSubnames(bytes32,address)": "infinite",
				"canModifyName(bytes32,address)": "6020",
				"controllers(address)": "2978",
				"ens()": "infinite",
				"extendExpiry(bytes32,bytes32,uint64)": "infinite",
				"getApproved(uint256)": "3486",
				"getData(uint256)": "3427",
				"isApprovedForAll(address,address)": "infinite",
				"isWrapped(bytes32)": "infinite",
				"isWrapped(bytes32,bytes32)": "infinite",
				"metadataService()": "infinite",
				"name()": "infinite",
				"names(bytes32)": "infinite",
				"onERC721Received(address,address,uint256,bytes)": "infinite",
				"owner()": "2678",
				"ownerOf(uint256)": "3295",
				"recoverFunds(address,address,uint256)": "infinite",
				"registerAndWrapETH2LD(string,address,uint256,address,uint16)": "infinite",
				"registrar()": "infinite",
				"renew(uint256,uint256)": "infinite",
				"renounceOwnership()": "30488",
				"safeBatchTransferFrom(address,address,uint256[],uint256[],bytes)": "infinite",
				"safeTransferFrom(address,address,uint256,uint256,bytes)": "infinite",
				"setApprovalForAll(address,bool)": "infinite",
				"setChildFuses(bytes32,bytes32,uint32,uint64)": "infinite",
				"setController(address,bool)": "infinite",
				"setFuses(bytes32,uint16)": "infinite",
				"setMetadataService(address)": "27163",
				"setRecord(bytes32,address,address,uint64)": "infinite",
				"setResolver(bytes32,address)": "infinite",
				"setSubnodeOwner(bytes32,string,address,uint32,uint64)": "infinite",
				"setSubnodeRecord(bytes32,string,address,address,uint64,uint32,uint64)": "infinite",
				"setTTL(bytes32,uint64)": "infinite",
				"setUpgradeContract(address)": "infinite",
				"supportsInterface(bytes4)": "999",
				"transferOwnership(address)": "30876",
				"unwrap(bytes32,bytes32,address)": "infinite",
				"unwrapETH2LD(bytes32,address,address)": "infinite",
				"upgrade(bytes,bytes)": "infinite",
				"upgradeContract()": "infinite",
				"uri(uint256)": "infinite",
				"wrap(bytes,address,address)": "infinite",
				"wrapETH2LD(string,address,uint16,address)": "infinite"
			},
			"internal": {
				"_addLabel(string memory,bytes memory)": "infinite",
				"_beforeTransfer(uint256,uint32,uint64)": "infinite",
				"_canFusesBeBurned(bytes32,uint32)": "infinite",
				"_checkCanCallSetSubnodeOwner(bytes32,bytes32)": "infinite",
				"_checkFusesAreSettable(bytes32,uint32)": "infinite",
				"_checkParentFuses(bytes32,uint32,uint32)": "infinite",
				"_checkParentFusesAndExpiry(bytes32,bytes32,uint32,uint64)": "infinite",
				"_clearOwnerAndFuses(address,uint32,uint64)": "134",
				"_isETH2LDInGracePeriod(uint32,uint64)": "infinite",
				"_isWrapped(bytes32)": "2722",
				"_makeNode(bytes32,bytes32)": "infinite",
				"_mint(bytes32,address,uint32,uint64)": "infinite",
				"_normaliseExpiry(uint64,uint64,uint64)": "124",
				"_saveLabel(bytes32,bytes32,string memory)": "infinite",
				"_setData(bytes32,address,uint32,uint64)": "infinite",
				"_setFuses(bytes32,address,uint32,uint64,uint64)": "infinite",
				"_storeNameAndWrap(bytes32,bytes32,string memory,address,uint32,uint64)": "infinite",
				"_unwrap(bytes32,address)": "infinite",
				"_updateName(bytes32,bytes32,string memory,address,uint32,uint64)": "infinite",
				"_wrap(bytes32,bytes memory,address,uint32,uint64)": "infinite",
				"_wrapETH2LD(string memory,address,uint32,uint64,address)": "infinite"
			}
		},
		"methodIdentifiers": {
			"_tokens(uint256)": "ed70554d",
			"allFusesBurned(bytes32,uint32)": "adf4960a",
			"approve(address,uint256)": "095ea7b3",
			"balanceOf(address,uint256)": "00fdd58e",
			"balanceOfBatch(address[],uint256[])": "4e1273f4",
			"canExtendSubnames(bytes32,address)": "0e4cd725",
			"canModifyName(bytes32,address)": "41415eab",
			"controllers(address)": "da8c229e",
			"ens()": "3f15457f",
			"extendExpiry(bytes32,bytes32,uint64)": "6e5d6ad2",
			"getApproved(uint256)": "081812fc",
			"getData(uint256)": "0178fe3f",
			"isApprovedForAll(address,address)": "e985e9c5",
			"isWrapped(bytes32)": "fd0cd0d9",
			"isWrapped(bytes32,bytes32)": "d9a50c12",
			"metadataService()": "53095467",
			"name()": "06fdde03",
			"names(bytes32)": "20c38e2b",
			"onERC721Received(address,address,uint256,bytes)": "150b7a02",
			"owner()": "8da5cb5b",
			"ownerOf(uint256)": "6352211e",
			"recoverFunds(address,address,uint256)": "5d3590d5",
			"registerAndWrapETH2LD(string,address,uint256,address,uint16)": "a4014982",
			"registrar()": "2b20e397",
			"renew(uint256,uint256)": "c475abff",
			"renounceOwnership()": "715018a6",
			"safeBatchTransferFrom(address,address,uint256[],uint256[],bytes)": "2eb2c2d6",
			"safeTransferFrom(address,address,uint256,uint256,bytes)": "f242432a",
			"setApprovalForAll(address,bool)": "a22cb465",
			"setChildFuses(bytes32,bytes32,uint32,uint64)": "33c69ea9",
			"setController(address,bool)": "e0dba60f",
			"setFuses(bytes32,uint16)": "402906fc",
			"setMetadataService(address)": "1534e177",
			"setRecord(bytes32,address,address,uint64)": "cf408823",
			"setResolver(bytes32,address)": "1896f70a",
			"setSubnodeOwner(bytes32,string,address,uint32,uint64)": "c658e086",
			"setSubnodeRecord(bytes32,string,address,address,uint64,uint32,uint64)": "24c1af44",
			"setTTL(bytes32,uint64)": "14ab9038",
			"setUpgradeContract(address)": "b6bcad26",
			"supportsInterface(bytes4)": "01ffc9a7",
			"transferOwnership(address)": "f2fde38b",
			"unwrap(bytes32,bytes32,address)": "d8c9921a",
			"unwrapETH2LD(bytes32,address,address)": "8b4dfa75",
			"upgrade(bytes,bytes)": "c93ab3fd",
			"upgradeContract()": "1f4e1504",
			"uri(uint256)": "0e89341c",
			"wrap(bytes,address,address)": "eb8ae530",
			"wrapETH2LD(string,address,uint16,address)": "8cf8b41e"
		}
	},
	"abi": [
		{
			"inputs": [
				{
					"internalType": "contract ENS",
					"name": "_ens",
					"type": "address"
				},
				{
					"internalType": "contract IBaseRegistrar",
					"name": "_registrar",
					"type": "address"
				},
				{
					"internalType": "contract IMetadataService",
					"name": "_metadataService",
					"type": "address"
				}
			],
			"stateMutability": "nonpayable",
			"type": "constructor"
		},
		{
			"inputs": [],
			"name": "CannotUpgrade",
			"type": "error"
		},
		{
			"inputs": [],
			"name": "IncompatibleParent",
			"type": "error"
		},
		{
			"inputs": [
				{
					"internalType": "address",
					"name": "owner",
					"type": "address"
				}
			],
			"name": "IncorrectTargetOwner",
			"type": "error"
		},
		{
			"inputs": [],
			"name": "IncorrectTokenType",
			"type": "error"
		},
		{
			"inputs": [
				{
					"internalType": "bytes32",
					"name": "labelHash",
					"type": "bytes32"
				},
				{
					"internalType": "bytes32",
					"name": "expectedLabelhash",
					"type": "bytes32"
				}
			],
			"name": "LabelMismatch",
			"type": "error"
		},
		{
			"inputs": [
				{
					"internalType": "string",
					"name": "label",
					"type": "string"
				}
			],
			"name": "LabelTooLong",
			"type": "error"
		},
		{
			"inputs": [],
			"name": "LabelTooShort",
			"type": "error"
		},
		{
			"inputs": [],
			"name": "NameIsNotWrapped",
			"type": "error"
		},
		{
			"inputs": [
				{
					"internalType": "bytes32",
					"name": "node",
					"type": "bytes32"
				}
			],
			"name": "OperationProhibited",
			"type": "error"
		},
		{
			"inputs": [
				{
					"internalType": "bytes32",
					"name": "node",
					"type": "bytes32"
				},
				{
					"internalType": "address",
					"name": "addr",
					"type": "address"
				}
			],
			"name": "Unauthorised",
			"type": "error"
		},
		{
			"anonymous": false,
			"inputs": [
				{
					"indexed": true,
					"internalType": "address",
					"name": "owner",
					"type": "address"
				},
				{
					"indexed": true,
					"internalType": "address",
					"name": "approved",
					"type": "address"
				},
				{
					"indexed": true,
					"internalType": "uint256",
					"name": "tokenId",
					"type": "uint256"
				}
			],
			"name": "Approval",
			"type": "event"
		},
		{
			"anonymous": false,
			"inputs": [
				{
					"indexed": true,
					"internalType": "address",
					"name": "account",
					"type": "address"
				},
				{
					"indexed": true,
					"internalType": "address",
					"name": "operator",
					"type": "address"
				},
				{
					"indexed": false,
					"internalType": "bool",
					"name": "approved",
					"type": "bool"
				}
			],
			"name": "ApprovalForAll",
			"type": "event"
		},
		{
			"anonymous": false,
			"inputs": [
				{
					"indexed": true,
					"internalType": "address",
					"name": "controller",
					"type": "address"
				},
				{
					"indexed": false,
					"internalType": "bool",
					"name": "active",
					"type": "bool"
				}
			],
			"name": "ControllerChanged",
			"type": "event"
		},
		{
			"anonymous": false,
			"inputs": [
				{
					"indexed": true,
					"internalType": "bytes32",
					"name": "node",
					"type": "bytes32"
				},
				{
					"indexed": false,
					"internalType": "uint64",
					"name": "expiry",
					"type": "uint64"
				}
			],
			"name": "ExpiryExtended",
			"type": "event"
		},
		{
			"anonymous": false,
			"inputs": [
				{
					"indexed": true,
					"internalType": "bytes32",
					"name": "node",
					"type": "bytes32"
				},
				{
					"indexed": false,
					"internalType": "uint32",
					"name": "fuses",
					"type": "uint32"
				}
			],
			"name": "FusesSet",
			"type": "event"
		},
		{
			"anonymous": false,
			"inputs": [
				{
					"indexed": true,
					"internalType": "bytes32",
					"name": "node",
					"type": "bytes32"
				},
				{
					"indexed": false,
					"internalType": "address",
					"name": "owner",
					"type": "address"
				}
			],
			"name": "NameUnwrapped",
			"type": "event"
		},
		{
			"anonymous": false,
			"inputs": [
				{
					"indexed": true,
					"internalType": "bytes32",
					"name": "node",
					"type": "bytes32"
				},
				{
					"indexed": false,
					"internalType": "bytes",
					"name": "name",
					"type": "bytes"
				},
				{
					"indexed": false,
					"internalType": "address",
					"name": "owner",
					"type": "address"
				},
				{
					"indexed": false,
					"internalType": "uint32",
					"name": "fuses",
					"type": "uint32"
				},
				{
					"indexed": false,
					"internalType": "uint64",
					"name": "expiry",
					"type": "uint64"
				}
			],
			"name": "NameWrapped",
			"type": "event"
		},
		{
			"anonymous": false,
			"inputs": [
				{
					"indexed": true,
					"internalType": "address",
					"name": "previousOwner",
					"type": "address"
				},
				{
					"indexed": true,
					"internalType": "address",
					"name": "newOwner",
					"type": "address"
				}
			],
			"name": "OwnershipTransferred",
			"type": "event"
		},
		{
			"anonymous": false,
			"inputs": [
				{
					"indexed": true,
					"internalType": "address",
					"name": "operator",
					"type": "address"
				},
				{
					"indexed": true,
					"internalType": "address",
					"name": "from",
					"type": "address"
				},
				{
					"indexed": true,
					"internalType": "address",
					"name": "to",
					"type": "address"
				},
				{
					"indexed": false,
					"internalType": "uint256[]",
					"name": "ids",
					"type": "uint256[]"
				},
				{
					"indexed": false,
					"internalType": "uint256[]",
					"name": "values",
					"type": "uint256[]"
				}
			],
			"name": "TransferBatch",
			"type": "event"
		},
		{
			"anonymous": false,
			"inputs": [
				{
					"indexed": true,
					"internalType": "address",
					"name": "operator",
					"type": "address"
				},
				{
					"indexed": true,
					"internalType": "address",
					"name": "from",
					"type": "address"
				},
				{
					"indexed": true,
					"internalType": "address",
					"name": "to",
					"type": "address"
				},
				{
					"indexed": false,
					"internalType": "uint256",
					"name": "id",
					"type": "uint256"
				},
				{
					"indexed": false,
					"internalType": "uint256",
					"name": "value",
					"type": "uint256"
				}
			],
			"name": "TransferSingle",
			"type": "event"
		},
		{
			"anonymous": false,
			"inputs": [
				{
					"indexed": false,
					"internalType": "string",
					"name": "value",
					"type": "string"
				},
				{
					"indexed": true,
					"internalType": "uint256",
					"name": "id",
					"type": "uint256"
				}
			],
			"name": "URI",
			"type": "event"
		},
		{
			"inputs": [
				{
					"internalType": "uint256",
					"name": "",
					"type": "uint256"
				}
			],
			"name": "_tokens",
			"outputs": [
				{
					"internalType": "uint256",
					"name": "",
					"type": "uint256"
				}
			],
			"stateMutability": "view",
			"type": "function"
		},
		{
			"inputs": [
				{
					"internalType": "bytes32",
					"name": "node",
					"type": "bytes32"
				},
				{
					"internalType": "uint32",
					"name": "fuseMask",
					"type": "uint32"
				}
			],
			"name": "allFusesBurned",
			"outputs": [
				{
					"internalType": "bool",
					"name": "",
					"type": "bool"
				}
			],
			"stateMutability": "view",
			"type": "function"
		},
		{
			"inputs": [
				{
					"internalType": "address",
					"name": "to",
					"type": "address"
				},
				{
					"internalType": "uint256",
					"name": "tokenId",
					"type": "uint256"
				}
			],
			"name": "approve",
			"outputs": [],
			"stateMutability": "nonpayable",
			"type": "function"
		},
		{
			"inputs": [
				{
					"internalType": "address",
					"name": "account",
					"type": "address"
				},
				{
					"internalType": "uint256",
					"name": "id",
					"type": "uint256"
				}
			],
			"name": "balanceOf",
			"outputs": [
				{
					"internalType": "uint256",
					"name": "",
					"type": "uint256"
				}
			],
			"stateMutability": "view",
			"type": "function"
		},
		{
			"inputs": [
				{
					"internalType": "address[]",
					"name": "accounts",
					"type": "address[]"
				},
				{
					"internalType": "uint256[]",
					"name": "ids",
					"type": "uint256[]"
				}
			],
			"name": "balanceOfBatch",
			"outputs": [
				{
					"internalType": "uint256[]",
					"name": "",
					"type": "uint256[]"
				}
			],
			"stateMutability": "view",
			"type": "function"
		},
		{
			"inputs": [
				{
					"internalType": "bytes32",
					"name": "node",
					"type": "bytes32"
				},
				{
					"internalType": "address",
					"name": "addr",
					"type": "address"
				}
			],
			"name": "canExtendSubnames",
			"outputs": [
				{
					"internalType": "bool",
					"name": "",
					"type": "bool"
				}
			],
			"stateMutability": "view",
			"type": "function"
		},
		{
			"inputs": [
				{
					"internalType": "bytes32",
					"name": "node",
					"type": "bytes32"
				},
				{
					"internalType": "address",
					"name": "addr",
					"type": "address"
				}
			],
			"name": "canModifyName",
			"outputs": [
				{
					"internalType": "bool",
					"name": "",
					"type": "bool"
				}
			],
			"stateMutability": "view",
			"type": "function"
		},
		{
			"inputs": [
				{
					"internalType": "address",
					"name": "",
					"type": "address"
				}
			],
			"name": "controllers",
			"outputs": [
				{
					"internalType": "bool",
					"name": "",
					"type": "bool"
				}
			],
			"stateMutability": "view",
			"type": "function"
		},
		{
			"inputs": [],
			"name": "ens",
			"outputs": [
				{
					"internalType": "contract ENS",
					"name": "",
					"type": "address"
				}
			],
			"stateMutability": "view",
			"type": "function"
		},
		{
			"inputs": [
				{
					"internalType": "bytes32",
					"name": "parentNode",
					"type": "bytes32"
				},
				{
					"internalType": "bytes32",
					"name": "labelhash",
					"type": "bytes32"
				},
				{
					"internalType": "uint64",
					"name": "expiry",
					"type": "uint64"
				}
			],
			"name": "extendExpiry",
			"outputs": [
				{
					"internalType": "uint64",
					"name": "",
					"type": "uint64"
				}
			],
			"stateMutability": "nonpayable",
			"type": "function"
		},
		{
			"inputs": [
				{
					"internalType": "uint256",
					"name": "id",
					"type": "uint256"
				}
			],
			"name": "getApproved",
			"outputs": [
				{
					"internalType": "address",
					"name": "operator",
					"type": "address"
				}
			],
			"stateMutability": "view",
			"type": "function"
		},
		{
			"inputs": [
				{
					"internalType": "uint256",
					"name": "id",
					"type": "uint256"
				}
			],
			"name": "getData",
			"outputs": [
				{
					"internalType": "address",
					"name": "owner",
					"type": "address"
				},
				{
					"internalType": "uint32",
					"name": "fuses",
					"type": "uint32"
				},
				{
					"internalType": "uint64",
					"name": "expiry",
					"type": "uint64"
				}
			],
			"stateMutability": "view",
			"type": "function"
		},
		{
			"inputs": [
				{
					"internalType": "address",
					"name": "account",
					"type": "address"
				},
				{
					"internalType": "address",
					"name": "operator",
					"type": "address"
				}
			],
			"name": "isApprovedForAll",
			"outputs": [
				{
					"internalType": "bool",
					"name": "",
					"type": "bool"
				}
			],
			"stateMutability": "view",
			"type": "function"
		},
		{
			"inputs": [
				{
					"internalType": "bytes32",
					"name": "parentNode",
					"type": "bytes32"
				},
				{
					"internalType": "bytes32",
					"name": "labelhash",
					"type": "bytes32"
				}
			],
			"name": "isWrapped",
			"outputs": [
				{
					"internalType": "bool",
					"name": "",
					"type": "bool"
				}
			],
			"stateMutability": "view",
			"type": "function"
		},
		{
			"inputs": [
				{
					"internalType": "bytes32",
					"name": "node",
					"type": "bytes32"
				}
			],
			"name": "isWrapped",
			"outputs": [
				{
					"internalType": "bool",
					"name": "",
					"type": "bool"
				}
			],
			"stateMutability": "view",
			"type": "function"
		},
		{
			"inputs": [],
			"name": "metadataService",
			"outputs": [
				{
					"internalType": "contract IMetadataService",
					"name": "",
					"type": "address"
				}
			],
			"stateMutability": "view",
			"type": "function"
		},
		{
			"inputs": [],
			"name": "name",
			"outputs": [
				{
					"internalType": "string",
					"name": "",
					"type": "string"
				}
			],
			"stateMutability": "view",
			"type": "function"
		},
		{
			"inputs": [
				{
					"internalType": "bytes32",
					"name": "",
					"type": "bytes32"
				}
			],
			"name": "names",
			"outputs": [
				{
					"internalType": "bytes",
					"name": "",
					"type": "bytes"
				}
			],
			"stateMutability": "view",
			"type": "function"
		},
		{
			"inputs": [
				{
					"internalType": "address",
					"name": "to",
					"type": "address"
				},
				{
					"internalType": "address",
					"name": "",
					"type": "address"
				},
				{
					"internalType": "uint256",
					"name": "tokenId",
					"type": "uint256"
				},
				{
					"internalType": "bytes",
					"name": "data",
					"type": "bytes"
				}
			],
			"name": "onERC721Received",
			"outputs": [
				{
					"internalType": "bytes4",
					"name": "",
					"type": "bytes4"
				}
			],
			"stateMutability": "nonpayable",
			"type": "function"
		},
		{
			"inputs": [],
			"name": "owner",
			"outputs": [
				{
					"internalType": "address",
					"name": "",
					"type": "address"
				}
			],
			"stateMutability": "view",
			"type": "function"
		},
		{
			"inputs": [
				{
					"internalType": "uint256",
					"name": "id",
					"type": "uint256"
				}
			],
			"name": "ownerOf",
			"outputs": [
				{
					"internalType": "address",
					"name": "owner",
					"type": "address"
				}
			],
			"stateMutability": "view",
			"type": "function"
		},
		{
			"inputs": [
				{
					"internalType": "address",
					"name": "_token",
					"type": "address"
				},
				{
					"internalType": "address",
					"name": "_to",
					"type": "address"
				},
				{
					"internalType": "uint256",
					"name": "_amount",
					"type": "uint256"
				}
			],
			"name": "recoverFunds",
			"outputs": [],
			"stateMutability": "nonpayable",
			"type": "function"
		},
		{
			"inputs": [
				{
					"internalType": "string",
					"name": "label",
					"type": "string"
				},
				{
					"internalType": "address",
					"name": "wrappedOwner",
					"type": "address"
				},
				{
					"internalType": "uint256",
					"name": "duration",
					"type": "uint256"
				},
				{
					"internalType": "address",
					"name": "resolver",
					"type": "address"
				},
				{
					"internalType": "uint16",
					"name": "ownerControlledFuses",
					"type": "uint16"
				}
			],
			"name": "registerAndWrapETH2LD",
			"outputs": [
				{
					"internalType": "uint256",
					"name": "registrarExpiry",
					"type": "uint256"
				}
			],
			"stateMutability": "nonpayable",
			"type": "function"
		},
		{
			"inputs": [],
			"name": "registrar",
			"outputs": [
				{
					"internalType": "contract IBaseRegistrar",
					"name": "",
					"type": "address"
				}
			],
			"stateMutability": "view",
			"type": "function"
		},
		{
			"inputs": [
				{
					"internalType": "uint256",
					"name": "tokenId",
					"type": "uint256"
				},
				{
					"internalType": "uint256",
					"name": "duration",
					"type": "uint256"
				}
			],
			"name": "renew",
			"outputs": [
				{
					"internalType": "uint256",
					"name": "expires",
					"type": "uint256"
				}
			],
			"stateMutability": "nonpayable",
			"type": "function"
		},
		{
			"inputs": [],
			"name": "renounceOwnership",
			"outputs": [],
			"stateMutability": "nonpayable",
			"type": "function"
		},
		{
			"inputs": [
				{
					"internalType": "address",
					"name": "from",
					"type": "address"
				},
				{
					"internalType": "address",
					"name": "to",
					"type": "address"
				},
				{
					"internalType": "uint256[]",
					"name": "ids",
					"type": "uint256[]"
				},
				{
					"internalType": "uint256[]",
					"name": "amounts",
					"type": "uint256[]"
				},
				{
					"internalType": "bytes",
					"name": "data",
					"type": "bytes"
				}
			],
			"name": "safeBatchTransferFrom",
			"outputs": [],
			"stateMutability": "nonpayable",
			"type": "function"
		},
		{
			"inputs": [
				{
					"internalType": "address",
					"name": "from",
					"type": "address"
				},
				{
					"internalType": "address",
					"name": "to",
					"type": "address"
				},
				{
					"internalType": "uint256",
					"name": "id",
					"type": "uint256"
				},
				{
					"internalType": "uint256",
					"name": "amount",
					"type": "uint256"
				},
				{
					"internalType": "bytes",
					"name": "data",
					"type": "bytes"
				}
			],
			"name": "safeTransferFrom",
			"outputs": [],
			"stateMutability": "nonpayable",
			"type": "function"
		},
		{
			"inputs": [
				{
					"internalType": "address",
					"name": "operator",
					"type": "address"
				},
				{
					"internalType": "bool",
					"name": "approved",
					"type": "bool"
				}
			],
			"name": "setApprovalForAll",
			"outputs": [],
			"stateMutability": "nonpayable",
			"type": "function"
		},
		{
			"inputs": [
				{
					"internalType": "bytes32",
					"name": "parentNode",
					"type": "bytes32"
				},
				{
					"internalType": "bytes32",
					"name": "labelhash",
					"type": "bytes32"
				},
				{
					"internalType": "uint32",
					"name": "fuses",
					"type": "uint32"
				},
				{
					"internalType": "uint64",
					"name": "expiry",
					"type": "uint64"
				}
			],
			"name": "setChildFuses",
			"outputs": [],
			"stateMutability": "nonpayable",
			"type": "function"
		},
		{
			"inputs": [
				{
					"internalType": "address",
					"name": "controller",
					"type": "address"
				},
				{
					"internalType": "bool",
					"name": "active",
					"type": "bool"
				}
			],
			"name": "setController",
			"outputs": [],
			"stateMutability": "nonpayable",
			"type": "function"
		},
		{
			"inputs": [
				{
					"internalType": "bytes32",
					"name": "node",
					"type": "bytes32"
				},
				{
					"internalType": "uint16",
					"name": "ownerControlledFuses",
					"type": "uint16"
				}
			],
			"name": "setFuses",
			"outputs": [
				{
					"internalType": "uint32",
					"name": "",
					"type": "uint32"
				}
			],
			"stateMutability": "nonpayable",
			"type": "function"
		},
		{
			"inputs": [
				{
					"internalType": "contract IMetadataService",
					"name": "_metadataService",
					"type": "address"
				}
			],
			"name": "setMetadataService",
			"outputs": [],
			"stateMutability": "nonpayable",
			"type": "function"
		},
		{
			"inputs": [
				{
					"internalType": "bytes32",
					"name": "node",
					"type": "bytes32"
				},
				{
					"internalType": "address",
					"name": "owner",
					"type": "address"
				},
				{
					"internalType": "address",
					"name": "resolver",
					"type": "address"
				},
				{
					"internalType": "uint64",
					"name": "ttl",
					"type": "uint64"
				}
			],
			"name": "setRecord",
			"outputs": [],
			"stateMutability": "nonpayable",
			"type": "function"
		},
		{
			"inputs": [
				{
					"internalType": "bytes32",
					"name": "node",
					"type": "bytes32"
				},
				{
					"internalType": "address",
					"name": "resolver",
					"type": "address"
				}
			],
			"name": "setResolver",
			"outputs": [],
			"stateMutability": "nonpayable",
			"type": "function"
		},
		{
			"inputs": [
				{
					"internalType": "bytes32",
					"name": "parentNode",
					"type": "bytes32"
				},
				{
					"internalType": "string",
					"name": "label",
					"type": "string"
				},
				{
					"internalType": "address",
					"name": "owner",
					"type": "address"
				},
				{
					"internalType": "uint32",
					"name": "fuses",
					"type": "uint32"
				},
				{
					"internalType": "uint64",
					"name": "expiry",
					"type": "uint64"
				}
			],
			"name": "setSubnodeOwner",
			"outputs": [
				{
					"internalType": "bytes32",
					"name": "node",
					"type": "bytes32"
				}
			],
			"stateMutability": "nonpayable",
			"type": "function"
		},
		{
			"inputs": [
				{
					"internalType": "bytes32",
					"name": "parentNode",
					"type": "bytes32"
				},
				{
					"internalType": "string",
					"name": "label",
					"type": "string"
				},
				{
					"internalType": "address",
					"name": "owner",
					"type": "address"
				},
				{
					"internalType": "address",
					"name": "resolver",
					"type": "address"
				},
				{
					"internalType": "uint64",
					"name": "ttl",
					"type": "uint64"
				},
				{
					"internalType": "uint32",
					"name": "fuses",
					"type": "uint32"
				},
				{
					"internalType": "uint64",
					"name": "expiry",
					"type": "uint64"
				}
			],
			"name": "setSubnodeRecord",
			"outputs": [
				{
					"internalType": "bytes32",
					"name": "node",
					"type": "bytes32"
				}
			],
			"stateMutability": "nonpayable",
			"type": "function"
		},
		{
			"inputs": [
				{
					"internalType": "bytes32",
					"name": "node",
					"type": "bytes32"
				},
				{
					"internalType": "uint64",
					"name": "ttl",
					"type": "uint64"
				}
			],
			"name": "setTTL",
			"outputs": [],
			"stateMutability": "nonpayable",
			"type": "function"
		},
		{
			"inputs": [
				{
					"internalType": "contract INameWrapperUpgrade",
					"name": "_upgradeAddress",
					"type": "address"
				}
			],
			"name": "setUpgradeContract",
			"outputs": [],
			"stateMutability": "nonpayable",
			"type": "function"
		},
		{
			"inputs": [
				{
					"internalType": "bytes4",
					"name": "interfaceId",
					"type": "bytes4"
				}
			],
			"name": "supportsInterface",
			"outputs": [
				{
					"internalType": "bool",
					"name": "",
					"type": "bool"
				}
			],
			"stateMutability": "view",
			"type": "function"
		},
		{
			"inputs": [
				{
					"internalType": "address",
					"name": "newOwner",
					"type": "address"
				}
			],
			"name": "transferOwnership",
			"outputs": [],
			"stateMutability": "nonpayable",
			"type": "function"
		},
		{
			"inputs": [
				{
					"internalType": "bytes32",
					"name": "parentNode",
					"type": "bytes32"
				},
				{
					"internalType": "bytes32",
					"name": "labelhash",
					"type": "bytes32"
				},
				{
					"internalType": "address",
					"name": "controller",
					"type": "address"
				}
			],
			"name": "unwrap",
			"outputs": [],
			"stateMutability": "nonpayable",
			"type": "function"
		},
		{
			"inputs": [
				{
					"internalType": "bytes32",
					"name": "labelhash",
					"type": "bytes32"
				},
				{
					"internalType": "address",
					"name": "registrant",
					"type": "address"
				},
				{
					"internalType": "address",
					"name": "controller",
					"type": "address"
				}
			],
			"name": "unwrapETH2LD",
			"outputs": [],
			"stateMutability": "nonpayable",
			"type": "function"
		},
		{
			"inputs": [
				{
					"internalType": "bytes",
					"name": "name",
					"type": "bytes"
				},
				{
					"internalType": "bytes",
					"name": "extraData",
					"type": "bytes"
				}
			],
			"name": "upgrade",
			"outputs": [],
			"stateMutability": "nonpayable",
			"type": "function"
		},
		{
			"inputs": [],
			"name": "upgradeContract",
			"outputs": [
				{
					"internalType": "contract INameWrapperUpgrade",
					"name": "",
					"type": "address"
				}
			],
			"stateMutability": "view",
			"type": "function"
		},
		{
			"inputs": [
				{
					"internalType": "uint256",
					"name": "tokenId",
					"type": "uint256"
				}
			],
			"name": "uri",
			"outputs": [
				{
					"internalType": "string",
					"name": "",
					"type": "string"
				}
			],
			"stateMutability": "view",
			"type": "function"
		},
		{
			"inputs": [
				{
					"internalType": "bytes",
					"name": "name",
					"type": "bytes"
				},
				{
					"internalType": "address",
					"name": "wrappedOwner",
					"type": "address"
				},
				{
					"internalType": "address",
					"name": "resolver",
					"type": "address"
				}
			],
			"name": "wrap",
			"outputs": [],
			"stateMutability": "nonpayable",
			"type": "function"
		},
		{
			"inputs": [
				{
					"internalType": "string",
					"name": "label",
					"type": "string"
				},
				{
					"internalType": "address",
					"name": "wrappedOwner",
					"type": "address"
				},
				{
					"internalType": "uint16",
					"name": "ownerControlledFuses",
					"type": "uint16"
				},
				{
					"internalType": "address",
					"name": "resolver",
					"type": "address"
				}
			],
			"name": "wrapETH2LD",
			"outputs": [
				{
					"internalType": "uint64",
					"name": "expiry",
					"type": "uint64"
				}
			],
			"stateMutability": "nonpayable",
			"type": "function"
		}
	]
}