{
  "_format": "hh-sol-artifact-1",
  "contractName": "DummyOldResolver",
  "sourceName": "contracts/utils/DummyOldResolver.sol",
  "abi": [
    {
      "inputs": [
        {
          "internalType": "bytes32",
          "name": "",
          "type": "bytes32"
        }
      ],
      "name": "name",
      "outputs": [
        {
          "internalType": "string",
          "name": "",
          "type": "string"
        }
      ],
      "stateMutability": "nonpayable",
      "type": "function"
    },
    {
      "inputs": [],
      "name": "test",
      "outputs": [
        {
          "internalType": "bool",
          "name": "",
          "type": "bool"
        }
      ],
      "stateMutability": "nonpayable",
      "type": "function"
    }
  ],
  "bytecode": "0x608060405234801561001057600080fd5b50610143806100206000396000f3fe608060405234801561001057600080fd5b50600436106100365760003560e01c8063691f34311461003b578063f8a8fd6d14610097575b600080fd5b6100816100493660046100a6565b5060408051808201909152600881527f746573742e657468000000000000000000000000000000000000000000000000602082015290565b60405161008e91906100bf565b60405180910390f35b6040516001815260200161008e565b6000602082840312156100b857600080fd5b5035919050565b600060208083528351808285015260005b818110156100ec578581018301518582016040015282016100d0565b506000604082860101526040601f19601f830116850101925050509291505056fea2646970667358221220ae9b42caf61c12831f6a7d28c2c67d168bbed6b6b2dc4b9fe4b55d3f92754f0964736f6c63430008110033",
  "linkReferences": {},
  "deployedLinkReferences": {}
}