{
  "_format": "hh-sol-artifact-1",
  "contractName": "ETHRegistrarController",
  "sourceName": "contracts/ethregistrar/ETHRegistrarController.sol",
  "abi": [
    {
      "inputs": [
        {
          "internalType": "contract BaseRegistrarImplementation",
          "name": "_base",
          "type": "address"
        },
        {
          "internalType": "contract IPriceOracle",
          "name": "_prices",
          "type": "address"
        },
        {
          "internalType": "uint256",
          "name": "_minCommitmentAge",
          "type": "uint256"
        },
        {
          "internalType": "uint256",
          "name": "_maxCommitmentAge",
          "type": "uint256"
        },
        {
          "internalType": "contract ReverseRegistrar",
          "name": "_reverseRegistrar",
          "type": "address"
        },
        {
          "internalType": "contract INameWrapper",
          "name": "_nameWrapper",
          "type": "address"
        },
        {
          "internalType": "contract ENS",
          "name": "_ens",
          "type": "address"
        }
      ],
      "stateMutability": "nonpayable",
      "type": "constructor"
    },
    {
      "inputs": [],
      "name": "InsufficientValue",
      "type": "error"
    },
    {
      "inputs": [],
      "name": "MaxCommitmentAgeTooHigh",
      "type": "error"
    },
    {
      "inputs": [],
      "name": "MaxCommitmentAgeTooLow",
      "type": "error"
    },
    {
      "inputs": [],
      "name": "ResolverRequiredWhenDataSupplied",
      "type": "error"
    },
    {
      "anonymous": false,
      "inputs": [
        {
          "indexed": false,
          "internalType": "uint256",
          "name": "max",
          "type": "uint256"
        }
      ],
      "name": "ChangeMaxLength",
      "type": "event"
    },
    {
      "anonymous": false,
      "inputs": [
        {
          "indexed": false,
          "internalType": "string",
          "name": "name",
          "type": "string"
        },
        {
          "indexed": true,
          "internalType": "bytes32",
          "name": "label",
          "type": "bytes32"
        },
        {
          "indexed": true,
          "internalType": "address",
          "name": "owner",
          "type": "address"
        },
        {
          "indexed": false,
          "internalType": "uint256",
          "name": "baseCost",
          "type": "uint256"
        },
        {
          "indexed": false,
          "internalType": "uint256",
          "name": "premium",
          "type": "uint256"
        },
        {
          "indexed": false,
          "internalType": "uint256",
          "name": "expires",
          "type": "uint256"
        }
      ],
      "name": "NameRegistered",
      "type": "event"
    },
    {
      "anonymous": false,
      "inputs": [
        {
          "indexed": false,
          "internalType": "string",
          "name": "name",
          "type": "string"
        },
        {
          "indexed": true,
          "internalType": "bytes32",
          "name": "label",
          "type": "bytes32"
        },
        {
          "indexed": false,
          "internalType": "uint256",
          "name": "cost",
          "type": "uint256"
        },
        {
          "indexed": false,
          "internalType": "uint256",
          "name": "expires",
          "type": "uint256"
        }
      ],
      "name": "NameRenewed",
      "type": "event"
    },
    {
      "anonymous": false,
      "inputs": [
        {
          "indexed": true,
          "internalType": "address",
          "name": "previousOwner",
          "type": "address"
        },
        {
          "indexed": true,
          "internalType": "address",
          "name": "newOwner",
          "type": "address"
        }
      ],
      "name": "OwnershipTransferred",
      "type": "event"
    },
    {
      "anonymous": false,
      "inputs": [
        {
          "indexed": false,
          "internalType": "address",
          "name": "oldPrice",
          "type": "address"
        },
        {
          "indexed": false,
          "internalType": "address",
          "name": "newPrice",
          "type": "address"
        }
      ],
      "name": "PriceChange",
      "type": "event"
    },
    {
      "inputs": [],
      "name": "MIN_REGISTRATION_DURATION",
      "outputs": [
        {
          "internalType": "uint256",
          "name": "",
          "type": "uint256"
        }
      ],
      "stateMutability": "view",
      "type": "function"
    },
    {
      "inputs": [
        {
          "internalType": "string",
          "name": "name",
          "type": "string"
        }
      ],
      "name": "available",
      "outputs": [
        {
          "internalType": "bool",
          "name": "",
          "type": "bool"
        }
      ],
      "stateMutability": "view",
      "type": "function"
    },
    {
      "inputs": [
        {
          "internalType": "bytes32",
          "name": "commitment",
          "type": "bytes32"
        }
      ],
      "name": "commit",
      "outputs": [],
      "stateMutability": "nonpayable",
      "type": "function"
    },
    {
      "inputs": [
        {
          "internalType": "bytes32",
          "name": "",
          "type": "bytes32"
        }
      ],
      "name": "commitments",
      "outputs": [
        {
          "internalType": "uint256",
          "name": "",
          "type": "uint256"
        }
      ],
      "stateMutability": "view",
      "type": "function"
    },
    {
      "inputs": [
        {
          "internalType": "string",
          "name": "name",
          "type": "string"
        },
        {
          "internalType": "address",
          "name": "_owner",
          "type": "address"
        },
        {
          "internalType": "uint256",
          "name": "duration",
          "type": "uint256"
        },
        {
          "internalType": "bytes32",
          "name": "secret",
          "type": "bytes32"
        },
        {
          "internalType": "address",
          "name": "resolver",
          "type": "address"
        },
        {
          "internalType": "bytes[]",
          "name": "data",
          "type": "bytes[]"
        },
        {
          "internalType": "bool",
          "name": "reverseRecord",
          "type": "bool"
        },
        {
          "internalType": "uint16",
          "name": "ownerControlledFuses",
          "type": "uint16"
        }
      ],
      "name": "makeCommitment",
      "outputs": [
        {
          "internalType": "bytes32",
          "name": "",
          "type": "bytes32"
        }
      ],
      "stateMutability": "pure",
      "type": "function"
    },
    {
      "inputs": [],
      "name": "maxCommitmentAge",
      "outputs": [
        {
          "internalType": "uint256",
          "name": "",
          "type": "uint256"
        }
      ],
      "stateMutability": "view",
      "type": "function"
    },
    {
      "inputs": [],
      "name": "maxLenght",
      "outputs": [
        {
          "internalType": "uint256",
          "name": "",
          "type": "uint256"
        }
      ],
      "stateMutability": "view",
      "type": "function"
    },
    {
      "inputs": [],
      "name": "minCommitmentAge",
      "outputs": [
        {
          "internalType": "uint256",
          "name": "",
          "type": "uint256"
        }
      ],
      "stateMutability": "view",
      "type": "function"
    },
    {
      "inputs": [],
      "name": "nameWrapper",
      "outputs": [
        {
          "internalType": "contract INameWrapper",
          "name": "",
          "type": "address"
        }
      ],
      "stateMutability": "view",
      "type": "function"
    },
    {
      "inputs": [],
      "name": "owner",
      "outputs": [
        {
          "internalType": "address",
          "name": "",
          "type": "address"
        }
      ],
      "stateMutability": "view",
      "type": "function"
    },
    {
      "inputs": [],
      "name": "prices",
      "outputs": [
        {
          "internalType": "contract IPriceOracle",
          "name": "",
          "type": "address"
        }
      ],
      "stateMutability": "view",
      "type": "function"
    },
    {
      "inputs": [
        {
          "internalType": "address",
          "name": "_token",
          "type": "address"
        },
        {
          "internalType": "address",
          "name": "_to",
          "type": "address"
        },
        {
          "internalType": "uint256",
          "name": "_amount",
          "type": "uint256"
        }
      ],
      "name": "recoverFunds",
      "outputs": [],
      "stateMutability": "nonpayable",
      "type": "function"
    },
    {
      "inputs": [
        {
          "internalType": "string",
          "name": "name",
          "type": "string"
        },
        {
          "internalType": "address",
          "name": "_owner",
          "type": "address"
        },
        {
          "internalType": "uint256",
          "name": "duration",
          "type": "uint256"
        },
        {
          "internalType": "bytes32",
          "name": "secret",
          "type": "bytes32"
        },
        {
          "internalType": "address",
          "name": "resolver",
          "type": "address"
        },
        {
          "internalType": "bytes[]",
          "name": "data",
          "type": "bytes[]"
        },
        {
          "internalType": "bool",
          "name": "reverseRecord",
          "type": "bool"
        },
        {
          "internalType": "uint16",
          "name": "ownerControlledFuses",
          "type": "uint16"
        }
      ],
      "name": "register",
      "outputs": [],
      "stateMutability": "payable",
      "type": "function"
    },
    {
      "inputs": [
        {
          "internalType": "string",
          "name": "name",
          "type": "string"
        },
        {
          "internalType": "uint256",
          "name": "duration",
          "type": "uint256"
        }
      ],
      "name": "renew",
      "outputs": [],
      "stateMutability": "payable",
      "type": "function"
    },
    {
      "inputs": [],
      "name": "renounceOwnership",
      "outputs": [],
      "stateMutability": "nonpayable",
      "type": "function"
    },
    {
      "inputs": [
        {
          "internalType": "string",
          "name": "name",
          "type": "string"
        },
        {
          "internalType": "uint256",
          "name": "duration",
          "type": "uint256"
        },
        {
          "internalType": "address",
          "name": "user",
          "type": "address"
        }
      ],
      "name": "rentPrice",
      "outputs": [
        {
          "components": [
            {
              "internalType": "uint256",
              "name": "base",
              "type": "uint256"
            },
            {
              "internalType": "uint256",
              "name": "premium",
              "type": "uint256"
            }
          ],
          "internalType": "struct IPriceOracle.Price",
          "name": "price",
          "type": "tuple"
        }
      ],
      "stateMutability": "view",
      "type": "function"
    },
    {
      "inputs": [],
      "name": "reverseRegistrar",
      "outputs": [
        {
          "internalType": "contract ReverseRegistrar",
          "name": "",
          "type": "address"
        }
      ],
      "stateMutability": "view",
      "type": "function"
    },
    {
      "inputs": [
        {
          "internalType": "uint256",
          "name": "_max",
          "type": "uint256"
        }
      ],
      "name": "setMaxLength",
      "outputs": [],
      "stateMutability": "nonpayable",
      "type": "function"
    },
    {
      "inputs": [
        {
          "internalType": "contract IPriceOracle",
          "name": "_prices",
          "type": "address"
        }
      ],
      "name": "setPrice",
      "outputs": [],
      "stateMutability": "nonpayable",
      "type": "function"
    },
    {
      "inputs": [
        {
          "internalType": "bytes4",
          "name": "interfaceID",
          "type": "bytes4"
        }
      ],
      "name": "supportsInterface",
      "outputs": [
        {
          "internalType": "bool",
          "name": "",
          "type": "bool"
        }
      ],
      "stateMutability": "pure",
      "type": "function"
    },
    {
      "inputs": [
        {
          "internalType": "address",
          "name": "newOwner",
          "type": "address"
        }
      ],
      "name": "transferOwnership",
      "outputs": [],
      "stateMutability": "nonpayable",
      "type": "function"
    },
    {
      "inputs": [
        {
          "internalType": "string",
          "name": "name",
          "type": "string"
        }
      ],
      "name": "valid",
      "outputs": [
        {
          "internalType": "bool",
          "name": "",
          "type": "bool"
        }
      ],
      "stateMutability": "view",
      "type": "function"
    },
    {
      "inputs": [],
      "name": "walletDev",
      "outputs": [
        {
          "internalType": "address",
          "name": "",
          "type": "address"
        }
      ],
      "stateMutability": "view",
      "type": "function"
    },
    {
      "inputs": [],
      "name": "withdraw",
      "outputs": [],
      "stateMutability": "nonpayable",
      "type": "function"
    }
  ],
  "bytecode": "0x61012060405260036002553480156200001757600080fd5b50604051620023d5380380620023d58339810160408190526200003a9162000238565b80336200004781620001cf565b6040516302571be360e01b81527f91d1777781884d03a6757a803996e38de2a42967fb37eeaca72729271025a9e260048201526000906001600160a01b038416906302571be390602401602060405180830381865afa158015620000af573d6000803e3d6000fd5b505050506040513d601f19601f82011682018060405250810190620000d59190620002cc565b604051630f41a04d60e11b81526001600160a01b03848116600483015291925090821690631e83409a906024016020604051808303816000875af115801562000122573d6000803e3d6000fd5b505050506040513d601f19601f82011682018060405250810190620001489190620002f3565b505050508484116200016d576040516307cb550760e31b815260040160405180910390fd5b428411156200018f57604051630b4319e560e21b815260040160405180910390fd5b506001600160a01b03958616608052600180546001600160a01b0319169587169590951790945560a09290925260c052821660e05216610100526200030d565b600080546001600160a01b038381166001600160a01b0319831681178455604051919092169283917f8be0079c531659141344cd1fd0a4f28419497f9722a3daafe3b4186f6b6457e09190a35050565b6001600160a01b03811681146200023557600080fd5b50565b600080600080600080600060e0888a0312156200025457600080fd5b875162000261816200021f565b602089015190975062000274816200021f565b809650506040880151945060608801519350608088015162000296816200021f565b60a0890151909350620002a9816200021f565b60c0890151909250620002bc816200021f565b8091505092959891949750929550565b600060208284031215620002df57600080fd5b8151620002ec816200021f565b9392505050565b6000602082840312156200030657600080fd5b5051919050565b60805160a05160c05160e0516101005161205262000383600039600081816103f701528181610a7f0152610d240152600081816102d5015261143a01526000818161045e01528181610fbf0152611228015260008181610385015261119f0152600081816107100152610e7501526120526000f3fe60806040526004361061018b5760003560e01c80638c254c0b116100d6578063aeb8ce9b1161007f578063dc2f786711610059578063dc2f7867146104a0578063f14fcbc8146104c0578063f2fde38b146104e057600080fd5b8063aeb8ce9b1461042c578063ce1e09c01461044c578063d3419bf31461048057600080fd5b80639791c097116100b05780639791c097146103c5578063a8e5fbc0146103e5578063acf1a8411461041957600080fd5b80638c254c0b146103535780638d839ffe146103735780638da5cb5b146103a757600080fd5b806365a69dcf11610138578063808698531161011257806380869853146102c3578063839df9451461030f5780638a95b09f1461033c57600080fd5b806365a69dcf1461027b578063715018a61461029b57806374694a2b146102b057600080fd5b80633ccfd60b116101695780633ccfd60b1461020b57806344d31f06146102205780635d3590d51461025b57600080fd5b806301ffc9a7146101905780631ee0f10d146101c55780633b324790146101e9575b600080fd5b34801561019c57600080fd5b506101b06101ab36600461167b565b610500565b60405190151581526020015b60405180910390f35b3480156101d157600080fd5b506101db60025481565b6040519081526020016101bc565b3480156101f557600080fd5b506102096102043660046116d2565b610599565b005b34801561021757600080fd5b50610209610672565b34801561022c57600080fd5b5061024061023b3660046117b4565b6106af565b604080518251815260209283015192810192909252016101bc565b34801561026757600080fd5b5061020961027636600461180f565b6107e5565b34801561028757600080fd5b506101db6102963660046118c1565b61087f565b3480156102a757600080fd5b5061020961091d565b6102096102be3660046119cc565b610931565b3480156102cf57600080fd5b506102f77f000000000000000000000000000000000000000000000000000000000000000081565b6040516001600160a01b0390911681526020016101bc565b34801561031b57600080fd5b506101db61032a366004611a9b565b60046020526000908152604090205481565b34801561034857600080fd5b506101db6224ea0081565b34801561035f57600080fd5b506003546102f7906001600160a01b031681565b34801561037f57600080fd5b506101db7f000000000000000000000000000000000000000000000000000000000000000081565b3480156103b357600080fd5b506000546001600160a01b03166102f7565b3480156103d157600080fd5b506101b06103e0366004611ab4565b610c4f565b3480156103f157600080fd5b506102f77f000000000000000000000000000000000000000000000000000000000000000081565b610209610427366004611af1565b610c65565b34801561043857600080fd5b506101b0610447366004611ab4565b610e2c565b34801561045857600080fd5b506101db7f000000000000000000000000000000000000000000000000000000000000000081565b34801561048c57600080fd5b506001546102f7906001600160a01b031681565b3480156104ac57600080fd5b506102096104bb366004611a9b565b610eef565b3480156104cc57600080fd5b506102096104db366004611a9b565b610fa8565b3480156104ec57600080fd5b506102096104fb3660046116d2565b611044565b60007fffffffff0000000000000000000000000000000000000000000000000000000082167f01ffc9a700000000000000000000000000000000000000000000000000000000148061059357507fffffffff0000000000000000000000000000000000000000000000000000000082167fa61a65f000000000000000000000000000000000000000000000000000000000145b92915050565b6105a16110d1565b6001600160a01b0381166105fc5760405162461bcd60e51b815260206004820152601d60248201527f4552524f523a20507269636573206973207a65726f206164647265737300000060448201526064015b60405180910390fd5b600154604080516001600160a01b03928316815291831660208301527f062da1737d3c3a6daed7e4acf0ffe363e818dc36e1c61230cccf0bae9d217d07910160405180910390a16001805473ffffffffffffffffffffffffffffffffffffffff19166001600160a01b0392909216919091179055565b600080546040516001600160a01b03909116914780156108fc02929091818181858888f193505050501580156106ac573d6000803e3d6000fd5b50565b6040805180820190915260008082526020820152835160208501206001546040517fd6e4fa86000000000000000000000000000000000000000000000000000000008152600481018390526001600160a01b03918216916389fce6199188917f0000000000000000000000000000000000000000000000000000000000000000169063d6e4fa8690602401602060405180830381865afa158015610757573d6000803e3d6000fd5b505050506040513d601f19601f8201168201806040525081019061077b9190611b3d565b87876040518563ffffffff1660e01b815260040161079c9493929190611ba6565b6040805180830381865afa1580156107b8573d6000803e3d6000fd5b505050506040513d601f19601f820116820180604052508101906107dc9190611bde565b95945050505050565b6107ed6110d1565b6040517fa9059cbb0000000000000000000000000000000000000000000000000000000081526001600160a01b0383811660048301526024820183905284169063a9059cbb906044016020604051808303816000875af1158015610855573d6000803e3d6000fd5b505050506040513d601f19601f820116820180604052508101906108799190611c2d565b50505050565b885160208a0120600090841580159061089f57506001600160a01b038716155b156108d6576040517fd3f605c400000000000000000000000000000000000000000000000000000000815260040160405180910390fd5b808a8a8a8a8a8a8a8a6040516020016108f799989796959493929190611d05565b604051602081830303815290604052805190602001209150509998505050505050505050565b6109256110d1565b61092f600061112b565b565b60006109768b8b8080601f0160208091040260200160405190810160405280939291908181526020018383808284376000920191909152508c92503391506106af9050565b6020810151815191925061098991611d7d565b3410156109a95760405163044044a560e21b815260040160405180910390fd5b610a4c8b8b8080601f016020809104026020016040519081016040528093929190818152602001838380828437600081840152601f19601f8201169050808301925050505050505089610a478e8e8080601f016020809104026020016040519081016040528093929190818152602001838380828437600081840152601f19601f820116905080830192505050505050508d8d8d8d8d8d8d8d61087f565b611188565b6040517fa40149820000000000000000000000000000000000000000000000000000000081526000906001600160a01b037f0000000000000000000000000000000000000000000000000000000000000000169063a401498290610abe908f908f908f908f908e908b90600401611d90565b6020604051808303816000875af1158015610add573d6000803e3d6000fd5b505050506040513d601f19601f82011682018060405250810190610b019190611b3d565b90508415610b2c57610b2c878d8d604051610b1d929190611dda565b60405180910390208888611355565b8315610b7557610b758c8c8080601f0160208091040260200160405190810160405280939291908181526020018383808284376000920191909152508b92503391506114389050565b896001600160a01b03168c8c604051610b8f929190611dda565b60405180910390207f69e37f151eb98a09618ddaa80c8cfaf1ce5996867c489f45b555b412271ebf278e8e8660000151876020015187604051610bd6959493929190611dea565b60405180910390a360208201518251610bef9190611d7d565b341115610c41576020820151825133916108fc91610c0d9190611d7d565b610c179034611e1b565b6040518115909202916000818181858888f19350505050158015610c3f573d6000803e3d6000fd5b505b505050505050505050505050565b6000600254610c5d836114ec565b101592915050565b60008383604051610c77929190611dda565b604080519182900382206020601f870181900481028401810190925285835292508291600091610cc6919088908890819084018382808284376000920191909152508892503391506106af9050565b8051909150341015610ceb5760405163044044a560e21b815260040160405180910390fd5b6040517fc475abff00000000000000000000000000000000000000000000000000000000815260048101839052602481018590526000907f00000000000000000000000000000000000000000000000000000000000000006001600160a01b03169063c475abff906044016020604051808303816000875af1158015610d75573d6000803e3d6000fd5b505050506040513d601f19601f82011682018060405250810190610d999190611b3d565b8251909150341115610de157815133906108fc90610db79034611e1b565b6040518115909202916000818181858888f19350505050158015610ddf573d6000803e3d6000fd5b505b837f3da24c024582931cfaf8267d8ed24d13a82a8068d5bd337d30ec45cea4e506ae8888856000015185604051610e1b9493929190611e2e565b60405180910390a250505050505050565b80516020820120600090610e3f83610c4f565b8015610ee857506040517f96e494e8000000000000000000000000000000000000000000000000000000008152600481018290527f00000000000000000000000000000000000000000000000000000000000000006001600160a01b0316906396e494e890602401602060405180830381865afa158015610ec4573d6000803e3d6000fd5b505050506040513d601f19601f82011682018060405250810190610ee89190611c2d565b9392505050565b610ef76110d1565b60008111610f6d5760405162461bcd60e51b815260206004820152602160248201527f4552524f523a204d6178206d7573742062652067726561746572207468616e2060448201527f300000000000000000000000000000000000000000000000000000000000000060648201526084016105f3565b60028190556040518181527f0f520d1e728b5fb14adcc70f7ae7771acffba622d7aa24f66d1493075da5e8ab9060200160405180910390a150565b6000818152600460205260409020544290610fe4907f000000000000000000000000000000000000000000000000000000000000000090611d7d565b106110315760405162461bcd60e51b815260206004820181905260248201527f4552524f523a20556e65787069726564436f6d6d69746d656e7445786973747360448201526064016105f3565b6000908152600460205260409020429055565b61104c6110d1565b6001600160a01b0381166110c85760405162461bcd60e51b815260206004820152602660248201527f4f776e61626c653a206e6577206f776e657220697320746865207a65726f206160448201527f646472657373000000000000000000000000000000000000000000000000000060648201526084016105f3565b6106ac8161112b565b6000546001600160a01b0316331461092f5760405162461bcd60e51b815260206004820181905260248201527f4f776e61626c653a2063616c6c6572206973206e6f7420746865206f776e657260448201526064016105f3565b600080546001600160a01b0383811673ffffffffffffffffffffffffffffffffffffffff19831681178455604051919092169283917f8be0079c531659141344cd1fd0a4f28419497f9722a3daafe3b4186f6b6457e09190a35050565b60008181526004602052604090205442906111c4907f000000000000000000000000000000000000000000000000000000000000000090611d7d565b106112115760405162461bcd60e51b815260206004820152601760248201527f4552524f523a20436f6d6d69746d656e74546f6f4e657700000000000000000060448201526064016105f3565b600081815260046020526040902054429061124d907f000000000000000000000000000000000000000000000000000000000000000090611d7d565b1161129a5760405162461bcd60e51b815260206004820152601460248201527f4552524f523a20436f6d6d697420746f206f6c6400000000000000000000000060448201526064016105f3565b6112a383610e2c565b6112ef5760405162461bcd60e51b815260206004820152601760248201527f4552524f523a204e616d654e6f74417661696c61626c6500000000000000000060448201526064016105f3565b6000818152600460205260408120556224ea0082116113505760405162461bcd60e51b815260206004820152601760248201527f4552524f523a204475726174696f6e546f6f53686f727400000000000000000060448201526064016105f3565b505050565b604080517fd051e4f8cb1870f877b00266e1292322bea4c492a9933488e94d7c1a935e8dfa602080830191909152818301869052825180830384018152606083019384905280519101207fe32954eb0000000000000000000000000000000000000000000000000000000090925285906001600160a01b0382169063e32954eb906113e890859088908890606401611e55565b6000604051808303816000875af1158015611407573d6000803e3d6000fd5b505050506040513d6000823e601f3d908101601f1916820160405261142f9190810190611e6f565b50505050505050565b7f00000000000000000000000000000000000000000000000000000000000000006001600160a01b0316637a806d6b3383858760405160200161147b9190611f6e565b6040516020818303038152906040526040518563ffffffff1660e01b81526004016114a99493929190611faf565b6020604051808303816000875af11580156114c8573d6000803e3d6000fd5b505050506040513d601f19601f820116820180604052508101906108799190611b3d565b8051600090819081905b8082101561167257600085838151811061151257611512611fed565b01602001516001600160f81b03191690507f800000000000000000000000000000000000000000000000000000000000000081101561155d57611556600184611d7d565b925061165f565b7fe0000000000000000000000000000000000000000000000000000000000000006001600160f81b03198216101561159a57611556600284611d7d565b7ff0000000000000000000000000000000000000000000000000000000000000006001600160f81b0319821610156115d757611556600384611d7d565b7ff8000000000000000000000000000000000000000000000000000000000000006001600160f81b03198216101561161457611556600484611d7d565b7ffc000000000000000000000000000000000000000000000000000000000000006001600160f81b03198216101561165157611556600584611d7d565b61165c600684611d7d565b92505b508261166a81612003565b9350506114f6565b50909392505050565b60006020828403121561168d57600080fd5b81357fffffffff0000000000000000000000000000000000000000000000000000000081168114610ee857600080fd5b6001600160a01b03811681146106ac57600080fd5b6000602082840312156116e457600080fd5b8135610ee8816116bd565b634e487b7160e01b600052604160045260246000fd5b604051601f8201601f1916810167ffffffffffffffff8111828210171561172e5761172e6116ef565b604052919050565b600067ffffffffffffffff821115611750576117506116ef565b50601f01601f191660200190565b600082601f83011261176f57600080fd5b813561178261177d82611736565b611705565b81815284602083860101111561179757600080fd5b816020850160208301376000918101602001919091529392505050565b6000806000606084860312156117c957600080fd5b833567ffffffffffffffff8111156117e057600080fd5b6117ec8682870161175e565b935050602084013591506040840135611804816116bd565b809150509250925092565b60008060006060848603121561182457600080fd5b833561182f816116bd565b9250602084013561183f816116bd565b929592945050506040919091013590565b60008083601f84011261186257600080fd5b50813567ffffffffffffffff81111561187a57600080fd5b6020830191508360208260051b850101111561189557600080fd5b9250929050565b80151581146106ac57600080fd5b803561ffff811681146118bc57600080fd5b919050565b60008060008060008060008060006101008a8c0312156118e057600080fd5b893567ffffffffffffffff808211156118f857600080fd5b6119048d838e0161175e565b9a5060208c01359150611916826116bd565b90985060408b0135975060608b0135965060808b013590611936826116bd565b90955060a08b0135908082111561194c57600080fd5b506119598c828d01611850565b90955093505060c08a013561196d8161189c565b915061197b60e08b016118aa565b90509295985092959850929598565b60008083601f84011261199c57600080fd5b50813567ffffffffffffffff8111156119b457600080fd5b60208301915083602082850101111561189557600080fd5b6000806000806000806000806000806101008b8d0312156119ec57600080fd5b8a3567ffffffffffffffff80821115611a0457600080fd5b611a108e838f0161198a565b909c509a5060208d01359150611a25826116bd565b90985060408c0135975060608c0135965060808c013590611a45826116bd565b90955060a08c01359080821115611a5b57600080fd5b50611a688d828e01611850565b90955093505060c08b0135611a7c8161189c565b9150611a8a60e08c016118aa565b90509295989b9194979a5092959850565b600060208284031215611aad57600080fd5b5035919050565b600060208284031215611ac657600080fd5b813567ffffffffffffffff811115611add57600080fd5b611ae98482850161175e565b949350505050565b600080600060408486031215611b0657600080fd5b833567ffffffffffffffff811115611b1d57600080fd5b611b298682870161198a565b909790965060209590950135949350505050565b600060208284031215611b4f57600080fd5b5051919050565b60005b83811015611b71578181015183820152602001611b59565b50506000910152565b60008151808452611b92816020860160208601611b56565b601f01601f19169290920160200192915050565b608081526000611bb96080830187611b7a565b60208301959095525060408101929092526001600160a01b0316606090910152919050565b600060408284031215611bf057600080fd5b6040516040810181811067ffffffffffffffff82111715611c1357611c136116ef565b604052825181526020928301519281019290925250919050565b600060208284031215611c3f57600080fd5b8151610ee88161189c565b81835281816020850137506000828201602090810191909152601f909101601f19169091010190565b81835260006020808501808196508560051b810191508460005b87811015611cf85782840389528135601e19883603018112611cae57600080fd5b8701858101903567ffffffffffffffff811115611cca57600080fd5b803603821315611cd957600080fd5b611ce4868284611c4a565b9a87019a9550505090840190600101611c8d565b5091979650505050505050565b60006101008b83526001600160a01b03808c1660208501528a60408501528960608501528089166080850152508060a0840152611d458184018789611c73565b94151560c0840152505061ffff9190911660e090910152979650505050505050565b634e487b7160e01b600052601160045260246000fd5b8082018082111561059357610593611d67565b60a081526000611da460a08301888a611c4a565b90506001600160a01b03808716602084015285604084015280851660608401525061ffff83166080830152979650505050505050565b8183823760009101908152919050565b608081526000611dfe608083018789611c4a565b602083019590955250604081019290925260609091015292915050565b8181038181111561059357610593611d67565b606081526000611e42606083018688611c4a565b6020830194909452506040015292915050565b8381526040602082015260006107dc604083018486611c73565b60006020808385031215611e8257600080fd5b825167ffffffffffffffff80821115611e9a57600080fd5b818501915085601f830112611eae57600080fd5b815181811115611ec057611ec06116ef565b8060051b611ecf858201611705565b9182528381018501918581019089841115611ee957600080fd5b86860192505b83831015611f6157825185811115611f075760008081fd5b8601603f81018b13611f195760008081fd5b878101516040611f2b61177d83611736565b8281528d82848601011115611f405760008081fd5b611f4f838c8301848701611b56565b85525050509186019190860190611eef565b9998505050505050505050565b60008251611f80818460208701611b56565b7f2e7363726f6c6c00000000000000000000000000000000000000000000000000920191825250600701919050565b60006001600160a01b038087168352808616602084015280851660408401525060806060830152611fe36080830184611b7a565b9695505050505050565b634e487b7160e01b600052603260045260246000fd5b60006001820161201557612015611d67565b506001019056fea2646970667358221220156f9b8545c259c39312f753ee96cbd12cabb5efa88415fb91c51b08a627911864736f6c63430008110033",
  "linkReferences": {},
  "deployedLinkReferences": {}
}